{
  "_format": "hh-sol-artifact-1",
  "contractName": "DefiBeats",
  "sourceName": "contracts/DefiBeats.sol",
  "abi": [
    {
      "inputs": [],
      "stateMutability": "nonpayable",
      "type": "constructor"
    },
    {
      "anonymous": false,
      "inputs": [
        {
          "indexed": true,
          "internalType": "address",
          "name": "owner",
          "type": "address"
        },
        {
          "indexed": true,
          "internalType": "address",
          "name": "approved",
          "type": "address"
        },
        {
          "indexed": true,
          "internalType": "uint256",
          "name": "tokenId",
          "type": "uint256"
        }
      ],
      "name": "Approval",
      "type": "event"
    },
    {
      "anonymous": false,
      "inputs": [
        {
          "indexed": true,
          "internalType": "address",
          "name": "owner",
          "type": "address"
        },
        {
          "indexed": true,
          "internalType": "address",
          "name": "operator",
          "type": "address"
        },
        {
          "indexed": false,
          "internalType": "bool",
          "name": "approved",
          "type": "bool"
        }
      ],
      "name": "ApprovalForAll",
      "type": "event"
    },
    {
      "anonymous": false,
      "inputs": [
        {
          "indexed": true,
          "internalType": "address",
          "name": "previousOwner",
          "type": "address"
        },
        {
          "indexed": true,
          "internalType": "address",
          "name": "newOwner",
          "type": "address"
        }
      ],
      "name": "OwnershipTransferred",
      "type": "event"
    },
    {
      "anonymous": false,
      "inputs": [
        {
          "indexed": true,
          "internalType": "uint256",
          "name": "tokenId",
          "type": "uint256"
        },
        {
          "indexed": false,
          "internalType": "address",
          "name": "seller",
          "type": "address"
        },
        {
          "indexed": false,
          "internalType": "string",
          "name": "tokenUri",
          "type": "string"
        }
      ],
      "name": "SongCancelled",
      "type": "event"
    },
    {
      "anonymous": false,
      "inputs": [
        {
          "indexed": true,
          "internalType": "uint256",
          "name": "tokenId",
          "type": "uint256"
        },
        {
          "indexed": false,
          "internalType": "address",
          "name": "seller",
          "type": "address"
        },
        {
          "indexed": false,
          "internalType": "string",
          "name": "tokenUri",
          "type": "string"
        }
      ],
      "name": "SongListed",
      "type": "event"
    },
    {
      "anonymous": false,
      "inputs": [
        {
          "indexed": true,
          "internalType": "uint256",
          "name": "tokenId",
          "type": "uint256"
        },
        {
          "indexed": true,
          "internalType": "address",
          "name": "producer",
          "type": "address"
        },
        {
          "indexed": false,
          "internalType": "string",
          "name": "tokenUri",
          "type": "string"
        }
      ],
      "name": "SongMade",
      "type": "event"
    },
    {
      "anonymous": false,
      "inputs": [
        {
          "indexed": true,
          "internalType": "uint256",
          "name": "tokenId",
          "type": "uint256"
        },
        {
          "indexed": false,
          "internalType": "address",
          "name": "seller",
          "type": "address"
        },
        {
          "indexed": false,
          "internalType": "string",
          "name": "tokenUri",
          "type": "string"
        },
        {
          "indexed": true,
          "internalType": "uint256",
          "name": "price",
          "type": "uint256"
        }
      ],
      "name": "SongPurchased",
      "type": "event"
    },
    {
      "anonymous": false,
      "inputs": [
        {
          "indexed": true,
          "internalType": "address",
          "name": "from",
          "type": "address"
        },
        {
          "indexed": true,
          "internalType": "address",
          "name": "to",
          "type": "address"
        },
        {
          "indexed": true,
          "internalType": "uint256",
          "name": "tokenId",
          "type": "uint256"
        }
      ],
      "name": "Transfer",
      "type": "event"
    },
    {
      "inputs": [],
      "name": "admin",
      "outputs": [
        {
          "internalType": "address",
          "name": "",
          "type": "address"
        }
      ],
      "stateMutability": "view",
      "type": "function"
    },
    {
      "inputs": [
        {
          "internalType": "uint256",
          "name": "",
          "type": "uint256"
        }
      ],
      "name": "allSongs",
      "outputs": [
        {
          "internalType": "uint256",
          "name": "tokenId",
          "type": "uint256"
        },
        {
          "internalType": "string",
          "name": "name",
          "type": "string"
        },
        {
          "internalType": "string",
          "name": "collection",
          "type": "string"
        },
        {
          "internalType": "address payable",
          "name": "currentOwner",
          "type": "address"
        },
        {
          "internalType": "string",
          "name": "tokenUri",
          "type": "string"
        },
        {
          "internalType": "uint256",
          "name": "price",
          "type": "uint256"
        },
        {
          "internalType": "bool",
          "name": "isForSale",
          "type": "bool"
        },
        {
          "internalType": "address payable",
          "name": "originalProducer",
          "type": "address"
        }
      ],
      "stateMutability": "view",
      "type": "function"
    },
    {
      "inputs": [
        {
          "internalType": "address",
          "name": "to",
          "type": "address"
        },
        {
          "internalType": "uint256",
          "name": "tokenId",
          "type": "uint256"
        }
      ],
      "name": "approve",
      "outputs": [],
      "stateMutability": "nonpayable",
      "type": "function"
    },
    {
      "inputs": [
        {
          "internalType": "address",
          "name": "owner",
          "type": "address"
        }
      ],
      "name": "balanceOf",
      "outputs": [
        {
          "internalType": "uint256",
          "name": "",
          "type": "uint256"
        }
      ],
      "stateMutability": "view",
      "type": "function"
    },
    {
      "inputs": [
        {
          "internalType": "uint256",
          "name": "songNumber",
          "type": "uint256"
        }
      ],
      "name": "buySong",
      "outputs": [],
      "stateMutability": "payable",
      "type": "function"
    },
    {
      "inputs": [
        {
          "internalType": "uint256",
          "name": "songNumber",
          "type": "uint256"
        }
      ],
      "name": "cancelListing",
      "outputs": [],
      "stateMutability": "nonpayable",
      "type": "function"
    },
    {
      "inputs": [
        {
          "internalType": "address",
          "name": "newAdmin",
          "type": "address"
        }
      ],
      "name": "changeAdmin",
      "outputs": [
        {
          "internalType": "address",
          "name": "",
          "type": "address"
        }
      ],
      "stateMutability": "nonpayable",
      "type": "function"
    },
    {
      "inputs": [
        {
          "internalType": "address",
          "name": "newFeeAddress",
          "type": "address"
        }
      ],
      "name": "changeFeeAccount",
      "outputs": [
        {
          "internalType": "address",
          "name": "",
          "type": "address"
        }
      ],
      "stateMutability": "nonpayable",
      "type": "function"
    },
    {
      "inputs": [],
      "name": "feeAccount",
      "outputs": [
        {
          "internalType": "address payable",
          "name": "",
          "type": "address"
        }
      ],
      "stateMutability": "view",
      "type": "function"
    },
    {
      "inputs": [
        {
          "internalType": "uint256",
          "name": "tokenId",
          "type": "uint256"
        }
      ],
      "name": "getApproved",
      "outputs": [
        {
          "internalType": "address",
          "name": "",
          "type": "address"
        }
      ],
      "stateMutability": "view",
      "type": "function"
    },
    {
      "inputs": [
        {
          "internalType": "address",
          "name": "owner",
          "type": "address"
        },
        {
          "internalType": "address",
          "name": "operator",
          "type": "address"
        }
      ],
      "name": "isApprovedForAll",
      "outputs": [
        {
          "internalType": "bool",
          "name": "",
          "type": "bool"
        }
      ],
      "stateMutability": "view",
      "type": "function"
    },
    {
      "inputs": [
        {
          "internalType": "uint256",
          "name": "songNumber",
          "type": "uint256"
        },
        {
          "internalType": "uint256",
          "name": "songPrice",
          "type": "uint256"
        }
      ],
      "name": "listSong",
      "outputs": [],
      "stateMutability": "nonpayable",
      "type": "function"
    },
    {
      "inputs": [
        {
          "internalType": "string",
          "name": "_tokenUri",
          "type": "string"
        },
        {
          "internalType": "string",
          "name": "songName",
          "type": "string"
        },
        {
          "internalType": "string",
          "name": "collection",
          "type": "string"
        }
      ],
      "name": "makeSong",
      "outputs": [
        {
          "internalType": "uint256",
          "name": "",
          "type": "uint256"
        }
      ],
      "stateMutability": "payable",
      "type": "function"
    },
    {
      "inputs": [],
      "name": "name",
      "outputs": [
        {
          "internalType": "string",
          "name": "",
          "type": "string"
        }
      ],
      "stateMutability": "view",
      "type": "function"
    },
    {
      "inputs": [],
      "name": "owner",
      "outputs": [
        {
          "internalType": "address",
          "name": "",
          "type": "address"
        }
      ],
      "stateMutability": "view",
      "type": "function"
    },
    {
      "inputs": [
        {
          "internalType": "uint256",
          "name": "tokenId",
          "type": "uint256"
        }
      ],
      "name": "ownerOf",
      "outputs": [
        {
          "internalType": "address",
          "name": "",
          "type": "address"
        }
      ],
      "stateMutability": "view",
      "type": "function"
    },
    {
      "inputs": [
        {
          "internalType": "uint256",
          "name": "",
          "type": "uint256"
        }
      ],
      "name": "ownerOfNft",
      "outputs": [
        {
          "internalType": "address",
          "name": "",
          "type": "address"
        }
      ],
      "stateMutability": "view",
      "type": "function"
    },
    {
      "inputs": [],
      "name": "renounceOwnership",
      "outputs": [],
      "stateMutability": "nonpayable",
      "type": "function"
    },
    {
      "inputs": [],
      "name": "returnAllSongs",
      "outputs": [
        {
          "components": [
            {
              "internalType": "uint256",
              "name": "tokenId",
              "type": "uint256"
            },
            {
              "internalType": "string",
              "name": "name",
              "type": "string"
            },
            {
              "internalType": "string",
              "name": "collection",
              "type": "string"
            },
            {
              "internalType": "address payable",
              "name": "currentOwner",
              "type": "address"
            },
            {
              "internalType": "string",
              "name": "tokenUri",
              "type": "string"
            },
            {
              "internalType": "uint256",
              "name": "price",
              "type": "uint256"
            },
            {
              "internalType": "bool",
              "name": "isForSale",
              "type": "bool"
            },
            {
              "internalType": "address payable",
              "name": "originalProducer",
              "type": "address"
            }
          ],
          "internalType": "struct DefiBeats.Song[]",
          "name": "",
          "type": "tuple[]"
        }
      ],
      "stateMutability": "view",
      "type": "function"
    },
    {
      "inputs": [],
      "name": "royaltyFee",
      "outputs": [
        {
          "internalType": "uint256",
          "name": "",
          "type": "uint256"
        }
      ],
      "stateMutability": "view",
      "type": "function"
    },
    {
      "inputs": [
        {
          "internalType": "address",
          "name": "from",
          "type": "address"
        },
        {
          "internalType": "address",
          "name": "to",
          "type": "address"
        },
        {
          "internalType": "uint256",
          "name": "tokenId",
          "type": "uint256"
        }
      ],
      "name": "safeTransferFrom",
      "outputs": [],
      "stateMutability": "nonpayable",
      "type": "function"
    },
    {
      "inputs": [
        {
          "internalType": "address",
          "name": "from",
          "type": "address"
        },
        {
          "internalType": "address",
          "name": "to",
          "type": "address"
        },
        {
          "internalType": "uint256",
          "name": "tokenId",
          "type": "uint256"
        },
        {
          "internalType": "bytes",
          "name": "data",
          "type": "bytes"
        }
      ],
      "name": "safeTransferFrom",
      "outputs": [],
      "stateMutability": "nonpayable",
      "type": "function"
    },
    {
      "inputs": [
        {
          "internalType": "address",
          "name": "operator",
          "type": "address"
        },
        {
          "internalType": "bool",
          "name": "approved",
          "type": "bool"
        }
      ],
      "name": "setApprovalForAll",
      "outputs": [],
      "stateMutability": "nonpayable",
      "type": "function"
    },
    {
      "inputs": [
        {
          "internalType": "uint256",
          "name": "",
          "type": "uint256"
        }
      ],
      "name": "songs",
      "outputs": [
        {
          "internalType": "uint256",
          "name": "tokenId",
          "type": "uint256"
        },
        {
          "internalType": "string",
          "name": "name",
          "type": "string"
        },
        {
          "internalType": "string",
          "name": "collection",
          "type": "string"
        },
        {
          "internalType": "address payable",
          "name": "currentOwner",
          "type": "address"
        },
        {
          "internalType": "string",
          "name": "tokenUri",
          "type": "string"
        },
        {
          "internalType": "uint256",
          "name": "price",
          "type": "uint256"
        },
        {
          "internalType": "bool",
          "name": "isForSale",
          "type": "bool"
        },
        {
          "internalType": "address payable",
          "name": "originalProducer",
          "type": "address"
        }
      ],
      "stateMutability": "view",
      "type": "function"
    },
    {
      "inputs": [
        {
          "internalType": "bytes4",
          "name": "interfaceId",
          "type": "bytes4"
        }
      ],
      "name": "supportsInterface",
      "outputs": [
        {
          "internalType": "bool",
          "name": "",
          "type": "bool"
        }
      ],
      "stateMutability": "view",
      "type": "function"
    },
    {
      "inputs": [],
      "name": "symbol",
      "outputs": [
        {
          "internalType": "string",
          "name": "",
          "type": "string"
        }
      ],
      "stateMutability": "view",
      "type": "function"
    },
    {
      "inputs": [],
      "name": "tokenCount",
      "outputs": [
        {
          "internalType": "uint256",
          "name": "",
          "type": "uint256"
        }
      ],
      "stateMutability": "view",
      "type": "function"
    },
    {
      "inputs": [
        {
          "internalType": "uint256",
          "name": "tokenId",
          "type": "uint256"
        }
      ],
      "name": "tokenURI",
      "outputs": [
        {
          "internalType": "string",
          "name": "",
          "type": "string"
        }
      ],
      "stateMutability": "view",
      "type": "function"
    },
    {
      "inputs": [],
      "name": "transactionFee",
      "outputs": [
        {
          "internalType": "uint256",
          "name": "",
          "type": "uint256"
        }
      ],
      "stateMutability": "view",
      "type": "function"
    },
    {
      "inputs": [
        {
          "internalType": "address",
          "name": "from",
          "type": "address"
        },
        {
          "internalType": "address",
          "name": "to",
          "type": "address"
        },
        {
          "internalType": "uint256",
          "name": "tokenId",
          "type": "uint256"
        }
      ],
      "name": "transferFrom",
      "outputs": [],
      "stateMutability": "nonpayable",
      "type": "function"
    },
    {
      "inputs": [
        {
          "internalType": "address",
          "name": "newOwner",
          "type": "address"
        }
      ],
      "name": "transferOwnership",
      "outputs": [],
      "stateMutability": "nonpayable",
      "type": "function"
    },
    {
      "inputs": [
        {
          "internalType": "uint256",
          "name": "_newFeeAmount",
          "type": "uint256"
        }
      ],
      "name": "updateFee",
      "outputs": [
        {
          "internalType": "uint256",
          "name": "",
          "type": "uint256"
        }
      ],
      "stateMutability": "nonpayable",
      "type": "function"
    },
    {
      "inputs": [
        {
          "internalType": "uint256",
          "name": "songNumber",
          "type": "uint256"
        },
        {
          "internalType": "uint256",
          "name": "newPrice",
          "type": "uint256"
        }
      ],
      "name": "updateListingPrice",
      "outputs": [],
      "stateMutability": "nonpayable",
      "type": "function"
    },
    {
      "inputs": [
        {
          "internalType": "uint256",
          "name": "_newFeeAmount",
          "type": "uint256"
        }
      ],
      "name": "updateRoyaltyFee",
      "outputs": [
        {
          "internalType": "uint256",
          "name": "",
          "type": "uint256"
        }
      ],
      "stateMutability": "nonpayable",
      "type": "function"
    }
  ],
  "bytecode": "0x60806040526001600a556001600b553480156200001b57600080fd5b506040518060400160405280600981526020017f44656669426561747300000000000000000000000000000000000000000000008152506040518060400160405280600381526020017f444642000000000000000000000000000000000000000000000000000000000081525081600090816200009991906200049e565b508060019081620000ab91906200049e565b505050620000ce620000c26200015660201b60201c565b6200015e60201b60201c565b33600c60006101000a81548173ffffffffffffffffffffffffffffffffffffffff021916908373ffffffffffffffffffffffffffffffffffffffff16021790555033600d60006101000a81548173ffffffffffffffffffffffffffffffffffffffff021916908373ffffffffffffffffffffffffffffffffffffffff16021790555062000585565b600033905090565b6000600760009054906101000a900473ffffffffffffffffffffffffffffffffffffffff16905081600760006101000a81548173ffffffffffffffffffffffffffffffffffffffff021916908373ffffffffffffffffffffffffffffffffffffffff1602179055508173ffffffffffffffffffffffffffffffffffffffff168173ffffffffffffffffffffffffffffffffffffffff167f8be0079c531659141344cd1fd0a4f28419497f9722a3daafe3b4186f6b6457e060405160405180910390a35050565b600081519050919050565b7f4e487b7100000000000000000000000000000000000000000000000000000000600052604160045260246000fd5b7f4e487b7100000000000000000000000000000000000000000000000000000000600052602260045260246000fd5b60006002820490506001821680620002a657607f821691505b602082108103620002bc57620002bb6200025e565b5b50919050565b60008190508160005260206000209050919050565b60006020601f8301049050919050565b600082821b905092915050565b600060088302620003267fffffffffffffffffffffffffffffffffffffffffffffffffffffffffffffffff82620002e7565b620003328683620002e7565b95508019841693508086168417925050509392505050565b6000819050919050565b6000819050919050565b60006200037f6200037962000373846200034a565b62000354565b6200034a565b9050919050565b6000819050919050565b6200039b836200035e565b620003b3620003aa8262000386565b848454620002f4565b825550505050565b600090565b620003ca620003bb565b620003d781848462000390565b505050565b5b81811015620003ff57620003f3600082620003c0565b600181019050620003dd565b5050565b601f8211156200044e576200041881620002c2565b6200042384620002d7565b8101602085101562000433578190505b6200044b6200044285620002d7565b830182620003dc565b50505b505050565b600082821c905092915050565b6000620004736000198460080262000453565b1980831691505092915050565b60006200048e838362000460565b9150826002028217905092915050565b620004a98262000224565b67ffffffffffffffff811115620004c557620004c46200022f565b5b620004d182546200028d565b620004de82828562000403565b600060209050601f83116001811462000516576000841562000501578287015190505b6200050d858262000480565b8655506200057d565b601f1984166200052686620002c2565b60005b82811015620005505784890151825560018201915060208501945060208101905062000529565b868310156200057057848901516200056c601f89168262000460565b8355505b6001600288020188555050505b505050505050565b614cd080620005956000396000f3fe6080604052600436106101f95760003560e01c80638da5cb5b1161010d578063a6b46a6f116100a0578063c46049431161006f578063c460494314610785578063c87b56dd146107ae578063e985e9c5146107eb578063f2fde38b14610828578063f851a44014610851576101f9565b8063a6b46a6f146106b0578063b88d4fde146106f4578063b8997a971461071d578063b922f94c14610748576101f9565b806395d89b41116100dc57806395d89b41146106065780639ed3edf0146106315780639f181b5e1461065c578063a22cb46514610687576101f9565b80638da5cb5b146105385780638f283970146105635780638fc59a8a146105a05780639012c4a8146105c9576101f9565b806342842e0e116101905780636352211e1161015f5780636352211e1461043f57806365e17c9d1461047c57806370a08231146104a7578063715018a6146104e457806371ffcb16146104fb576101f9565b806342842e0e1461038d578063451c67fd146103b65780634e83be47146103e6578063606a017514610423576101f9565b8063095ea7b3116101cc578063095ea7b3146102ce57806323b872dd146102f7578063304cff3014610320578063305a67a814610364576101f9565b806301ffc9a7146101fe578063056ccfcf1461023b57806306fdde0314610266578063081812fc14610291575b600080fd5b34801561020a57600080fd5b50610225600480360381019061022091906133c0565b61087c565b6040516102329190613408565b60405180910390f35b34801561024757600080fd5b5061025061095e565b60405161025d919061369c565b60405180910390f35b34801561027257600080fd5b5061027b610cc2565b6040516102889190613708565b60405180910390f35b34801561029d57600080fd5b506102b860048036038101906102b39190613756565b610d54565b6040516102c591906137a4565b60405180910390f35b3480156102da57600080fd5b506102f560048036038101906102f091906137eb565b610d9a565b005b34801561030357600080fd5b5061031e6004803603810190610319919061382b565b610eb1565b005b34801561032c57600080fd5b5061034760048036038101906103429190613756565b610f11565b60405161035b98979695949392919061389c565b60405180910390f35b34801561037057600080fd5b5061038b60048036038101906103869190613756565b61113e565b005b34801561039957600080fd5b506103b460048036038101906103af919061382b565b611262565b005b6103d060048036038101906103cb9190613a64565b611282565b6040516103dd9190613b0b565b60405180910390f35b3480156103f257600080fd5b5061040d60048036038101906104089190613756565b611693565b60405161041a9190613b0b565b60405180910390f35b61043d60048036038101906104389190613756565b6116fc565b005b34801561044b57600080fd5b5061046660048036038101906104619190613756565b611998565b60405161047391906137a4565b60405180910390f35b34801561048857600080fd5b50610491611a49565b60405161049e9190613b26565b60405180910390f35b3480156104b357600080fd5b506104ce60048036038101906104c99190613b41565b611a6f565b6040516104db9190613b0b565b60405180910390f35b3480156104f057600080fd5b506104f9611b26565b005b34801561050757600080fd5b50610522600480360381019061051d9190613b41565b611b3a565b60405161052f91906137a4565b60405180910390f35b34801561054457600080fd5b5061054d611bdd565b60405161055a91906137a4565b60405180910390f35b34801561056f57600080fd5b5061058a60048036038101906105859190613b41565b611c07565b60405161059791906137a4565b60405180910390f35b3480156105ac57600080fd5b506105c760048036038101906105c29190613b6e565b611caa565b005b3480156105d557600080fd5b506105f060048036038101906105eb9190613756565b611e00565b6040516105fd9190613b0b565b60405180910390f35b34801561061257600080fd5b5061061b611e69565b6040516106289190613708565b60405180910390f35b34801561063d57600080fd5b50610646611efb565b6040516106539190613b0b565b60405180910390f35b34801561066857600080fd5b50610671611f01565b60405161067e9190613b0b565b60405180910390f35b34801561069357600080fd5b506106ae60048036038101906106a99190613bda565b611f07565b005b3480156106bc57600080fd5b506106d760048036038101906106d29190613756565b611f1d565b6040516106eb98979695949392919061389c565b60405180910390f35b34801561070057600080fd5b5061071b60048036038101906107169190613cbb565b61215a565b005b34801561072957600080fd5b506107326121bc565b60405161073f9190613b0b565b60405180910390f35b34801561075457600080fd5b5061076f600480360381019061076a9190613756565b6121c2565b60405161077c91906137a4565b60405180910390f35b34801561079157600080fd5b506107ac60048036038101906107a79190613b6e565b6121f5565b005b3480156107ba57600080fd5b506107d560048036038101906107d09190613756565b6122ac565b6040516107e29190613708565b60405180910390f35b3480156107f757600080fd5b50610812600480360381019061080d9190613d3e565b6123be565b60405161081f9190613408565b60405180910390f35b34801561083457600080fd5b5061084f600480360381019061084a9190613b41565b612452565b005b34801561085d57600080fd5b506108666124d5565b60405161087391906137a4565b60405180910390f35b60007f80ac58cd000000000000000000000000000000000000000000000000000000007bffffffffffffffffffffffffffffffffffffffffffffffffffffffff1916827bffffffffffffffffffffffffffffffffffffffffffffffffffffffff1916148061094757507f5b5e139f000000000000000000000000000000000000000000000000000000007bffffffffffffffffffffffffffffffffffffffffffffffffffffffff1916827bffffffffffffffffffffffffffffffffffffffffffffffffffffffff1916145b806109575750610956826124fb565b5b9050919050565b6060600060095467ffffffffffffffff81111561097e5761097d613939565b5b6040519080825280602002602001820160405280156109b757816020015b6109a46132e1565b81526020019060019003908161099c5790505b50905060005b601080549050811015610cba57601081815481106109de576109dd613d7e565b5b90600052602060002090600702016040518061010001604052908160008201548152602001600182018054610a1290613ddc565b80601f0160208091040260200160405190810160405280929190818152602001828054610a3e90613ddc565b8015610a8b5780601f10610a6057610100808354040283529160200191610a8b565b820191906000526020600020905b815481529060010190602001808311610a6e57829003601f168201915b50505050508152602001600282018054610aa490613ddc565b80601f0160208091040260200160405190810160405280929190818152602001828054610ad090613ddc565b8015610b1d5780601f10610af257610100808354040283529160200191610b1d565b820191906000526020600020905b815481529060010190602001808311610b0057829003601f168201915b505050505081526020016003820160009054906101000a900473ffffffffffffffffffffffffffffffffffffffff1673ffffffffffffffffffffffffffffffffffffffff1673ffffffffffffffffffffffffffffffffffffffff168152602001600482018054610b8c90613ddc565b80601f0160208091040260200160405190810160405280929190818152602001828054610bb890613ddc565b8015610c055780601f10610bda57610100808354040283529160200191610c05565b820191906000526020600020905b815481529060010190602001808311610be857829003601f168201915b50505050508152602001600582015481526020016006820160009054906101000a900460ff161515151581526020016006820160019054906101000a900473ffffffffffffffffffffffffffffffffffffffff1673ffffffffffffffffffffffffffffffffffffffff1673ffffffffffffffffffffffffffffffffffffffff1681525050828281518110610c9c57610c9b613d7e565b5b60200260200101819052508080610cb290613e3c565b9150506109bd565b508091505090565b606060008054610cd190613ddc565b80601f0160208091040260200160405190810160405280929190818152602001828054610cfd90613ddc565b8015610d4a5780601f10610d1f57610100808354040283529160200191610d4a565b820191906000526020600020905b815481529060010190602001808311610d2d57829003601f168201915b5050505050905090565b6000610d5f82612565565b6004600083815260200190815260200160002060009054906101000a900473ffffffffffffffffffffffffffffffffffffffff169050919050565b6000610da582611998565b90508073ffffffffffffffffffffffffffffffffffffffff168373ffffffffffffffffffffffffffffffffffffffff1603610e15576040517f08c379a0000000000000000000000000000000000000000000000000000000008152600401610e0c90613ef6565b60405180910390fd5b8073ffffffffffffffffffffffffffffffffffffffff16610e346125b0565b73ffffffffffffffffffffffffffffffffffffffff161480610e635750610e6281610e5d6125b0565b6123be565b5b610ea2576040517f08c379a0000000000000000000000000000000000000000000000000000000008152600401610e9990613f88565b60405180910390fd5b610eac83836125b8565b505050565b610ec2610ebc6125b0565b82612671565b610f01576040517f08c379a0000000000000000000000000000000000000000000000000000000008152600401610ef89061401a565b60405180910390fd5b610f0c838383612706565b505050565b600f602052806000526040600020600091509050806000015490806001018054610f3a90613ddc565b80601f0160208091040260200160405190810160405280929190818152602001828054610f6690613ddc565b8015610fb35780601f10610f8857610100808354040283529160200191610fb3565b820191906000526020600020905b815481529060010190602001808311610f9657829003601f168201915b505050505090806002018054610fc890613ddc565b80601f0160208091040260200160405190810160405280929190818152602001828054610ff490613ddc565b80156110415780601f1061101657610100808354040283529160200191611041565b820191906000526020600020905b81548152906001019060200180831161102457829003601f168201915b5050505050908060030160009054906101000a900473ffffffffffffffffffffffffffffffffffffffff169080600401805461107c90613ddc565b80601f01602080910402602001604051908101604052809291908181526020018280546110a890613ddc565b80156110f55780601f106110ca576101008083540402835291602001916110f5565b820191906000526020600020905b8154815290600101906020018083116110d857829003601f168201915b5050505050908060050154908060060160009054906101000a900460ff16908060060160019054906101000a900473ffffffffffffffffffffffffffffffffffffffff16905088565b6000600f600083815260200190815260200160002090508060030160009054906101000a900473ffffffffffffffffffffffffffffffffffffffff1673ffffffffffffffffffffffffffffffffffffffff163373ffffffffffffffffffffffffffffffffffffffff16146111e7576040517f08c379a00000000000000000000000000000000000000000000000000000000081526004016111de906140ac565b60405180910390fd5b6111f630338360000154612706565b60008160060160006101000a81548160ff0219169083151502179055506000816005018190555080600001547f0151dfa0184160d46fa1bdc2b7c8354feb0cf4893c3d8c911d04d50314d879d03383600401604051611256929190614165565b60405180910390a25050565b61127d8383836040518060200160405280600081525061215a565b505050565b600061128e600861296c565b600960008154809291906112a190613e3c565b919050555060006112b26008612982565b90506112be3382612990565b33600e600083815260200190815260200160002060006101000a81548173ffffffffffffffffffffffffffffffffffffffff021916908373ffffffffffffffffffffffffffffffffffffffff16021790555061131a8186612b69565b6040518061010001604052808281526020018581526020018481526020013373ffffffffffffffffffffffffffffffffffffffff168152602001868152602001600081526020016000151581526020013373ffffffffffffffffffffffffffffffffffffffff16815250600f60008381526020019081526020016000206000820151816000015560208201518160010190816113b6919061432c565b5060408201518160020190816113cc919061432c565b5060608201518160030160006101000a81548173ffffffffffffffffffffffffffffffffffffffff021916908373ffffffffffffffffffffffffffffffffffffffff1602179055506080820151816004019081611429919061432c565b5060a0820151816005015560c08201518160060160006101000a81548160ff02191690831515021790555060e08201518160060160016101000a81548173ffffffffffffffffffffffffffffffffffffffff021916908373ffffffffffffffffffffffffffffffffffffffff16021790555090505060106040518061010001604052808381526020018681526020018581526020013373ffffffffffffffffffffffffffffffffffffffff168152602001878152602001600081526020016000151581526020013373ffffffffffffffffffffffffffffffffffffffff168152509080600181540180825580915050600190039060005260206000209060070201600090919091909150600082015181600001556020820151816001019081611552919061432c565b506040820151816002019081611568919061432c565b5060608201518160030160006101000a81548173ffffffffffffffffffffffffffffffffffffffff021916908373ffffffffffffffffffffffffffffffffffffffff16021790555060808201518160040190816115c5919061432c565b5060a0820151816005015560c08201518160060160006101000a81548160ff02191690831515021790555060e08201518160060160016101000a81548173ffffffffffffffffffffffffffffffffffffffff021916908373ffffffffffffffffffffffffffffffffffffffff16021790555050503373ffffffffffffffffffffffffffffffffffffffff16817f47a149be5ec47637b9e89787b9b21ff88b0b783100d80221f6a5edc5c8d77c40876040516116809190613708565b60405180910390a3809150509392505050565b6000600d60009054906101000a900473ffffffffffffffffffffffffffffffffffffffff1673ffffffffffffffffffffffffffffffffffffffff163373ffffffffffffffffffffffffffffffffffffffff16146116ef57600080fd5b81600b8190559050919050565b6000600f600083815260200190815260200160002090506000600a54600a54836005015461172a91906143fe565b61173491906143fe565b905080341015611779576040517f08c379a00000000000000000000000000000000000000000000000000000000081526004016117709061447e565b60405180910390fd5b6000600b54600a5461178b91906143fe565b90506000813461179b919061449e565b90508360060160019054906101000a900473ffffffffffffffffffffffffffffffffffffffff1673ffffffffffffffffffffffffffffffffffffffff166108fc600b549081150290604051600060405180830381858888f19350505050158015611809573d6000803e3d6000fd5b50600c60009054906101000a900473ffffffffffffffffffffffffffffffffffffffff1673ffffffffffffffffffffffffffffffffffffffff166108fc600a549081150290604051600060405180830381858888f19350505050158015611874573d6000803e3d6000fd5b508360030160009054906101000a900473ffffffffffffffffffffffffffffffffffffffff1673ffffffffffffffffffffffffffffffffffffffff166108fc829081150290604051600060405180830381858888f193505050501580156118df573d6000803e3d6000fd5b506118ef30338660000154612706565b338460030160006101000a81548173ffffffffffffffffffffffffffffffffffffffff021916908373ffffffffffffffffffffffffffffffffffffffff16021790555060008460060160006101000a81548160ff0219169083151502179055503484600001547f8500049995184367829fb7fae51b1cc359bdd658bae20e3e42f7788a4a72b9ec3387600401604051611989929190614165565b60405180910390a35050505050565b6000806002600084815260200190815260200160002060009054906101000a900473ffffffffffffffffffffffffffffffffffffffff169050600073ffffffffffffffffffffffffffffffffffffffff168173ffffffffffffffffffffffffffffffffffffffff1603611a40576040517f08c379a0000000000000000000000000000000000000000000000000000000008152600401611a379061451e565b60405180910390fd5b80915050919050565b600c60009054906101000a900473ffffffffffffffffffffffffffffffffffffffff1681565b60008073ffffffffffffffffffffffffffffffffffffffff168273ffffffffffffffffffffffffffffffffffffffff1603611adf576040517f08c379a0000000000000000000000000000000000000000000000000000000008152600401611ad6906145b0565b60405180910390fd5b600360008373ffffffffffffffffffffffffffffffffffffffff1673ffffffffffffffffffffffffffffffffffffffff168152602001908152602001600020549050919050565b611b2e612bd6565b611b386000612c54565b565b6000600d60009054906101000a900473ffffffffffffffffffffffffffffffffffffffff1673ffffffffffffffffffffffffffffffffffffffff163373ffffffffffffffffffffffffffffffffffffffff1614611b9657600080fd5b81600c60006101000a81548173ffffffffffffffffffffffffffffffffffffffff021916908373ffffffffffffffffffffffffffffffffffffffff16021790559050919050565b6000600760009054906101000a900473ffffffffffffffffffffffffffffffffffffffff16905090565b6000600d60009054906101000a900473ffffffffffffffffffffffffffffffffffffffff1673ffffffffffffffffffffffffffffffffffffffff163373ffffffffffffffffffffffffffffffffffffffff1614611c6357600080fd5b81600d60006101000a81548173ffffffffffffffffffffffffffffffffffffffff021916908373ffffffffffffffffffffffffffffffffffffffff16021790559050919050565b611cb382611998565b73ffffffffffffffffffffffffffffffffffffffff163373ffffffffffffffffffffffffffffffffffffffff1614611d20576040517f08c379a0000000000000000000000000000000000000000000000000000000008152600401611d179061461c565b60405180910390fd5b6000600f6000848152602001908152602001600020905060018160060160006101000a81548160ff021916908315150217905550818160050181905550338160030160006101000a81548173ffffffffffffffffffffffffffffffffffffffff021916908373ffffffffffffffffffffffffffffffffffffffff160217905550611dab306001611f07565b611dba33308360000154610eb1565b80600001547fe6c8782faa62f3a011302c0c76e85cec78d2d6afd27133ea7ab7a42b64abe93e3383600401604051611df3929190614165565b60405180910390a2505050565b6000600d60009054906101000a900473ffffffffffffffffffffffffffffffffffffffff1673ffffffffffffffffffffffffffffffffffffffff163373ffffffffffffffffffffffffffffffffffffffff1614611e5c57600080fd5b81600a8190559050919050565b606060018054611e7890613ddc565b80601f0160208091040260200160405190810160405280929190818152602001828054611ea490613ddc565b8015611ef15780601f10611ec657610100808354040283529160200191611ef1565b820191906000526020600020905b815481529060010190602001808311611ed457829003601f168201915b5050505050905090565b600a5481565b60095481565b611f19611f126125b0565b8383612d1a565b5050565b60108181548110611f2d57600080fd5b9060005260206000209060070201600091509050806000015490806001018054611f5690613ddc565b80601f0160208091040260200160405190810160405280929190818152602001828054611f8290613ddc565b8015611fcf5780601f10611fa457610100808354040283529160200191611fcf565b820191906000526020600020905b815481529060010190602001808311611fb257829003601f168201915b505050505090806002018054611fe490613ddc565b80601f016020809104026020016040519081016040528092919081815260200182805461201090613ddc565b801561205d5780601f106120325761010080835404028352916020019161205d565b820191906000526020600020905b81548152906001019060200180831161204057829003601f168201915b5050505050908060030160009054906101000a900473ffffffffffffffffffffffffffffffffffffffff169080600401805461209890613ddc565b80601f01602080910402602001604051908101604052809291908181526020018280546120c490613ddc565b80156121115780601f106120e657610100808354040283529160200191612111565b820191906000526020600020905b8154815290600101906020018083116120f457829003601f168201915b5050505050908060050154908060060160009054906101000a900460ff16908060060160019054906101000a900473ffffffffffffffffffffffffffffffffffffffff16905088565b61216b6121656125b0565b83612671565b6121aa576040517f08c379a00000000000000000000000000000000000000000000000000000000081526004016121a19061401a565b60405180910390fd5b6121b684848484612e86565b50505050565b600b5481565b600e6020528060005260406000206000915054906101000a900473ffffffffffffffffffffffffffffffffffffffff1681565b6000600f600084815260200190815260200160002090508060030160009054906101000a900473ffffffffffffffffffffffffffffffffffffffff1673ffffffffffffffffffffffffffffffffffffffff163373ffffffffffffffffffffffffffffffffffffffff161461229e576040517f08c379a0000000000000000000000000000000000000000000000000000000008152600401612295906140ac565b60405180910390fd5b818160050181905550505050565b60606122b782612565565b60006006600084815260200190815260200160002080546122d790613ddc565b80601f016020809104026020016040519081016040528092919081815260200182805461230390613ddc565b80156123505780601f1061232557610100808354040283529160200191612350565b820191906000526020600020905b81548152906001019060200180831161233357829003601f168201915b505050505090506000612361612ee2565b905060008151036123765781925050506123b9565b6000825111156123ab578082604051602001612393929190614678565b604051602081830303815290604052925050506123b9565b6123b484612ef9565b925050505b919050565b6000600560008473ffffffffffffffffffffffffffffffffffffffff1673ffffffffffffffffffffffffffffffffffffffff16815260200190815260200160002060008373ffffffffffffffffffffffffffffffffffffffff1673ffffffffffffffffffffffffffffffffffffffff16815260200190815260200160002060009054906101000a900460ff16905092915050565b61245a612bd6565b600073ffffffffffffffffffffffffffffffffffffffff168173ffffffffffffffffffffffffffffffffffffffff16036124c9576040517f08c379a00000000000000000000000000000000000000000000000000000000081526004016124c09061470e565b60405180910390fd5b6124d281612c54565b50565b600d60009054906101000a900473ffffffffffffffffffffffffffffffffffffffff1681565b60007f01ffc9a7000000000000000000000000000000000000000000000000000000007bffffffffffffffffffffffffffffffffffffffffffffffffffffffff1916827bffffffffffffffffffffffffffffffffffffffffffffffffffffffff1916149050919050565b61256e81612f61565b6125ad576040517f08c379a00000000000000000000000000000000000000000000000000000000081526004016125a49061451e565b60405180910390fd5b50565b600033905090565b816004600083815260200190815260200160002060006101000a81548173ffffffffffffffffffffffffffffffffffffffff021916908373ffffffffffffffffffffffffffffffffffffffff160217905550808273ffffffffffffffffffffffffffffffffffffffff1661262b83611998565b73ffffffffffffffffffffffffffffffffffffffff167f8c5be1e5ebec7d5bd14f71427d1e84f3dd0314c0f7b2291e5b200ac8c7c3b92560405160405180910390a45050565b60008061267d83611998565b90508073ffffffffffffffffffffffffffffffffffffffff168473ffffffffffffffffffffffffffffffffffffffff1614806126bf57506126be81856123be565b5b806126fd57508373ffffffffffffffffffffffffffffffffffffffff166126e584610d54565b73ffffffffffffffffffffffffffffffffffffffff16145b91505092915050565b8273ffffffffffffffffffffffffffffffffffffffff1661272682611998565b73ffffffffffffffffffffffffffffffffffffffff161461277c576040517f08c379a0000000000000000000000000000000000000000000000000000000008152600401612773906147a0565b60405180910390fd5b600073ffffffffffffffffffffffffffffffffffffffff168273ffffffffffffffffffffffffffffffffffffffff16036127eb576040517f08c379a00000000000000000000000000000000000000000000000000000000081526004016127e290614832565b60405180910390fd5b6127f6838383612fcd565b6128016000826125b8565b6001600360008573ffffffffffffffffffffffffffffffffffffffff1673ffffffffffffffffffffffffffffffffffffffff1681526020019081526020016000206000828254612851919061449e565b925050819055506001600360008473ffffffffffffffffffffffffffffffffffffffff1673ffffffffffffffffffffffffffffffffffffffff16815260200190815260200160002060008282546128a891906143fe565b92505081905550816002600083815260200190815260200160002060006101000a81548173ffffffffffffffffffffffffffffffffffffffff021916908373ffffffffffffffffffffffffffffffffffffffff160217905550808273ffffffffffffffffffffffffffffffffffffffff168473ffffffffffffffffffffffffffffffffffffffff167fddf252ad1be2c89b69c2b068fc378daa952ba7f163c4a11628f55a4df523b3ef60405160405180910390a4612967838383612fd2565b505050565b6001816000016000828254019250508190555050565b600081600001549050919050565b600073ffffffffffffffffffffffffffffffffffffffff168273ffffffffffffffffffffffffffffffffffffffff16036129ff576040517f08c379a00000000000000000000000000000000000000000000000000000000081526004016129f69061489e565b60405180910390fd5b612a0881612f61565b15612a48576040517f08c379a0000000000000000000000000000000000000000000000000000000008152600401612a3f9061490a565b60405180910390fd5b612a5460008383612fcd565b6001600360008473ffffffffffffffffffffffffffffffffffffffff1673ffffffffffffffffffffffffffffffffffffffff1681526020019081526020016000206000828254612aa491906143fe565b92505081905550816002600083815260200190815260200160002060006101000a81548173ffffffffffffffffffffffffffffffffffffffff021916908373ffffffffffffffffffffffffffffffffffffffff160217905550808273ffffffffffffffffffffffffffffffffffffffff16600073ffffffffffffffffffffffffffffffffffffffff167fddf252ad1be2c89b69c2b068fc378daa952ba7f163c4a11628f55a4df523b3ef60405160405180910390a4612b6560008383612fd2565b5050565b612b7282612f61565b612bb1576040517f08c379a0000000000000000000000000000000000000000000000000000000008152600401612ba89061499c565b60405180910390fd5b80600660008481526020019081526020016000209081612bd1919061432c565b505050565b612bde6125b0565b73ffffffffffffffffffffffffffffffffffffffff16612bfc611bdd565b73ffffffffffffffffffffffffffffffffffffffff1614612c52576040517f08c379a0000000000000000000000000000000000000000000000000000000008152600401612c4990614a08565b60405180910390fd5b565b6000600760009054906101000a900473ffffffffffffffffffffffffffffffffffffffff16905081600760006101000a81548173ffffffffffffffffffffffffffffffffffffffff021916908373ffffffffffffffffffffffffffffffffffffffff1602179055508173ffffffffffffffffffffffffffffffffffffffff168173ffffffffffffffffffffffffffffffffffffffff167f8be0079c531659141344cd1fd0a4f28419497f9722a3daafe3b4186f6b6457e060405160405180910390a35050565b8173ffffffffffffffffffffffffffffffffffffffff168373ffffffffffffffffffffffffffffffffffffffff1603612d88576040517f08c379a0000000000000000000000000000000000000000000000000000000008152600401612d7f90614a74565b60405180910390fd5b80600560008573ffffffffffffffffffffffffffffffffffffffff1673ffffffffffffffffffffffffffffffffffffffff16815260200190815260200160002060008473ffffffffffffffffffffffffffffffffffffffff1673ffffffffffffffffffffffffffffffffffffffff16815260200190815260200160002060006101000a81548160ff0219169083151502179055508173ffffffffffffffffffffffffffffffffffffffff168373ffffffffffffffffffffffffffffffffffffffff167f17307eab39ab6107e8899845ad3d59bd9653f200f220920489ca2b5937696c3183604051612e799190613408565b60405180910390a3505050565b612e91848484612706565b612e9d84848484612fd7565b612edc576040517f08c379a0000000000000000000000000000000000000000000000000000000008152600401612ed390614b06565b60405180910390fd5b50505050565b606060405180602001604052806000815250905090565b6060612f0482612565565b6000612f0e612ee2565b90506000815111612f2e5760405180602001604052806000815250612f59565b80612f388461315e565b604051602001612f49929190614678565b6040516020818303038152906040525b915050919050565b60008073ffffffffffffffffffffffffffffffffffffffff166002600084815260200190815260200160002060009054906101000a900473ffffffffffffffffffffffffffffffffffffffff1673ffffffffffffffffffffffffffffffffffffffff1614159050919050565b505050565b505050565b6000612ff88473ffffffffffffffffffffffffffffffffffffffff166132be565b15613151578373ffffffffffffffffffffffffffffffffffffffff1663150b7a026130216125b0565b8786866040518563ffffffff1660e01b81526004016130439493929190614b7b565b6020604051808303816000875af192505050801561307f57506040513d601f19601f8201168201806040525081019061307c9190614bdc565b60015b613101573d80600081146130af576040519150601f19603f3d011682016040523d82523d6000602084013e6130b4565b606091505b5060008151036130f9576040517f08c379a00000000000000000000000000000000000000000000000000000000081526004016130f090614b06565b60405180910390fd5b805181602001fd5b63150b7a0260e01b7bffffffffffffffffffffffffffffffffffffffffffffffffffffffff1916817bffffffffffffffffffffffffffffffffffffffffffffffffffffffff191614915050613156565b600190505b949350505050565b6060600082036131a5576040518060400160405280600181526020017f300000000000000000000000000000000000000000000000000000000000000081525090506132b9565b600082905060005b600082146131d75780806131c090613e3c565b915050600a826131d09190614c38565b91506131ad565b60008167ffffffffffffffff8111156131f3576131f2613939565b5b6040519080825280601f01601f1916602001820160405280156132255781602001600182028036833780820191505090505b5090505b600085146132b25760018261323e919061449e565b9150600a8561324d9190614c69565b603061325991906143fe565b60f81b81838151811061326f5761326e613d7e565b5b60200101907effffffffffffffffffffffffffffffffffffffffffffffffffffffffffffff1916908160001a905350600a856132ab9190614c38565b9450613229565b8093505050505b919050565b6000808273ffffffffffffffffffffffffffffffffffffffff163b119050919050565b604051806101000160405280600081526020016060815260200160608152602001600073ffffffffffffffffffffffffffffffffffffffff1681526020016060815260200160008152602001600015158152602001600073ffffffffffffffffffffffffffffffffffffffff1681525090565b6000604051905090565b600080fd5b600080fd5b60007fffffffff0000000000000000000000000000000000000000000000000000000082169050919050565b61339d81613368565b81146133a857600080fd5b50565b6000813590506133ba81613394565b92915050565b6000602082840312156133d6576133d561335e565b5b60006133e4848285016133ab565b91505092915050565b60008115159050919050565b613402816133ed565b82525050565b600060208201905061341d60008301846133f9565b92915050565b600081519050919050565b600082825260208201905092915050565b6000819050602082019050919050565b6000819050919050565b6134628161344f565b82525050565b600081519050919050565b600082825260208201905092915050565b60005b838110156134a2578082015181840152602081019050613487565b60008484015250505050565b6000601f19601f8301169050919050565b60006134ca82613468565b6134d48185613473565b93506134e4818560208601613484565b6134ed816134ae565b840191505092915050565b600073ffffffffffffffffffffffffffffffffffffffff82169050919050565b6000613523826134f8565b9050919050565b61353381613518565b82525050565b613542816133ed565b82525050565b6000610100830160008301516135616000860182613459565b506020830151848203602086015261357982826134bf565b9150506040830151848203604086015261359382826134bf565b91505060608301516135a8606086018261352a565b50608083015184820360808601526135c082826134bf565b91505060a08301516135d560a0860182613459565b5060c08301516135e860c0860182613539565b5060e08301516135fb60e086018261352a565b508091505092915050565b60006136128383613548565b905092915050565b6000602082019050919050565b600061363282613423565b61363c818561342e565b93508360208202850161364e8561343f565b8060005b8581101561368a578484038952815161366b8582613606565b94506136768361361a565b925060208a01995050600181019050613652565b50829750879550505050505092915050565b600060208201905081810360008301526136b68184613627565b905092915050565b600082825260208201905092915050565b60006136da82613468565b6136e481856136be565b93506136f4818560208601613484565b6136fd816134ae565b840191505092915050565b6000602082019050818103600083015261372281846136cf565b905092915050565b6137338161344f565b811461373e57600080fd5b50565b6000813590506137508161372a565b92915050565b60006020828403121561376c5761376b61335e565b5b600061377a84828501613741565b91505092915050565b600061378e826134f8565b9050919050565b61379e81613783565b82525050565b60006020820190506137b96000830184613795565b92915050565b6137c881613783565b81146137d357600080fd5b50565b6000813590506137e5816137bf565b92915050565b600080604083850312156138025761380161335e565b5b6000613810858286016137d6565b925050602061382185828601613741565b9150509250929050565b6000806000606084860312156138445761384361335e565b5b6000613852868287016137d6565b9350506020613863868287016137d6565b925050604061387486828701613741565b9150509250925092565b6138878161344f565b82525050565b61389681613518565b82525050565b6000610100820190506138b2600083018b61387e565b81810360208301526138c4818a6136cf565b905081810360408301526138d881896136cf565b90506138e7606083018861388d565b81810360808301526138f981876136cf565b905061390860a083018661387e565b61391560c08301856133f9565b61392260e083018461388d565b9998505050505050505050565b600080fd5b600080fd5b7f4e487b7100000000000000000000000000000000000000000000000000000000600052604160045260246000fd5b613971826134ae565b810181811067ffffffffffffffff821117156139905761398f613939565b5b80604052505050565b60006139a3613354565b90506139af8282613968565b919050565b600067ffffffffffffffff8211156139cf576139ce613939565b5b6139d8826134ae565b9050602081019050919050565b82818337600083830152505050565b6000613a07613a02846139b4565b613999565b905082815260208101848484011115613a2357613a22613934565b5b613a2e8482856139e5565b509392505050565b600082601f830112613a4b57613a4a61392f565b5b8135613a5b8482602086016139f4565b91505092915050565b600080600060608486031215613a7d57613a7c61335e565b5b600084013567ffffffffffffffff811115613a9b57613a9a613363565b5b613aa786828701613a36565b935050602084013567ffffffffffffffff811115613ac857613ac7613363565b5b613ad486828701613a36565b925050604084013567ffffffffffffffff811115613af557613af4613363565b5b613b0186828701613a36565b9150509250925092565b6000602082019050613b20600083018461387e565b92915050565b6000602082019050613b3b600083018461388d565b92915050565b600060208284031215613b5757613b5661335e565b5b6000613b65848285016137d6565b91505092915050565b60008060408385031215613b8557613b8461335e565b5b6000613b9385828601613741565b9250506020613ba485828601613741565b9150509250929050565b613bb7816133ed565b8114613bc257600080fd5b50565b600081359050613bd481613bae565b92915050565b60008060408385031215613bf157613bf061335e565b5b6000613bff858286016137d6565b9250506020613c1085828601613bc5565b9150509250929050565b600067ffffffffffffffff821115613c3557613c34613939565b5b613c3e826134ae565b9050602081019050919050565b6000613c5e613c5984613c1a565b613999565b905082815260208101848484011115613c7a57613c79613934565b5b613c858482856139e5565b509392505050565b600082601f830112613ca257613ca161392f565b5b8135613cb2848260208601613c4b565b91505092915050565b60008060008060808587031215613cd557613cd461335e565b5b6000613ce3878288016137d6565b9450506020613cf4878288016137d6565b9350506040613d0587828801613741565b925050606085013567ffffffffffffffff811115613d2657613d25613363565b5b613d3287828801613c8d565b91505092959194509250565b60008060408385031215613d5557613d5461335e565b5b6000613d63858286016137d6565b9250506020613d74858286016137d6565b9150509250929050565b7f4e487b7100000000000000000000000000000000000000000000000000000000600052603260045260246000fd5b7f4e487b7100000000000000000000000000000000000000000000000000000000600052602260045260246000fd5b60006002820490506001821680613df457607f821691505b602082108103613e0757613e06613dad565b5b50919050565b7f4e487b7100000000000000000000000000000000000000000000000000000000600052601160045260246000fd5b6000613e478261344f565b91507fffffffffffffffffffffffffffffffffffffffffffffffffffffffffffffffff8203613e7957613e78613e0d565b5b600182019050919050565b7f4552433732313a20617070726f76616c20746f2063757272656e74206f776e6560008201527f7200000000000000000000000000000000000000000000000000000000000000602082015250565b6000613ee06021836136be565b9150613eeb82613e84565b604082019050919050565b60006020820190508181036000830152613f0f81613ed3565b9050919050565b7f4552433732313a20617070726f76652063616c6c6572206973206e6f7420746f60008201527f6b656e206f776e6572206e6f7220617070726f76656420666f7220616c6c0000602082015250565b6000613f72603e836136be565b9150613f7d82613f16565b604082019050919050565b60006020820190508181036000830152613fa181613f65565b9050919050565b7f4552433732313a2063616c6c6572206973206e6f7420746f6b656e206f776e6560008201527f72206e6f7220617070726f766564000000000000000000000000000000000000602082015250565b6000614004602e836136be565b915061400f82613fa8565b604082019050919050565b6000602082019050818103600083015261403381613ff7565b9050919050565b7f4f6e6c792063757272656e74206f776e65722063616e2063616e63656c206c6960008201527f7374696e67000000000000000000000000000000000000000000000000000000602082015250565b60006140966025836136be565b91506140a18261403a565b604082019050919050565b600060208201905081810360008301526140c581614089565b9050919050565b60008190508160005260206000209050919050565b600081546140ee81613ddc565b6140f881866136be565b9450600182166000811461411357600181146141295761415c565b60ff19831686528115156020028601935061415c565b614132856140cc565b60005b8381101561415457815481890152600182019150602081019050614135565b808801955050505b50505092915050565b600060408201905061417a6000830185613795565b818103602083015261418c81846140e1565b90509392505050565b60006020601f8301049050919050565b600082821b905092915050565b6000600883026141e27fffffffffffffffffffffffffffffffffffffffffffffffffffffffffffffffff826141a5565b6141ec86836141a5565b95508019841693508086168417925050509392505050565b6000819050919050565b600061422961422461421f8461344f565b614204565b61344f565b9050919050565b6000819050919050565b6142438361420e565b61425761424f82614230565b8484546141b2565b825550505050565b600090565b61426c61425f565b61427781848461423a565b505050565b5b8181101561429b57614290600082614264565b60018101905061427d565b5050565b601f8211156142e0576142b1816140cc565b6142ba84614195565b810160208510156142c9578190505b6142dd6142d585614195565b83018261427c565b50505b505050565b600082821c905092915050565b6000614303600019846008026142e5565b1980831691505092915050565b600061431c83836142f2565b9150826002028217905092915050565b61433582613468565b67ffffffffffffffff81111561434e5761434d613939565b5b6143588254613ddc565b61436382828561429f565b600060209050601f8311600181146143965760008415614384578287015190505b61438e8582614310565b8655506143f6565b601f1984166143a4866140cc565b60005b828110156143cc578489015182556001820191506020850194506020810190506143a7565b868310156143e957848901516143e5601f8916826142f2565b8355505b6001600288020188555050505b505050505050565b60006144098261344f565b91506144148361344f565b925082820190508082111561442c5761442b613e0d565b5b92915050565b7f506c65617365207061792074686520726571756972656420616d6f756e740000600082015250565b6000614468601e836136be565b915061447382614432565b602082019050919050565b600060208201905081810360008301526144978161445b565b9050919050565b60006144a98261344f565b91506144b48361344f565b92508282039050818111156144cc576144cb613e0d565b5b92915050565b7f4552433732313a20696e76616c696420746f6b656e2049440000000000000000600082015250565b60006145086018836136be565b9150614513826144d2565b602082019050919050565b60006020820190508181036000830152614537816144fb565b9050919050565b7f4552433732313a2061646472657373207a65726f206973206e6f74206120766160008201527f6c6964206f776e65720000000000000000000000000000000000000000000000602082015250565b600061459a6029836136be565b91506145a58261453e565b604082019050919050565b600060208201905081810360008301526145c98161458d565b9050919050565b7f63616e6e6f74206c69737420736f6e677320796f7520646f206e6f74206f776e600082015250565b60006146066020836136be565b9150614611826145d0565b602082019050919050565b60006020820190508181036000830152614635816145f9565b9050919050565b600081905092915050565b600061465282613468565b61465c818561463c565b935061466c818560208601613484565b80840191505092915050565b60006146848285614647565b91506146908284614647565b91508190509392505050565b7f4f776e61626c653a206e6577206f776e657220697320746865207a65726f206160008201527f6464726573730000000000000000000000000000000000000000000000000000602082015250565b60006146f86026836136be565b91506147038261469c565b604082019050919050565b60006020820190508181036000830152614727816146eb565b9050919050565b7f4552433732313a207472616e736665722066726f6d20696e636f72726563742060008201527f6f776e6572000000000000000000000000000000000000000000000000000000602082015250565b600061478a6025836136be565b91506147958261472e565b604082019050919050565b600060208201905081810360008301526147b98161477d565b9050919050565b7f4552433732313a207472616e7366657220746f20746865207a65726f2061646460008201527f7265737300000000000000000000000000000000000000000000000000000000602082015250565b600061481c6024836136be565b9150614827826147c0565b604082019050919050565b6000602082019050818103600083015261484b8161480f565b9050919050565b7f4552433732313a206d696e7420746f20746865207a65726f2061646472657373600082015250565b60006148886020836136be565b915061489382614852565b602082019050919050565b600060208201905081810360008301526148b78161487b565b9050919050565b7f4552433732313a20746f6b656e20616c7265616479206d696e74656400000000600082015250565b60006148f4601c836136be565b91506148ff826148be565b602082019050919050565b60006020820190508181036000830152614923816148e7565b9050919050565b7f45524337323155524953746f726167653a2055524920736574206f66206e6f6e60008201527f6578697374656e7420746f6b656e000000000000000000000000000000000000602082015250565b6000614986602e836136be565b91506149918261492a565b604082019050919050565b600060208201905081810360008301526149b581614979565b9050919050565b7f4f776e61626c653a2063616c6c6572206973206e6f7420746865206f776e6572600082015250565b60006149f26020836136be565b91506149fd826149bc565b602082019050919050565b60006020820190508181036000830152614a21816149e5565b9050919050565b7f4552433732313a20617070726f766520746f2063616c6c657200000000000000600082015250565b6000614a5e6019836136be565b9150614a6982614a28565b602082019050919050565b60006020820190508181036000830152614a8d81614a51565b9050919050565b7f4552433732313a207472616e7366657220746f206e6f6e20455243373231526560008201527f63656976657220696d706c656d656e7465720000000000000000000000000000602082015250565b6000614af06032836136be565b9150614afb82614a94565b604082019050919050565b60006020820190508181036000830152614b1f81614ae3565b9050919050565b600081519050919050565b600082825260208201905092915050565b6000614b4d82614b26565b614b578185614b31565b9350614b67818560208601613484565b614b70816134ae565b840191505092915050565b6000608082019050614b906000830187613795565b614b9d6020830186613795565b614baa604083018561387e565b8181036060830152614bbc8184614b42565b905095945050505050565b600081519050614bd681613394565b92915050565b600060208284031215614bf257614bf161335e565b5b6000614c0084828501614bc7565b91505092915050565b7f4e487b7100000000000000000000000000000000000000000000000000000000600052601260045260246000fd5b6000614c438261344f565b9150614c4e8361344f565b925082614c5e57614c5d614c09565b5b828204905092915050565b6000614c748261344f565b9150614c7f8361344f565b925082614c8f57614c8e614c09565b5b82820690509291505056fea26469706673582212204859f89728d4581c332da10627df8d183157adac00986b98b35f68ccd5fa028064736f6c63430008110033",
  "linkReferences": {},
  "deployedLinkReferences": {}
}