{
    "_format": "hh-sol-artifact-1",
    "contractName": "DefiBeats",
    "sourceName": "contracts/DefiBeats.sol",
    "abi": [
        {
            "inputs": [],
            "stateMutability": "nonpayable",
            "type": "constructor"
        },
        {
            "anonymous": false,
            "inputs": [
                {
                    "indexed": true,
                    "internalType": "address",
                    "name": "owner",
                    "type": "address"
                },
                {
                    "indexed": true,
                    "internalType": "address",
                    "name": "approved",
                    "type": "address"
                },
                {
                    "indexed": true,
                    "internalType": "uint256",
                    "name": "tokenId",
                    "type": "uint256"
                }
            ],
            "name": "Approval",
            "type": "event"
        },
        {
            "anonymous": false,
            "inputs": [
                {
                    "indexed": true,
                    "internalType": "address",
                    "name": "owner",
                    "type": "address"
                },
                {
                    "indexed": true,
                    "internalType": "address",
                    "name": "operator",
                    "type": "address"
                },
                {
                    "indexed": false,
                    "internalType": "bool",
                    "name": "approved",
                    "type": "bool"
                }
            ],
            "name": "ApprovalForAll",
            "type": "event"
        },
        {
            "anonymous": false,
            "inputs": [
                {
                    "indexed": true,
                    "internalType": "address",
                    "name": "previousOwner",
                    "type": "address"
                },
                {
                    "indexed": true,
                    "internalType": "address",
                    "name": "newOwner",
                    "type": "address"
                }
            ],
            "name": "OwnershipTransferred",
            "type": "event"
        },
        {
            "anonymous": false,
            "inputs": [
                {
                    "indexed": true,
                    "internalType": "uint256",
                    "name": "tokenId",
                    "type": "uint256"
                },
                {
                    "indexed": false,
                    "internalType": "address",
                    "name": "seller",
                    "type": "address"
                },
                {
                    "indexed": false,
                    "internalType": "string",
                    "name": "tokenUri",
                    "type": "string"
                }
            ],
            "name": "SongCancelled",
            "type": "event"
        },
        {
            "anonymous": false,
            "inputs": [
                {
                    "indexed": true,
                    "internalType": "uint256",
                    "name": "tokenId",
                    "type": "uint256"
                },
                {
                    "indexed": false,
                    "internalType": "address",
                    "name": "seller",
                    "type": "address"
                },
                {
                    "indexed": false,
                    "internalType": "string",
                    "name": "tokenUri",
                    "type": "string"
                }
            ],
            "name": "SongListed",
            "type": "event"
        },
        {
            "anonymous": false,
            "inputs": [
                {
                    "indexed": true,
                    "internalType": "uint256",
                    "name": "tokenId",
                    "type": "uint256"
                },
                {
                    "indexed": false,
                    "internalType": "address",
                    "name": "producer",
                    "type": "address"
                },
                {
                    "indexed": false,
                    "internalType": "string",
                    "name": "tokenUri",
                    "type": "string"
                }
            ],
            "name": "SongMade",
            "type": "event"
        },
        {
            "anonymous": false,
            "inputs": [
                {
                    "indexed": true,
                    "internalType": "uint256",
                    "name": "tokenId",
                    "type": "uint256"
                },
                {
                    "indexed": false,
                    "internalType": "address",
                    "name": "seller",
                    "type": "address"
                },
                {
                    "indexed": false,
                    "internalType": "string",
                    "name": "tokenUri",
                    "type": "string"
                },
                {
                    "indexed": false,
                    "internalType": "uint256",
                    "name": "price",
                    "type": "uint256"
                }
            ],
            "name": "SongPurchased",
            "type": "event"
        },
        {
            "anonymous": false,
            "inputs": [
                {
                    "indexed": true,
                    "internalType": "address",
                    "name": "from",
                    "type": "address"
                },
                {
                    "indexed": true,
                    "internalType": "address",
                    "name": "to",
                    "type": "address"
                },
                {
                    "indexed": true,
                    "internalType": "uint256",
                    "name": "tokenId",
                    "type": "uint256"
                }
            ],
            "name": "Transfer",
            "type": "event"
        },
        {
            "inputs": [],
            "name": "admin",
            "outputs": [
                {
                    "internalType": "address",
                    "name": "",
                    "type": "address"
                }
            ],
            "stateMutability": "view",
            "type": "function"
        },
        {
            "inputs": [
                {
                    "internalType": "uint256",
                    "name": "",
                    "type": "uint256"
                }
            ],
            "name": "allSongs",
            "outputs": [
                {
                    "internalType": "uint256",
                    "name": "tokenId",
                    "type": "uint256"
                },
                {
                    "internalType": "string",
                    "name": "name",
                    "type": "string"
                },
                {
                    "internalType": "string",
                    "name": "collection",
                    "type": "string"
                },
                {
                    "internalType": "address payable",
                    "name": "currentOwner",
                    "type": "address"
                },
                {
                    "internalType": "string",
                    "name": "tokenUri",
                    "type": "string"
                },
                {
                    "internalType": "uint256",
                    "name": "price",
                    "type": "uint256"
                },
                {
                    "internalType": "bool",
                    "name": "isForSale",
                    "type": "bool"
                },
                {
                    "internalType": "address payable",
                    "name": "originalProducer",
                    "type": "address"
                }
            ],
            "stateMutability": "view",
            "type": "function"
        },
        {
            "inputs": [
                {
                    "internalType": "address",
                    "name": "to",
                    "type": "address"
                },
                {
                    "internalType": "uint256",
                    "name": "tokenId",
                    "type": "uint256"
                }
            ],
            "name": "approve",
            "outputs": [],
            "stateMutability": "nonpayable",
            "type": "function"
        },
        {
            "inputs": [
                {
                    "internalType": "address",
                    "name": "owner",
                    "type": "address"
                }
            ],
            "name": "balanceOf",
            "outputs": [
                {
                    "internalType": "uint256",
                    "name": "",
                    "type": "uint256"
                }
            ],
            "stateMutability": "view",
            "type": "function"
        },
        {
            "inputs": [
                {
                    "internalType": "uint256",
                    "name": "songNumber",
                    "type": "uint256"
                }
            ],
            "name": "buySong",
            "outputs": [],
            "stateMutability": "payable",
            "type": "function"
        },
        {
            "inputs": [
                {
                    "internalType": "uint256",
                    "name": "songNumber",
                    "type": "uint256"
                }
            ],
            "name": "cancelListing",
            "outputs": [],
            "stateMutability": "nonpayable",
            "type": "function"
        },
        {
            "inputs": [
                {
                    "internalType": "address",
                    "name": "newAdmin",
                    "type": "address"
                }
            ],
            "name": "changeAdmin",
            "outputs": [
                {
                    "internalType": "address",
                    "name": "",
                    "type": "address"
                }
            ],
            "stateMutability": "nonpayable",
            "type": "function"
        },
        {
            "inputs": [
                {
                    "internalType": "address",
                    "name": "newFeeAddress",
                    "type": "address"
                }
            ],
            "name": "changeFeeAccount",
            "outputs": [
                {
                    "internalType": "address",
                    "name": "",
                    "type": "address"
                }
            ],
            "stateMutability": "nonpayable",
            "type": "function"
        },
        {
            "inputs": [],
            "name": "feeAccount",
            "outputs": [
                {
                    "internalType": "address payable",
                    "name": "",
                    "type": "address"
                }
            ],
            "stateMutability": "view",
            "type": "function"
        },
        {
            "inputs": [
                {
                    "internalType": "uint256",
                    "name": "tokenId",
                    "type": "uint256"
                }
            ],
            "name": "getApproved",
            "outputs": [
                {
                    "internalType": "address",
                    "name": "",
                    "type": "address"
                }
            ],
            "stateMutability": "view",
            "type": "function"
        },
        {
            "inputs": [
                {
                    "internalType": "address",
                    "name": "owner",
                    "type": "address"
                },
                {
                    "internalType": "address",
                    "name": "operator",
                    "type": "address"
                }
            ],
            "name": "isApprovedForAll",
            "outputs": [
                {
                    "internalType": "bool",
                    "name": "",
                    "type": "bool"
                }
            ],
            "stateMutability": "view",
            "type": "function"
        },
        {
            "inputs": [
                {
                    "internalType": "uint256",
                    "name": "songNumber",
                    "type": "uint256"
                },
                {
                    "internalType": "uint256",
                    "name": "songPrice",
                    "type": "uint256"
                }
            ],
            "name": "listSong",
            "outputs": [],
            "stateMutability": "nonpayable",
            "type": "function"
        },
        {
            "inputs": [
                {
                    "internalType": "string",
                    "name": "_tokenUri",
                    "type": "string"
                },
                {
                    "internalType": "string",
                    "name": "songName",
                    "type": "string"
                },
                {
                    "internalType": "string",
                    "name": "collection",
                    "type": "string"
                }
            ],
            "name": "makeSong",
            "outputs": [
                {
                    "internalType": "uint256",
                    "name": "",
                    "type": "uint256"
                }
            ],
            "stateMutability": "payable",
            "type": "function"
        },
        {
            "inputs": [],
            "name": "name",
            "outputs": [
                {
                    "internalType": "string",
                    "name": "",
                    "type": "string"
                }
            ],
            "stateMutability": "view",
            "type": "function"
        },
        {
            "inputs": [],
            "name": "owner",
            "outputs": [
                {
                    "internalType": "address",
                    "name": "",
                    "type": "address"
                }
            ],
            "stateMutability": "view",
            "type": "function"
        },
        {
            "inputs": [
                {
                    "internalType": "uint256",
                    "name": "tokenId",
                    "type": "uint256"
                }
            ],
            "name": "ownerOf",
            "outputs": [
                {
                    "internalType": "address",
                    "name": "",
                    "type": "address"
                }
            ],
            "stateMutability": "view",
            "type": "function"
        },
        {
            "inputs": [
                {
                    "internalType": "uint256",
                    "name": "",
                    "type": "uint256"
                }
            ],
            "name": "ownerOfNft",
            "outputs": [
                {
                    "internalType": "address",
                    "name": "",
                    "type": "address"
                }
            ],
            "stateMutability": "view",
            "type": "function"
        },
        {
            "inputs": [],
            "name": "renounceOwnership",
            "outputs": [],
            "stateMutability": "nonpayable",
            "type": "function"
        },
        {
            "inputs": [],
            "name": "royaltyFee",
            "outputs": [
                {
                    "internalType": "uint256",
                    "name": "",
                    "type": "uint256"
                }
            ],
            "stateMutability": "view",
            "type": "function"
        },
        {
            "inputs": [
                {
                    "internalType": "address",
                    "name": "from",
                    "type": "address"
                },
                {
                    "internalType": "address",
                    "name": "to",
                    "type": "address"
                },
                {
                    "internalType": "uint256",
                    "name": "tokenId",
                    "type": "uint256"
                }
            ],
            "name": "safeTransferFrom",
            "outputs": [],
            "stateMutability": "nonpayable",
            "type": "function"
        },
        {
            "inputs": [
                {
                    "internalType": "address",
                    "name": "from",
                    "type": "address"
                },
                {
                    "internalType": "address",
                    "name": "to",
                    "type": "address"
                },
                {
                    "internalType": "uint256",
                    "name": "tokenId",
                    "type": "uint256"
                },
                {
                    "internalType": "bytes",
                    "name": "data",
                    "type": "bytes"
                }
            ],
            "name": "safeTransferFrom",
            "outputs": [],
            "stateMutability": "nonpayable",
            "type": "function"
        },
        {
            "inputs": [
                {
                    "internalType": "address",
                    "name": "operator",
                    "type": "address"
                },
                {
                    "internalType": "bool",
                    "name": "approved",
                    "type": "bool"
                }
            ],
            "name": "setApprovalForAll",
            "outputs": [],
            "stateMutability": "nonpayable",
            "type": "function"
        },
        {
            "inputs": [
                {
                    "internalType": "uint256",
                    "name": "",
                    "type": "uint256"
                }
            ],
            "name": "songs",
            "outputs": [
                {
                    "internalType": "uint256",
                    "name": "tokenId",
                    "type": "uint256"
                },
                {
                    "internalType": "string",
                    "name": "name",
                    "type": "string"
                },
                {
                    "internalType": "string",
                    "name": "collection",
                    "type": "string"
                },
                {
                    "internalType": "address payable",
                    "name": "currentOwner",
                    "type": "address"
                },
                {
                    "internalType": "string",
                    "name": "tokenUri",
                    "type": "string"
                },
                {
                    "internalType": "uint256",
                    "name": "price",
                    "type": "uint256"
                },
                {
                    "internalType": "bool",
                    "name": "isForSale",
                    "type": "bool"
                },
                {
                    "internalType": "address payable",
                    "name": "originalProducer",
                    "type": "address"
                }
            ],
            "stateMutability": "view",
            "type": "function"
        },
        {
            "inputs": [
                {
                    "internalType": "bytes4",
                    "name": "interfaceId",
                    "type": "bytes4"
                }
            ],
            "name": "supportsInterface",
            "outputs": [
                {
                    "internalType": "bool",
                    "name": "",
                    "type": "bool"
                }
            ],
            "stateMutability": "view",
            "type": "function"
        },
        {
            "inputs": [],
            "name": "symbol",
            "outputs": [
                {
                    "internalType": "string",
                    "name": "",
                    "type": "string"
                }
            ],
            "stateMutability": "view",
            "type": "function"
        },
        {
            "inputs": [],
            "name": "tokenCount",
            "outputs": [
                {
                    "internalType": "uint256",
                    "name": "",
                    "type": "uint256"
                }
            ],
            "stateMutability": "view",
            "type": "function"
        },
        {
            "inputs": [
                {
                    "internalType": "uint256",
                    "name": "tokenId",
                    "type": "uint256"
                }
            ],
            "name": "tokenURI",
            "outputs": [
                {
                    "internalType": "string",
                    "name": "",
                    "type": "string"
                }
            ],
            "stateMutability": "view",
            "type": "function"
        },
        {
            "inputs": [],
            "name": "transactionFee",
            "outputs": [
                {
                    "internalType": "uint256",
                    "name": "",
                    "type": "uint256"
                }
            ],
            "stateMutability": "view",
            "type": "function"
        },
        {
            "inputs": [
                {
                    "internalType": "address",
                    "name": "from",
                    "type": "address"
                },
                {
                    "internalType": "address",
                    "name": "to",
                    "type": "address"
                },
                {
                    "internalType": "uint256",
                    "name": "tokenId",
                    "type": "uint256"
                }
            ],
            "name": "transferFrom",
            "outputs": [],
            "stateMutability": "nonpayable",
            "type": "function"
        },
        {
            "inputs": [
                {
                    "internalType": "address",
                    "name": "newOwner",
                    "type": "address"
                }
            ],
            "name": "transferOwnership",
            "outputs": [],
            "stateMutability": "nonpayable",
            "type": "function"
        },
        {
            "inputs": [
                {
                    "internalType": "uint256",
                    "name": "_newFeeAmount",
                    "type": "uint256"
                }
            ],
            "name": "updateFee",
            "outputs": [
                {
                    "internalType": "uint256",
                    "name": "",
                    "type": "uint256"
                }
            ],
            "stateMutability": "nonpayable",
            "type": "function"
        },
        {
            "inputs": [
                {
                    "internalType": "uint256",
                    "name": "songNumber",
                    "type": "uint256"
                },
                {
                    "internalType": "uint256",
                    "name": "newPrice",
                    "type": "uint256"
                }
            ],
            "name": "updateListingPrice",
            "outputs": [],
            "stateMutability": "nonpayable",
            "type": "function"
        },
        {
            "inputs": [
                {
                    "internalType": "uint256",
                    "name": "_newFeeAmount",
                    "type": "uint256"
                }
            ],
            "name": "updateRoyaltyFee",
            "outputs": [
                {
                    "internalType": "uint256",
                    "name": "",
                    "type": "uint256"
                }
            ],
            "stateMutability": "nonpayable",
            "type": "function"
        }
    ],
    "bytecode": "0x60806040526001600a556001600b553480156200001b57600080fd5b506040518060400160405280600981526020017f44656669426561747300000000000000000000000000000000000000000000008152506040518060400160405280600381526020017f444642000000000000000000000000000000000000000000000000000000000081525081600090816200009991906200049e565b508060019081620000ab91906200049e565b505050620000ce620000c26200015660201b60201c565b6200015e60201b60201c565b33600c60006101000a81548173ffffffffffffffffffffffffffffffffffffffff021916908373ffffffffffffffffffffffffffffffffffffffff16021790555033600d60006101000a81548173ffffffffffffffffffffffffffffffffffffffff021916908373ffffffffffffffffffffffffffffffffffffffff16021790555062000585565b600033905090565b6000600760009054906101000a900473ffffffffffffffffffffffffffffffffffffffff16905081600760006101000a81548173ffffffffffffffffffffffffffffffffffffffff021916908373ffffffffffffffffffffffffffffffffffffffff1602179055508173ffffffffffffffffffffffffffffffffffffffff168173ffffffffffffffffffffffffffffffffffffffff167f8be0079c531659141344cd1fd0a4f28419497f9722a3daafe3b4186f6b6457e060405160405180910390a35050565b600081519050919050565b7f4e487b7100000000000000000000000000000000000000000000000000000000600052604160045260246000fd5b7f4e487b7100000000000000000000000000000000000000000000000000000000600052602260045260246000fd5b60006002820490506001821680620002a657607f821691505b602082108103620002bc57620002bb6200025e565b5b50919050565b60008190508160005260206000209050919050565b60006020601f8301049050919050565b600082821b905092915050565b600060088302620003267fffffffffffffffffffffffffffffffffffffffffffffffffffffffffffffffff82620002e7565b620003328683620002e7565b95508019841693508086168417925050509392505050565b6000819050919050565b6000819050919050565b60006200037f6200037962000373846200034a565b62000354565b6200034a565b9050919050565b6000819050919050565b6200039b836200035e565b620003b3620003aa8262000386565b848454620002f4565b825550505050565b600090565b620003ca620003bb565b620003d781848462000390565b505050565b5b81811015620003ff57620003f3600082620003c0565b600181019050620003dd565b5050565b601f8211156200044e576200041881620002c2565b6200042384620002d7565b8101602085101562000433578190505b6200044b6200044285620002d7565b830182620003dc565b50505b505050565b600082821c905092915050565b6000620004736000198460080262000453565b1980831691505092915050565b60006200048e838362000460565b9150826002028217905092915050565b620004a98262000224565b67ffffffffffffffff811115620004c557620004c46200022f565b5b620004d182546200028d565b620004de82828562000403565b600060209050601f83116001811462000516576000841562000501578287015190505b6200050d858262000480565b8655506200057d565b601f1984166200052686620002c2565b60005b82811015620005505784890151825560018201915060208501945060208101905062000529565b868310156200057057848901516200056c601f89168262000460565b8355505b6001600288020188555050505b505050505050565b61470480620005956000396000f3fe6080604052600436106101ee5760003560e01c80638da5cb5b1161010d578063a6b46a6f116100a0578063c46049431161006f578063c46049431461074f578063c87b56dd14610778578063e985e9c5146107b5578063f2fde38b146107f2578063f851a4401461081b576101ee565b8063a6b46a6f1461067a578063b88d4fde146106be578063b8997a97146106e7578063b922f94c14610712576101ee565b806395d89b41116100dc57806395d89b41146105d05780639ed3edf0146105fb5780639f181b5e14610626578063a22cb46514610651576101ee565b80638da5cb5b146105025780638f2839701461052d5780638fc59a8a1461056a5780639012c4a814610593576101ee565b8063451c67fd1161018557806365e17c9d1161015457806365e17c9d1461044657806370a0823114610471578063715018a6146104ae57806371ffcb16146104c5576101ee565b8063451c67fd146103805780634e83be47146103b0578063606a0175146103ed5780636352211e14610409576101ee565b806323b872dd116101c157806323b872dd146102c1578063304cff30146102ea578063305a67a81461032e57806342842e0e14610357576101ee565b806301ffc9a7146101f357806306fdde0314610230578063081812fc1461025b578063095ea7b314610298575b600080fd5b3480156101ff57600080fd5b5061021a60048036038101906102159190612f9f565b610846565b6040516102279190612fe7565b60405180910390f35b34801561023c57600080fd5b50610245610928565b6040516102529190613092565b60405180910390f35b34801561026757600080fd5b50610282600480360381019061027d91906130ea565b6109ba565b60405161028f9190613158565b60405180910390f35b3480156102a457600080fd5b506102bf60048036038101906102ba919061319f565b610a00565b005b3480156102cd57600080fd5b506102e860048036038101906102e391906131df565b610b17565b005b3480156102f657600080fd5b50610311600480360381019061030c91906130ea565b610b77565b604051610325989796959493929190613262565b60405180910390f35b34801561033a57600080fd5b50610355600480360381019061035091906130ea565b610da4565b005b34801561036357600080fd5b5061037e600480360381019061037991906131df565b610ec8565b005b61039a6004803603810190610395919061342a565b610ee8565b6040516103a791906134d1565b60405180910390f35b3480156103bc57600080fd5b506103d760048036038101906103d291906130ea565b6112e4565b6040516103e491906134d1565b60405180910390f35b610407600480360381019061040291906130ea565b61134d565b005b34801561041557600080fd5b50610430600480360381019061042b91906130ea565b6115ea565b60405161043d9190613158565b60405180910390f35b34801561045257600080fd5b5061045b61169b565b60405161046891906134ec565b60405180910390f35b34801561047d57600080fd5b5061049860048036038101906104939190613507565b6116c1565b6040516104a591906134d1565b60405180910390f35b3480156104ba57600080fd5b506104c3611778565b005b3480156104d157600080fd5b506104ec60048036038101906104e79190613507565b61178c565b6040516104f99190613158565b60405180910390f35b34801561050e57600080fd5b5061051761182f565b6040516105249190613158565b60405180910390f35b34801561053957600080fd5b50610554600480360381019061054f9190613507565b611859565b6040516105619190613158565b60405180910390f35b34801561057657600080fd5b50610591600480360381019061058c9190613534565b6118fc565b005b34801561059f57600080fd5b506105ba60048036038101906105b591906130ea565b611a52565b6040516105c791906134d1565b60405180910390f35b3480156105dc57600080fd5b506105e5611abb565b6040516105f29190613092565b60405180910390f35b34801561060757600080fd5b50610610611b4d565b60405161061d91906134d1565b60405180910390f35b34801561063257600080fd5b5061063b611b53565b60405161064891906134d1565b60405180910390f35b34801561065d57600080fd5b50610678600480360381019061067391906135a0565b611b59565b005b34801561068657600080fd5b506106a1600480360381019061069c91906130ea565b611b6f565b6040516106b5989796959493929190613262565b60405180910390f35b3480156106ca57600080fd5b506106e560048036038101906106e09190613681565b611dac565b005b3480156106f357600080fd5b506106fc611e0e565b60405161070991906134d1565b60405180910390f35b34801561071e57600080fd5b50610739600480360381019061073491906130ea565b611e14565b6040516107469190613158565b60405180910390f35b34801561075b57600080fd5b5061077660048036038101906107719190613534565b611e47565b005b34801561078457600080fd5b5061079f600480360381019061079a91906130ea565b611efe565b6040516107ac9190613092565b60405180910390f35b3480156107c157600080fd5b506107dc60048036038101906107d79190613704565b612010565b6040516107e99190612fe7565b60405180910390f35b3480156107fe57600080fd5b5061081960048036038101906108149190613507565b6120a4565b005b34801561082757600080fd5b50610830612127565b60405161083d9190613158565b60405180910390f35b60007f80ac58cd000000000000000000000000000000000000000000000000000000007bffffffffffffffffffffffffffffffffffffffffffffffffffffffff1916827bffffffffffffffffffffffffffffffffffffffffffffffffffffffff1916148061091157507f5b5e139f000000000000000000000000000000000000000000000000000000007bffffffffffffffffffffffffffffffffffffffffffffffffffffffff1916827bffffffffffffffffffffffffffffffffffffffffffffffffffffffff1916145b8061092157506109208261214d565b5b9050919050565b60606000805461093790613773565b80601f016020809104026020016040519081016040528092919081815260200182805461096390613773565b80156109b05780601f10610985576101008083540402835291602001916109b0565b820191906000526020600020905b81548152906001019060200180831161099357829003601f168201915b5050505050905090565b60006109c5826121b7565b6004600083815260200190815260200160002060009054906101000a900473ffffffffffffffffffffffffffffffffffffffff169050919050565b6000610a0b826115ea565b90508073ffffffffffffffffffffffffffffffffffffffff168373ffffffffffffffffffffffffffffffffffffffff1603610a7b576040517f08c379a0000000000000000000000000000000000000000000000000000000008152600401610a7290613816565b60405180910390fd5b8073ffffffffffffffffffffffffffffffffffffffff16610a9a612202565b73ffffffffffffffffffffffffffffffffffffffff161480610ac95750610ac881610ac3612202565b612010565b5b610b08576040517f08c379a0000000000000000000000000000000000000000000000000000000008152600401610aff906138a8565b60405180910390fd5b610b12838361220a565b505050565b610b28610b22612202565b826122c3565b610b67576040517f08c379a0000000000000000000000000000000000000000000000000000000008152600401610b5e9061393a565b60405180910390fd5b610b72838383612358565b505050565b600f602052806000526040600020600091509050806000015490806001018054610ba090613773565b80601f0160208091040260200160405190810160405280929190818152602001828054610bcc90613773565b8015610c195780601f10610bee57610100808354040283529160200191610c19565b820191906000526020600020905b815481529060010190602001808311610bfc57829003601f168201915b505050505090806002018054610c2e90613773565b80601f0160208091040260200160405190810160405280929190818152602001828054610c5a90613773565b8015610ca75780601f10610c7c57610100808354040283529160200191610ca7565b820191906000526020600020905b815481529060010190602001808311610c8a57829003601f168201915b5050505050908060030160009054906101000a900473ffffffffffffffffffffffffffffffffffffffff1690806004018054610ce290613773565b80601f0160208091040260200160405190810160405280929190818152602001828054610d0e90613773565b8015610d5b5780601f10610d3057610100808354040283529160200191610d5b565b820191906000526020600020905b815481529060010190602001808311610d3e57829003601f168201915b5050505050908060050154908060060160009054906101000a900460ff16908060060160019054906101000a900473ffffffffffffffffffffffffffffffffffffffff16905088565b6000600f600083815260200190815260200160002090508060030160009054906101000a900473ffffffffffffffffffffffffffffffffffffffff1673ffffffffffffffffffffffffffffffffffffffff163373ffffffffffffffffffffffffffffffffffffffff1614610e4d576040517f08c379a0000000000000000000000000000000000000000000000000000000008152600401610e44906139cc565b60405180910390fd5b610e5c30338360000154612358565b60008160060160006101000a81548160ff0219169083151502179055506000816005018190555080600001547f0151dfa0184160d46fa1bdc2b7c8354feb0cf4893c3d8c911d04d50314d879d03383600401604051610ebc929190613a85565b60405180910390a25050565b610ee383838360405180602001604052806000815250611dac565b505050565b6000610ef460086125be565b60096000815480929190610f0790613ae4565b91905055506000610f1860086125d4565b9050610f2433826125e2565b33600e600083815260200190815260200160002060006101000a81548173ffffffffffffffffffffffffffffffffffffffff021916908373ffffffffffffffffffffffffffffffffffffffff160217905550610f8081866127bb565b6040518061010001604052808281526020018581526020018481526020013373ffffffffffffffffffffffffffffffffffffffff168152602001868152602001600081526020016000151581526020013373ffffffffffffffffffffffffffffffffffffffff16815250600f600083815260200190815260200160002060008201518160000155602082015181600101908161101c9190613cc3565b5060408201518160020190816110329190613cc3565b5060608201518160030160006101000a81548173ffffffffffffffffffffffffffffffffffffffff021916908373ffffffffffffffffffffffffffffffffffffffff160217905550608082015181600401908161108f9190613cc3565b5060a0820151816005015560c08201518160060160006101000a81548160ff02191690831515021790555060e08201518160060160016101000a81548173ffffffffffffffffffffffffffffffffffffffff021916908373ffffffffffffffffffffffffffffffffffffffff16021790555090505060106040518061010001604052808381526020018681526020018581526020013373ffffffffffffffffffffffffffffffffffffffff168152602001878152602001600081526020016000151581526020013373ffffffffffffffffffffffffffffffffffffffff1681525090806001815401808255809150506001900390600052602060002090600702016000909190919091506000820151816000015560208201518160010190816111b89190613cc3565b5060408201518160020190816111ce9190613cc3565b5060608201518160030160006101000a81548173ffffffffffffffffffffffffffffffffffffffff021916908373ffffffffffffffffffffffffffffffffffffffff160217905550608082015181600401908161122b9190613cc3565b5060a0820151816005015560c08201518160060160006101000a81548160ff02191690831515021790555060e08201518160060160016101000a81548173ffffffffffffffffffffffffffffffffffffffff021916908373ffffffffffffffffffffffffffffffffffffffff1602179055505050807f47a149be5ec47637b9e89787b9b21ff88b0b783100d80221f6a5edc5c8d77c4033876040516112d1929190613d95565b60405180910390a2809150509392505050565b6000600d60009054906101000a900473ffffffffffffffffffffffffffffffffffffffff1673ffffffffffffffffffffffffffffffffffffffff163373ffffffffffffffffffffffffffffffffffffffff161461134057600080fd5b81600b8190559050919050565b6000600f600083815260200190815260200160002090506000600a54600a54836005015461137b9190613dc5565b6113859190613dc5565b9050803410156113ca576040517f08c379a00000000000000000000000000000000000000000000000000000000081526004016113c190613e45565b60405180910390fd5b6000600b54600a546113dc9190613dc5565b9050600081346113ec9190613e65565b90508360060160019054906101000a900473ffffffffffffffffffffffffffffffffffffffff1673ffffffffffffffffffffffffffffffffffffffff166108fc600b549081150290604051600060405180830381858888f1935050505015801561145a573d6000803e3d6000fd5b50600c60009054906101000a900473ffffffffffffffffffffffffffffffffffffffff1673ffffffffffffffffffffffffffffffffffffffff166108fc600a549081150290604051600060405180830381858888f193505050501580156114c5573d6000803e3d6000fd5b508360030160009054906101000a900473ffffffffffffffffffffffffffffffffffffffff1673ffffffffffffffffffffffffffffffffffffffff166108fc829081150290604051600060405180830381858888f19350505050158015611530573d6000803e3d6000fd5b5061154030338660000154612358565b338460030160006101000a81548173ffffffffffffffffffffffffffffffffffffffff021916908373ffffffffffffffffffffffffffffffffffffffff16021790555060008460060160006101000a81548160ff02191690831515021790555083600001547f8500049995184367829fb7fae51b1cc359bdd658bae20e3e42f7788a4a72b9ec3386600401346040516115db93929190613e99565b60405180910390a25050505050565b6000806002600084815260200190815260200160002060009054906101000a900473ffffffffffffffffffffffffffffffffffffffff169050600073ffffffffffffffffffffffffffffffffffffffff168173ffffffffffffffffffffffffffffffffffffffff1603611692576040517f08c379a000000000000000000000000000000000000000000000000000000000815260040161168990613f23565b60405180910390fd5b80915050919050565b600c60009054906101000a900473ffffffffffffffffffffffffffffffffffffffff1681565b60008073ffffffffffffffffffffffffffffffffffffffff168273ffffffffffffffffffffffffffffffffffffffff1603611731576040517f08c379a000000000000000000000000000000000000000000000000000000000815260040161172890613fb5565b60405180910390fd5b600360008373ffffffffffffffffffffffffffffffffffffffff1673ffffffffffffffffffffffffffffffffffffffff168152602001908152602001600020549050919050565b611780612828565b61178a60006128a6565b565b6000600d60009054906101000a900473ffffffffffffffffffffffffffffffffffffffff1673ffffffffffffffffffffffffffffffffffffffff163373ffffffffffffffffffffffffffffffffffffffff16146117e857600080fd5b81600c60006101000a81548173ffffffffffffffffffffffffffffffffffffffff021916908373ffffffffffffffffffffffffffffffffffffffff16021790559050919050565b6000600760009054906101000a900473ffffffffffffffffffffffffffffffffffffffff16905090565b6000600d60009054906101000a900473ffffffffffffffffffffffffffffffffffffffff1673ffffffffffffffffffffffffffffffffffffffff163373ffffffffffffffffffffffffffffffffffffffff16146118b557600080fd5b81600d60006101000a81548173ffffffffffffffffffffffffffffffffffffffff021916908373ffffffffffffffffffffffffffffffffffffffff16021790559050919050565b611905826115ea565b73ffffffffffffffffffffffffffffffffffffffff163373ffffffffffffffffffffffffffffffffffffffff1614611972576040517f08c379a000000000000000000000000000000000000000000000000000000000815260040161196990614021565b60405180910390fd5b6000600f6000848152602001908152602001600020905060018160060160006101000a81548160ff021916908315150217905550818160050181905550338160030160006101000a81548173ffffffffffffffffffffffffffffffffffffffff021916908373ffffffffffffffffffffffffffffffffffffffff1602179055506119fd306001611b59565b611a0c33308360000154610b17565b80600001547fe6c8782faa62f3a011302c0c76e85cec78d2d6afd27133ea7ab7a42b64abe93e3383600401604051611a45929190613a85565b60405180910390a2505050565b6000600d60009054906101000a900473ffffffffffffffffffffffffffffffffffffffff1673ffffffffffffffffffffffffffffffffffffffff163373ffffffffffffffffffffffffffffffffffffffff1614611aae57600080fd5b81600a8190559050919050565b606060018054611aca90613773565b80601f0160208091040260200160405190810160405280929190818152602001828054611af690613773565b8015611b435780601f10611b1857610100808354040283529160200191611b43565b820191906000526020600020905b815481529060010190602001808311611b2657829003601f168201915b5050505050905090565b600a5481565b60095481565b611b6b611b64612202565b838361296c565b5050565b60108181548110611b7f57600080fd5b9060005260206000209060070201600091509050806000015490806001018054611ba890613773565b80601f0160208091040260200160405190810160405280929190818152602001828054611bd490613773565b8015611c215780601f10611bf657610100808354040283529160200191611c21565b820191906000526020600020905b815481529060010190602001808311611c0457829003601f168201915b505050505090806002018054611c3690613773565b80601f0160208091040260200160405190810160405280929190818152602001828054611c6290613773565b8015611caf5780601f10611c8457610100808354040283529160200191611caf565b820191906000526020600020905b815481529060010190602001808311611c9257829003601f168201915b5050505050908060030160009054906101000a900473ffffffffffffffffffffffffffffffffffffffff1690806004018054611cea90613773565b80601f0160208091040260200160405190810160405280929190818152602001828054611d1690613773565b8015611d635780601f10611d3857610100808354040283529160200191611d63565b820191906000526020600020905b815481529060010190602001808311611d4657829003601f168201915b5050505050908060050154908060060160009054906101000a900460ff16908060060160019054906101000a900473ffffffffffffffffffffffffffffffffffffffff16905088565b611dbd611db7612202565b836122c3565b611dfc576040517f08c379a0000000000000000000000000000000000000000000000000000000008152600401611df39061393a565b60405180910390fd5b611e0884848484612ad8565b50505050565b600b5481565b600e6020528060005260406000206000915054906101000a900473ffffffffffffffffffffffffffffffffffffffff1681565b6000600f600084815260200190815260200160002090508060030160009054906101000a900473ffffffffffffffffffffffffffffffffffffffff1673ffffffffffffffffffffffffffffffffffffffff163373ffffffffffffffffffffffffffffffffffffffff1614611ef0576040517f08c379a0000000000000000000000000000000000000000000000000000000008152600401611ee7906139cc565b60405180910390fd5b818160050181905550505050565b6060611f09826121b7565b6000600660008481526020019081526020016000208054611f2990613773565b80601f0160208091040260200160405190810160405280929190818152602001828054611f5590613773565b8015611fa25780601f10611f7757610100808354040283529160200191611fa2565b820191906000526020600020905b815481529060010190602001808311611f8557829003601f168201915b505050505090506000611fb3612b34565b90506000815103611fc857819250505061200b565b600082511115611ffd578082604051602001611fe592919061407d565b6040516020818303038152906040529250505061200b565b61200684612b4b565b925050505b919050565b6000600560008473ffffffffffffffffffffffffffffffffffffffff1673ffffffffffffffffffffffffffffffffffffffff16815260200190815260200160002060008373ffffffffffffffffffffffffffffffffffffffff1673ffffffffffffffffffffffffffffffffffffffff16815260200190815260200160002060009054906101000a900460ff16905092915050565b6120ac612828565b600073ffffffffffffffffffffffffffffffffffffffff168173ffffffffffffffffffffffffffffffffffffffff160361211b576040517f08c379a000000000000000000000000000000000000000000000000000000000815260040161211290614113565b60405180910390fd5b612124816128a6565b50565b600d60009054906101000a900473ffffffffffffffffffffffffffffffffffffffff1681565b60007f01ffc9a7000000000000000000000000000000000000000000000000000000007bffffffffffffffffffffffffffffffffffffffffffffffffffffffff1916827bffffffffffffffffffffffffffffffffffffffffffffffffffffffff1916149050919050565b6121c081612bb3565b6121ff576040517f08c379a00000000000000000000000000000000000000000000000000000000081526004016121f690613f23565b60405180910390fd5b50565b600033905090565b816004600083815260200190815260200160002060006101000a81548173ffffffffffffffffffffffffffffffffffffffff021916908373ffffffffffffffffffffffffffffffffffffffff160217905550808273ffffffffffffffffffffffffffffffffffffffff1661227d836115ea565b73ffffffffffffffffffffffffffffffffffffffff167f8c5be1e5ebec7d5bd14f71427d1e84f3dd0314c0f7b2291e5b200ac8c7c3b92560405160405180910390a45050565b6000806122cf836115ea565b90508073ffffffffffffffffffffffffffffffffffffffff168473ffffffffffffffffffffffffffffffffffffffff16148061231157506123108185612010565b5b8061234f57508373ffffffffffffffffffffffffffffffffffffffff16612337846109ba565b73ffffffffffffffffffffffffffffffffffffffff16145b91505092915050565b8273ffffffffffffffffffffffffffffffffffffffff16612378826115ea565b73ffffffffffffffffffffffffffffffffffffffff16146123ce576040517f08c379a00000000000000000000000000000000000000000000000000000000081526004016123c5906141a5565b60405180910390fd5b600073ffffffffffffffffffffffffffffffffffffffff168273ffffffffffffffffffffffffffffffffffffffff160361243d576040517f08c379a000000000000000000000000000000000000000000000000000000000815260040161243490614237565b60405180910390fd5b612448838383612c1f565b61245360008261220a565b6001600360008573ffffffffffffffffffffffffffffffffffffffff1673ffffffffffffffffffffffffffffffffffffffff16815260200190815260200160002060008282546124a39190613e65565b925050819055506001600360008473ffffffffffffffffffffffffffffffffffffffff1673ffffffffffffffffffffffffffffffffffffffff16815260200190815260200160002060008282546124fa9190613dc5565b92505081905550816002600083815260200190815260200160002060006101000a81548173ffffffffffffffffffffffffffffffffffffffff021916908373ffffffffffffffffffffffffffffffffffffffff160217905550808273ffffffffffffffffffffffffffffffffffffffff168473ffffffffffffffffffffffffffffffffffffffff167fddf252ad1be2c89b69c2b068fc378daa952ba7f163c4a11628f55a4df523b3ef60405160405180910390a46125b9838383612c24565b505050565b6001816000016000828254019250508190555050565b600081600001549050919050565b600073ffffffffffffffffffffffffffffffffffffffff168273ffffffffffffffffffffffffffffffffffffffff1603612651576040517f08c379a0000000000000000000000000000000000000000000000000000000008152600401612648906142a3565b60405180910390fd5b61265a81612bb3565b1561269a576040517f08c379a00000000000000000000000000000000000000000000000000000000081526004016126919061430f565b60405180910390fd5b6126a660008383612c1f565b6001600360008473ffffffffffffffffffffffffffffffffffffffff1673ffffffffffffffffffffffffffffffffffffffff16815260200190815260200160002060008282546126f69190613dc5565b92505081905550816002600083815260200190815260200160002060006101000a81548173ffffffffffffffffffffffffffffffffffffffff021916908373ffffffffffffffffffffffffffffffffffffffff160217905550808273ffffffffffffffffffffffffffffffffffffffff16600073ffffffffffffffffffffffffffffffffffffffff167fddf252ad1be2c89b69c2b068fc378daa952ba7f163c4a11628f55a4df523b3ef60405160405180910390a46127b760008383612c24565b5050565b6127c482612bb3565b612803576040517f08c379a00000000000000000000000000000000000000000000000000000000081526004016127fa906143a1565b60405180910390fd5b806006600084815260200190815260200160002090816128239190613cc3565b505050565b612830612202565b73ffffffffffffffffffffffffffffffffffffffff1661284e61182f565b73ffffffffffffffffffffffffffffffffffffffff16146128a4576040517f08c379a000000000000000000000000000000000000000000000000000000000815260040161289b9061440d565b60405180910390fd5b565b6000600760009054906101000a900473ffffffffffffffffffffffffffffffffffffffff16905081600760006101000a81548173ffffffffffffffffffffffffffffffffffffffff021916908373ffffffffffffffffffffffffffffffffffffffff1602179055508173ffffffffffffffffffffffffffffffffffffffff168173ffffffffffffffffffffffffffffffffffffffff167f8be0079c531659141344cd1fd0a4f28419497f9722a3daafe3b4186f6b6457e060405160405180910390a35050565b8173ffffffffffffffffffffffffffffffffffffffff168373ffffffffffffffffffffffffffffffffffffffff16036129da576040517f08c379a00000000000000000000000000000000000000000000000000000000081526004016129d190614479565b60405180910390fd5b80600560008573ffffffffffffffffffffffffffffffffffffffff1673ffffffffffffffffffffffffffffffffffffffff16815260200190815260200160002060008473ffffffffffffffffffffffffffffffffffffffff1673ffffffffffffffffffffffffffffffffffffffff16815260200190815260200160002060006101000a81548160ff0219169083151502179055508173ffffffffffffffffffffffffffffffffffffffff168373ffffffffffffffffffffffffffffffffffffffff167f17307eab39ab6107e8899845ad3d59bd9653f200f220920489ca2b5937696c3183604051612acb9190612fe7565b60405180910390a3505050565b612ae3848484612358565b612aef84848484612c29565b612b2e576040517f08c379a0000000000000000000000000000000000000000000000000000000008152600401612b259061450b565b60405180910390fd5b50505050565b606060405180602001604052806000815250905090565b6060612b56826121b7565b6000612b60612b34565b90506000815111612b805760405180602001604052806000815250612bab565b80612b8a84612db0565b604051602001612b9b92919061407d565b6040516020818303038152906040525b915050919050565b60008073ffffffffffffffffffffffffffffffffffffffff166002600084815260200190815260200160002060009054906101000a900473ffffffffffffffffffffffffffffffffffffffff1673ffffffffffffffffffffffffffffffffffffffff1614159050919050565b505050565b505050565b6000612c4a8473ffffffffffffffffffffffffffffffffffffffff16612f10565b15612da3578373ffffffffffffffffffffffffffffffffffffffff1663150b7a02612c73612202565b8786866040518563ffffffff1660e01b8152600401612c959493929190614580565b6020604051808303816000875af1925050508015612cd157506040513d601f19601f82011682018060405250810190612cce91906145e1565b60015b612d53573d8060008114612d01576040519150601f19603f3d011682016040523d82523d6000602084013e612d06565b606091505b506000815103612d4b576040517f08c379a0000000000000000000000000000000000000000000000000000000008152600401612d429061450b565b60405180910390fd5b805181602001fd5b63150b7a0260e01b7bffffffffffffffffffffffffffffffffffffffffffffffffffffffff1916817bffffffffffffffffffffffffffffffffffffffffffffffffffffffff191614915050612da8565b600190505b949350505050565b606060008203612df7576040518060400160405280600181526020017f30000000000000000000000000000000000000000000000000000000000000008152509050612f0b565b600082905060005b60008214612e29578080612e1290613ae4565b915050600a82612e22919061463d565b9150612dff565b60008167ffffffffffffffff811115612e4557612e446132ff565b5b6040519080825280601f01601f191660200182016040528015612e775781602001600182028036833780820191505090505b5090505b60008514612f0457600182612e909190613e65565b9150600a85612e9f919061466e565b6030612eab9190613dc5565b60f81b818381518110612ec157612ec061469f565b5b60200101907effffffffffffffffffffffffffffffffffffffffffffffffffffffffffffff1916908160001a905350600a85612efd919061463d565b9450612e7b565b8093505050505b919050565b6000808273ffffffffffffffffffffffffffffffffffffffff163b119050919050565b6000604051905090565b600080fd5b600080fd5b60007fffffffff0000000000000000000000000000000000000000000000000000000082169050919050565b612f7c81612f47565b8114612f8757600080fd5b50565b600081359050612f9981612f73565b92915050565b600060208284031215612fb557612fb4612f3d565b5b6000612fc384828501612f8a565b91505092915050565b60008115159050919050565b612fe181612fcc565b82525050565b6000602082019050612ffc6000830184612fd8565b92915050565b600081519050919050565b600082825260208201905092915050565b60005b8381101561303c578082015181840152602081019050613021565b60008484015250505050565b6000601f19601f8301169050919050565b600061306482613002565b61306e818561300d565b935061307e81856020860161301e565b61308781613048565b840191505092915050565b600060208201905081810360008301526130ac8184613059565b905092915050565b6000819050919050565b6130c7816130b4565b81146130d257600080fd5b50565b6000813590506130e4816130be565b92915050565b600060208284031215613100576130ff612f3d565b5b600061310e848285016130d5565b91505092915050565b600073ffffffffffffffffffffffffffffffffffffffff82169050919050565b600061314282613117565b9050919050565b61315281613137565b82525050565b600060208201905061316d6000830184613149565b92915050565b61317c81613137565b811461318757600080fd5b50565b60008135905061319981613173565b92915050565b600080604083850312156131b6576131b5612f3d565b5b60006131c48582860161318a565b92505060206131d5858286016130d5565b9150509250929050565b6000806000606084860312156131f8576131f7612f3d565b5b60006132068682870161318a565b93505060206132178682870161318a565b9250506040613228868287016130d5565b9150509250925092565b61323b816130b4565b82525050565b600061324c82613117565b9050919050565b61325c81613241565b82525050565b600061010082019050613278600083018b613232565b818103602083015261328a818a613059565b9050818103604083015261329e8189613059565b90506132ad6060830188613253565b81810360808301526132bf8187613059565b90506132ce60a0830186613232565b6132db60c0830185612fd8565b6132e860e0830184613253565b9998505050505050505050565b600080fd5b600080fd5b7f4e487b7100000000000000000000000000000000000000000000000000000000600052604160045260246000fd5b61333782613048565b810181811067ffffffffffffffff82111715613356576133556132ff565b5b80604052505050565b6000613369612f33565b9050613375828261332e565b919050565b600067ffffffffffffffff821115613395576133946132ff565b5b61339e82613048565b9050602081019050919050565b82818337600083830152505050565b60006133cd6133c88461337a565b61335f565b9050828152602081018484840111156133e9576133e86132fa565b5b6133f48482856133ab565b509392505050565b600082601f830112613411576134106132f5565b5b81356134218482602086016133ba565b91505092915050565b60008060006060848603121561344357613442612f3d565b5b600084013567ffffffffffffffff81111561346157613460612f42565b5b61346d868287016133fc565b935050602084013567ffffffffffffffff81111561348e5761348d612f42565b5b61349a868287016133fc565b925050604084013567ffffffffffffffff8111156134bb576134ba612f42565b5b6134c7868287016133fc565b9150509250925092565b60006020820190506134e66000830184613232565b92915050565b60006020820190506135016000830184613253565b92915050565b60006020828403121561351d5761351c612f3d565b5b600061352b8482850161318a565b91505092915050565b6000806040838503121561354b5761354a612f3d565b5b6000613559858286016130d5565b925050602061356a858286016130d5565b9150509250929050565b61357d81612fcc565b811461358857600080fd5b50565b60008135905061359a81613574565b92915050565b600080604083850312156135b7576135b6612f3d565b5b60006135c58582860161318a565b92505060206135d68582860161358b565b9150509250929050565b600067ffffffffffffffff8211156135fb576135fa6132ff565b5b61360482613048565b9050602081019050919050565b600061362461361f846135e0565b61335f565b9050828152602081018484840111156136405761363f6132fa565b5b61364b8482856133ab565b509392505050565b600082601f830112613668576136676132f5565b5b8135613678848260208601613611565b91505092915050565b6000806000806080858703121561369b5761369a612f3d565b5b60006136a98782880161318a565b94505060206136ba8782880161318a565b93505060406136cb878288016130d5565b925050606085013567ffffffffffffffff8111156136ec576136eb612f42565b5b6136f887828801613653565b91505092959194509250565b6000806040838503121561371b5761371a612f3d565b5b60006137298582860161318a565b925050602061373a8582860161318a565b9150509250929050565b7f4e487b7100000000000000000000000000000000000000000000000000000000600052602260045260246000fd5b6000600282049050600182168061378b57607f821691505b60208210810361379e5761379d613744565b5b50919050565b7f4552433732313a20617070726f76616c20746f2063757272656e74206f776e6560008201527f7200000000000000000000000000000000000000000000000000000000000000602082015250565b600061380060218361300d565b915061380b826137a4565b604082019050919050565b6000602082019050818103600083015261382f816137f3565b9050919050565b7f4552433732313a20617070726f76652063616c6c6572206973206e6f7420746f60008201527f6b656e206f776e6572206e6f7220617070726f76656420666f7220616c6c0000602082015250565b6000613892603e8361300d565b915061389d82613836565b604082019050919050565b600060208201905081810360008301526138c181613885565b9050919050565b7f4552433732313a2063616c6c6572206973206e6f7420746f6b656e206f776e6560008201527f72206e6f7220617070726f766564000000000000000000000000000000000000602082015250565b6000613924602e8361300d565b915061392f826138c8565b604082019050919050565b6000602082019050818103600083015261395381613917565b9050919050565b7f4f6e6c792063757272656e74206f776e65722063616e2063616e63656c206c6960008201527f7374696e67000000000000000000000000000000000000000000000000000000602082015250565b60006139b660258361300d565b91506139c18261395a565b604082019050919050565b600060208201905081810360008301526139e5816139a9565b9050919050565b60008190508160005260206000209050919050565b60008154613a0e81613773565b613a18818661300d565b94506001821660008114613a335760018114613a4957613a7c565b60ff198316865281151560200286019350613a7c565b613a52856139ec565b60005b83811015613a7457815481890152600182019150602081019050613a55565b808801955050505b50505092915050565b6000604082019050613a9a6000830185613149565b8181036020830152613aac8184613a01565b90509392505050565b7f4e487b7100000000000000000000000000000000000000000000000000000000600052601160045260246000fd5b6000613aef826130b4565b91507fffffffffffffffffffffffffffffffffffffffffffffffffffffffffffffffff8203613b2157613b20613ab5565b5b600182019050919050565b60006020601f8301049050919050565b600082821b905092915050565b600060088302613b797fffffffffffffffffffffffffffffffffffffffffffffffffffffffffffffffff82613b3c565b613b838683613b3c565b95508019841693508086168417925050509392505050565b6000819050919050565b6000613bc0613bbb613bb6846130b4565b613b9b565b6130b4565b9050919050565b6000819050919050565b613bda83613ba5565b613bee613be682613bc7565b848454613b49565b825550505050565b600090565b613c03613bf6565b613c0e818484613bd1565b505050565b5b81811015613c3257613c27600082613bfb565b600181019050613c14565b5050565b601f821115613c7757613c48816139ec565b613c5184613b2c565b81016020851015613c60578190505b613c74613c6c85613b2c565b830182613c13565b50505b505050565b600082821c905092915050565b6000613c9a60001984600802613c7c565b1980831691505092915050565b6000613cb38383613c89565b9150826002028217905092915050565b613ccc82613002565b67ffffffffffffffff811115613ce557613ce46132ff565b5b613cef8254613773565b613cfa828285613c36565b600060209050601f831160018114613d2d5760008415613d1b578287015190505b613d258582613ca7565b865550613d8d565b601f198416613d3b866139ec565b60005b82811015613d6357848901518255600182019150602085019450602081019050613d3e565b86831015613d805784890151613d7c601f891682613c89565b8355505b6001600288020188555050505b505050505050565b6000604082019050613daa6000830185613149565b8181036020830152613dbc8184613059565b90509392505050565b6000613dd0826130b4565b9150613ddb836130b4565b9250828201905080821115613df357613df2613ab5565b5b92915050565b7f506c65617365207061792074686520726571756972656420616d6f756e740000600082015250565b6000613e2f601e8361300d565b9150613e3a82613df9565b602082019050919050565b60006020820190508181036000830152613e5e81613e22565b9050919050565b6000613e70826130b4565b9150613e7b836130b4565b9250828203905081811115613e9357613e92613ab5565b5b92915050565b6000606082019050613eae6000830186613149565b8181036020830152613ec08185613a01565b9050613ecf6040830184613232565b949350505050565b7f4552433732313a20696e76616c696420746f6b656e2049440000000000000000600082015250565b6000613f0d60188361300d565b9150613f1882613ed7565b602082019050919050565b60006020820190508181036000830152613f3c81613f00565b9050919050565b7f4552433732313a2061646472657373207a65726f206973206e6f74206120766160008201527f6c6964206f776e65720000000000000000000000000000000000000000000000602082015250565b6000613f9f60298361300d565b9150613faa82613f43565b604082019050919050565b60006020820190508181036000830152613fce81613f92565b9050919050565b7f63616e6e6f74206c69737420736f6e677320796f7520646f206e6f74206f776e600082015250565b600061400b60208361300d565b915061401682613fd5565b602082019050919050565b6000602082019050818103600083015261403a81613ffe565b9050919050565b600081905092915050565b600061405782613002565b6140618185614041565b935061407181856020860161301e565b80840191505092915050565b6000614089828561404c565b9150614095828461404c565b91508190509392505050565b7f4f776e61626c653a206e6577206f776e657220697320746865207a65726f206160008201527f6464726573730000000000000000000000000000000000000000000000000000602082015250565b60006140fd60268361300d565b9150614108826140a1565b604082019050919050565b6000602082019050818103600083015261412c816140f0565b9050919050565b7f4552433732313a207472616e736665722066726f6d20696e636f72726563742060008201527f6f776e6572000000000000000000000000000000000000000000000000000000602082015250565b600061418f60258361300d565b915061419a82614133565b604082019050919050565b600060208201905081810360008301526141be81614182565b9050919050565b7f4552433732313a207472616e7366657220746f20746865207a65726f2061646460008201527f7265737300000000000000000000000000000000000000000000000000000000602082015250565b600061422160248361300d565b915061422c826141c5565b604082019050919050565b6000602082019050818103600083015261425081614214565b9050919050565b7f4552433732313a206d696e7420746f20746865207a65726f2061646472657373600082015250565b600061428d60208361300d565b915061429882614257565b602082019050919050565b600060208201905081810360008301526142bc81614280565b9050919050565b7f4552433732313a20746f6b656e20616c7265616479206d696e74656400000000600082015250565b60006142f9601c8361300d565b9150614304826142c3565b602082019050919050565b60006020820190508181036000830152614328816142ec565b9050919050565b7f45524337323155524953746f726167653a2055524920736574206f66206e6f6e60008201527f6578697374656e7420746f6b656e000000000000000000000000000000000000602082015250565b600061438b602e8361300d565b91506143968261432f565b604082019050919050565b600060208201905081810360008301526143ba8161437e565b9050919050565b7f4f776e61626c653a2063616c6c6572206973206e6f7420746865206f776e6572600082015250565b60006143f760208361300d565b9150614402826143c1565b602082019050919050565b60006020820190508181036000830152614426816143ea565b9050919050565b7f4552433732313a20617070726f766520746f2063616c6c657200000000000000600082015250565b600061446360198361300d565b915061446e8261442d565b602082019050919050565b6000602082019050818103600083015261449281614456565b9050919050565b7f4552433732313a207472616e7366657220746f206e6f6e20455243373231526560008201527f63656976657220696d706c656d656e7465720000000000000000000000000000602082015250565b60006144f560328361300d565b915061450082614499565b604082019050919050565b60006020820190508181036000830152614524816144e8565b9050919050565b600081519050919050565b600082825260208201905092915050565b60006145528261452b565b61455c8185614536565b935061456c81856020860161301e565b61457581613048565b840191505092915050565b60006080820190506145956000830187613149565b6145a26020830186613149565b6145af6040830185613232565b81810360608301526145c18184614547565b905095945050505050565b6000815190506145db81612f73565b92915050565b6000602082840312156145f7576145f6612f3d565b5b6000614605848285016145cc565b91505092915050565b7f4e487b7100000000000000000000000000000000000000000000000000000000600052601260045260246000fd5b6000614648826130b4565b9150614653836130b4565b9250826146635761466261460e565b5b828204905092915050565b6000614679826130b4565b9150614684836130b4565b9250826146945761469361460e565b5b828206905092915050565b7f4e487b7100000000000000000000000000000000000000000000000000000000600052603260045260246000fdfea2646970667358221220a57758abe30e24ebd2922e1a861a23d84c57dccb9223e189c6feae4e45ffc28964736f6c63430008110033",
    "linkReferences": {},
    "deployedLinkReferences": {}
}