{
  "_format": "hh-sol-artifact-1",
  "contractName": "DefiBeats",
  "sourceName": "contracts/DefiBeats.sol",
  "abi": [
    {
      "inputs": [],
      "stateMutability": "nonpayable",
      "type": "constructor"
    },
    {
      "anonymous": false,
      "inputs": [
        {
          "indexed": true,
          "internalType": "address",
          "name": "owner",
          "type": "address"
        },
        {
          "indexed": true,
          "internalType": "address",
          "name": "approved",
          "type": "address"
        },
        {
          "indexed": true,
          "internalType": "uint256",
          "name": "tokenId",
          "type": "uint256"
        }
      ],
      "name": "Approval",
      "type": "event"
    },
    {
      "anonymous": false,
      "inputs": [
        {
          "indexed": true,
          "internalType": "address",
          "name": "owner",
          "type": "address"
        },
        {
          "indexed": true,
          "internalType": "address",
          "name": "operator",
          "type": "address"
        },
        {
          "indexed": false,
          "internalType": "bool",
          "name": "approved",
          "type": "bool"
        }
      ],
      "name": "ApprovalForAll",
      "type": "event"
    },
    {
      "anonymous": false,
      "inputs": [
        {
          "indexed": true,
          "internalType": "address",
          "name": "previousOwner",
          "type": "address"
        },
        {
          "indexed": true,
          "internalType": "address",
          "name": "newOwner",
          "type": "address"
        }
      ],
      "name": "OwnershipTransferred",
      "type": "event"
    },
    {
      "anonymous": false,
      "inputs": [
        {
          "indexed": true,
          "internalType": "uint256",
          "name": "tokenId",
          "type": "uint256"
        },
        {
          "indexed": false,
          "internalType": "address",
          "name": "seller",
          "type": "address"
        },
        {
          "indexed": false,
          "internalType": "string",
          "name": "tokenUri",
          "type": "string"
        }
      ],
      "name": "SongCancelled",
      "type": "event"
    },
    {
      "anonymous": false,
      "inputs": [
        {
          "indexed": true,
          "internalType": "uint256",
          "name": "tokenId",
          "type": "uint256"
        },
        {
          "indexed": false,
          "internalType": "address",
          "name": "seller",
          "type": "address"
        },
        {
          "indexed": false,
          "internalType": "string",
          "name": "tokenUri",
          "type": "string"
        }
      ],
      "name": "SongListed",
      "type": "event"
    },
    {
      "anonymous": false,
      "inputs": [
        {
          "indexed": true,
          "internalType": "uint256",
          "name": "tokenId",
          "type": "uint256"
        },
        {
          "indexed": true,
          "internalType": "address",
          "name": "producer",
          "type": "address"
        },
        {
          "indexed": false,
          "internalType": "string",
          "name": "tokenUri",
          "type": "string"
        }
      ],
      "name": "SongMade",
      "type": "event"
    },
    {
      "anonymous": false,
      "inputs": [
        {
          "indexed": true,
          "internalType": "uint256",
          "name": "tokenId",
          "type": "uint256"
        },
        {
          "indexed": false,
          "internalType": "address",
          "name": "seller",
          "type": "address"
        },
        {
          "indexed": false,
          "internalType": "string",
          "name": "tokenUri",
          "type": "string"
        },
        {
          "indexed": true,
          "internalType": "uint256",
          "name": "price",
          "type": "uint256"
        }
      ],
      "name": "SongPurchased",
      "type": "event"
    },
    {
      "anonymous": false,
      "inputs": [
        {
          "indexed": true,
          "internalType": "address",
          "name": "from",
          "type": "address"
        },
        {
          "indexed": true,
          "internalType": "address",
          "name": "to",
          "type": "address"
        },
        {
          "indexed": true,
          "internalType": "uint256",
          "name": "tokenId",
          "type": "uint256"
        }
      ],
      "name": "Transfer",
      "type": "event"
    },
    {
      "inputs": [],
      "name": "admin",
      "outputs": [
        {
          "internalType": "address",
          "name": "",
          "type": "address"
        }
      ],
      "stateMutability": "view",
      "type": "function"
    },
    {
      "inputs": [
        {
          "internalType": "uint256",
          "name": "",
          "type": "uint256"
        }
      ],
      "name": "allSongs",
      "outputs": [
        {
          "internalType": "uint256",
          "name": "tokenId",
          "type": "uint256"
        },
        {
          "internalType": "string",
          "name": "name",
          "type": "string"
        },
        {
          "internalType": "string",
          "name": "collection",
          "type": "string"
        },
        {
          "internalType": "address payable",
          "name": "currentOwner",
          "type": "address"
        },
        {
          "internalType": "string",
          "name": "tokenUri",
          "type": "string"
        },
        {
          "internalType": "uint256",
          "name": "price",
          "type": "uint256"
        },
        {
          "internalType": "bool",
          "name": "isForSale",
          "type": "bool"
        },
        {
          "internalType": "address payable",
          "name": "originalProducer",
          "type": "address"
        }
      ],
      "stateMutability": "view",
      "type": "function"
    },
    {
      "inputs": [
        {
          "internalType": "address",
          "name": "to",
          "type": "address"
        },
        {
          "internalType": "uint256",
          "name": "tokenId",
          "type": "uint256"
        }
      ],
      "name": "approve",
      "outputs": [],
      "stateMutability": "nonpayable",
      "type": "function"
    },
    {
      "inputs": [
        {
          "internalType": "address",
          "name": "owner",
          "type": "address"
        }
      ],
      "name": "balanceOf",
      "outputs": [
        {
          "internalType": "uint256",
          "name": "",
          "type": "uint256"
        }
      ],
      "stateMutability": "view",
      "type": "function"
    },
    {
      "inputs": [
        {
          "internalType": "uint256",
          "name": "songNumber",
          "type": "uint256"
        }
      ],
      "name": "buySong",
      "outputs": [],
      "stateMutability": "payable",
      "type": "function"
    },
    {
      "inputs": [
        {
          "internalType": "uint256",
          "name": "songNumber",
          "type": "uint256"
        }
      ],
      "name": "cancelListing",
      "outputs": [],
      "stateMutability": "nonpayable",
      "type": "function"
    },
    {
      "inputs": [
        {
          "internalType": "address",
          "name": "newAdmin",
          "type": "address"
        }
      ],
      "name": "changeAdmin",
      "outputs": [
        {
          "internalType": "address",
          "name": "",
          "type": "address"
        }
      ],
      "stateMutability": "nonpayable",
      "type": "function"
    },
    {
      "inputs": [
        {
          "internalType": "address",
          "name": "newFeeAddress",
          "type": "address"
        }
      ],
      "name": "changeFeeAccount",
      "outputs": [
        {
          "internalType": "address",
          "name": "",
          "type": "address"
        }
      ],
      "stateMutability": "nonpayable",
      "type": "function"
    },
    {
      "inputs": [],
      "name": "featuredSong",
      "outputs": [
        {
          "internalType": "uint256",
          "name": "tokenId",
          "type": "uint256"
        },
        {
          "internalType": "string",
          "name": "name",
          "type": "string"
        },
        {
          "internalType": "string",
          "name": "collection",
          "type": "string"
        },
        {
          "internalType": "address payable",
          "name": "currentOwner",
          "type": "address"
        },
        {
          "internalType": "string",
          "name": "tokenUri",
          "type": "string"
        },
        {
          "internalType": "uint256",
          "name": "price",
          "type": "uint256"
        },
        {
          "internalType": "bool",
          "name": "isForSale",
          "type": "bool"
        },
        {
          "internalType": "address payable",
          "name": "originalProducer",
          "type": "address"
        }
      ],
      "stateMutability": "view",
      "type": "function"
    },
    {
      "inputs": [],
      "name": "feeAccount",
      "outputs": [
        {
          "internalType": "address payable",
          "name": "",
          "type": "address"
        }
      ],
      "stateMutability": "view",
      "type": "function"
    },
    {
      "inputs": [
        {
          "internalType": "uint256",
          "name": "tokenId",
          "type": "uint256"
        }
      ],
      "name": "getApproved",
      "outputs": [
        {
          "internalType": "address",
          "name": "",
          "type": "address"
        }
      ],
      "stateMutability": "view",
      "type": "function"
    },
    {
      "inputs": [
        {
          "internalType": "address",
          "name": "owner",
          "type": "address"
        },
        {
          "internalType": "address",
          "name": "operator",
          "type": "address"
        }
      ],
      "name": "isApprovedForAll",
      "outputs": [
        {
          "internalType": "bool",
          "name": "",
          "type": "bool"
        }
      ],
      "stateMutability": "view",
      "type": "function"
    },
    {
      "inputs": [
        {
          "internalType": "uint256",
          "name": "songNumber",
          "type": "uint256"
        },
        {
          "internalType": "uint256",
          "name": "songPrice",
          "type": "uint256"
        }
      ],
      "name": "listSong",
      "outputs": [],
      "stateMutability": "nonpayable",
      "type": "function"
    },
    {
      "inputs": [
        {
          "internalType": "string",
          "name": "_tokenUri",
          "type": "string"
        },
        {
          "internalType": "string",
          "name": "songName",
          "type": "string"
        },
        {
          "internalType": "string",
          "name": "collection",
          "type": "string"
        }
      ],
      "name": "makeSong",
      "outputs": [
        {
          "internalType": "uint256",
          "name": "",
          "type": "uint256"
        }
      ],
      "stateMutability": "payable",
      "type": "function"
    },
    {
      "inputs": [],
      "name": "mintFee",
      "outputs": [
        {
          "internalType": "uint256",
          "name": "",
          "type": "uint256"
        }
      ],
      "stateMutability": "view",
      "type": "function"
    },
    {
      "inputs": [],
      "name": "name",
      "outputs": [
        {
          "internalType": "string",
          "name": "",
          "type": "string"
        }
      ],
      "stateMutability": "view",
      "type": "function"
    },
    {
      "inputs": [],
      "name": "owner",
      "outputs": [
        {
          "internalType": "address",
          "name": "",
          "type": "address"
        }
      ],
      "stateMutability": "view",
      "type": "function"
    },
    {
      "inputs": [
        {
          "internalType": "uint256",
          "name": "tokenId",
          "type": "uint256"
        }
      ],
      "name": "ownerOf",
      "outputs": [
        {
          "internalType": "address",
          "name": "",
          "type": "address"
        }
      ],
      "stateMutability": "view",
      "type": "function"
    },
    {
      "inputs": [
        {
          "internalType": "uint256",
          "name": "",
          "type": "uint256"
        }
      ],
      "name": "ownerOfNft",
      "outputs": [
        {
          "internalType": "address",
          "name": "",
          "type": "address"
        }
      ],
      "stateMutability": "view",
      "type": "function"
    },
    {
      "inputs": [],
      "name": "renounceOwnership",
      "outputs": [],
      "stateMutability": "nonpayable",
      "type": "function"
    },
    {
      "inputs": [],
      "name": "returnAllSongs",
      "outputs": [
        {
          "components": [
            {
              "internalType": "uint256",
              "name": "tokenId",
              "type": "uint256"
            },
            {
              "internalType": "string",
              "name": "name",
              "type": "string"
            },
            {
              "internalType": "string",
              "name": "collection",
              "type": "string"
            },
            {
              "internalType": "address payable",
              "name": "currentOwner",
              "type": "address"
            },
            {
              "internalType": "string",
              "name": "tokenUri",
              "type": "string"
            },
            {
              "internalType": "uint256",
              "name": "price",
              "type": "uint256"
            },
            {
              "internalType": "bool",
              "name": "isForSale",
              "type": "bool"
            },
            {
              "internalType": "address payable",
              "name": "originalProducer",
              "type": "address"
            }
          ],
          "internalType": "struct DefiBeats.Song[]",
          "name": "",
          "type": "tuple[]"
        }
      ],
      "stateMutability": "view",
      "type": "function"
    },
    {
      "inputs": [],
      "name": "returnAllSongsForSale",
      "outputs": [
        {
          "components": [
            {
              "internalType": "uint256",
              "name": "tokenId",
              "type": "uint256"
            },
            {
              "internalType": "string",
              "name": "name",
              "type": "string"
            },
            {
              "internalType": "string",
              "name": "collection",
              "type": "string"
            },
            {
              "internalType": "address payable",
              "name": "currentOwner",
              "type": "address"
            },
            {
              "internalType": "string",
              "name": "tokenUri",
              "type": "string"
            },
            {
              "internalType": "uint256",
              "name": "price",
              "type": "uint256"
            },
            {
              "internalType": "bool",
              "name": "isForSale",
              "type": "bool"
            },
            {
              "internalType": "address payable",
              "name": "originalProducer",
              "type": "address"
            }
          ],
          "internalType": "struct DefiBeats.Song[]",
          "name": "",
          "type": "tuple[]"
        }
      ],
      "stateMutability": "view",
      "type": "function"
    },
    {
      "inputs": [],
      "name": "royaltyFee",
      "outputs": [
        {
          "internalType": "uint256",
          "name": "",
          "type": "uint256"
        }
      ],
      "stateMutability": "view",
      "type": "function"
    },
    {
      "inputs": [
        {
          "internalType": "address",
          "name": "from",
          "type": "address"
        },
        {
          "internalType": "address",
          "name": "to",
          "type": "address"
        },
        {
          "internalType": "uint256",
          "name": "tokenId",
          "type": "uint256"
        }
      ],
      "name": "safeTransferFrom",
      "outputs": [],
      "stateMutability": "nonpayable",
      "type": "function"
    },
    {
      "inputs": [
        {
          "internalType": "address",
          "name": "from",
          "type": "address"
        },
        {
          "internalType": "address",
          "name": "to",
          "type": "address"
        },
        {
          "internalType": "uint256",
          "name": "tokenId",
          "type": "uint256"
        },
        {
          "internalType": "bytes",
          "name": "data",
          "type": "bytes"
        }
      ],
      "name": "safeTransferFrom",
      "outputs": [],
      "stateMutability": "nonpayable",
      "type": "function"
    },
    {
      "inputs": [
        {
          "internalType": "address",
          "name": "operator",
          "type": "address"
        },
        {
          "internalType": "bool",
          "name": "approved",
          "type": "bool"
        }
      ],
      "name": "setApprovalForAll",
      "outputs": [],
      "stateMutability": "nonpayable",
      "type": "function"
    },
    {
      "inputs": [
        {
          "internalType": "uint256",
          "name": "songNumber",
          "type": "uint256"
        }
      ],
      "name": "setFeaturedSong",
      "outputs": [
        {
          "components": [
            {
              "internalType": "uint256",
              "name": "tokenId",
              "type": "uint256"
            },
            {
              "internalType": "string",
              "name": "name",
              "type": "string"
            },
            {
              "internalType": "string",
              "name": "collection",
              "type": "string"
            },
            {
              "internalType": "address payable",
              "name": "currentOwner",
              "type": "address"
            },
            {
              "internalType": "string",
              "name": "tokenUri",
              "type": "string"
            },
            {
              "internalType": "uint256",
              "name": "price",
              "type": "uint256"
            },
            {
              "internalType": "bool",
              "name": "isForSale",
              "type": "bool"
            },
            {
              "internalType": "address payable",
              "name": "originalProducer",
              "type": "address"
            }
          ],
          "internalType": "struct DefiBeats.Song",
          "name": "",
          "type": "tuple"
        }
      ],
      "stateMutability": "nonpayable",
      "type": "function"
    },
    {
      "inputs": [
        {
          "internalType": "uint256",
          "name": "newMintFee",
          "type": "uint256"
        }
      ],
      "name": "setMintFeeAmount",
      "outputs": [
        {
          "internalType": "uint256",
          "name": "",
          "type": "uint256"
        }
      ],
      "stateMutability": "nonpayable",
      "type": "function"
    },
    {
      "inputs": [
        {
          "internalType": "uint256",
          "name": "",
          "type": "uint256"
        }
      ],
      "name": "songs",
      "outputs": [
        {
          "internalType": "uint256",
          "name": "tokenId",
          "type": "uint256"
        },
        {
          "internalType": "string",
          "name": "name",
          "type": "string"
        },
        {
          "internalType": "string",
          "name": "collection",
          "type": "string"
        },
        {
          "internalType": "address payable",
          "name": "currentOwner",
          "type": "address"
        },
        {
          "internalType": "string",
          "name": "tokenUri",
          "type": "string"
        },
        {
          "internalType": "uint256",
          "name": "price",
          "type": "uint256"
        },
        {
          "internalType": "bool",
          "name": "isForSale",
          "type": "bool"
        },
        {
          "internalType": "address payable",
          "name": "originalProducer",
          "type": "address"
        }
      ],
      "stateMutability": "view",
      "type": "function"
    },
    {
      "inputs": [
        {
          "internalType": "bytes4",
          "name": "interfaceId",
          "type": "bytes4"
        }
      ],
      "name": "supportsInterface",
      "outputs": [
        {
          "internalType": "bool",
          "name": "",
          "type": "bool"
        }
      ],
      "stateMutability": "view",
      "type": "function"
    },
    {
      "inputs": [],
      "name": "symbol",
      "outputs": [
        {
          "internalType": "string",
          "name": "",
          "type": "string"
        }
      ],
      "stateMutability": "view",
      "type": "function"
    },
    {
      "inputs": [],
      "name": "tokenCount",
      "outputs": [
        {
          "internalType": "uint256",
          "name": "",
          "type": "uint256"
        }
      ],
      "stateMutability": "view",
      "type": "function"
    },
    {
      "inputs": [
        {
          "internalType": "uint256",
          "name": "tokenId",
          "type": "uint256"
        }
      ],
      "name": "tokenURI",
      "outputs": [
        {
          "internalType": "string",
          "name": "",
          "type": "string"
        }
      ],
      "stateMutability": "view",
      "type": "function"
    },
    {
      "inputs": [],
      "name": "transactionFee",
      "outputs": [
        {
          "internalType": "uint256",
          "name": "",
          "type": "uint256"
        }
      ],
      "stateMutability": "view",
      "type": "function"
    },
    {
      "inputs": [
        {
          "internalType": "address",
          "name": "from",
          "type": "address"
        },
        {
          "internalType": "address",
          "name": "to",
          "type": "address"
        },
        {
          "internalType": "uint256",
          "name": "tokenId",
          "type": "uint256"
        }
      ],
      "name": "transferFrom",
      "outputs": [],
      "stateMutability": "nonpayable",
      "type": "function"
    },
    {
      "inputs": [
        {
          "internalType": "address",
          "name": "newOwner",
          "type": "address"
        }
      ],
      "name": "transferOwnership",
      "outputs": [],
      "stateMutability": "nonpayable",
      "type": "function"
    },
    {
      "inputs": [
        {
          "internalType": "uint256",
          "name": "_newFeeAmount",
          "type": "uint256"
        }
      ],
      "name": "updateFee",
      "outputs": [
        {
          "internalType": "uint256",
          "name": "",
          "type": "uint256"
        }
      ],
      "stateMutability": "nonpayable",
      "type": "function"
    },
    {
      "inputs": [
        {
          "internalType": "uint256",
          "name": "songNumber",
          "type": "uint256"
        },
        {
          "internalType": "uint256",
          "name": "newPrice",
          "type": "uint256"
        }
      ],
      "name": "updateListingPrice",
      "outputs": [],
      "stateMutability": "nonpayable",
      "type": "function"
    },
    {
      "inputs": [
        {
          "internalType": "uint256",
          "name": "_newFeeAmount",
          "type": "uint256"
        }
      ],
      "name": "updateRoyaltyFee",
      "outputs": [
        {
          "internalType": "uint256",
          "name": "",
          "type": "uint256"
        }
      ],
      "stateMutability": "nonpayable",
      "type": "function"
    }
  ],
  "bytecode": "0x60806040526001600a556001600b5560016015553480156200002057600080fd5b506040518060400160405280600981526020017f44656669426561747300000000000000000000000000000000000000000000008152506040518060400160405280600381526020017f444642000000000000000000000000000000000000000000000000000000000081525081600090816200009e9190620004a3565b508060019081620000b09190620004a3565b505050620000d3620000c76200015b60201b60201c565b6200016360201b60201c565b33600c60006101000a81548173ffffffffffffffffffffffffffffffffffffffff021916908373ffffffffffffffffffffffffffffffffffffffff16021790555033600d60006101000a81548173ffffffffffffffffffffffffffffffffffffffff021916908373ffffffffffffffffffffffffffffffffffffffff1602179055506200058a565b600033905090565b6000600760009054906101000a900473ffffffffffffffffffffffffffffffffffffffff16905081600760006101000a81548173ffffffffffffffffffffffffffffffffffffffff021916908373ffffffffffffffffffffffffffffffffffffffff1602179055508173ffffffffffffffffffffffffffffffffffffffff168173ffffffffffffffffffffffffffffffffffffffff167f8be0079c531659141344cd1fd0a4f28419497f9722a3daafe3b4186f6b6457e060405160405180910390a35050565b600081519050919050565b7f4e487b7100000000000000000000000000000000000000000000000000000000600052604160045260246000fd5b7f4e487b7100000000000000000000000000000000000000000000000000000000600052602260045260246000fd5b60006002820490506001821680620002ab57607f821691505b602082108103620002c157620002c062000263565b5b50919050565b60008190508160005260206000209050919050565b60006020601f8301049050919050565b600082821b905092915050565b6000600883026200032b7fffffffffffffffffffffffffffffffffffffffffffffffffffffffffffffffff82620002ec565b620003378683620002ec565b95508019841693508086168417925050509392505050565b6000819050919050565b6000819050919050565b6000620003846200037e62000378846200034f565b62000359565b6200034f565b9050919050565b6000819050919050565b620003a08362000363565b620003b8620003af826200038b565b848454620002f9565b825550505050565b600090565b620003cf620003c0565b620003dc81848462000395565b505050565b5b818110156200040457620003f8600082620003c5565b600181019050620003e2565b5050565b601f82111562000453576200041d81620002c7565b6200042884620002dc565b8101602085101562000438578190505b620004506200044785620002dc565b830182620003e1565b50505b505050565b600082821c905092915050565b6000620004786000198460080262000458565b1980831691505092915050565b600062000493838362000465565b9150826002028217905092915050565b620004ae8262000229565b67ffffffffffffffff811115620004ca57620004c962000234565b5b620004d6825462000292565b620004e382828562000408565b600060209050601f8311600181146200051b576000841562000506578287015190505b62000512858262000485565b86555062000582565b601f1984166200052b86620002c7565b60005b8281101562000555578489015182556001820191506020850194506020810190506200052e565b8683101562000575578489015162000571601f89168262000465565b8355505b6001600288020188555050505b505050505050565b615bae806200059a6000396000f3fe6080604052600436106102305760003560e01c806371ffcb161161012e578063a6b46a6f116100ab578063c87b56dd1161006f578063c87b56dd146108aa578063d15312e6146108e7578063e985e9c514610924578063f2fde38b14610961578063f851a4401461098a57610230565b8063a6b46a6f146107ac578063b88d4fde146107f0578063b8997a9714610819578063b922f94c14610844578063c46049431461088157610230565b80639247cfe6116100f25780639247cfe6146106c557806395d89b41146107025780639ed3edf01461072d5780639f181b5e14610758578063a22cb4651461078357610230565b806371ffcb16146105ba5780638da5cb5b146105f75780638f283970146106225780638fc59a8a1461065f5780639012c4a81461068857610230565b8063305a67a8116101bc578063606a017511610180578063606a0175146104e25780636352211e146104fe57806365e17c9d1461053b57806370a0823114610566578063715018a6146105a357610230565b8063305a67a8146103f1578063353351161461041a57806342842e0e1461044c578063451c67fd146104755780634e83be47146104a557610230565b8063095ea7b311610203578063095ea7b3146103055780630e3876be1461032e57806313966db51461035957806323b872dd14610384578063304cff30146103ad57610230565b806301ffc9a714610235578063056ccfcf1461027257806306fdde031461029d578063081812fc146102c8575b600080fd5b34801561024157600080fd5b5061025c60048036038101906102579190614054565b6109b5565b604051610269919061409c565b60405180910390f35b34801561027e57600080fd5b50610287610a97565b6040516102949190614330565b60405180910390f35b3480156102a957600080fd5b506102b2610e00565b6040516102bf919061439c565b60405180910390f35b3480156102d457600080fd5b506102ef60048036038101906102ea91906143ea565b610e92565b6040516102fc9190614438565b60405180910390f35b34801561031157600080fd5b5061032c6004803603810190610327919061447f565b610ed8565b005b34801561033a57600080fd5b50610343610fef565b6040516103509190614330565b60405180910390f35b34801561036557600080fd5b5061036e61139c565b60405161037b91906144ce565b60405180910390f35b34801561039057600080fd5b506103ab60048036038101906103a691906144e9565b6113a2565b005b3480156103b957600080fd5b506103d460048036038101906103cf91906143ea565b611402565b6040516103e898979695949392919061454b565b60405180910390f35b3480156103fd57600080fd5b50610418600480360381019061041391906143ea565b61162f565b005b34801561042657600080fd5b5061042f611753565b60405161044398979695949392919061454b565b60405180910390f35b34801561045857600080fd5b50610473600480360381019061046e91906144e9565b61196e565b005b61048f600480360381019061048a9190614713565b61198e565b60405161049c91906144ce565b60405180910390f35b3480156104b157600080fd5b506104cc60048036038101906104c791906143ea565b611e4d565b6040516104d991906144ce565b60405180910390f35b6104fc60048036038101906104f791906143ea565b611eb6565b005b34801561050a57600080fd5b50610525600480360381019061052091906143ea565b612152565b6040516105329190614438565b60405180910390f35b34801561054757600080fd5b50610550612203565b60405161055d91906147ba565b60405180910390f35b34801561057257600080fd5b5061058d600480360381019061058891906147d5565b612229565b60405161059a91906144ce565b60405180910390f35b3480156105af57600080fd5b506105b86122e0565b005b3480156105c657600080fd5b506105e160048036038101906105dc91906147d5565b6122f4565b6040516105ee9190614438565b60405180910390f35b34801561060357600080fd5b5061060c612397565b6040516106199190614438565b60405180910390f35b34801561062e57600080fd5b50610649600480360381019061064491906147d5565b6123c1565b6040516106569190614438565b60405180910390f35b34801561066b57600080fd5b5061068660048036038101906106819190614802565b612464565b005b34801561069457600080fd5b506106af60048036038101906106aa91906143ea565b6125ba565b6040516106bc91906144ce565b60405180910390f35b3480156106d157600080fd5b506106ec60048036038101906106e791906143ea565b612623565b6040516106f991906144ce565b60405180910390f35b34801561070e57600080fd5b5061071761268c565b604051610724919061439c565b60405180910390f35b34801561073957600080fd5b5061074261271e565b60405161074f91906144ce565b60405180910390f35b34801561076457600080fd5b5061076d612724565b60405161077a91906144ce565b60405180910390f35b34801561078f57600080fd5b506107aa60048036038101906107a5919061486e565b61272a565b005b3480156107b857600080fd5b506107d360048036038101906107ce91906143ea565b612740565b6040516107e798979695949392919061454b565b60405180910390f35b3480156107fc57600080fd5b506108176004803603810190610812919061494f565b61297d565b005b34801561082557600080fd5b5061082e6129df565b60405161083b91906144ce565b60405180910390f35b34801561085057600080fd5b5061086b600480360381019061086691906143ea565b6129e5565b6040516108789190614438565b60405180910390f35b34801561088d57600080fd5b506108a860048036038101906108a39190614802565b612a18565b005b3480156108b657600080fd5b506108d160048036038101906108cc91906143ea565b612acf565b6040516108de919061439c565b60405180910390f35b3480156108f357600080fd5b5061090e600480360381019061090991906143ea565b612be1565b60405161091b9190614a90565b60405180910390f35b34801561093057600080fd5b5061094b60048036038101906109469190614ab2565b613052565b604051610958919061409c565b60405180910390f35b34801561096d57600080fd5b50610988600480360381019061098391906147d5565b6130e6565b005b34801561099657600080fd5b5061099f613169565b6040516109ac9190614438565b60405180910390f35b60007f80ac58cd000000000000000000000000000000000000000000000000000000007bffffffffffffffffffffffffffffffffffffffffffffffffffffffff1916827bffffffffffffffffffffffffffffffffffffffffffffffffffffffff19161480610a8057507f5b5e139f000000000000000000000000000000000000000000000000000000007bffffffffffffffffffffffffffffffffffffffffffffffffffffffff1916827bffffffffffffffffffffffffffffffffffffffffffffffffffffffff1916145b80610a905750610a8f8261318f565b5b9050919050565b606060006001610aa760086131f9565b610ab19190614b21565b905060008167ffffffffffffffff811115610acf57610ace6145e8565b5b604051908082528060200260200182016040528015610b0857816020015b610af5613f75565b815260200190600190039081610aed5790505b50905060005b82811015610df757601760008281526020019081526020016000206040518061010001604052908160008201548152602001600182018054610b4f90614b84565b80601f0160208091040260200160405190810160405280929190818152602001828054610b7b90614b84565b8015610bc85780601f10610b9d57610100808354040283529160200191610bc8565b820191906000526020600020905b815481529060010190602001808311610bab57829003601f168201915b50505050508152602001600282018054610be190614b84565b80601f0160208091040260200160405190810160405280929190818152602001828054610c0d90614b84565b8015610c5a5780601f10610c2f57610100808354040283529160200191610c5a565b820191906000526020600020905b815481529060010190602001808311610c3d57829003601f168201915b505050505081526020016003820160009054906101000a900473ffffffffffffffffffffffffffffffffffffffff1673ffffffffffffffffffffffffffffffffffffffff1673ffffffffffffffffffffffffffffffffffffffff168152602001600482018054610cc990614b84565b80601f0160208091040260200160405190810160405280929190818152602001828054610cf590614b84565b8015610d425780601f10610d1757610100808354040283529160200191610d42565b820191906000526020600020905b815481529060010190602001808311610d2557829003601f168201915b50505050508152602001600582015481526020016006820160009054906101000a900460ff161515151581526020016006820160019054906101000a900473ffffffffffffffffffffffffffffffffffffffff1673ffffffffffffffffffffffffffffffffffffffff1673ffffffffffffffffffffffffffffffffffffffff1681525050828281518110610dd957610dd8614bb5565b5b60200260200101819052508080610def90614be4565b915050610b0e565b50809250505090565b606060008054610e0f90614b84565b80601f0160208091040260200160405190810160405280929190818152602001828054610e3b90614b84565b8015610e885780601f10610e5d57610100808354040283529160200191610e88565b820191906000526020600020905b815481529060010190602001808311610e6b57829003601f168201915b5050505050905090565b6000610e9d82613207565b6004600083815260200190815260200160002060009054906101000a900473ffffffffffffffffffffffffffffffffffffffff169050919050565b6000610ee382612152565b90508073ffffffffffffffffffffffffffffffffffffffff168373ffffffffffffffffffffffffffffffffffffffff1603610f53576040517f08c379a0000000000000000000000000000000000000000000000000000000008152600401610f4a90614c9e565b60405180910390fd5b8073ffffffffffffffffffffffffffffffffffffffff16610f72613252565b73ffffffffffffffffffffffffffffffffffffffff161480610fa15750610fa081610f9b613252565b613052565b5b610fe0576040517f08c379a0000000000000000000000000000000000000000000000000000000008152600401610fd790614d30565b60405180910390fd5b610fea838361325a565b505050565b606060006001610fff60086131f9565b6110099190614b21565b905060008167ffffffffffffffff811115611027576110266145e8565b5b60405190808252806020026020018201604052801561106057816020015b61104d613f75565b8152602001906001900390816110455790505b509050600080600090505b8381101561139257600015156017600083815260200190815260200160002060060160009054906101000a900460ff1615151461137f576017600082815260200190815260200160002060405180610100016040529081600082015481526020016001820180546110db90614b84565b80601f016020809104026020016040519081016040528092919081815260200182805461110790614b84565b80156111545780601f1061112957610100808354040283529160200191611154565b820191906000526020600020905b81548152906001019060200180831161113757829003601f168201915b5050505050815260200160028201805461116d90614b84565b80601f016020809104026020016040519081016040528092919081815260200182805461119990614b84565b80156111e65780601f106111bb576101008083540402835291602001916111e6565b820191906000526020600020905b8154815290600101906020018083116111c957829003601f168201915b505050505081526020016003820160009054906101000a900473ffffffffffffffffffffffffffffffffffffffff1673ffffffffffffffffffffffffffffffffffffffff1673ffffffffffffffffffffffffffffffffffffffff16815260200160048201805461125590614b84565b80601f016020809104026020016040519081016040528092919081815260200182805461128190614b84565b80156112ce5780601f106112a3576101008083540402835291602001916112ce565b820191906000526020600020905b8154815290600101906020018083116112b157829003601f168201915b50505050508152602001600582015481526020016006820160009054906101000a900460ff161515151581526020016006820160019054906101000a900473ffffffffffffffffffffffffffffffffffffffff1673ffffffffffffffffffffffffffffffffffffffff1673ffffffffffffffffffffffffffffffffffffffff168152505083838151811061136557611364614bb5565b5b6020026020010181905250818061137b90614be4565b9250505b808061138a90614be4565b91505061106b565b5081935050505090565b60155481565b6113b36113ad613252565b82613313565b6113f2576040517f08c379a00000000000000000000000000000000000000000000000000000000081526004016113e990614dc2565b60405180910390fd5b6113fd8383836133a8565b505050565b601760205280600052604060002060009150905080600001549080600101805461142b90614b84565b80601f016020809104026020016040519081016040528092919081815260200182805461145790614b84565b80156114a45780601f10611479576101008083540402835291602001916114a4565b820191906000526020600020905b81548152906001019060200180831161148757829003601f168201915b5050505050908060020180546114b990614b84565b80601f01602080910402602001604051908101604052809291908181526020018280546114e590614b84565b80156115325780601f1061150757610100808354040283529160200191611532565b820191906000526020600020905b81548152906001019060200180831161151557829003601f168201915b5050505050908060030160009054906101000a900473ffffffffffffffffffffffffffffffffffffffff169080600401805461156d90614b84565b80601f016020809104026020016040519081016040528092919081815260200182805461159990614b84565b80156115e65780601f106115bb576101008083540402835291602001916115e6565b820191906000526020600020905b8154815290600101906020018083116115c957829003601f168201915b5050505050908060050154908060060160009054906101000a900460ff16908060060160019054906101000a900473ffffffffffffffffffffffffffffffffffffffff16905088565b60006017600083815260200190815260200160002090508060030160009054906101000a900473ffffffffffffffffffffffffffffffffffffffff1673ffffffffffffffffffffffffffffffffffffffff163373ffffffffffffffffffffffffffffffffffffffff16146116d8576040517f08c379a00000000000000000000000000000000000000000000000000000000081526004016116cf90614e54565b60405180910390fd5b6116e7303383600001546133a8565b60008160060160006101000a81548160ff0219169083151502179055506000816005018190555080600001547f0151dfa0184160d46fa1bdc2b7c8354feb0cf4893c3d8c911d04d50314d879d03383600401604051611747929190614f0d565b60405180910390a25050565b600e80600001549080600101805461176a90614b84565b80601f016020809104026020016040519081016040528092919081815260200182805461179690614b84565b80156117e35780601f106117b8576101008083540402835291602001916117e3565b820191906000526020600020905b8154815290600101906020018083116117c657829003601f168201915b5050505050908060020180546117f890614b84565b80601f016020809104026020016040519081016040528092919081815260200182805461182490614b84565b80156118715780601f1061184657610100808354040283529160200191611871565b820191906000526020600020905b81548152906001019060200180831161185457829003601f168201915b5050505050908060030160009054906101000a900473ffffffffffffffffffffffffffffffffffffffff16908060040180546118ac90614b84565b80601f01602080910402602001604051908101604052809291908181526020018280546118d890614b84565b80156119255780601f106118fa57610100808354040283529160200191611925565b820191906000526020600020905b81548152906001019060200180831161190857829003601f168201915b5050505050908060050154908060060160009054906101000a900460ff16908060060160019054906101000a900473ffffffffffffffffffffffffffffffffffffffff16905088565b6119898383836040518060200160405280600081525061297d565b505050565b60006015543410156119d5576040517f08c379a00000000000000000000000000000000000000000000000000000000081526004016119cc90614f89565b60405180910390fd5b600c60009054906101000a900473ffffffffffffffffffffffffffffffffffffffff1673ffffffffffffffffffffffffffffffffffffffff166108fc349081150290604051600060405180830381858888f19350505050158015611a3d573d6000803e3d6000fd5b50611a48600861360e565b60096000815480929190611a5b90614be4565b91905055506000611a6c60086131f9565b9050611a783382613624565b336016600083815260200190815260200160002060006101000a81548173ffffffffffffffffffffffffffffffffffffffff021916908373ffffffffffffffffffffffffffffffffffffffff160217905550611ad481866137fd565b6040518061010001604052808281526020018581526020018481526020013373ffffffffffffffffffffffffffffffffffffffff168152602001868152602001600081526020016000151581526020013373ffffffffffffffffffffffffffffffffffffffff1681525060176000838152602001908152602001600020600082015181600001556020820151816001019081611b709190615140565b506040820151816002019081611b869190615140565b5060608201518160030160006101000a81548173ffffffffffffffffffffffffffffffffffffffff021916908373ffffffffffffffffffffffffffffffffffffffff1602179055506080820151816004019081611be39190615140565b5060a0820151816005015560c08201518160060160006101000a81548160ff02191690831515021790555060e08201518160060160016101000a81548173ffffffffffffffffffffffffffffffffffffffff021916908373ffffffffffffffffffffffffffffffffffffffff16021790555090505060186040518061010001604052808381526020018681526020018581526020013373ffffffffffffffffffffffffffffffffffffffff168152602001878152602001600081526020016000151581526020013373ffffffffffffffffffffffffffffffffffffffff168152509080600181540180825580915050600190039060005260206000209060070201600090919091909150600082015181600001556020820151816001019081611d0c9190615140565b506040820151816002019081611d229190615140565b5060608201518160030160006101000a81548173ffffffffffffffffffffffffffffffffffffffff021916908373ffffffffffffffffffffffffffffffffffffffff1602179055506080820151816004019081611d7f9190615140565b5060a0820151816005015560c08201518160060160006101000a81548160ff02191690831515021790555060e08201518160060160016101000a81548173ffffffffffffffffffffffffffffffffffffffff021916908373ffffffffffffffffffffffffffffffffffffffff16021790555050503373ffffffffffffffffffffffffffffffffffffffff16817f47a149be5ec47637b9e89787b9b21ff88b0b783100d80221f6a5edc5c8d77c4087604051611e3a919061439c565b60405180910390a3809150509392505050565b6000600d60009054906101000a900473ffffffffffffffffffffffffffffffffffffffff1673ffffffffffffffffffffffffffffffffffffffff163373ffffffffffffffffffffffffffffffffffffffff1614611ea957600080fd5b81600b8190559050919050565b60006017600083815260200190815260200160002090506000600a54600a548360050154611ee49190614b21565b611eee9190614b21565b905080341015611f33576040517f08c379a0000000000000000000000000000000000000000000000000000000008152600401611f2a9061525e565b60405180910390fd5b6000600b54600a54611f459190614b21565b905060008134611f55919061527e565b90508360060160019054906101000a900473ffffffffffffffffffffffffffffffffffffffff1673ffffffffffffffffffffffffffffffffffffffff166108fc600b549081150290604051600060405180830381858888f19350505050158015611fc3573d6000803e3d6000fd5b50600c60009054906101000a900473ffffffffffffffffffffffffffffffffffffffff1673ffffffffffffffffffffffffffffffffffffffff166108fc600a549081150290604051600060405180830381858888f1935050505015801561202e573d6000803e3d6000fd5b508360030160009054906101000a900473ffffffffffffffffffffffffffffffffffffffff1673ffffffffffffffffffffffffffffffffffffffff166108fc829081150290604051600060405180830381858888f19350505050158015612099573d6000803e3d6000fd5b506120a9303386600001546133a8565b338460030160006101000a81548173ffffffffffffffffffffffffffffffffffffffff021916908373ffffffffffffffffffffffffffffffffffffffff16021790555060008460060160006101000a81548160ff0219169083151502179055503484600001547f8500049995184367829fb7fae51b1cc359bdd658bae20e3e42f7788a4a72b9ec3387600401604051612143929190614f0d565b60405180910390a35050505050565b6000806002600084815260200190815260200160002060009054906101000a900473ffffffffffffffffffffffffffffffffffffffff169050600073ffffffffffffffffffffffffffffffffffffffff168173ffffffffffffffffffffffffffffffffffffffff16036121fa576040517f08c379a00000000000000000000000000000000000000000000000000000000081526004016121f1906152fe565b60405180910390fd5b80915050919050565b600c60009054906101000a900473ffffffffffffffffffffffffffffffffffffffff1681565b60008073ffffffffffffffffffffffffffffffffffffffff168273ffffffffffffffffffffffffffffffffffffffff1603612299576040517f08c379a000000000000000000000000000000000000000000000000000000000815260040161229090615390565b60405180910390fd5b600360008373ffffffffffffffffffffffffffffffffffffffff1673ffffffffffffffffffffffffffffffffffffffff168152602001908152602001600020549050919050565b6122e861386a565b6122f260006138e8565b565b6000600d60009054906101000a900473ffffffffffffffffffffffffffffffffffffffff1673ffffffffffffffffffffffffffffffffffffffff163373ffffffffffffffffffffffffffffffffffffffff161461235057600080fd5b81600c60006101000a81548173ffffffffffffffffffffffffffffffffffffffff021916908373ffffffffffffffffffffffffffffffffffffffff16021790559050919050565b6000600760009054906101000a900473ffffffffffffffffffffffffffffffffffffffff16905090565b6000600d60009054906101000a900473ffffffffffffffffffffffffffffffffffffffff1673ffffffffffffffffffffffffffffffffffffffff163373ffffffffffffffffffffffffffffffffffffffff161461241d57600080fd5b81600d60006101000a81548173ffffffffffffffffffffffffffffffffffffffff021916908373ffffffffffffffffffffffffffffffffffffffff16021790559050919050565b61246d82612152565b73ffffffffffffffffffffffffffffffffffffffff163373ffffffffffffffffffffffffffffffffffffffff16146124da576040517f08c379a00000000000000000000000000000000000000000000000000000000081526004016124d1906153fc565b60405180910390fd5b600060176000848152602001908152602001600020905060018160060160006101000a81548160ff021916908315150217905550818160050181905550338160030160006101000a81548173ffffffffffffffffffffffffffffffffffffffff021916908373ffffffffffffffffffffffffffffffffffffffff16021790555061256530600161272a565b612574333083600001546113a2565b80600001547fe6c8782faa62f3a011302c0c76e85cec78d2d6afd27133ea7ab7a42b64abe93e33836004016040516125ad929190614f0d565b60405180910390a2505050565b6000600d60009054906101000a900473ffffffffffffffffffffffffffffffffffffffff1673ffffffffffffffffffffffffffffffffffffffff163373ffffffffffffffffffffffffffffffffffffffff161461261657600080fd5b81600a8190559050919050565b6000600d60009054906101000a900473ffffffffffffffffffffffffffffffffffffffff1673ffffffffffffffffffffffffffffffffffffffff163373ffffffffffffffffffffffffffffffffffffffff161461267f57600080fd5b8160158190559050919050565b60606001805461269b90614b84565b80601f01602080910402602001604051908101604052809291908181526020018280546126c790614b84565b80156127145780601f106126e957610100808354040283529160200191612714565b820191906000526020600020905b8154815290600101906020018083116126f757829003601f168201915b5050505050905090565b600a5481565b60095481565b61273c612735613252565b83836139ae565b5050565b6018818154811061275057600080fd5b906000526020600020906007020160009150905080600001549080600101805461277990614b84565b80601f01602080910402602001604051908101604052809291908181526020018280546127a590614b84565b80156127f25780601f106127c7576101008083540402835291602001916127f2565b820191906000526020600020905b8154815290600101906020018083116127d557829003601f168201915b50505050509080600201805461280790614b84565b80601f016020809104026020016040519081016040528092919081815260200182805461283390614b84565b80156128805780601f1061285557610100808354040283529160200191612880565b820191906000526020600020905b81548152906001019060200180831161286357829003601f168201915b5050505050908060030160009054906101000a900473ffffffffffffffffffffffffffffffffffffffff16908060040180546128bb90614b84565b80601f01602080910402602001604051908101604052809291908181526020018280546128e790614b84565b80156129345780601f1061290957610100808354040283529160200191612934565b820191906000526020600020905b81548152906001019060200180831161291757829003601f168201915b5050505050908060050154908060060160009054906101000a900460ff16908060060160019054906101000a900473ffffffffffffffffffffffffffffffffffffffff16905088565b61298e612988613252565b83613313565b6129cd576040517f08c379a00000000000000000000000000000000000000000000000000000000081526004016129c490614dc2565b60405180910390fd5b6129d984848484613b1a565b50505050565b600b5481565b60166020528060005260406000206000915054906101000a900473ffffffffffffffffffffffffffffffffffffffff1681565b60006017600084815260200190815260200160002090508060030160009054906101000a900473ffffffffffffffffffffffffffffffffffffffff1673ffffffffffffffffffffffffffffffffffffffff163373ffffffffffffffffffffffffffffffffffffffff1614612ac1576040517f08c379a0000000000000000000000000000000000000000000000000000000008152600401612ab890614e54565b60405180910390fd5b818160050181905550505050565b6060612ada82613207565b6000600660008481526020019081526020016000208054612afa90614b84565b80601f0160208091040260200160405190810160405280929190818152602001828054612b2690614b84565b8015612b735780601f10612b4857610100808354040283529160200191612b73565b820191906000526020600020905b815481529060010190602001808311612b5657829003601f168201915b505050505090506000612b84613b76565b90506000815103612b99578192505050612bdc565b600082511115612bce578082604051602001612bb6929190615458565b60405160208183030381529060405292505050612bdc565b612bd784613b8d565b925050505b919050565b612be9613f75565b600d60009054906101000a900473ffffffffffffffffffffffffffffffffffffffff1673ffffffffffffffffffffffffffffffffffffffff163373ffffffffffffffffffffffffffffffffffffffff1614612c4357600080fd5b600060176000848152602001908152602001600020905080600e6000820154816000015560018201816001019081612c7b9190615492565b5060028201816002019081612c909190615492565b506003820160009054906101000a900473ffffffffffffffffffffffffffffffffffffffff168160030160006101000a81548173ffffffffffffffffffffffffffffffffffffffff021916908373ffffffffffffffffffffffffffffffffffffffff16021790555060048201816004019081612d0c9190615492565b50600582015481600501556006820160009054906101000a900460ff168160060160006101000a81548160ff0219169083151502179055506006820160019054906101000a900473ffffffffffffffffffffffffffffffffffffffff168160060160016101000a81548173ffffffffffffffffffffffffffffffffffffffff021916908373ffffffffffffffffffffffffffffffffffffffff16021790555090506040518061010001604052908160008201548152602001600182018054612dd390614b84565b80601f0160208091040260200160405190810160405280929190818152602001828054612dff90614b84565b8015612e4c5780601f10612e2157610100808354040283529160200191612e4c565b820191906000526020600020905b815481529060010190602001808311612e2f57829003601f168201915b50505050508152602001600282018054612e6590614b84565b80601f0160208091040260200160405190810160405280929190818152602001828054612e9190614b84565b8015612ede5780601f10612eb357610100808354040283529160200191612ede565b820191906000526020600020905b815481529060010190602001808311612ec157829003601f168201915b505050505081526020016003820160009054906101000a900473ffffffffffffffffffffffffffffffffffffffff1673ffffffffffffffffffffffffffffffffffffffff1673ffffffffffffffffffffffffffffffffffffffff168152602001600482018054612f4d90614b84565b80601f0160208091040260200160405190810160405280929190818152602001828054612f7990614b84565b8015612fc65780601f10612f9b57610100808354040283529160200191612fc6565b820191906000526020600020905b815481529060010190602001808311612fa957829003601f168201915b50505050508152602001600582015481526020016006820160009054906101000a900460ff161515151581526020016006820160019054906101000a900473ffffffffffffffffffffffffffffffffffffffff1673ffffffffffffffffffffffffffffffffffffffff1673ffffffffffffffffffffffffffffffffffffffff1681525050915050919050565b6000600560008473ffffffffffffffffffffffffffffffffffffffff1673ffffffffffffffffffffffffffffffffffffffff16815260200190815260200160002060008373ffffffffffffffffffffffffffffffffffffffff1673ffffffffffffffffffffffffffffffffffffffff16815260200190815260200160002060009054906101000a900460ff16905092915050565b6130ee61386a565b600073ffffffffffffffffffffffffffffffffffffffff168173ffffffffffffffffffffffffffffffffffffffff160361315d576040517f08c379a0000000000000000000000000000000000000000000000000000000008152600401613154906155ec565b60405180910390fd5b613166816138e8565b50565b600d60009054906101000a900473ffffffffffffffffffffffffffffffffffffffff1681565b60007f01ffc9a7000000000000000000000000000000000000000000000000000000007bffffffffffffffffffffffffffffffffffffffffffffffffffffffff1916827bffffffffffffffffffffffffffffffffffffffffffffffffffffffff1916149050919050565b600081600001549050919050565b61321081613bf5565b61324f576040517f08c379a0000000000000000000000000000000000000000000000000000000008152600401613246906152fe565b60405180910390fd5b50565b600033905090565b816004600083815260200190815260200160002060006101000a81548173ffffffffffffffffffffffffffffffffffffffff021916908373ffffffffffffffffffffffffffffffffffffffff160217905550808273ffffffffffffffffffffffffffffffffffffffff166132cd83612152565b73ffffffffffffffffffffffffffffffffffffffff167f8c5be1e5ebec7d5bd14f71427d1e84f3dd0314c0f7b2291e5b200ac8c7c3b92560405160405180910390a45050565b60008061331f83612152565b90508073ffffffffffffffffffffffffffffffffffffffff168473ffffffffffffffffffffffffffffffffffffffff16148061336157506133608185613052565b5b8061339f57508373ffffffffffffffffffffffffffffffffffffffff1661338784610e92565b73ffffffffffffffffffffffffffffffffffffffff16145b91505092915050565b8273ffffffffffffffffffffffffffffffffffffffff166133c882612152565b73ffffffffffffffffffffffffffffffffffffffff161461341e576040517f08c379a00000000000000000000000000000000000000000000000000000000081526004016134159061567e565b60405180910390fd5b600073ffffffffffffffffffffffffffffffffffffffff168273ffffffffffffffffffffffffffffffffffffffff160361348d576040517f08c379a000000000000000000000000000000000000000000000000000000000815260040161348490615710565b60405180910390fd5b613498838383613c61565b6134a360008261325a565b6001600360008573ffffffffffffffffffffffffffffffffffffffff1673ffffffffffffffffffffffffffffffffffffffff16815260200190815260200160002060008282546134f3919061527e565b925050819055506001600360008473ffffffffffffffffffffffffffffffffffffffff1673ffffffffffffffffffffffffffffffffffffffff168152602001908152602001600020600082825461354a9190614b21565b92505081905550816002600083815260200190815260200160002060006101000a81548173ffffffffffffffffffffffffffffffffffffffff021916908373ffffffffffffffffffffffffffffffffffffffff160217905550808273ffffffffffffffffffffffffffffffffffffffff168473ffffffffffffffffffffffffffffffffffffffff167fddf252ad1be2c89b69c2b068fc378daa952ba7f163c4a11628f55a4df523b3ef60405160405180910390a4613609838383613c66565b505050565b6001816000016000828254019250508190555050565b600073ffffffffffffffffffffffffffffffffffffffff168273ffffffffffffffffffffffffffffffffffffffff1603613693576040517f08c379a000000000000000000000000000000000000000000000000000000000815260040161368a9061577c565b60405180910390fd5b61369c81613bf5565b156136dc576040517f08c379a00000000000000000000000000000000000000000000000000000000081526004016136d3906157e8565b60405180910390fd5b6136e860008383613c61565b6001600360008473ffffffffffffffffffffffffffffffffffffffff1673ffffffffffffffffffffffffffffffffffffffff16815260200190815260200160002060008282546137389190614b21565b92505081905550816002600083815260200190815260200160002060006101000a81548173ffffffffffffffffffffffffffffffffffffffff021916908373ffffffffffffffffffffffffffffffffffffffff160217905550808273ffffffffffffffffffffffffffffffffffffffff16600073ffffffffffffffffffffffffffffffffffffffff167fddf252ad1be2c89b69c2b068fc378daa952ba7f163c4a11628f55a4df523b3ef60405160405180910390a46137f960008383613c66565b5050565b61380682613bf5565b613845576040517f08c379a000000000000000000000000000000000000000000000000000000000815260040161383c9061587a565b60405180910390fd5b806006600084815260200190815260200160002090816138659190615140565b505050565b613872613252565b73ffffffffffffffffffffffffffffffffffffffff16613890612397565b73ffffffffffffffffffffffffffffffffffffffff16146138e6576040517f08c379a00000000000000000000000000000000000000000000000000000000081526004016138dd906158e6565b60405180910390fd5b565b6000600760009054906101000a900473ffffffffffffffffffffffffffffffffffffffff16905081600760006101000a81548173ffffffffffffffffffffffffffffffffffffffff021916908373ffffffffffffffffffffffffffffffffffffffff1602179055508173ffffffffffffffffffffffffffffffffffffffff168173ffffffffffffffffffffffffffffffffffffffff167f8be0079c531659141344cd1fd0a4f28419497f9722a3daafe3b4186f6b6457e060405160405180910390a35050565b8173ffffffffffffffffffffffffffffffffffffffff168373ffffffffffffffffffffffffffffffffffffffff1603613a1c576040517f08c379a0000000000000000000000000000000000000000000000000000000008152600401613a1390615952565b60405180910390fd5b80600560008573ffffffffffffffffffffffffffffffffffffffff1673ffffffffffffffffffffffffffffffffffffffff16815260200190815260200160002060008473ffffffffffffffffffffffffffffffffffffffff1673ffffffffffffffffffffffffffffffffffffffff16815260200190815260200160002060006101000a81548160ff0219169083151502179055508173ffffffffffffffffffffffffffffffffffffffff168373ffffffffffffffffffffffffffffffffffffffff167f17307eab39ab6107e8899845ad3d59bd9653f200f220920489ca2b5937696c3183604051613b0d919061409c565b60405180910390a3505050565b613b258484846133a8565b613b3184848484613c6b565b613b70576040517f08c379a0000000000000000000000000000000000000000000000000000000008152600401613b67906159e4565b60405180910390fd5b50505050565b606060405180602001604052806000815250905090565b6060613b9882613207565b6000613ba2613b76565b90506000815111613bc25760405180602001604052806000815250613bed565b80613bcc84613df2565b604051602001613bdd929190615458565b6040516020818303038152906040525b915050919050565b60008073ffffffffffffffffffffffffffffffffffffffff166002600084815260200190815260200160002060009054906101000a900473ffffffffffffffffffffffffffffffffffffffff1673ffffffffffffffffffffffffffffffffffffffff1614159050919050565b505050565b505050565b6000613c8c8473ffffffffffffffffffffffffffffffffffffffff16613f52565b15613de5578373ffffffffffffffffffffffffffffffffffffffff1663150b7a02613cb5613252565b8786866040518563ffffffff1660e01b8152600401613cd79493929190615a59565b6020604051808303816000875af1925050508015613d1357506040513d601f19601f82011682018060405250810190613d109190615aba565b60015b613d95573d8060008114613d43576040519150601f19603f3d011682016040523d82523d6000602084013e613d48565b606091505b506000815103613d8d576040517f08c379a0000000000000000000000000000000000000000000000000000000008152600401613d84906159e4565b60405180910390fd5b805181602001fd5b63150b7a0260e01b7bffffffffffffffffffffffffffffffffffffffffffffffffffffffff1916817bffffffffffffffffffffffffffffffffffffffffffffffffffffffff191614915050613dea565b600190505b949350505050565b606060008203613e39576040518060400160405280600181526020017f30000000000000000000000000000000000000000000000000000000000000008152509050613f4d565b600082905060005b60008214613e6b578080613e5490614be4565b915050600a82613e649190615b16565b9150613e41565b60008167ffffffffffffffff811115613e8757613e866145e8565b5b6040519080825280601f01601f191660200182016040528015613eb95781602001600182028036833780820191505090505b5090505b60008514613f4657600182613ed2919061527e565b9150600a85613ee19190615b47565b6030613eed9190614b21565b60f81b818381518110613f0357613f02614bb5565b5b60200101907effffffffffffffffffffffffffffffffffffffffffffffffffffffffffffff1916908160001a905350600a85613f3f9190615b16565b9450613ebd565b8093505050505b919050565b6000808273ffffffffffffffffffffffffffffffffffffffff163b119050919050565b604051806101000160405280600081526020016060815260200160608152602001600073ffffffffffffffffffffffffffffffffffffffff1681526020016060815260200160008152602001600015158152602001600073ffffffffffffffffffffffffffffffffffffffff1681525090565b6000604051905090565b600080fd5b600080fd5b60007fffffffff0000000000000000000000000000000000000000000000000000000082169050919050565b61403181613ffc565b811461403c57600080fd5b50565b60008135905061404e81614028565b92915050565b60006020828403121561406a57614069613ff2565b5b60006140788482850161403f565b91505092915050565b60008115159050919050565b61409681614081565b82525050565b60006020820190506140b1600083018461408d565b92915050565b600081519050919050565b600082825260208201905092915050565b6000819050602082019050919050565b6000819050919050565b6140f6816140e3565b82525050565b600081519050919050565b600082825260208201905092915050565b60005b8381101561413657808201518184015260208101905061411b565b60008484015250505050565b6000601f19601f8301169050919050565b600061415e826140fc565b6141688185614107565b9350614178818560208601614118565b61418181614142565b840191505092915050565b600073ffffffffffffffffffffffffffffffffffffffff82169050919050565b60006141b78261418c565b9050919050565b6141c7816141ac565b82525050565b6141d681614081565b82525050565b6000610100830160008301516141f560008601826140ed565b506020830151848203602086015261420d8282614153565b915050604083015184820360408601526142278282614153565b915050606083015161423c60608601826141be565b50608083015184820360808601526142548282614153565b91505060a083015161426960a08601826140ed565b5060c083015161427c60c08601826141cd565b5060e083015161428f60e08601826141be565b508091505092915050565b60006142a683836141dc565b905092915050565b6000602082019050919050565b60006142c6826140b7565b6142d081856140c2565b9350836020820285016142e2856140d3565b8060005b8581101561431e57848403895281516142ff858261429a565b945061430a836142ae565b925060208a019950506001810190506142e6565b50829750879550505050505092915050565b6000602082019050818103600083015261434a81846142bb565b905092915050565b600082825260208201905092915050565b600061436e826140fc565b6143788185614352565b9350614388818560208601614118565b61439181614142565b840191505092915050565b600060208201905081810360008301526143b68184614363565b905092915050565b6143c7816140e3565b81146143d257600080fd5b50565b6000813590506143e4816143be565b92915050565b600060208284031215614400576143ff613ff2565b5b600061440e848285016143d5565b91505092915050565b60006144228261418c565b9050919050565b61443281614417565b82525050565b600060208201905061444d6000830184614429565b92915050565b61445c81614417565b811461446757600080fd5b50565b60008135905061447981614453565b92915050565b6000806040838503121561449657614495613ff2565b5b60006144a48582860161446a565b92505060206144b5858286016143d5565b9150509250929050565b6144c8816140e3565b82525050565b60006020820190506144e360008301846144bf565b92915050565b60008060006060848603121561450257614501613ff2565b5b60006145108682870161446a565b93505060206145218682870161446a565b9250506040614532868287016143d5565b9150509250925092565b614545816141ac565b82525050565b600061010082019050614561600083018b6144bf565b8181036020830152614573818a614363565b905081810360408301526145878189614363565b9050614596606083018861453c565b81810360808301526145a88187614363565b90506145b760a08301866144bf565b6145c460c083018561408d565b6145d160e083018461453c565b9998505050505050505050565b600080fd5b600080fd5b7f4e487b7100000000000000000000000000000000000000000000000000000000600052604160045260246000fd5b61462082614142565b810181811067ffffffffffffffff8211171561463f5761463e6145e8565b5b80604052505050565b6000614652613fe8565b905061465e8282614617565b919050565b600067ffffffffffffffff82111561467e5761467d6145e8565b5b61468782614142565b9050602081019050919050565b82818337600083830152505050565b60006146b66146b184614663565b614648565b9050828152602081018484840111156146d2576146d16145e3565b5b6146dd848285614694565b509392505050565b600082601f8301126146fa576146f96145de565b5b813561470a8482602086016146a3565b91505092915050565b60008060006060848603121561472c5761472b613ff2565b5b600084013567ffffffffffffffff81111561474a57614749613ff7565b5b614756868287016146e5565b935050602084013567ffffffffffffffff81111561477757614776613ff7565b5b614783868287016146e5565b925050604084013567ffffffffffffffff8111156147a4576147a3613ff7565b5b6147b0868287016146e5565b9150509250925092565b60006020820190506147cf600083018461453c565b92915050565b6000602082840312156147eb576147ea613ff2565b5b60006147f98482850161446a565b91505092915050565b6000806040838503121561481957614818613ff2565b5b6000614827858286016143d5565b9250506020614838858286016143d5565b9150509250929050565b61484b81614081565b811461485657600080fd5b50565b60008135905061486881614842565b92915050565b6000806040838503121561488557614884613ff2565b5b60006148938582860161446a565b92505060206148a485828601614859565b9150509250929050565b600067ffffffffffffffff8211156148c9576148c86145e8565b5b6148d282614142565b9050602081019050919050565b60006148f26148ed846148ae565b614648565b90508281526020810184848401111561490e5761490d6145e3565b5b614919848285614694565b509392505050565b600082601f830112614936576149356145de565b5b81356149468482602086016148df565b91505092915050565b6000806000806080858703121561496957614968613ff2565b5b60006149778782880161446a565b94505060206149888782880161446a565b9350506040614999878288016143d5565b925050606085013567ffffffffffffffff8111156149ba576149b9613ff7565b5b6149c687828801614921565b91505092959194509250565b6000610100830160008301516149eb60008601826140ed565b5060208301518482036020860152614a038282614153565b91505060408301518482036040860152614a1d8282614153565b9150506060830151614a3260608601826141be565b5060808301518482036080860152614a4a8282614153565b91505060a0830151614a5f60a08601826140ed565b5060c0830151614a7260c08601826141cd565b5060e0830151614a8560e08601826141be565b508091505092915050565b60006020820190508181036000830152614aaa81846149d2565b905092915050565b60008060408385031215614ac957614ac8613ff2565b5b6000614ad78582860161446a565b9250506020614ae88582860161446a565b9150509250929050565b7f4e487b7100000000000000000000000000000000000000000000000000000000600052601160045260246000fd5b6000614b2c826140e3565b9150614b37836140e3565b9250828201905080821115614b4f57614b4e614af2565b5b92915050565b7f4e487b7100000000000000000000000000000000000000000000000000000000600052602260045260246000fd5b60006002820490506001821680614b9c57607f821691505b602082108103614baf57614bae614b55565b5b50919050565b7f4e487b7100000000000000000000000000000000000000000000000000000000600052603260045260246000fd5b6000614bef826140e3565b91507fffffffffffffffffffffffffffffffffffffffffffffffffffffffffffffffff8203614c2157614c20614af2565b5b600182019050919050565b7f4552433732313a20617070726f76616c20746f2063757272656e74206f776e6560008201527f7200000000000000000000000000000000000000000000000000000000000000602082015250565b6000614c88602183614352565b9150614c9382614c2c565b604082019050919050565b60006020820190508181036000830152614cb781614c7b565b9050919050565b7f4552433732313a20617070726f76652063616c6c6572206973206e6f7420746f60008201527f6b656e206f776e6572206e6f7220617070726f76656420666f7220616c6c0000602082015250565b6000614d1a603e83614352565b9150614d2582614cbe565b604082019050919050565b60006020820190508181036000830152614d4981614d0d565b9050919050565b7f4552433732313a2063616c6c6572206973206e6f7420746f6b656e206f776e6560008201527f72206e6f7220617070726f766564000000000000000000000000000000000000602082015250565b6000614dac602e83614352565b9150614db782614d50565b604082019050919050565b60006020820190508181036000830152614ddb81614d9f565b9050919050565b7f4f6e6c792063757272656e74206f776e65722063616e2063616e63656c206c6960008201527f7374696e67000000000000000000000000000000000000000000000000000000602082015250565b6000614e3e602583614352565b9150614e4982614de2565b604082019050919050565b60006020820190508181036000830152614e6d81614e31565b9050919050565b60008190508160005260206000209050919050565b60008154614e9681614b84565b614ea08186614352565b94506001821660008114614ebb5760018114614ed157614f04565b60ff198316865281151560200286019350614f04565b614eda85614e74565b60005b83811015614efc57815481890152600182019150602081019050614edd565b808801955050505b50505092915050565b6000604082019050614f226000830185614429565b8181036020830152614f348184614e89565b90509392505050565b7f506c656173652070617920746865206d696e74696e6720666565000000000000600082015250565b6000614f73601a83614352565b9150614f7e82614f3d565b602082019050919050565b60006020820190508181036000830152614fa281614f66565b9050919050565b60006020601f8301049050919050565b600082821b905092915050565b600060088302614ff67fffffffffffffffffffffffffffffffffffffffffffffffffffffffffffffffff82614fb9565b6150008683614fb9565b95508019841693508086168417925050509392505050565b6000819050919050565b600061503d615038615033846140e3565b615018565b6140e3565b9050919050565b6000819050919050565b61505783615022565b61506b61506382615044565b848454614fc6565b825550505050565b600090565b615080615073565b61508b81848461504e565b505050565b5b818110156150af576150a4600082615078565b600181019050615091565b5050565b601f8211156150f4576150c581614e74565b6150ce84614fa9565b810160208510156150dd578190505b6150f16150e985614fa9565b830182615090565b50505b505050565b600082821c905092915050565b6000615117600019846008026150f9565b1980831691505092915050565b60006151308383615106565b9150826002028217905092915050565b615149826140fc565b67ffffffffffffffff811115615162576151616145e8565b5b61516c8254614b84565b6151778282856150b3565b600060209050601f8311600181146151aa5760008415615198578287015190505b6151a28582615124565b86555061520a565b601f1984166151b886614e74565b60005b828110156151e0578489015182556001820191506020850194506020810190506151bb565b868310156151fd57848901516151f9601f891682615106565b8355505b6001600288020188555050505b505050505050565b7f506c65617365207061792074686520726571756972656420616d6f756e740000600082015250565b6000615248601e83614352565b915061525382615212565b602082019050919050565b600060208201905081810360008301526152778161523b565b9050919050565b6000615289826140e3565b9150615294836140e3565b92508282039050818111156152ac576152ab614af2565b5b92915050565b7f4552433732313a20696e76616c696420746f6b656e2049440000000000000000600082015250565b60006152e8601883614352565b91506152f3826152b2565b602082019050919050565b60006020820190508181036000830152615317816152db565b9050919050565b7f4552433732313a2061646472657373207a65726f206973206e6f74206120766160008201527f6c6964206f776e65720000000000000000000000000000000000000000000000602082015250565b600061537a602983614352565b91506153858261531e565b604082019050919050565b600060208201905081810360008301526153a98161536d565b9050919050565b7f63616e6e6f74206c69737420736f6e677320796f7520646f206e6f74206f776e600082015250565b60006153e6602083614352565b91506153f1826153b0565b602082019050919050565b60006020820190508181036000830152615415816153d9565b9050919050565b600081905092915050565b6000615432826140fc565b61543c818561541c565b935061544c818560208601614118565b80840191505092915050565b60006154648285615427565b91506154708284615427565b91508190509392505050565b60008154905061548b81614b84565b9050919050565b8181036154a0575050615578565b6154a98261547c565b67ffffffffffffffff8111156154c2576154c16145e8565b5b6154cc8254614b84565b6154d78282856150b3565b6000601f83116001811461550657600084156154f4578287015490505b6154fe8582615124565b865550615571565b601f19841661551487614e74565b965061551f86614e74565b60005b8281101561554757848901548255600182019150600185019450602081019050615522565b868310156155645784890154615560601f891682615106565b8355505b6001600288020188555050505b5050505050505b565b7f4f776e61626c653a206e6577206f776e657220697320746865207a65726f206160008201527f6464726573730000000000000000000000000000000000000000000000000000602082015250565b60006155d6602683614352565b91506155e18261557a565b604082019050919050565b60006020820190508181036000830152615605816155c9565b9050919050565b7f4552433732313a207472616e736665722066726f6d20696e636f72726563742060008201527f6f776e6572000000000000000000000000000000000000000000000000000000602082015250565b6000615668602583614352565b91506156738261560c565b604082019050919050565b600060208201905081810360008301526156978161565b565b9050919050565b7f4552433732313a207472616e7366657220746f20746865207a65726f2061646460008201527f7265737300000000000000000000000000000000000000000000000000000000602082015250565b60006156fa602483614352565b91506157058261569e565b604082019050919050565b60006020820190508181036000830152615729816156ed565b9050919050565b7f4552433732313a206d696e7420746f20746865207a65726f2061646472657373600082015250565b6000615766602083614352565b915061577182615730565b602082019050919050565b6000602082019050818103600083015261579581615759565b9050919050565b7f4552433732313a20746f6b656e20616c7265616479206d696e74656400000000600082015250565b60006157d2601c83614352565b91506157dd8261579c565b602082019050919050565b60006020820190508181036000830152615801816157c5565b9050919050565b7f45524337323155524953746f726167653a2055524920736574206f66206e6f6e60008201527f6578697374656e7420746f6b656e000000000000000000000000000000000000602082015250565b6000615864602e83614352565b915061586f82615808565b604082019050919050565b6000602082019050818103600083015261589381615857565b9050919050565b7f4f776e61626c653a2063616c6c6572206973206e6f7420746865206f776e6572600082015250565b60006158d0602083614352565b91506158db8261589a565b602082019050919050565b600060208201905081810360008301526158ff816158c3565b9050919050565b7f4552433732313a20617070726f766520746f2063616c6c657200000000000000600082015250565b600061593c601983614352565b915061594782615906565b602082019050919050565b6000602082019050818103600083015261596b8161592f565b9050919050565b7f4552433732313a207472616e7366657220746f206e6f6e20455243373231526560008201527f63656976657220696d706c656d656e7465720000000000000000000000000000602082015250565b60006159ce603283614352565b91506159d982615972565b604082019050919050565b600060208201905081810360008301526159fd816159c1565b9050919050565b600081519050919050565b600082825260208201905092915050565b6000615a2b82615a04565b615a358185615a0f565b9350615a45818560208601614118565b615a4e81614142565b840191505092915050565b6000608082019050615a6e6000830187614429565b615a7b6020830186614429565b615a8860408301856144bf565b8181036060830152615a9a8184615a20565b905095945050505050565b600081519050615ab481614028565b92915050565b600060208284031215615ad057615acf613ff2565b5b6000615ade84828501615aa5565b91505092915050565b7f4e487b7100000000000000000000000000000000000000000000000000000000600052601260045260246000fd5b6000615b21826140e3565b9150615b2c836140e3565b925082615b3c57615b3b615ae7565b5b828204905092915050565b6000615b52826140e3565b9150615b5d836140e3565b925082615b6d57615b6c615ae7565b5b82820690509291505056fea264697066735822122099b1ffaa8d7ccaaf87477307bde3960a9018835a6ec5b2641d76ec05ed45a92564736f6c63430008110033",
  "linkReferences": {},
  "deployedLinkReferences": {}
}