{
  "_format": "hh-sol-artifact-1",
  "contractName": "DefiBeats",
  "sourceName": "contracts/DefiBeats.sol",
  "abi": [
    {
      "inputs": [],
      "stateMutability": "nonpayable",
      "type": "constructor"
    },
    {
      "anonymous": false,
      "inputs": [
        {
          "indexed": true,
          "internalType": "address",
          "name": "owner",
          "type": "address"
        },
        {
          "indexed": true,
          "internalType": "address",
          "name": "approved",
          "type": "address"
        },
        {
          "indexed": true,
          "internalType": "uint256",
          "name": "tokenId",
          "type": "uint256"
        }
      ],
      "name": "Approval",
      "type": "event"
    },
    {
      "anonymous": false,
      "inputs": [
        {
          "indexed": true,
          "internalType": "address",
          "name": "owner",
          "type": "address"
        },
        {
          "indexed": true,
          "internalType": "address",
          "name": "operator",
          "type": "address"
        },
        {
          "indexed": false,
          "internalType": "bool",
          "name": "approved",
          "type": "bool"
        }
      ],
      "name": "ApprovalForAll",
      "type": "event"
    },
    {
      "anonymous": false,
      "inputs": [
        {
          "indexed": true,
          "internalType": "address",
          "name": "previousOwner",
          "type": "address"
        },
        {
          "indexed": true,
          "internalType": "address",
          "name": "newOwner",
          "type": "address"
        }
      ],
      "name": "OwnershipTransferred",
      "type": "event"
    },
    {
      "anonymous": false,
      "inputs": [
        {
          "indexed": true,
          "internalType": "uint256",
          "name": "tokenId",
          "type": "uint256"
        },
        {
          "indexed": false,
          "internalType": "address",
          "name": "seller",
          "type": "address"
        },
        {
          "indexed": false,
          "internalType": "string",
          "name": "tokenUri",
          "type": "string"
        }
      ],
      "name": "SongCancelled",
      "type": "event"
    },
    {
      "anonymous": false,
      "inputs": [
        {
          "indexed": true,
          "internalType": "uint256",
          "name": "tokenId",
          "type": "uint256"
        },
        {
          "indexed": false,
          "internalType": "address",
          "name": "seller",
          "type": "address"
        },
        {
          "indexed": false,
          "internalType": "string",
          "name": "tokenUri",
          "type": "string"
        }
      ],
      "name": "SongListed",
      "type": "event"
    },
    {
      "anonymous": false,
      "inputs": [
        {
          "indexed": true,
          "internalType": "uint256",
          "name": "tokenId",
          "type": "uint256"
        },
        {
          "indexed": true,
          "internalType": "address",
          "name": "producer",
          "type": "address"
        },
        {
          "indexed": false,
          "internalType": "string",
          "name": "tokenUri",
          "type": "string"
        }
      ],
      "name": "SongMade",
      "type": "event"
    },
    {
      "anonymous": false,
      "inputs": [
        {
          "indexed": true,
          "internalType": "uint256",
          "name": "tokenId",
          "type": "uint256"
        },
        {
          "indexed": false,
          "internalType": "address",
          "name": "seller",
          "type": "address"
        },
        {
          "indexed": false,
          "internalType": "string",
          "name": "tokenUri",
          "type": "string"
        },
        {
          "indexed": true,
          "internalType": "uint256",
          "name": "price",
          "type": "uint256"
        }
      ],
      "name": "SongPurchased",
      "type": "event"
    },
    {
      "anonymous": false,
      "inputs": [
        {
          "indexed": true,
          "internalType": "address",
          "name": "from",
          "type": "address"
        },
        {
          "indexed": true,
          "internalType": "address",
          "name": "to",
          "type": "address"
        },
        {
          "indexed": true,
          "internalType": "uint256",
          "name": "tokenId",
          "type": "uint256"
        }
      ],
      "name": "Transfer",
      "type": "event"
    },
    {
      "inputs": [],
      "name": "admin",
      "outputs": [
        {
          "internalType": "address",
          "name": "",
          "type": "address"
        }
      ],
      "stateMutability": "view",
      "type": "function"
    },
    {
      "inputs": [
        {
          "internalType": "uint256",
          "name": "",
          "type": "uint256"
        }
      ],
      "name": "allSongs",
      "outputs": [
        {
          "internalType": "uint256",
          "name": "tokenId",
          "type": "uint256"
        },
        {
          "internalType": "string",
          "name": "name",
          "type": "string"
        },
        {
          "internalType": "string",
          "name": "collection",
          "type": "string"
        },
        {
          "internalType": "address payable",
          "name": "currentOwner",
          "type": "address"
        },
        {
          "internalType": "string",
          "name": "tokenUri",
          "type": "string"
        },
        {
          "internalType": "uint256",
          "name": "price",
          "type": "uint256"
        },
        {
          "internalType": "bool",
          "name": "isForSale",
          "type": "bool"
        },
        {
          "internalType": "address payable",
          "name": "originalProducer",
          "type": "address"
        }
      ],
      "stateMutability": "view",
      "type": "function"
    },
    {
      "inputs": [
        {
          "internalType": "address",
          "name": "to",
          "type": "address"
        },
        {
          "internalType": "uint256",
          "name": "tokenId",
          "type": "uint256"
        }
      ],
      "name": "approve",
      "outputs": [],
      "stateMutability": "nonpayable",
      "type": "function"
    },
    {
      "inputs": [
        {
          "internalType": "address",
          "name": "owner",
          "type": "address"
        }
      ],
      "name": "balanceOf",
      "outputs": [
        {
          "internalType": "uint256",
          "name": "",
          "type": "uint256"
        }
      ],
      "stateMutability": "view",
      "type": "function"
    },
    {
      "inputs": [
        {
          "internalType": "uint256",
          "name": "songNumber",
          "type": "uint256"
        }
      ],
      "name": "buySong",
      "outputs": [],
      "stateMutability": "payable",
      "type": "function"
    },
    {
      "inputs": [
        {
          "internalType": "uint256",
          "name": "songNumber",
          "type": "uint256"
        }
      ],
      "name": "cancelListing",
      "outputs": [],
      "stateMutability": "nonpayable",
      "type": "function"
    },
    {
      "inputs": [
        {
          "internalType": "address",
          "name": "newAdmin",
          "type": "address"
        }
      ],
      "name": "changeAdmin",
      "outputs": [
        {
          "internalType": "address",
          "name": "",
          "type": "address"
        }
      ],
      "stateMutability": "nonpayable",
      "type": "function"
    },
    {
      "inputs": [
        {
          "internalType": "address",
          "name": "newFeeAddress",
          "type": "address"
        }
      ],
      "name": "changeFeeAccount",
      "outputs": [
        {
          "internalType": "address",
          "name": "",
          "type": "address"
        }
      ],
      "stateMutability": "nonpayable",
      "type": "function"
    },
    {
      "inputs": [],
      "name": "feeAccount",
      "outputs": [
        {
          "internalType": "address payable",
          "name": "",
          "type": "address"
        }
      ],
      "stateMutability": "view",
      "type": "function"
    },
    {
      "inputs": [
        {
          "internalType": "uint256",
          "name": "tokenId",
          "type": "uint256"
        }
      ],
      "name": "getApproved",
      "outputs": [
        {
          "internalType": "address",
          "name": "",
          "type": "address"
        }
      ],
      "stateMutability": "view",
      "type": "function"
    },
    {
      "inputs": [
        {
          "internalType": "address",
          "name": "owner",
          "type": "address"
        },
        {
          "internalType": "address",
          "name": "operator",
          "type": "address"
        }
      ],
      "name": "isApprovedForAll",
      "outputs": [
        {
          "internalType": "bool",
          "name": "",
          "type": "bool"
        }
      ],
      "stateMutability": "view",
      "type": "function"
    },
    {
      "inputs": [
        {
          "internalType": "uint256",
          "name": "songNumber",
          "type": "uint256"
        },
        {
          "internalType": "uint256",
          "name": "songPrice",
          "type": "uint256"
        }
      ],
      "name": "listSong",
      "outputs": [],
      "stateMutability": "nonpayable",
      "type": "function"
    },
    {
      "inputs": [
        {
          "internalType": "string",
          "name": "_tokenUri",
          "type": "string"
        },
        {
          "internalType": "string",
          "name": "songName",
          "type": "string"
        },
        {
          "internalType": "string",
          "name": "collection",
          "type": "string"
        }
      ],
      "name": "makeSong",
      "outputs": [
        {
          "internalType": "uint256",
          "name": "",
          "type": "uint256"
        }
      ],
      "stateMutability": "payable",
      "type": "function"
    },
    {
      "inputs": [],
      "name": "name",
      "outputs": [
        {
          "internalType": "string",
          "name": "",
          "type": "string"
        }
      ],
      "stateMutability": "view",
      "type": "function"
    },
    {
      "inputs": [],
      "name": "owner",
      "outputs": [
        {
          "internalType": "address",
          "name": "",
          "type": "address"
        }
      ],
      "stateMutability": "view",
      "type": "function"
    },
    {
      "inputs": [
        {
          "internalType": "uint256",
          "name": "tokenId",
          "type": "uint256"
        }
      ],
      "name": "ownerOf",
      "outputs": [
        {
          "internalType": "address",
          "name": "",
          "type": "address"
        }
      ],
      "stateMutability": "view",
      "type": "function"
    },
    {
      "inputs": [
        {
          "internalType": "uint256",
          "name": "",
          "type": "uint256"
        }
      ],
      "name": "ownerOfNft",
      "outputs": [
        {
          "internalType": "address",
          "name": "",
          "type": "address"
        }
      ],
      "stateMutability": "view",
      "type": "function"
    },
    {
      "inputs": [],
      "name": "renounceOwnership",
      "outputs": [],
      "stateMutability": "nonpayable",
      "type": "function"
    },
    {
      "inputs": [],
      "name": "royaltyFee",
      "outputs": [
        {
          "internalType": "uint256",
          "name": "",
          "type": "uint256"
        }
      ],
      "stateMutability": "view",
      "type": "function"
    },
    {
      "inputs": [
        {
          "internalType": "address",
          "name": "from",
          "type": "address"
        },
        {
          "internalType": "address",
          "name": "to",
          "type": "address"
        },
        {
          "internalType": "uint256",
          "name": "tokenId",
          "type": "uint256"
        }
      ],
      "name": "safeTransferFrom",
      "outputs": [],
      "stateMutability": "nonpayable",
      "type": "function"
    },
    {
      "inputs": [
        {
          "internalType": "address",
          "name": "from",
          "type": "address"
        },
        {
          "internalType": "address",
          "name": "to",
          "type": "address"
        },
        {
          "internalType": "uint256",
          "name": "tokenId",
          "type": "uint256"
        },
        {
          "internalType": "bytes",
          "name": "data",
          "type": "bytes"
        }
      ],
      "name": "safeTransferFrom",
      "outputs": [],
      "stateMutability": "nonpayable",
      "type": "function"
    },
    {
      "inputs": [
        {
          "internalType": "address",
          "name": "operator",
          "type": "address"
        },
        {
          "internalType": "bool",
          "name": "approved",
          "type": "bool"
        }
      ],
      "name": "setApprovalForAll",
      "outputs": [],
      "stateMutability": "nonpayable",
      "type": "function"
    },
    {
      "inputs": [
        {
          "internalType": "uint256",
          "name": "",
          "type": "uint256"
        }
      ],
      "name": "songs",
      "outputs": [
        {
          "internalType": "uint256",
          "name": "tokenId",
          "type": "uint256"
        },
        {
          "internalType": "string",
          "name": "name",
          "type": "string"
        },
        {
          "internalType": "string",
          "name": "collection",
          "type": "string"
        },
        {
          "internalType": "address payable",
          "name": "currentOwner",
          "type": "address"
        },
        {
          "internalType": "string",
          "name": "tokenUri",
          "type": "string"
        },
        {
          "internalType": "uint256",
          "name": "price",
          "type": "uint256"
        },
        {
          "internalType": "bool",
          "name": "isForSale",
          "type": "bool"
        },
        {
          "internalType": "address payable",
          "name": "originalProducer",
          "type": "address"
        }
      ],
      "stateMutability": "view",
      "type": "function"
    },
    {
      "inputs": [
        {
          "internalType": "bytes4",
          "name": "interfaceId",
          "type": "bytes4"
        }
      ],
      "name": "supportsInterface",
      "outputs": [
        {
          "internalType": "bool",
          "name": "",
          "type": "bool"
        }
      ],
      "stateMutability": "view",
      "type": "function"
    },
    {
      "inputs": [],
      "name": "symbol",
      "outputs": [
        {
          "internalType": "string",
          "name": "",
          "type": "string"
        }
      ],
      "stateMutability": "view",
      "type": "function"
    },
    {
      "inputs": [],
      "name": "tokenCount",
      "outputs": [
        {
          "internalType": "uint256",
          "name": "",
          "type": "uint256"
        }
      ],
      "stateMutability": "view",
      "type": "function"
    },
    {
      "inputs": [
        {
          "internalType": "uint256",
          "name": "tokenId",
          "type": "uint256"
        }
      ],
      "name": "tokenURI",
      "outputs": [
        {
          "internalType": "string",
          "name": "",
          "type": "string"
        }
      ],
      "stateMutability": "view",
      "type": "function"
    },
    {
      "inputs": [],
      "name": "transactionFee",
      "outputs": [
        {
          "internalType": "uint256",
          "name": "",
          "type": "uint256"
        }
      ],
      "stateMutability": "view",
      "type": "function"
    },
    {
      "inputs": [
        {
          "internalType": "address",
          "name": "from",
          "type": "address"
        },
        {
          "internalType": "address",
          "name": "to",
          "type": "address"
        },
        {
          "internalType": "uint256",
          "name": "tokenId",
          "type": "uint256"
        }
      ],
      "name": "transferFrom",
      "outputs": [],
      "stateMutability": "nonpayable",
      "type": "function"
    },
    {
      "inputs": [
        {
          "internalType": "address",
          "name": "newOwner",
          "type": "address"
        }
      ],
      "name": "transferOwnership",
      "outputs": [],
      "stateMutability": "nonpayable",
      "type": "function"
    },
    {
      "inputs": [
        {
          "internalType": "uint256",
          "name": "_newFeeAmount",
          "type": "uint256"
        }
      ],
      "name": "updateFee",
      "outputs": [
        {
          "internalType": "uint256",
          "name": "",
          "type": "uint256"
        }
      ],
      "stateMutability": "nonpayable",
      "type": "function"
    },
    {
      "inputs": [
        {
          "internalType": "uint256",
          "name": "songNumber",
          "type": "uint256"
        },
        {
          "internalType": "uint256",
          "name": "newPrice",
          "type": "uint256"
        }
      ],
      "name": "updateListingPrice",
      "outputs": [],
      "stateMutability": "nonpayable",
      "type": "function"
    },
    {
      "inputs": [
        {
          "internalType": "uint256",
          "name": "_newFeeAmount",
          "type": "uint256"
        }
      ],
      "name": "updateRoyaltyFee",
      "outputs": [
        {
          "internalType": "uint256",
          "name": "",
          "type": "uint256"
        }
      ],
      "stateMutability": "nonpayable",
      "type": "function"
    }
  ],
  "bytecode": "0x60806040526001600a556001600b553480156200001b57600080fd5b506040518060400160405280600981526020017f44656669426561747300000000000000000000000000000000000000000000008152506040518060400160405280600381526020017f444642000000000000000000000000000000000000000000000000000000000081525081600090816200009991906200049e565b508060019081620000ab91906200049e565b505050620000ce620000c26200015660201b60201c565b6200015e60201b60201c565b33600c60006101000a81548173ffffffffffffffffffffffffffffffffffffffff021916908373ffffffffffffffffffffffffffffffffffffffff16021790555033600d60006101000a81548173ffffffffffffffffffffffffffffffffffffffff021916908373ffffffffffffffffffffffffffffffffffffffff16021790555062000585565b600033905090565b6000600760009054906101000a900473ffffffffffffffffffffffffffffffffffffffff16905081600760006101000a81548173ffffffffffffffffffffffffffffffffffffffff021916908373ffffffffffffffffffffffffffffffffffffffff1602179055508173ffffffffffffffffffffffffffffffffffffffff168173ffffffffffffffffffffffffffffffffffffffff167f8be0079c531659141344cd1fd0a4f28419497f9722a3daafe3b4186f6b6457e060405160405180910390a35050565b600081519050919050565b7f4e487b7100000000000000000000000000000000000000000000000000000000600052604160045260246000fd5b7f4e487b7100000000000000000000000000000000000000000000000000000000600052602260045260246000fd5b60006002820490506001821680620002a657607f821691505b602082108103620002bc57620002bb6200025e565b5b50919050565b60008190508160005260206000209050919050565b60006020601f8301049050919050565b600082821b905092915050565b600060088302620003267fffffffffffffffffffffffffffffffffffffffffffffffffffffffffffffffff82620002e7565b620003328683620002e7565b95508019841693508086168417925050509392505050565b6000819050919050565b6000819050919050565b60006200037f6200037962000373846200034a565b62000354565b6200034a565b9050919050565b6000819050919050565b6200039b836200035e565b620003b3620003aa8262000386565b848454620002f4565b825550505050565b600090565b620003ca620003bb565b620003d781848462000390565b505050565b5b81811015620003ff57620003f3600082620003c0565b600181019050620003dd565b5050565b601f8211156200044e576200041881620002c2565b6200042384620002d7565b8101602085101562000433578190505b6200044b6200044285620002d7565b830182620003dc565b50505b505050565b600082821c905092915050565b6000620004736000198460080262000453565b1980831691505092915050565b60006200048e838362000460565b9150826002028217905092915050565b620004a98262000224565b67ffffffffffffffff811115620004c557620004c46200022f565b5b620004d182546200028d565b620004de82828562000403565b600060209050601f83116001811462000516576000841562000501578287015190505b6200050d858262000480565b8655506200057d565b601f1984166200052686620002c2565b60005b82811015620005505784890151825560018201915060208501945060208101905062000529565b868310156200057057848901516200056c601f89168262000460565b8355505b6001600288020188555050505b505050505050565b6146aa80620005956000396000f3fe6080604052600436106101ee5760003560e01c80638da5cb5b1161010d578063a6b46a6f116100a0578063c46049431161006f578063c46049431461074f578063c87b56dd14610778578063e985e9c5146107b5578063f2fde38b146107f2578063f851a4401461081b576101ee565b8063a6b46a6f1461067a578063b88d4fde146106be578063b8997a97146106e7578063b922f94c14610712576101ee565b806395d89b41116100dc57806395d89b41146105d05780639ed3edf0146105fb5780639f181b5e14610626578063a22cb46514610651576101ee565b80638da5cb5b146105025780638f2839701461052d5780638fc59a8a1461056a5780639012c4a814610593576101ee565b8063451c67fd1161018557806365e17c9d1161015457806365e17c9d1461044657806370a0823114610471578063715018a6146104ae57806371ffcb16146104c5576101ee565b8063451c67fd146103805780634e83be47146103b0578063606a0175146103ed5780636352211e14610409576101ee565b806323b872dd116101c157806323b872dd146102c1578063304cff30146102ea578063305a67a81461032e57806342842e0e14610357576101ee565b806301ffc9a7146101f357806306fdde0314610230578063081812fc1461025b578063095ea7b314610298575b600080fd5b3480156101ff57600080fd5b5061021a60048036038101906102159190612fb3565b610846565b6040516102279190612ffb565b60405180910390f35b34801561023c57600080fd5b50610245610928565b60405161025291906130a6565b60405180910390f35b34801561026757600080fd5b50610282600480360381019061027d91906130fe565b6109ba565b60405161028f919061316c565b60405180910390f35b3480156102a457600080fd5b506102bf60048036038101906102ba91906131b3565b610a00565b005b3480156102cd57600080fd5b506102e860048036038101906102e391906131f3565b610b17565b005b3480156102f657600080fd5b50610311600480360381019061030c91906130fe565b610b77565b604051610325989796959493929190613276565b60405180910390f35b34801561033a57600080fd5b50610355600480360381019061035091906130fe565b610da4565b005b34801561036357600080fd5b5061037e600480360381019061037991906131f3565b610ec8565b005b61039a6004803603810190610395919061343e565b610ee8565b6040516103a791906134e5565b60405180910390f35b3480156103bc57600080fd5b506103d760048036038101906103d291906130fe565b6112f9565b6040516103e491906134e5565b60405180910390f35b610407600480360381019061040291906130fe565b611362565b005b34801561041557600080fd5b50610430600480360381019061042b91906130fe565b6115fe565b60405161043d919061316c565b60405180910390f35b34801561045257600080fd5b5061045b6116af565b6040516104689190613500565b60405180910390f35b34801561047d57600080fd5b506104986004803603810190610493919061351b565b6116d5565b6040516104a591906134e5565b60405180910390f35b3480156104ba57600080fd5b506104c361178c565b005b3480156104d157600080fd5b506104ec60048036038101906104e7919061351b565b6117a0565b6040516104f9919061316c565b60405180910390f35b34801561050e57600080fd5b50610517611843565b604051610524919061316c565b60405180910390f35b34801561053957600080fd5b50610554600480360381019061054f919061351b565b61186d565b604051610561919061316c565b60405180910390f35b34801561057657600080fd5b50610591600480360381019061058c9190613548565b611910565b005b34801561059f57600080fd5b506105ba60048036038101906105b591906130fe565b611a66565b6040516105c791906134e5565b60405180910390f35b3480156105dc57600080fd5b506105e5611acf565b6040516105f291906130a6565b60405180910390f35b34801561060757600080fd5b50610610611b61565b60405161061d91906134e5565b60405180910390f35b34801561063257600080fd5b5061063b611b67565b60405161064891906134e5565b60405180910390f35b34801561065d57600080fd5b50610678600480360381019061067391906135b4565b611b6d565b005b34801561068657600080fd5b506106a1600480360381019061069c91906130fe565b611b83565b6040516106b5989796959493929190613276565b60405180910390f35b3480156106ca57600080fd5b506106e560048036038101906106e09190613695565b611dc0565b005b3480156106f357600080fd5b506106fc611e22565b60405161070991906134e5565b60405180910390f35b34801561071e57600080fd5b50610739600480360381019061073491906130fe565b611e28565b604051610746919061316c565b60405180910390f35b34801561075b57600080fd5b5061077660048036038101906107719190613548565b611e5b565b005b34801561078457600080fd5b5061079f600480360381019061079a91906130fe565b611f12565b6040516107ac91906130a6565b60405180910390f35b3480156107c157600080fd5b506107dc60048036038101906107d79190613718565b612024565b6040516107e99190612ffb565b60405180910390f35b3480156107fe57600080fd5b506108196004803603810190610814919061351b565b6120b8565b005b34801561082757600080fd5b5061083061213b565b60405161083d919061316c565b60405180910390f35b60007f80ac58cd000000000000000000000000000000000000000000000000000000007bffffffffffffffffffffffffffffffffffffffffffffffffffffffff1916827bffffffffffffffffffffffffffffffffffffffffffffffffffffffff1916148061091157507f5b5e139f000000000000000000000000000000000000000000000000000000007bffffffffffffffffffffffffffffffffffffffffffffffffffffffff1916827bffffffffffffffffffffffffffffffffffffffffffffffffffffffff1916145b80610921575061092082612161565b5b9050919050565b60606000805461093790613787565b80601f016020809104026020016040519081016040528092919081815260200182805461096390613787565b80156109b05780601f10610985576101008083540402835291602001916109b0565b820191906000526020600020905b81548152906001019060200180831161099357829003601f168201915b5050505050905090565b60006109c5826121cb565b6004600083815260200190815260200160002060009054906101000a900473ffffffffffffffffffffffffffffffffffffffff169050919050565b6000610a0b826115fe565b90508073ffffffffffffffffffffffffffffffffffffffff168373ffffffffffffffffffffffffffffffffffffffff1603610a7b576040517f08c379a0000000000000000000000000000000000000000000000000000000008152600401610a729061382a565b60405180910390fd5b8073ffffffffffffffffffffffffffffffffffffffff16610a9a612216565b73ffffffffffffffffffffffffffffffffffffffff161480610ac95750610ac881610ac3612216565b612024565b5b610b08576040517f08c379a0000000000000000000000000000000000000000000000000000000008152600401610aff906138bc565b60405180910390fd5b610b12838361221e565b505050565b610b28610b22612216565b826122d7565b610b67576040517f08c379a0000000000000000000000000000000000000000000000000000000008152600401610b5e9061394e565b60405180910390fd5b610b7283838361236c565b505050565b600f602052806000526040600020600091509050806000015490806001018054610ba090613787565b80601f0160208091040260200160405190810160405280929190818152602001828054610bcc90613787565b8015610c195780601f10610bee57610100808354040283529160200191610c19565b820191906000526020600020905b815481529060010190602001808311610bfc57829003601f168201915b505050505090806002018054610c2e90613787565b80601f0160208091040260200160405190810160405280929190818152602001828054610c5a90613787565b8015610ca75780601f10610c7c57610100808354040283529160200191610ca7565b820191906000526020600020905b815481529060010190602001808311610c8a57829003601f168201915b5050505050908060030160009054906101000a900473ffffffffffffffffffffffffffffffffffffffff1690806004018054610ce290613787565b80601f0160208091040260200160405190810160405280929190818152602001828054610d0e90613787565b8015610d5b5780601f10610d3057610100808354040283529160200191610d5b565b820191906000526020600020905b815481529060010190602001808311610d3e57829003601f168201915b5050505050908060050154908060060160009054906101000a900460ff16908060060160019054906101000a900473ffffffffffffffffffffffffffffffffffffffff16905088565b6000600f600083815260200190815260200160002090508060030160009054906101000a900473ffffffffffffffffffffffffffffffffffffffff1673ffffffffffffffffffffffffffffffffffffffff163373ffffffffffffffffffffffffffffffffffffffff1614610e4d576040517f08c379a0000000000000000000000000000000000000000000000000000000008152600401610e44906139e0565b60405180910390fd5b610e5c3033836000015461236c565b60008160060160006101000a81548160ff0219169083151502179055506000816005018190555080600001547f0151dfa0184160d46fa1bdc2b7c8354feb0cf4893c3d8c911d04d50314d879d03383600401604051610ebc929190613a99565b60405180910390a25050565b610ee383838360405180602001604052806000815250611dc0565b505050565b6000610ef460086125d2565b60096000815480929190610f0790613af8565b91905055506000610f1860086125e8565b9050610f2433826125f6565b33600e600083815260200190815260200160002060006101000a81548173ffffffffffffffffffffffffffffffffffffffff021916908373ffffffffffffffffffffffffffffffffffffffff160217905550610f8081866127cf565b6040518061010001604052808281526020018581526020018481526020013373ffffffffffffffffffffffffffffffffffffffff168152602001868152602001600081526020016000151581526020013373ffffffffffffffffffffffffffffffffffffffff16815250600f600083815260200190815260200160002060008201518160000155602082015181600101908161101c9190613cd7565b5060408201518160020190816110329190613cd7565b5060608201518160030160006101000a81548173ffffffffffffffffffffffffffffffffffffffff021916908373ffffffffffffffffffffffffffffffffffffffff160217905550608082015181600401908161108f9190613cd7565b5060a0820151816005015560c08201518160060160006101000a81548160ff02191690831515021790555060e08201518160060160016101000a81548173ffffffffffffffffffffffffffffffffffffffff021916908373ffffffffffffffffffffffffffffffffffffffff16021790555090505060106040518061010001604052808381526020018681526020018581526020013373ffffffffffffffffffffffffffffffffffffffff168152602001878152602001600081526020016000151581526020013373ffffffffffffffffffffffffffffffffffffffff1681525090806001815401808255809150506001900390600052602060002090600702016000909190919091506000820151816000015560208201518160010190816111b89190613cd7565b5060408201518160020190816111ce9190613cd7565b5060608201518160030160006101000a81548173ffffffffffffffffffffffffffffffffffffffff021916908373ffffffffffffffffffffffffffffffffffffffff160217905550608082015181600401908161122b9190613cd7565b5060a0820151816005015560c08201518160060160006101000a81548160ff02191690831515021790555060e08201518160060160016101000a81548173ffffffffffffffffffffffffffffffffffffffff021916908373ffffffffffffffffffffffffffffffffffffffff16021790555050503373ffffffffffffffffffffffffffffffffffffffff16817f47a149be5ec47637b9e89787b9b21ff88b0b783100d80221f6a5edc5c8d77c40876040516112e691906130a6565b60405180910390a3809150509392505050565b6000600d60009054906101000a900473ffffffffffffffffffffffffffffffffffffffff1673ffffffffffffffffffffffffffffffffffffffff163373ffffffffffffffffffffffffffffffffffffffff161461135557600080fd5b81600b8190559050919050565b6000600f600083815260200190815260200160002090506000600a54600a5483600501546113909190613da9565b61139a9190613da9565b9050803410156113df576040517f08c379a00000000000000000000000000000000000000000000000000000000081526004016113d690613e29565b60405180910390fd5b6000600b54600a546113f19190613da9565b9050600081346114019190613e49565b90508360060160019054906101000a900473ffffffffffffffffffffffffffffffffffffffff1673ffffffffffffffffffffffffffffffffffffffff166108fc600b549081150290604051600060405180830381858888f1935050505015801561146f573d6000803e3d6000fd5b50600c60009054906101000a900473ffffffffffffffffffffffffffffffffffffffff1673ffffffffffffffffffffffffffffffffffffffff166108fc600a549081150290604051600060405180830381858888f193505050501580156114da573d6000803e3d6000fd5b508360030160009054906101000a900473ffffffffffffffffffffffffffffffffffffffff1673ffffffffffffffffffffffffffffffffffffffff166108fc829081150290604051600060405180830381858888f19350505050158015611545573d6000803e3d6000fd5b506115553033866000015461236c565b338460030160006101000a81548173ffffffffffffffffffffffffffffffffffffffff021916908373ffffffffffffffffffffffffffffffffffffffff16021790555060008460060160006101000a81548160ff0219169083151502179055503484600001547f8500049995184367829fb7fae51b1cc359bdd658bae20e3e42f7788a4a72b9ec33876004016040516115ef929190613a99565b60405180910390a35050505050565b6000806002600084815260200190815260200160002060009054906101000a900473ffffffffffffffffffffffffffffffffffffffff169050600073ffffffffffffffffffffffffffffffffffffffff168173ffffffffffffffffffffffffffffffffffffffff16036116a6576040517f08c379a000000000000000000000000000000000000000000000000000000000815260040161169d90613ec9565b60405180910390fd5b80915050919050565b600c60009054906101000a900473ffffffffffffffffffffffffffffffffffffffff1681565b60008073ffffffffffffffffffffffffffffffffffffffff168273ffffffffffffffffffffffffffffffffffffffff1603611745576040517f08c379a000000000000000000000000000000000000000000000000000000000815260040161173c90613f5b565b60405180910390fd5b600360008373ffffffffffffffffffffffffffffffffffffffff1673ffffffffffffffffffffffffffffffffffffffff168152602001908152602001600020549050919050565b61179461283c565b61179e60006128ba565b565b6000600d60009054906101000a900473ffffffffffffffffffffffffffffffffffffffff1673ffffffffffffffffffffffffffffffffffffffff163373ffffffffffffffffffffffffffffffffffffffff16146117fc57600080fd5b81600c60006101000a81548173ffffffffffffffffffffffffffffffffffffffff021916908373ffffffffffffffffffffffffffffffffffffffff16021790559050919050565b6000600760009054906101000a900473ffffffffffffffffffffffffffffffffffffffff16905090565b6000600d60009054906101000a900473ffffffffffffffffffffffffffffffffffffffff1673ffffffffffffffffffffffffffffffffffffffff163373ffffffffffffffffffffffffffffffffffffffff16146118c957600080fd5b81600d60006101000a81548173ffffffffffffffffffffffffffffffffffffffff021916908373ffffffffffffffffffffffffffffffffffffffff16021790559050919050565b611919826115fe565b73ffffffffffffffffffffffffffffffffffffffff163373ffffffffffffffffffffffffffffffffffffffff1614611986576040517f08c379a000000000000000000000000000000000000000000000000000000000815260040161197d90613fc7565b60405180910390fd5b6000600f6000848152602001908152602001600020905060018160060160006101000a81548160ff021916908315150217905550818160050181905550338160030160006101000a81548173ffffffffffffffffffffffffffffffffffffffff021916908373ffffffffffffffffffffffffffffffffffffffff160217905550611a11306001611b6d565b611a2033308360000154610b17565b80600001547fe6c8782faa62f3a011302c0c76e85cec78d2d6afd27133ea7ab7a42b64abe93e3383600401604051611a59929190613a99565b60405180910390a2505050565b6000600d60009054906101000a900473ffffffffffffffffffffffffffffffffffffffff1673ffffffffffffffffffffffffffffffffffffffff163373ffffffffffffffffffffffffffffffffffffffff1614611ac257600080fd5b81600a8190559050919050565b606060018054611ade90613787565b80601f0160208091040260200160405190810160405280929190818152602001828054611b0a90613787565b8015611b575780601f10611b2c57610100808354040283529160200191611b57565b820191906000526020600020905b815481529060010190602001808311611b3a57829003601f168201915b5050505050905090565b600a5481565b60095481565b611b7f611b78612216565b8383612980565b5050565b60108181548110611b9357600080fd5b9060005260206000209060070201600091509050806000015490806001018054611bbc90613787565b80601f0160208091040260200160405190810160405280929190818152602001828054611be890613787565b8015611c355780601f10611c0a57610100808354040283529160200191611c35565b820191906000526020600020905b815481529060010190602001808311611c1857829003601f168201915b505050505090806002018054611c4a90613787565b80601f0160208091040260200160405190810160405280929190818152602001828054611c7690613787565b8015611cc35780601f10611c9857610100808354040283529160200191611cc3565b820191906000526020600020905b815481529060010190602001808311611ca657829003601f168201915b5050505050908060030160009054906101000a900473ffffffffffffffffffffffffffffffffffffffff1690806004018054611cfe90613787565b80601f0160208091040260200160405190810160405280929190818152602001828054611d2a90613787565b8015611d775780601f10611d4c57610100808354040283529160200191611d77565b820191906000526020600020905b815481529060010190602001808311611d5a57829003601f168201915b5050505050908060050154908060060160009054906101000a900460ff16908060060160019054906101000a900473ffffffffffffffffffffffffffffffffffffffff16905088565b611dd1611dcb612216565b836122d7565b611e10576040517f08c379a0000000000000000000000000000000000000000000000000000000008152600401611e079061394e565b60405180910390fd5b611e1c84848484612aec565b50505050565b600b5481565b600e6020528060005260406000206000915054906101000a900473ffffffffffffffffffffffffffffffffffffffff1681565b6000600f600084815260200190815260200160002090508060030160009054906101000a900473ffffffffffffffffffffffffffffffffffffffff1673ffffffffffffffffffffffffffffffffffffffff163373ffffffffffffffffffffffffffffffffffffffff1614611f04576040517f08c379a0000000000000000000000000000000000000000000000000000000008152600401611efb906139e0565b60405180910390fd5b818160050181905550505050565b6060611f1d826121cb565b6000600660008481526020019081526020016000208054611f3d90613787565b80601f0160208091040260200160405190810160405280929190818152602001828054611f6990613787565b8015611fb65780601f10611f8b57610100808354040283529160200191611fb6565b820191906000526020600020905b815481529060010190602001808311611f9957829003601f168201915b505050505090506000611fc7612b48565b90506000815103611fdc57819250505061201f565b600082511115612011578082604051602001611ff9929190614023565b6040516020818303038152906040529250505061201f565b61201a84612b5f565b925050505b919050565b6000600560008473ffffffffffffffffffffffffffffffffffffffff1673ffffffffffffffffffffffffffffffffffffffff16815260200190815260200160002060008373ffffffffffffffffffffffffffffffffffffffff1673ffffffffffffffffffffffffffffffffffffffff16815260200190815260200160002060009054906101000a900460ff16905092915050565b6120c061283c565b600073ffffffffffffffffffffffffffffffffffffffff168173ffffffffffffffffffffffffffffffffffffffff160361212f576040517f08c379a0000000000000000000000000000000000000000000000000000000008152600401612126906140b9565b60405180910390fd5b612138816128ba565b50565b600d60009054906101000a900473ffffffffffffffffffffffffffffffffffffffff1681565b60007f01ffc9a7000000000000000000000000000000000000000000000000000000007bffffffffffffffffffffffffffffffffffffffffffffffffffffffff1916827bffffffffffffffffffffffffffffffffffffffffffffffffffffffff1916149050919050565b6121d481612bc7565b612213576040517f08c379a000000000000000000000000000000000000000000000000000000000815260040161220a90613ec9565b60405180910390fd5b50565b600033905090565b816004600083815260200190815260200160002060006101000a81548173ffffffffffffffffffffffffffffffffffffffff021916908373ffffffffffffffffffffffffffffffffffffffff160217905550808273ffffffffffffffffffffffffffffffffffffffff16612291836115fe565b73ffffffffffffffffffffffffffffffffffffffff167f8c5be1e5ebec7d5bd14f71427d1e84f3dd0314c0f7b2291e5b200ac8c7c3b92560405160405180910390a45050565b6000806122e3836115fe565b90508073ffffffffffffffffffffffffffffffffffffffff168473ffffffffffffffffffffffffffffffffffffffff16148061232557506123248185612024565b5b8061236357508373ffffffffffffffffffffffffffffffffffffffff1661234b846109ba565b73ffffffffffffffffffffffffffffffffffffffff16145b91505092915050565b8273ffffffffffffffffffffffffffffffffffffffff1661238c826115fe565b73ffffffffffffffffffffffffffffffffffffffff16146123e2576040517f08c379a00000000000000000000000000000000000000000000000000000000081526004016123d99061414b565b60405180910390fd5b600073ffffffffffffffffffffffffffffffffffffffff168273ffffffffffffffffffffffffffffffffffffffff1603612451576040517f08c379a0000000000000000000000000000000000000000000000000000000008152600401612448906141dd565b60405180910390fd5b61245c838383612c33565b61246760008261221e565b6001600360008573ffffffffffffffffffffffffffffffffffffffff1673ffffffffffffffffffffffffffffffffffffffff16815260200190815260200160002060008282546124b79190613e49565b925050819055506001600360008473ffffffffffffffffffffffffffffffffffffffff1673ffffffffffffffffffffffffffffffffffffffff168152602001908152602001600020600082825461250e9190613da9565b92505081905550816002600083815260200190815260200160002060006101000a81548173ffffffffffffffffffffffffffffffffffffffff021916908373ffffffffffffffffffffffffffffffffffffffff160217905550808273ffffffffffffffffffffffffffffffffffffffff168473ffffffffffffffffffffffffffffffffffffffff167fddf252ad1be2c89b69c2b068fc378daa952ba7f163c4a11628f55a4df523b3ef60405160405180910390a46125cd838383612c38565b505050565b6001816000016000828254019250508190555050565b600081600001549050919050565b600073ffffffffffffffffffffffffffffffffffffffff168273ffffffffffffffffffffffffffffffffffffffff1603612665576040517f08c379a000000000000000000000000000000000000000000000000000000000815260040161265c90614249565b60405180910390fd5b61266e81612bc7565b156126ae576040517f08c379a00000000000000000000000000000000000000000000000000000000081526004016126a5906142b5565b60405180910390fd5b6126ba60008383612c33565b6001600360008473ffffffffffffffffffffffffffffffffffffffff1673ffffffffffffffffffffffffffffffffffffffff168152602001908152602001600020600082825461270a9190613da9565b92505081905550816002600083815260200190815260200160002060006101000a81548173ffffffffffffffffffffffffffffffffffffffff021916908373ffffffffffffffffffffffffffffffffffffffff160217905550808273ffffffffffffffffffffffffffffffffffffffff16600073ffffffffffffffffffffffffffffffffffffffff167fddf252ad1be2c89b69c2b068fc378daa952ba7f163c4a11628f55a4df523b3ef60405160405180910390a46127cb60008383612c38565b5050565b6127d882612bc7565b612817576040517f08c379a000000000000000000000000000000000000000000000000000000000815260040161280e90614347565b60405180910390fd5b806006600084815260200190815260200160002090816128379190613cd7565b505050565b612844612216565b73ffffffffffffffffffffffffffffffffffffffff16612862611843565b73ffffffffffffffffffffffffffffffffffffffff16146128b8576040517f08c379a00000000000000000000000000000000000000000000000000000000081526004016128af906143b3565b60405180910390fd5b565b6000600760009054906101000a900473ffffffffffffffffffffffffffffffffffffffff16905081600760006101000a81548173ffffffffffffffffffffffffffffffffffffffff021916908373ffffffffffffffffffffffffffffffffffffffff1602179055508173ffffffffffffffffffffffffffffffffffffffff168173ffffffffffffffffffffffffffffffffffffffff167f8be0079c531659141344cd1fd0a4f28419497f9722a3daafe3b4186f6b6457e060405160405180910390a35050565b8173ffffffffffffffffffffffffffffffffffffffff168373ffffffffffffffffffffffffffffffffffffffff16036129ee576040517f08c379a00000000000000000000000000000000000000000000000000000000081526004016129e59061441f565b60405180910390fd5b80600560008573ffffffffffffffffffffffffffffffffffffffff1673ffffffffffffffffffffffffffffffffffffffff16815260200190815260200160002060008473ffffffffffffffffffffffffffffffffffffffff1673ffffffffffffffffffffffffffffffffffffffff16815260200190815260200160002060006101000a81548160ff0219169083151502179055508173ffffffffffffffffffffffffffffffffffffffff168373ffffffffffffffffffffffffffffffffffffffff167f17307eab39ab6107e8899845ad3d59bd9653f200f220920489ca2b5937696c3183604051612adf9190612ffb565b60405180910390a3505050565b612af784848461236c565b612b0384848484612c3d565b612b42576040517f08c379a0000000000000000000000000000000000000000000000000000000008152600401612b39906144b1565b60405180910390fd5b50505050565b606060405180602001604052806000815250905090565b6060612b6a826121cb565b6000612b74612b48565b90506000815111612b945760405180602001604052806000815250612bbf565b80612b9e84612dc4565b604051602001612baf929190614023565b6040516020818303038152906040525b915050919050565b60008073ffffffffffffffffffffffffffffffffffffffff166002600084815260200190815260200160002060009054906101000a900473ffffffffffffffffffffffffffffffffffffffff1673ffffffffffffffffffffffffffffffffffffffff1614159050919050565b505050565b505050565b6000612c5e8473ffffffffffffffffffffffffffffffffffffffff16612f24565b15612db7578373ffffffffffffffffffffffffffffffffffffffff1663150b7a02612c87612216565b8786866040518563ffffffff1660e01b8152600401612ca99493929190614526565b6020604051808303816000875af1925050508015612ce557506040513d601f19601f82011682018060405250810190612ce29190614587565b60015b612d67573d8060008114612d15576040519150601f19603f3d011682016040523d82523d6000602084013e612d1a565b606091505b506000815103612d5f576040517f08c379a0000000000000000000000000000000000000000000000000000000008152600401612d56906144b1565b60405180910390fd5b805181602001fd5b63150b7a0260e01b7bffffffffffffffffffffffffffffffffffffffffffffffffffffffff1916817bffffffffffffffffffffffffffffffffffffffffffffffffffffffff191614915050612dbc565b600190505b949350505050565b606060008203612e0b576040518060400160405280600181526020017f30000000000000000000000000000000000000000000000000000000000000008152509050612f1f565b600082905060005b60008214612e3d578080612e2690613af8565b915050600a82612e3691906145e3565b9150612e13565b60008167ffffffffffffffff811115612e5957612e58613313565b5b6040519080825280601f01601f191660200182016040528015612e8b5781602001600182028036833780820191505090505b5090505b60008514612f1857600182612ea49190613e49565b9150600a85612eb39190614614565b6030612ebf9190613da9565b60f81b818381518110612ed557612ed4614645565b5b60200101907effffffffffffffffffffffffffffffffffffffffffffffffffffffffffffff1916908160001a905350600a85612f1191906145e3565b9450612e8f565b8093505050505b919050565b6000808273ffffffffffffffffffffffffffffffffffffffff163b119050919050565b6000604051905090565b600080fd5b600080fd5b60007fffffffff0000000000000000000000000000000000000000000000000000000082169050919050565b612f9081612f5b565b8114612f9b57600080fd5b50565b600081359050612fad81612f87565b92915050565b600060208284031215612fc957612fc8612f51565b5b6000612fd784828501612f9e565b91505092915050565b60008115159050919050565b612ff581612fe0565b82525050565b60006020820190506130106000830184612fec565b92915050565b600081519050919050565b600082825260208201905092915050565b60005b83811015613050578082015181840152602081019050613035565b60008484015250505050565b6000601f19601f8301169050919050565b600061307882613016565b6130828185613021565b9350613092818560208601613032565b61309b8161305c565b840191505092915050565b600060208201905081810360008301526130c0818461306d565b905092915050565b6000819050919050565b6130db816130c8565b81146130e657600080fd5b50565b6000813590506130f8816130d2565b92915050565b60006020828403121561311457613113612f51565b5b6000613122848285016130e9565b91505092915050565b600073ffffffffffffffffffffffffffffffffffffffff82169050919050565b60006131568261312b565b9050919050565b6131668161314b565b82525050565b6000602082019050613181600083018461315d565b92915050565b6131908161314b565b811461319b57600080fd5b50565b6000813590506131ad81613187565b92915050565b600080604083850312156131ca576131c9612f51565b5b60006131d88582860161319e565b92505060206131e9858286016130e9565b9150509250929050565b60008060006060848603121561320c5761320b612f51565b5b600061321a8682870161319e565b935050602061322b8682870161319e565b925050604061323c868287016130e9565b9150509250925092565b61324f816130c8565b82525050565b60006132608261312b565b9050919050565b61327081613255565b82525050565b60006101008201905061328c600083018b613246565b818103602083015261329e818a61306d565b905081810360408301526132b2818961306d565b90506132c16060830188613267565b81810360808301526132d3818761306d565b90506132e260a0830186613246565b6132ef60c0830185612fec565b6132fc60e0830184613267565b9998505050505050505050565b600080fd5b600080fd5b7f4e487b7100000000000000000000000000000000000000000000000000000000600052604160045260246000fd5b61334b8261305c565b810181811067ffffffffffffffff8211171561336a57613369613313565b5b80604052505050565b600061337d612f47565b90506133898282613342565b919050565b600067ffffffffffffffff8211156133a9576133a8613313565b5b6133b28261305c565b9050602081019050919050565b82818337600083830152505050565b60006133e16133dc8461338e565b613373565b9050828152602081018484840111156133fd576133fc61330e565b5b6134088482856133bf565b509392505050565b600082601f83011261342557613424613309565b5b81356134358482602086016133ce565b91505092915050565b60008060006060848603121561345757613456612f51565b5b600084013567ffffffffffffffff81111561347557613474612f56565b5b61348186828701613410565b935050602084013567ffffffffffffffff8111156134a2576134a1612f56565b5b6134ae86828701613410565b925050604084013567ffffffffffffffff8111156134cf576134ce612f56565b5b6134db86828701613410565b9150509250925092565b60006020820190506134fa6000830184613246565b92915050565b60006020820190506135156000830184613267565b92915050565b60006020828403121561353157613530612f51565b5b600061353f8482850161319e565b91505092915050565b6000806040838503121561355f5761355e612f51565b5b600061356d858286016130e9565b925050602061357e858286016130e9565b9150509250929050565b61359181612fe0565b811461359c57600080fd5b50565b6000813590506135ae81613588565b92915050565b600080604083850312156135cb576135ca612f51565b5b60006135d98582860161319e565b92505060206135ea8582860161359f565b9150509250929050565b600067ffffffffffffffff82111561360f5761360e613313565b5b6136188261305c565b9050602081019050919050565b6000613638613633846135f4565b613373565b9050828152602081018484840111156136545761365361330e565b5b61365f8482856133bf565b509392505050565b600082601f83011261367c5761367b613309565b5b813561368c848260208601613625565b91505092915050565b600080600080608085870312156136af576136ae612f51565b5b60006136bd8782880161319e565b94505060206136ce8782880161319e565b93505060406136df878288016130e9565b925050606085013567ffffffffffffffff811115613700576136ff612f56565b5b61370c87828801613667565b91505092959194509250565b6000806040838503121561372f5761372e612f51565b5b600061373d8582860161319e565b925050602061374e8582860161319e565b9150509250929050565b7f4e487b7100000000000000000000000000000000000000000000000000000000600052602260045260246000fd5b6000600282049050600182168061379f57607f821691505b6020821081036137b2576137b1613758565b5b50919050565b7f4552433732313a20617070726f76616c20746f2063757272656e74206f776e6560008201527f7200000000000000000000000000000000000000000000000000000000000000602082015250565b6000613814602183613021565b915061381f826137b8565b604082019050919050565b6000602082019050818103600083015261384381613807565b9050919050565b7f4552433732313a20617070726f76652063616c6c6572206973206e6f7420746f60008201527f6b656e206f776e6572206e6f7220617070726f76656420666f7220616c6c0000602082015250565b60006138a6603e83613021565b91506138b18261384a565b604082019050919050565b600060208201905081810360008301526138d581613899565b9050919050565b7f4552433732313a2063616c6c6572206973206e6f7420746f6b656e206f776e6560008201527f72206e6f7220617070726f766564000000000000000000000000000000000000602082015250565b6000613938602e83613021565b9150613943826138dc565b604082019050919050565b600060208201905081810360008301526139678161392b565b9050919050565b7f4f6e6c792063757272656e74206f776e65722063616e2063616e63656c206c6960008201527f7374696e67000000000000000000000000000000000000000000000000000000602082015250565b60006139ca602583613021565b91506139d58261396e565b604082019050919050565b600060208201905081810360008301526139f9816139bd565b9050919050565b60008190508160005260206000209050919050565b60008154613a2281613787565b613a2c8186613021565b94506001821660008114613a475760018114613a5d57613a90565b60ff198316865281151560200286019350613a90565b613a6685613a00565b60005b83811015613a8857815481890152600182019150602081019050613a69565b808801955050505b50505092915050565b6000604082019050613aae600083018561315d565b8181036020830152613ac08184613a15565b90509392505050565b7f4e487b7100000000000000000000000000000000000000000000000000000000600052601160045260246000fd5b6000613b03826130c8565b91507fffffffffffffffffffffffffffffffffffffffffffffffffffffffffffffffff8203613b3557613b34613ac9565b5b600182019050919050565b60006020601f8301049050919050565b600082821b905092915050565b600060088302613b8d7fffffffffffffffffffffffffffffffffffffffffffffffffffffffffffffffff82613b50565b613b978683613b50565b95508019841693508086168417925050509392505050565b6000819050919050565b6000613bd4613bcf613bca846130c8565b613baf565b6130c8565b9050919050565b6000819050919050565b613bee83613bb9565b613c02613bfa82613bdb565b848454613b5d565b825550505050565b600090565b613c17613c0a565b613c22818484613be5565b505050565b5b81811015613c4657613c3b600082613c0f565b600181019050613c28565b5050565b601f821115613c8b57613c5c81613a00565b613c6584613b40565b81016020851015613c74578190505b613c88613c8085613b40565b830182613c27565b50505b505050565b600082821c905092915050565b6000613cae60001984600802613c90565b1980831691505092915050565b6000613cc78383613c9d565b9150826002028217905092915050565b613ce082613016565b67ffffffffffffffff811115613cf957613cf8613313565b5b613d038254613787565b613d0e828285613c4a565b600060209050601f831160018114613d415760008415613d2f578287015190505b613d398582613cbb565b865550613da1565b601f198416613d4f86613a00565b60005b82811015613d7757848901518255600182019150602085019450602081019050613d52565b86831015613d945784890151613d90601f891682613c9d565b8355505b6001600288020188555050505b505050505050565b6000613db4826130c8565b9150613dbf836130c8565b9250828201905080821115613dd757613dd6613ac9565b5b92915050565b7f506c65617365207061792074686520726571756972656420616d6f756e740000600082015250565b6000613e13601e83613021565b9150613e1e82613ddd565b602082019050919050565b60006020820190508181036000830152613e4281613e06565b9050919050565b6000613e54826130c8565b9150613e5f836130c8565b9250828203905081811115613e7757613e76613ac9565b5b92915050565b7f4552433732313a20696e76616c696420746f6b656e2049440000000000000000600082015250565b6000613eb3601883613021565b9150613ebe82613e7d565b602082019050919050565b60006020820190508181036000830152613ee281613ea6565b9050919050565b7f4552433732313a2061646472657373207a65726f206973206e6f74206120766160008201527f6c6964206f776e65720000000000000000000000000000000000000000000000602082015250565b6000613f45602983613021565b9150613f5082613ee9565b604082019050919050565b60006020820190508181036000830152613f7481613f38565b9050919050565b7f63616e6e6f74206c69737420736f6e677320796f7520646f206e6f74206f776e600082015250565b6000613fb1602083613021565b9150613fbc82613f7b565b602082019050919050565b60006020820190508181036000830152613fe081613fa4565b9050919050565b600081905092915050565b6000613ffd82613016565b6140078185613fe7565b9350614017818560208601613032565b80840191505092915050565b600061402f8285613ff2565b915061403b8284613ff2565b91508190509392505050565b7f4f776e61626c653a206e6577206f776e657220697320746865207a65726f206160008201527f6464726573730000000000000000000000000000000000000000000000000000602082015250565b60006140a3602683613021565b91506140ae82614047565b604082019050919050565b600060208201905081810360008301526140d281614096565b9050919050565b7f4552433732313a207472616e736665722066726f6d20696e636f72726563742060008201527f6f776e6572000000000000000000000000000000000000000000000000000000602082015250565b6000614135602583613021565b9150614140826140d9565b604082019050919050565b6000602082019050818103600083015261416481614128565b9050919050565b7f4552433732313a207472616e7366657220746f20746865207a65726f2061646460008201527f7265737300000000000000000000000000000000000000000000000000000000602082015250565b60006141c7602483613021565b91506141d28261416b565b604082019050919050565b600060208201905081810360008301526141f6816141ba565b9050919050565b7f4552433732313a206d696e7420746f20746865207a65726f2061646472657373600082015250565b6000614233602083613021565b915061423e826141fd565b602082019050919050565b6000602082019050818103600083015261426281614226565b9050919050565b7f4552433732313a20746f6b656e20616c7265616479206d696e74656400000000600082015250565b600061429f601c83613021565b91506142aa82614269565b602082019050919050565b600060208201905081810360008301526142ce81614292565b9050919050565b7f45524337323155524953746f726167653a2055524920736574206f66206e6f6e60008201527f6578697374656e7420746f6b656e000000000000000000000000000000000000602082015250565b6000614331602e83613021565b915061433c826142d5565b604082019050919050565b6000602082019050818103600083015261436081614324565b9050919050565b7f4f776e61626c653a2063616c6c6572206973206e6f7420746865206f776e6572600082015250565b600061439d602083613021565b91506143a882614367565b602082019050919050565b600060208201905081810360008301526143cc81614390565b9050919050565b7f4552433732313a20617070726f766520746f2063616c6c657200000000000000600082015250565b6000614409601983613021565b9150614414826143d3565b602082019050919050565b60006020820190508181036000830152614438816143fc565b9050919050565b7f4552433732313a207472616e7366657220746f206e6f6e20455243373231526560008201527f63656976657220696d706c656d656e7465720000000000000000000000000000602082015250565b600061449b603283613021565b91506144a68261443f565b604082019050919050565b600060208201905081810360008301526144ca8161448e565b9050919050565b600081519050919050565b600082825260208201905092915050565b60006144f8826144d1565b61450281856144dc565b9350614512818560208601613032565b61451b8161305c565b840191505092915050565b600060808201905061453b600083018761315d565b614548602083018661315d565b6145556040830185613246565b818103606083015261456781846144ed565b905095945050505050565b60008151905061458181612f87565b92915050565b60006020828403121561459d5761459c612f51565b5b60006145ab84828501614572565b91505092915050565b7f4e487b7100000000000000000000000000000000000000000000000000000000600052601260045260246000fd5b60006145ee826130c8565b91506145f9836130c8565b925082614609576146086145b4565b5b828204905092915050565b600061461f826130c8565b915061462a836130c8565b92508261463a576146396145b4565b5b828206905092915050565b7f4e487b7100000000000000000000000000000000000000000000000000000000600052603260045260246000fdfea2646970667358221220a6451022c08a25aaff374f560d322fd912cae3b8abd804eb1186fcf127c62f8864736f6c63430008110033",
  "linkReferences": {},
  "deployedLinkReferences": {}
}