{
  "_format": "hh-sol-artifact-1",
  "contractName": "DefiBeats",
  "sourceName": "contracts/DefiBeats.sol",
  "abi": [
    {
      "inputs": [],
      "stateMutability": "nonpayable",
      "type": "constructor"
    },
    {
      "anonymous": false,
      "inputs": [
        {
          "indexed": true,
          "internalType": "address",
          "name": "owner",
          "type": "address"
        },
        {
          "indexed": true,
          "internalType": "address",
          "name": "approved",
          "type": "address"
        },
        {
          "indexed": true,
          "internalType": "uint256",
          "name": "tokenId",
          "type": "uint256"
        }
      ],
      "name": "Approval",
      "type": "event"
    },
    {
      "anonymous": false,
      "inputs": [
        {
          "indexed": true,
          "internalType": "address",
          "name": "owner",
          "type": "address"
        },
        {
          "indexed": true,
          "internalType": "address",
          "name": "operator",
          "type": "address"
        },
        {
          "indexed": false,
          "internalType": "bool",
          "name": "approved",
          "type": "bool"
        }
      ],
      "name": "ApprovalForAll",
      "type": "event"
    },
    {
      "anonymous": false,
      "inputs": [
        {
          "indexed": true,
          "internalType": "address",
          "name": "previousOwner",
          "type": "address"
        },
        {
          "indexed": true,
          "internalType": "address",
          "name": "newOwner",
          "type": "address"
        }
      ],
      "name": "OwnershipTransferred",
      "type": "event"
    },
    {
      "anonymous": false,
      "inputs": [
        {
          "indexed": true,
          "internalType": "uint256",
          "name": "tokenId",
          "type": "uint256"
        },
        {
          "indexed": false,
          "internalType": "address",
          "name": "seller",
          "type": "address"
        },
        {
          "indexed": false,
          "internalType": "string",
          "name": "tokenUri",
          "type": "string"
        }
      ],
      "name": "SongCancelled",
      "type": "event"
    },
    {
      "anonymous": false,
      "inputs": [
        {
          "indexed": true,
          "internalType": "uint256",
          "name": "tokenId",
          "type": "uint256"
        },
        {
          "indexed": false,
          "internalType": "address",
          "name": "seller",
          "type": "address"
        },
        {
          "indexed": false,
          "internalType": "string",
          "name": "tokenUri",
          "type": "string"
        }
      ],
      "name": "SongListed",
      "type": "event"
    },
    {
      "anonymous": false,
      "inputs": [
        {
          "indexed": true,
          "internalType": "uint256",
          "name": "tokenId",
          "type": "uint256"
        },
        {
          "indexed": true,
          "internalType": "address",
          "name": "producer",
          "type": "address"
        },
        {
          "indexed": false,
          "internalType": "string",
          "name": "tokenUri",
          "type": "string"
        }
      ],
      "name": "SongMade",
      "type": "event"
    },
    {
      "anonymous": false,
      "inputs": [
        {
          "indexed": true,
          "internalType": "uint256",
          "name": "tokenId",
          "type": "uint256"
        },
        {
          "indexed": false,
          "internalType": "address",
          "name": "seller",
          "type": "address"
        },
        {
          "indexed": false,
          "internalType": "string",
          "name": "tokenUri",
          "type": "string"
        },
        {
          "indexed": true,
          "internalType": "uint256",
          "name": "price",
          "type": "uint256"
        }
      ],
      "name": "SongPurchased",
      "type": "event"
    },
    {
      "anonymous": false,
      "inputs": [
        {
          "indexed": true,
          "internalType": "address",
          "name": "from",
          "type": "address"
        },
        {
          "indexed": true,
          "internalType": "address",
          "name": "to",
          "type": "address"
        },
        {
          "indexed": true,
          "internalType": "uint256",
          "name": "tokenId",
          "type": "uint256"
        }
      ],
      "name": "Transfer",
      "type": "event"
    },
    {
      "inputs": [],
      "name": "admin",
      "outputs": [
        {
          "internalType": "address",
          "name": "",
          "type": "address"
        }
      ],
      "stateMutability": "view",
      "type": "function"
    },
    {
      "inputs": [
        {
          "internalType": "uint256",
          "name": "",
          "type": "uint256"
        }
      ],
      "name": "allSongs",
      "outputs": [
        {
          "internalType": "uint256",
          "name": "tokenId",
          "type": "uint256"
        },
        {
          "internalType": "string",
          "name": "name",
          "type": "string"
        },
        {
          "internalType": "string",
          "name": "collection",
          "type": "string"
        },
        {
          "internalType": "address payable",
          "name": "currentOwner",
          "type": "address"
        },
        {
          "internalType": "string",
          "name": "tokenUri",
          "type": "string"
        },
        {
          "internalType": "uint256",
          "name": "price",
          "type": "uint256"
        },
        {
          "internalType": "bool",
          "name": "isForSale",
          "type": "bool"
        },
        {
          "internalType": "address payable",
          "name": "originalProducer",
          "type": "address"
        }
      ],
      "stateMutability": "view",
      "type": "function"
    },
    {
      "inputs": [
        {
          "internalType": "address",
          "name": "to",
          "type": "address"
        },
        {
          "internalType": "uint256",
          "name": "tokenId",
          "type": "uint256"
        }
      ],
      "name": "approve",
      "outputs": [],
      "stateMutability": "nonpayable",
      "type": "function"
    },
    {
      "inputs": [
        {
          "internalType": "address",
          "name": "owner",
          "type": "address"
        }
      ],
      "name": "balanceOf",
      "outputs": [
        {
          "internalType": "uint256",
          "name": "",
          "type": "uint256"
        }
      ],
      "stateMutability": "view",
      "type": "function"
    },
    {
      "inputs": [
        {
          "internalType": "uint256",
          "name": "songNumber",
          "type": "uint256"
        }
      ],
      "name": "buySong",
      "outputs": [],
      "stateMutability": "payable",
      "type": "function"
    },
    {
      "inputs": [
        {
          "internalType": "uint256",
          "name": "songNumber",
          "type": "uint256"
        }
      ],
      "name": "cancelListing",
      "outputs": [],
      "stateMutability": "nonpayable",
      "type": "function"
    },
    {
      "inputs": [
        {
          "internalType": "address",
          "name": "newAdmin",
          "type": "address"
        }
      ],
      "name": "changeAdmin",
      "outputs": [
        {
          "internalType": "address",
          "name": "",
          "type": "address"
        }
      ],
      "stateMutability": "nonpayable",
      "type": "function"
    },
    {
      "inputs": [
        {
          "internalType": "address",
          "name": "newFeeAddress",
          "type": "address"
        }
      ],
      "name": "changeFeeAccount",
      "outputs": [
        {
          "internalType": "address",
          "name": "",
          "type": "address"
        }
      ],
      "stateMutability": "nonpayable",
      "type": "function"
    },
    {
      "inputs": [],
      "name": "feeAccount",
      "outputs": [
        {
          "internalType": "address payable",
          "name": "",
          "type": "address"
        }
      ],
      "stateMutability": "view",
      "type": "function"
    },
    {
      "inputs": [
        {
          "internalType": "uint256",
          "name": "tokenId",
          "type": "uint256"
        }
      ],
      "name": "getApproved",
      "outputs": [
        {
          "internalType": "address",
          "name": "",
          "type": "address"
        }
      ],
      "stateMutability": "view",
      "type": "function"
    },
    {
      "inputs": [
        {
          "internalType": "address",
          "name": "owner",
          "type": "address"
        },
        {
          "internalType": "address",
          "name": "operator",
          "type": "address"
        }
      ],
      "name": "isApprovedForAll",
      "outputs": [
        {
          "internalType": "bool",
          "name": "",
          "type": "bool"
        }
      ],
      "stateMutability": "view",
      "type": "function"
    },
    {
      "inputs": [
        {
          "internalType": "uint256",
          "name": "songNumber",
          "type": "uint256"
        },
        {
          "internalType": "uint256",
          "name": "songPrice",
          "type": "uint256"
        }
      ],
      "name": "listSong",
      "outputs": [],
      "stateMutability": "nonpayable",
      "type": "function"
    },
    {
      "inputs": [
        {
          "internalType": "string",
          "name": "_tokenUri",
          "type": "string"
        },
        {
          "internalType": "string",
          "name": "songName",
          "type": "string"
        },
        {
          "internalType": "string",
          "name": "collection",
          "type": "string"
        }
      ],
      "name": "makeSong",
      "outputs": [
        {
          "internalType": "uint256",
          "name": "",
          "type": "uint256"
        }
      ],
      "stateMutability": "payable",
      "type": "function"
    },
    {
      "inputs": [],
      "name": "name",
      "outputs": [
        {
          "internalType": "string",
          "name": "",
          "type": "string"
        }
      ],
      "stateMutability": "view",
      "type": "function"
    },
    {
      "inputs": [],
      "name": "owner",
      "outputs": [
        {
          "internalType": "address",
          "name": "",
          "type": "address"
        }
      ],
      "stateMutability": "view",
      "type": "function"
    },
    {
      "inputs": [
        {
          "internalType": "uint256",
          "name": "tokenId",
          "type": "uint256"
        }
      ],
      "name": "ownerOf",
      "outputs": [
        {
          "internalType": "address",
          "name": "",
          "type": "address"
        }
      ],
      "stateMutability": "view",
      "type": "function"
    },
    {
      "inputs": [
        {
          "internalType": "uint256",
          "name": "",
          "type": "uint256"
        }
      ],
      "name": "ownerOfNft",
      "outputs": [
        {
          "internalType": "address",
          "name": "",
          "type": "address"
        }
      ],
      "stateMutability": "view",
      "type": "function"
    },
    {
      "inputs": [],
      "name": "renounceOwnership",
      "outputs": [],
      "stateMutability": "nonpayable",
      "type": "function"
    },
    {
      "inputs": [],
      "name": "returnAllSongs",
      "outputs": [
        {
          "components": [
            {
              "internalType": "uint256",
              "name": "tokenId",
              "type": "uint256"
            },
            {
              "internalType": "string",
              "name": "name",
              "type": "string"
            },
            {
              "internalType": "string",
              "name": "collection",
              "type": "string"
            },
            {
              "internalType": "address payable",
              "name": "currentOwner",
              "type": "address"
            },
            {
              "internalType": "string",
              "name": "tokenUri",
              "type": "string"
            },
            {
              "internalType": "uint256",
              "name": "price",
              "type": "uint256"
            },
            {
              "internalType": "bool",
              "name": "isForSale",
              "type": "bool"
            },
            {
              "internalType": "address payable",
              "name": "originalProducer",
              "type": "address"
            }
          ],
          "internalType": "struct DefiBeats.Song[]",
          "name": "",
          "type": "tuple[]"
        }
      ],
      "stateMutability": "view",
      "type": "function"
    },
    {
      "inputs": [],
      "name": "returnAllSongsForSale",
      "outputs": [
        {
          "components": [
            {
              "internalType": "uint256",
              "name": "tokenId",
              "type": "uint256"
            },
            {
              "internalType": "string",
              "name": "name",
              "type": "string"
            },
            {
              "internalType": "string",
              "name": "collection",
              "type": "string"
            },
            {
              "internalType": "address payable",
              "name": "currentOwner",
              "type": "address"
            },
            {
              "internalType": "string",
              "name": "tokenUri",
              "type": "string"
            },
            {
              "internalType": "uint256",
              "name": "price",
              "type": "uint256"
            },
            {
              "internalType": "bool",
              "name": "isForSale",
              "type": "bool"
            },
            {
              "internalType": "address payable",
              "name": "originalProducer",
              "type": "address"
            }
          ],
          "internalType": "struct DefiBeats.Song[]",
          "name": "",
          "type": "tuple[]"
        }
      ],
      "stateMutability": "view",
      "type": "function"
    },
    {
      "inputs": [],
      "name": "royaltyFee",
      "outputs": [
        {
          "internalType": "uint256",
          "name": "",
          "type": "uint256"
        }
      ],
      "stateMutability": "view",
      "type": "function"
    },
    {
      "inputs": [
        {
          "internalType": "address",
          "name": "from",
          "type": "address"
        },
        {
          "internalType": "address",
          "name": "to",
          "type": "address"
        },
        {
          "internalType": "uint256",
          "name": "tokenId",
          "type": "uint256"
        }
      ],
      "name": "safeTransferFrom",
      "outputs": [],
      "stateMutability": "nonpayable",
      "type": "function"
    },
    {
      "inputs": [
        {
          "internalType": "address",
          "name": "from",
          "type": "address"
        },
        {
          "internalType": "address",
          "name": "to",
          "type": "address"
        },
        {
          "internalType": "uint256",
          "name": "tokenId",
          "type": "uint256"
        },
        {
          "internalType": "bytes",
          "name": "data",
          "type": "bytes"
        }
      ],
      "name": "safeTransferFrom",
      "outputs": [],
      "stateMutability": "nonpayable",
      "type": "function"
    },
    {
      "inputs": [
        {
          "internalType": "address",
          "name": "operator",
          "type": "address"
        },
        {
          "internalType": "bool",
          "name": "approved",
          "type": "bool"
        }
      ],
      "name": "setApprovalForAll",
      "outputs": [],
      "stateMutability": "nonpayable",
      "type": "function"
    },
    {
      "inputs": [
        {
          "internalType": "uint256",
          "name": "",
          "type": "uint256"
        }
      ],
      "name": "songs",
      "outputs": [
        {
          "internalType": "uint256",
          "name": "tokenId",
          "type": "uint256"
        },
        {
          "internalType": "string",
          "name": "name",
          "type": "string"
        },
        {
          "internalType": "string",
          "name": "collection",
          "type": "string"
        },
        {
          "internalType": "address payable",
          "name": "currentOwner",
          "type": "address"
        },
        {
          "internalType": "string",
          "name": "tokenUri",
          "type": "string"
        },
        {
          "internalType": "uint256",
          "name": "price",
          "type": "uint256"
        },
        {
          "internalType": "bool",
          "name": "isForSale",
          "type": "bool"
        },
        {
          "internalType": "address payable",
          "name": "originalProducer",
          "type": "address"
        }
      ],
      "stateMutability": "view",
      "type": "function"
    },
    {
      "inputs": [
        {
          "internalType": "bytes4",
          "name": "interfaceId",
          "type": "bytes4"
        }
      ],
      "name": "supportsInterface",
      "outputs": [
        {
          "internalType": "bool",
          "name": "",
          "type": "bool"
        }
      ],
      "stateMutability": "view",
      "type": "function"
    },
    {
      "inputs": [],
      "name": "symbol",
      "outputs": [
        {
          "internalType": "string",
          "name": "",
          "type": "string"
        }
      ],
      "stateMutability": "view",
      "type": "function"
    },
    {
      "inputs": [],
      "name": "tokenCount",
      "outputs": [
        {
          "internalType": "uint256",
          "name": "",
          "type": "uint256"
        }
      ],
      "stateMutability": "view",
      "type": "function"
    },
    {
      "inputs": [
        {
          "internalType": "uint256",
          "name": "tokenId",
          "type": "uint256"
        }
      ],
      "name": "tokenURI",
      "outputs": [
        {
          "internalType": "string",
          "name": "",
          "type": "string"
        }
      ],
      "stateMutability": "view",
      "type": "function"
    },
    {
      "inputs": [],
      "name": "transactionFee",
      "outputs": [
        {
          "internalType": "uint256",
          "name": "",
          "type": "uint256"
        }
      ],
      "stateMutability": "view",
      "type": "function"
    },
    {
      "inputs": [
        {
          "internalType": "address",
          "name": "from",
          "type": "address"
        },
        {
          "internalType": "address",
          "name": "to",
          "type": "address"
        },
        {
          "internalType": "uint256",
          "name": "tokenId",
          "type": "uint256"
        }
      ],
      "name": "transferFrom",
      "outputs": [],
      "stateMutability": "nonpayable",
      "type": "function"
    },
    {
      "inputs": [
        {
          "internalType": "address",
          "name": "newOwner",
          "type": "address"
        }
      ],
      "name": "transferOwnership",
      "outputs": [],
      "stateMutability": "nonpayable",
      "type": "function"
    },
    {
      "inputs": [
        {
          "internalType": "uint256",
          "name": "_newFeeAmount",
          "type": "uint256"
        }
      ],
      "name": "updateFee",
      "outputs": [
        {
          "internalType": "uint256",
          "name": "",
          "type": "uint256"
        }
      ],
      "stateMutability": "nonpayable",
      "type": "function"
    },
    {
      "inputs": [
        {
          "internalType": "uint256",
          "name": "songNumber",
          "type": "uint256"
        },
        {
          "internalType": "uint256",
          "name": "newPrice",
          "type": "uint256"
        }
      ],
      "name": "updateListingPrice",
      "outputs": [],
      "stateMutability": "nonpayable",
      "type": "function"
    },
    {
      "inputs": [
        {
          "internalType": "uint256",
          "name": "_newFeeAmount",
          "type": "uint256"
        }
      ],
      "name": "updateRoyaltyFee",
      "outputs": [
        {
          "internalType": "uint256",
          "name": "",
          "type": "uint256"
        }
      ],
      "stateMutability": "nonpayable",
      "type": "function"
    }
  ],
  "bytecode": "0x60806040526001600a556001600b553480156200001b57600080fd5b506040518060400160405280600981526020017f44656669426561747300000000000000000000000000000000000000000000008152506040518060400160405280600381526020017f444642000000000000000000000000000000000000000000000000000000000081525081600090816200009991906200049e565b508060019081620000ab91906200049e565b505050620000ce620000c26200015660201b60201c565b6200015e60201b60201c565b33600c60006101000a81548173ffffffffffffffffffffffffffffffffffffffff021916908373ffffffffffffffffffffffffffffffffffffffff16021790555033600d60006101000a81548173ffffffffffffffffffffffffffffffffffffffff021916908373ffffffffffffffffffffffffffffffffffffffff16021790555062000585565b600033905090565b6000600760009054906101000a900473ffffffffffffffffffffffffffffffffffffffff16905081600760006101000a81548173ffffffffffffffffffffffffffffffffffffffff021916908373ffffffffffffffffffffffffffffffffffffffff1602179055508173ffffffffffffffffffffffffffffffffffffffff168173ffffffffffffffffffffffffffffffffffffffff167f8be0079c531659141344cd1fd0a4f28419497f9722a3daafe3b4186f6b6457e060405160405180910390a35050565b600081519050919050565b7f4e487b7100000000000000000000000000000000000000000000000000000000600052604160045260246000fd5b7f4e487b7100000000000000000000000000000000000000000000000000000000600052602260045260246000fd5b60006002820490506001821680620002a657607f821691505b602082108103620002bc57620002bb6200025e565b5b50919050565b60008190508160005260206000209050919050565b60006020601f8301049050919050565b600082821b905092915050565b600060088302620003267fffffffffffffffffffffffffffffffffffffffffffffffffffffffffffffffff82620002e7565b620003328683620002e7565b95508019841693508086168417925050509392505050565b6000819050919050565b6000819050919050565b60006200037f6200037962000373846200034a565b62000354565b6200034a565b9050919050565b6000819050919050565b6200039b836200035e565b620003b3620003aa8262000386565b848454620002f4565b825550505050565b600090565b620003ca620003bb565b620003d781848462000390565b505050565b5b81811015620003ff57620003f3600082620003c0565b600181019050620003dd565b5050565b601f8211156200044e576200041881620002c2565b6200042384620002d7565b8101602085101562000433578190505b6200044b6200044285620002d7565b830182620003dc565b50505b505050565b600082821c905092915050565b6000620004736000198460080262000453565b1980831691505092915050565b60006200048e838362000460565b9150826002028217905092915050565b620004a98262000224565b67ffffffffffffffff811115620004c557620004c46200022f565b5b620004d182546200028d565b620004de82828562000403565b600060209050601f83116001811462000516576000841562000501578287015190505b6200050d858262000480565b8655506200057d565b601f1984166200052686620002c2565b60005b82811015620005505784890151825560018201915060208501945060208101905062000529565b868310156200057057848901516200056c601f89168262000460565b8355505b6001600288020188555050505b505050505050565b6150b880620005956000396000f3fe6080604052600436106102045760003560e01c806371ffcb1611610118578063a6b46a6f116100a0578063c46049431161006f578063c4604943146107bb578063c87b56dd146107e4578063e985e9c514610821578063f2fde38b1461085e578063f851a4401461088757610204565b8063a6b46a6f146106e6578063b88d4fde1461072a578063b8997a9714610753578063b922f94c1461077e57610204565b80639012c4a8116100e75780639012c4a8146105ff57806395d89b411461063c5780639ed3edf0146106675780639f181b5e14610692578063a22cb465146106bd57610204565b806371ffcb16146105315780638da5cb5b1461056e5780638f283970146105995780638fc59a8a146105d657610204565b8063305a67a81161019b578063606a01751161016a578063606a0175146104595780636352211e1461047557806365e17c9d146104b257806370a08231146104dd578063715018a61461051a57610204565b8063305a67a81461039a57806342842e0e146103c3578063451c67fd146103ec5780634e83be471461041c57610204565b8063095ea7b3116101d7578063095ea7b3146102d95780630e3876be1461030257806323b872dd1461032d578063304cff301461035657610204565b806301ffc9a714610209578063056ccfcf1461024657806306fdde0314610271578063081812fc1461029c575b600080fd5b34801561021557600080fd5b50610230600480360381019061022b91906137a8565b6108b2565b60405161023d91906137f0565b60405180910390f35b34801561025257600080fd5b5061025b610994565b6040516102689190613a84565b60405180910390f35b34801561027d57600080fd5b50610286610cfd565b6040516102939190613af0565b60405180910390f35b3480156102a857600080fd5b506102c360048036038101906102be9190613b3e565b610d8f565b6040516102d09190613b8c565b60405180910390f35b3480156102e557600080fd5b5061030060048036038101906102fb9190613bd3565b610dd5565b005b34801561030e57600080fd5b50610317610eec565b6040516103249190613a84565b60405180910390f35b34801561033957600080fd5b50610354600480360381019061034f9190613c13565b611299565b005b34801561036257600080fd5b5061037d60048036038101906103789190613b3e565b6112f9565b604051610391989796959493929190613c84565b60405180910390f35b3480156103a657600080fd5b506103c160048036038101906103bc9190613b3e565b611526565b005b3480156103cf57600080fd5b506103ea60048036038101906103e59190613c13565b61164a565b005b61040660048036038101906104019190613e4c565b61166a565b6040516104139190613ef3565b60405180910390f35b34801561042857600080fd5b50610443600480360381019061043e9190613b3e565b611a7b565b6040516104509190613ef3565b60405180910390f35b610473600480360381019061046e9190613b3e565b611ae4565b005b34801561048157600080fd5b5061049c60048036038101906104979190613b3e565b611d80565b6040516104a99190613b8c565b60405180910390f35b3480156104be57600080fd5b506104c7611e31565b6040516104d49190613f0e565b60405180910390f35b3480156104e957600080fd5b5061050460048036038101906104ff9190613f29565b611e57565b6040516105119190613ef3565b60405180910390f35b34801561052657600080fd5b5061052f611f0e565b005b34801561053d57600080fd5b5061055860048036038101906105539190613f29565b611f22565b6040516105659190613b8c565b60405180910390f35b34801561057a57600080fd5b50610583611fc5565b6040516105909190613b8c565b60405180910390f35b3480156105a557600080fd5b506105c060048036038101906105bb9190613f29565b611fef565b6040516105cd9190613b8c565b60405180910390f35b3480156105e257600080fd5b506105fd60048036038101906105f89190613f56565b612092565b005b34801561060b57600080fd5b5061062660048036038101906106219190613b3e565b6121e8565b6040516106339190613ef3565b60405180910390f35b34801561064857600080fd5b50610651612251565b60405161065e9190613af0565b60405180910390f35b34801561067357600080fd5b5061067c6122e3565b6040516106899190613ef3565b60405180910390f35b34801561069e57600080fd5b506106a76122e9565b6040516106b49190613ef3565b60405180910390f35b3480156106c957600080fd5b506106e460048036038101906106df9190613fc2565b6122ef565b005b3480156106f257600080fd5b5061070d60048036038101906107089190613b3e565b612305565b604051610721989796959493929190613c84565b60405180910390f35b34801561073657600080fd5b50610751600480360381019061074c91906140a3565b612542565b005b34801561075f57600080fd5b506107686125a4565b6040516107759190613ef3565b60405180910390f35b34801561078a57600080fd5b506107a560048036038101906107a09190613b3e565b6125aa565b6040516107b29190613b8c565b60405180910390f35b3480156107c757600080fd5b506107e260048036038101906107dd9190613f56565b6125dd565b005b3480156107f057600080fd5b5061080b60048036038101906108069190613b3e565b612694565b6040516108189190613af0565b60405180910390f35b34801561082d57600080fd5b5061084860048036038101906108439190614126565b6127a6565b60405161085591906137f0565b60405180910390f35b34801561086a57600080fd5b5061088560048036038101906108809190613f29565b61283a565b005b34801561089357600080fd5b5061089c6128bd565b6040516108a99190613b8c565b60405180910390f35b60007f80ac58cd000000000000000000000000000000000000000000000000000000007bffffffffffffffffffffffffffffffffffffffffffffffffffffffff1916827bffffffffffffffffffffffffffffffffffffffffffffffffffffffff1916148061097d57507f5b5e139f000000000000000000000000000000000000000000000000000000007bffffffffffffffffffffffffffffffffffffffffffffffffffffffff1916827bffffffffffffffffffffffffffffffffffffffffffffffffffffffff1916145b8061098d575061098c826128e3565b5b9050919050565b6060600060016109a4600861294d565b6109ae9190614195565b905060008167ffffffffffffffff8111156109cc576109cb613d21565b5b604051908082528060200260200182016040528015610a0557816020015b6109f26136c9565b8152602001906001900390816109ea5790505b50905060005b82811015610cf457600f60008281526020019081526020016000206040518061010001604052908160008201548152602001600182018054610a4c906141f8565b80601f0160208091040260200160405190810160405280929190818152602001828054610a78906141f8565b8015610ac55780601f10610a9a57610100808354040283529160200191610ac5565b820191906000526020600020905b815481529060010190602001808311610aa857829003601f168201915b50505050508152602001600282018054610ade906141f8565b80601f0160208091040260200160405190810160405280929190818152602001828054610b0a906141f8565b8015610b575780601f10610b2c57610100808354040283529160200191610b57565b820191906000526020600020905b815481529060010190602001808311610b3a57829003601f168201915b505050505081526020016003820160009054906101000a900473ffffffffffffffffffffffffffffffffffffffff1673ffffffffffffffffffffffffffffffffffffffff1673ffffffffffffffffffffffffffffffffffffffff168152602001600482018054610bc6906141f8565b80601f0160208091040260200160405190810160405280929190818152602001828054610bf2906141f8565b8015610c3f5780601f10610c1457610100808354040283529160200191610c3f565b820191906000526020600020905b815481529060010190602001808311610c2257829003601f168201915b50505050508152602001600582015481526020016006820160009054906101000a900460ff161515151581526020016006820160019054906101000a900473ffffffffffffffffffffffffffffffffffffffff1673ffffffffffffffffffffffffffffffffffffffff1673ffffffffffffffffffffffffffffffffffffffff1681525050828281518110610cd657610cd5614229565b5b60200260200101819052508080610cec90614258565b915050610a0b565b50809250505090565b606060008054610d0c906141f8565b80601f0160208091040260200160405190810160405280929190818152602001828054610d38906141f8565b8015610d855780601f10610d5a57610100808354040283529160200191610d85565b820191906000526020600020905b815481529060010190602001808311610d6857829003601f168201915b5050505050905090565b6000610d9a8261295b565b6004600083815260200190815260200160002060009054906101000a900473ffffffffffffffffffffffffffffffffffffffff169050919050565b6000610de082611d80565b90508073ffffffffffffffffffffffffffffffffffffffff168373ffffffffffffffffffffffffffffffffffffffff1603610e50576040517f08c379a0000000000000000000000000000000000000000000000000000000008152600401610e4790614312565b60405180910390fd5b8073ffffffffffffffffffffffffffffffffffffffff16610e6f6129a6565b73ffffffffffffffffffffffffffffffffffffffff161480610e9e5750610e9d81610e986129a6565b6127a6565b5b610edd576040517f08c379a0000000000000000000000000000000000000000000000000000000008152600401610ed4906143a4565b60405180910390fd5b610ee783836129ae565b505050565b606060006001610efc600861294d565b610f069190614195565b905060008167ffffffffffffffff811115610f2457610f23613d21565b5b604051908082528060200260200182016040528015610f5d57816020015b610f4a6136c9565b815260200190600190039081610f425790505b509050600080600090505b8381101561128f5760001515600f600083815260200190815260200160002060060160009054906101000a900460ff1615151461127c57600f60008281526020019081526020016000206040518061010001604052908160008201548152602001600182018054610fd8906141f8565b80601f0160208091040260200160405190810160405280929190818152602001828054611004906141f8565b80156110515780601f1061102657610100808354040283529160200191611051565b820191906000526020600020905b81548152906001019060200180831161103457829003601f168201915b5050505050815260200160028201805461106a906141f8565b80601f0160208091040260200160405190810160405280929190818152602001828054611096906141f8565b80156110e35780601f106110b8576101008083540402835291602001916110e3565b820191906000526020600020905b8154815290600101906020018083116110c657829003601f168201915b505050505081526020016003820160009054906101000a900473ffffffffffffffffffffffffffffffffffffffff1673ffffffffffffffffffffffffffffffffffffffff1673ffffffffffffffffffffffffffffffffffffffff168152602001600482018054611152906141f8565b80601f016020809104026020016040519081016040528092919081815260200182805461117e906141f8565b80156111cb5780601f106111a0576101008083540402835291602001916111cb565b820191906000526020600020905b8154815290600101906020018083116111ae57829003601f168201915b50505050508152602001600582015481526020016006820160009054906101000a900460ff161515151581526020016006820160019054906101000a900473ffffffffffffffffffffffffffffffffffffffff1673ffffffffffffffffffffffffffffffffffffffff1673ffffffffffffffffffffffffffffffffffffffff168152505083838151811061126257611261614229565b5b6020026020010181905250818061127890614258565b9250505b808061128790614258565b915050610f68565b5081935050505090565b6112aa6112a46129a6565b82612a67565b6112e9576040517f08c379a00000000000000000000000000000000000000000000000000000000081526004016112e090614436565b60405180910390fd5b6112f4838383612afc565b505050565b600f602052806000526040600020600091509050806000015490806001018054611322906141f8565b80601f016020809104026020016040519081016040528092919081815260200182805461134e906141f8565b801561139b5780601f106113705761010080835404028352916020019161139b565b820191906000526020600020905b81548152906001019060200180831161137e57829003601f168201915b5050505050908060020180546113b0906141f8565b80601f01602080910402602001604051908101604052809291908181526020018280546113dc906141f8565b80156114295780601f106113fe57610100808354040283529160200191611429565b820191906000526020600020905b81548152906001019060200180831161140c57829003601f168201915b5050505050908060030160009054906101000a900473ffffffffffffffffffffffffffffffffffffffff1690806004018054611464906141f8565b80601f0160208091040260200160405190810160405280929190818152602001828054611490906141f8565b80156114dd5780601f106114b2576101008083540402835291602001916114dd565b820191906000526020600020905b8154815290600101906020018083116114c057829003601f168201915b5050505050908060050154908060060160009054906101000a900460ff16908060060160019054906101000a900473ffffffffffffffffffffffffffffffffffffffff16905088565b6000600f600083815260200190815260200160002090508060030160009054906101000a900473ffffffffffffffffffffffffffffffffffffffff1673ffffffffffffffffffffffffffffffffffffffff163373ffffffffffffffffffffffffffffffffffffffff16146115cf576040517f08c379a00000000000000000000000000000000000000000000000000000000081526004016115c6906144c8565b60405180910390fd5b6115de30338360000154612afc565b60008160060160006101000a81548160ff0219169083151502179055506000816005018190555080600001547f0151dfa0184160d46fa1bdc2b7c8354feb0cf4893c3d8c911d04d50314d879d0338360040160405161163e929190614581565b60405180910390a25050565b61166583838360405180602001604052806000815250612542565b505050565b60006116766008612d62565b6009600081548092919061168990614258565b9190505550600061169a600861294d565b90506116a63382612d78565b33600e600083815260200190815260200160002060006101000a81548173ffffffffffffffffffffffffffffffffffffffff021916908373ffffffffffffffffffffffffffffffffffffffff1602179055506117028186612f51565b6040518061010001604052808281526020018581526020018481526020013373ffffffffffffffffffffffffffffffffffffffff168152602001868152602001600081526020016000151581526020013373ffffffffffffffffffffffffffffffffffffffff16815250600f600083815260200190815260200160002060008201518160000155602082015181600101908161179e9190614748565b5060408201518160020190816117b49190614748565b5060608201518160030160006101000a81548173ffffffffffffffffffffffffffffffffffffffff021916908373ffffffffffffffffffffffffffffffffffffffff16021790555060808201518160040190816118119190614748565b5060a0820151816005015560c08201518160060160006101000a81548160ff02191690831515021790555060e08201518160060160016101000a81548173ffffffffffffffffffffffffffffffffffffffff021916908373ffffffffffffffffffffffffffffffffffffffff16021790555090505060106040518061010001604052808381526020018681526020018581526020013373ffffffffffffffffffffffffffffffffffffffff168152602001878152602001600081526020016000151581526020013373ffffffffffffffffffffffffffffffffffffffff16815250908060018154018082558091505060019003906000526020600020906007020160009091909190915060008201518160000155602082015181600101908161193a9190614748565b5060408201518160020190816119509190614748565b5060608201518160030160006101000a81548173ffffffffffffffffffffffffffffffffffffffff021916908373ffffffffffffffffffffffffffffffffffffffff16021790555060808201518160040190816119ad9190614748565b5060a0820151816005015560c08201518160060160006101000a81548160ff02191690831515021790555060e08201518160060160016101000a81548173ffffffffffffffffffffffffffffffffffffffff021916908373ffffffffffffffffffffffffffffffffffffffff16021790555050503373ffffffffffffffffffffffffffffffffffffffff16817f47a149be5ec47637b9e89787b9b21ff88b0b783100d80221f6a5edc5c8d77c4087604051611a689190613af0565b60405180910390a3809150509392505050565b6000600d60009054906101000a900473ffffffffffffffffffffffffffffffffffffffff1673ffffffffffffffffffffffffffffffffffffffff163373ffffffffffffffffffffffffffffffffffffffff1614611ad757600080fd5b81600b8190559050919050565b6000600f600083815260200190815260200160002090506000600a54600a548360050154611b129190614195565b611b1c9190614195565b905080341015611b61576040517f08c379a0000000000000000000000000000000000000000000000000000000008152600401611b5890614866565b60405180910390fd5b6000600b54600a54611b739190614195565b905060008134611b839190614886565b90508360060160019054906101000a900473ffffffffffffffffffffffffffffffffffffffff1673ffffffffffffffffffffffffffffffffffffffff166108fc600b549081150290604051600060405180830381858888f19350505050158015611bf1573d6000803e3d6000fd5b50600c60009054906101000a900473ffffffffffffffffffffffffffffffffffffffff1673ffffffffffffffffffffffffffffffffffffffff166108fc600a549081150290604051600060405180830381858888f19350505050158015611c5c573d6000803e3d6000fd5b508360030160009054906101000a900473ffffffffffffffffffffffffffffffffffffffff1673ffffffffffffffffffffffffffffffffffffffff166108fc829081150290604051600060405180830381858888f19350505050158015611cc7573d6000803e3d6000fd5b50611cd730338660000154612afc565b338460030160006101000a81548173ffffffffffffffffffffffffffffffffffffffff021916908373ffffffffffffffffffffffffffffffffffffffff16021790555060008460060160006101000a81548160ff0219169083151502179055503484600001547f8500049995184367829fb7fae51b1cc359bdd658bae20e3e42f7788a4a72b9ec3387600401604051611d71929190614581565b60405180910390a35050505050565b6000806002600084815260200190815260200160002060009054906101000a900473ffffffffffffffffffffffffffffffffffffffff169050600073ffffffffffffffffffffffffffffffffffffffff168173ffffffffffffffffffffffffffffffffffffffff1603611e28576040517f08c379a0000000000000000000000000000000000000000000000000000000008152600401611e1f90614906565b60405180910390fd5b80915050919050565b600c60009054906101000a900473ffffffffffffffffffffffffffffffffffffffff1681565b60008073ffffffffffffffffffffffffffffffffffffffff168273ffffffffffffffffffffffffffffffffffffffff1603611ec7576040517f08c379a0000000000000000000000000000000000000000000000000000000008152600401611ebe90614998565b60405180910390fd5b600360008373ffffffffffffffffffffffffffffffffffffffff1673ffffffffffffffffffffffffffffffffffffffff168152602001908152602001600020549050919050565b611f16612fbe565b611f20600061303c565b565b6000600d60009054906101000a900473ffffffffffffffffffffffffffffffffffffffff1673ffffffffffffffffffffffffffffffffffffffff163373ffffffffffffffffffffffffffffffffffffffff1614611f7e57600080fd5b81600c60006101000a81548173ffffffffffffffffffffffffffffffffffffffff021916908373ffffffffffffffffffffffffffffffffffffffff16021790559050919050565b6000600760009054906101000a900473ffffffffffffffffffffffffffffffffffffffff16905090565b6000600d60009054906101000a900473ffffffffffffffffffffffffffffffffffffffff1673ffffffffffffffffffffffffffffffffffffffff163373ffffffffffffffffffffffffffffffffffffffff161461204b57600080fd5b81600d60006101000a81548173ffffffffffffffffffffffffffffffffffffffff021916908373ffffffffffffffffffffffffffffffffffffffff16021790559050919050565b61209b82611d80565b73ffffffffffffffffffffffffffffffffffffffff163373ffffffffffffffffffffffffffffffffffffffff1614612108576040517f08c379a00000000000000000000000000000000000000000000000000000000081526004016120ff90614a04565b60405180910390fd5b6000600f6000848152602001908152602001600020905060018160060160006101000a81548160ff021916908315150217905550818160050181905550338160030160006101000a81548173ffffffffffffffffffffffffffffffffffffffff021916908373ffffffffffffffffffffffffffffffffffffffff1602179055506121933060016122ef565b6121a233308360000154611299565b80600001547fe6c8782faa62f3a011302c0c76e85cec78d2d6afd27133ea7ab7a42b64abe93e33836004016040516121db929190614581565b60405180910390a2505050565b6000600d60009054906101000a900473ffffffffffffffffffffffffffffffffffffffff1673ffffffffffffffffffffffffffffffffffffffff163373ffffffffffffffffffffffffffffffffffffffff161461224457600080fd5b81600a8190559050919050565b606060018054612260906141f8565b80601f016020809104026020016040519081016040528092919081815260200182805461228c906141f8565b80156122d95780601f106122ae576101008083540402835291602001916122d9565b820191906000526020600020905b8154815290600101906020018083116122bc57829003601f168201915b5050505050905090565b600a5481565b60095481565b6123016122fa6129a6565b8383613102565b5050565b6010818154811061231557600080fd5b906000526020600020906007020160009150905080600001549080600101805461233e906141f8565b80601f016020809104026020016040519081016040528092919081815260200182805461236a906141f8565b80156123b75780601f1061238c576101008083540402835291602001916123b7565b820191906000526020600020905b81548152906001019060200180831161239a57829003601f168201915b5050505050908060020180546123cc906141f8565b80601f01602080910402602001604051908101604052809291908181526020018280546123f8906141f8565b80156124455780601f1061241a57610100808354040283529160200191612445565b820191906000526020600020905b81548152906001019060200180831161242857829003601f168201915b5050505050908060030160009054906101000a900473ffffffffffffffffffffffffffffffffffffffff1690806004018054612480906141f8565b80601f01602080910402602001604051908101604052809291908181526020018280546124ac906141f8565b80156124f95780601f106124ce576101008083540402835291602001916124f9565b820191906000526020600020905b8154815290600101906020018083116124dc57829003601f168201915b5050505050908060050154908060060160009054906101000a900460ff16908060060160019054906101000a900473ffffffffffffffffffffffffffffffffffffffff16905088565b61255361254d6129a6565b83612a67565b612592576040517f08c379a000000000000000000000000000000000000000000000000000000000815260040161258990614436565b60405180910390fd5b61259e8484848461326e565b50505050565b600b5481565b600e6020528060005260406000206000915054906101000a900473ffffffffffffffffffffffffffffffffffffffff1681565b6000600f600084815260200190815260200160002090508060030160009054906101000a900473ffffffffffffffffffffffffffffffffffffffff1673ffffffffffffffffffffffffffffffffffffffff163373ffffffffffffffffffffffffffffffffffffffff1614612686576040517f08c379a000000000000000000000000000000000000000000000000000000000815260040161267d906144c8565b60405180910390fd5b818160050181905550505050565b606061269f8261295b565b60006006600084815260200190815260200160002080546126bf906141f8565b80601f01602080910402602001604051908101604052809291908181526020018280546126eb906141f8565b80156127385780601f1061270d57610100808354040283529160200191612738565b820191906000526020600020905b81548152906001019060200180831161271b57829003601f168201915b5050505050905060006127496132ca565b9050600081510361275e5781925050506127a1565b60008251111561279357808260405160200161277b929190614a60565b604051602081830303815290604052925050506127a1565b61279c846132e1565b925050505b919050565b6000600560008473ffffffffffffffffffffffffffffffffffffffff1673ffffffffffffffffffffffffffffffffffffffff16815260200190815260200160002060008373ffffffffffffffffffffffffffffffffffffffff1673ffffffffffffffffffffffffffffffffffffffff16815260200190815260200160002060009054906101000a900460ff16905092915050565b612842612fbe565b600073ffffffffffffffffffffffffffffffffffffffff168173ffffffffffffffffffffffffffffffffffffffff16036128b1576040517f08c379a00000000000000000000000000000000000000000000000000000000081526004016128a890614af6565b60405180910390fd5b6128ba8161303c565b50565b600d60009054906101000a900473ffffffffffffffffffffffffffffffffffffffff1681565b60007f01ffc9a7000000000000000000000000000000000000000000000000000000007bffffffffffffffffffffffffffffffffffffffffffffffffffffffff1916827bffffffffffffffffffffffffffffffffffffffffffffffffffffffff1916149050919050565b600081600001549050919050565b61296481613349565b6129a3576040517f08c379a000000000000000000000000000000000000000000000000000000000815260040161299a90614906565b60405180910390fd5b50565b600033905090565b816004600083815260200190815260200160002060006101000a81548173ffffffffffffffffffffffffffffffffffffffff021916908373ffffffffffffffffffffffffffffffffffffffff160217905550808273ffffffffffffffffffffffffffffffffffffffff16612a2183611d80565b73ffffffffffffffffffffffffffffffffffffffff167f8c5be1e5ebec7d5bd14f71427d1e84f3dd0314c0f7b2291e5b200ac8c7c3b92560405160405180910390a45050565b600080612a7383611d80565b90508073ffffffffffffffffffffffffffffffffffffffff168473ffffffffffffffffffffffffffffffffffffffff161480612ab55750612ab481856127a6565b5b80612af357508373ffffffffffffffffffffffffffffffffffffffff16612adb84610d8f565b73ffffffffffffffffffffffffffffffffffffffff16145b91505092915050565b8273ffffffffffffffffffffffffffffffffffffffff16612b1c82611d80565b73ffffffffffffffffffffffffffffffffffffffff1614612b72576040517f08c379a0000000000000000000000000000000000000000000000000000000008152600401612b6990614b88565b60405180910390fd5b600073ffffffffffffffffffffffffffffffffffffffff168273ffffffffffffffffffffffffffffffffffffffff1603612be1576040517f08c379a0000000000000000000000000000000000000000000000000000000008152600401612bd890614c1a565b60405180910390fd5b612bec8383836133b5565b612bf76000826129ae565b6001600360008573ffffffffffffffffffffffffffffffffffffffff1673ffffffffffffffffffffffffffffffffffffffff1681526020019081526020016000206000828254612c479190614886565b925050819055506001600360008473ffffffffffffffffffffffffffffffffffffffff1673ffffffffffffffffffffffffffffffffffffffff1681526020019081526020016000206000828254612c9e9190614195565b92505081905550816002600083815260200190815260200160002060006101000a81548173ffffffffffffffffffffffffffffffffffffffff021916908373ffffffffffffffffffffffffffffffffffffffff160217905550808273ffffffffffffffffffffffffffffffffffffffff168473ffffffffffffffffffffffffffffffffffffffff167fddf252ad1be2c89b69c2b068fc378daa952ba7f163c4a11628f55a4df523b3ef60405160405180910390a4612d5d8383836133ba565b505050565b6001816000016000828254019250508190555050565b600073ffffffffffffffffffffffffffffffffffffffff168273ffffffffffffffffffffffffffffffffffffffff1603612de7576040517f08c379a0000000000000000000000000000000000000000000000000000000008152600401612dde90614c86565b60405180910390fd5b612df081613349565b15612e30576040517f08c379a0000000000000000000000000000000000000000000000000000000008152600401612e2790614cf2565b60405180910390fd5b612e3c600083836133b5565b6001600360008473ffffffffffffffffffffffffffffffffffffffff1673ffffffffffffffffffffffffffffffffffffffff1681526020019081526020016000206000828254612e8c9190614195565b92505081905550816002600083815260200190815260200160002060006101000a81548173ffffffffffffffffffffffffffffffffffffffff021916908373ffffffffffffffffffffffffffffffffffffffff160217905550808273ffffffffffffffffffffffffffffffffffffffff16600073ffffffffffffffffffffffffffffffffffffffff167fddf252ad1be2c89b69c2b068fc378daa952ba7f163c4a11628f55a4df523b3ef60405160405180910390a4612f4d600083836133ba565b5050565b612f5a82613349565b612f99576040517f08c379a0000000000000000000000000000000000000000000000000000000008152600401612f9090614d84565b60405180910390fd5b80600660008481526020019081526020016000209081612fb99190614748565b505050565b612fc66129a6565b73ffffffffffffffffffffffffffffffffffffffff16612fe4611fc5565b73ffffffffffffffffffffffffffffffffffffffff161461303a576040517f08c379a000000000000000000000000000000000000000000000000000000000815260040161303190614df0565b60405180910390fd5b565b6000600760009054906101000a900473ffffffffffffffffffffffffffffffffffffffff16905081600760006101000a81548173ffffffffffffffffffffffffffffffffffffffff021916908373ffffffffffffffffffffffffffffffffffffffff1602179055508173ffffffffffffffffffffffffffffffffffffffff168173ffffffffffffffffffffffffffffffffffffffff167f8be0079c531659141344cd1fd0a4f28419497f9722a3daafe3b4186f6b6457e060405160405180910390a35050565b8173ffffffffffffffffffffffffffffffffffffffff168373ffffffffffffffffffffffffffffffffffffffff1603613170576040517f08c379a000000000000000000000000000000000000000000000000000000000815260040161316790614e5c565b60405180910390fd5b80600560008573ffffffffffffffffffffffffffffffffffffffff1673ffffffffffffffffffffffffffffffffffffffff16815260200190815260200160002060008473ffffffffffffffffffffffffffffffffffffffff1673ffffffffffffffffffffffffffffffffffffffff16815260200190815260200160002060006101000a81548160ff0219169083151502179055508173ffffffffffffffffffffffffffffffffffffffff168373ffffffffffffffffffffffffffffffffffffffff167f17307eab39ab6107e8899845ad3d59bd9653f200f220920489ca2b5937696c318360405161326191906137f0565b60405180910390a3505050565b613279848484612afc565b613285848484846133bf565b6132c4576040517f08c379a00000000000000000000000000000000000000000000000000000000081526004016132bb90614eee565b60405180910390fd5b50505050565b606060405180602001604052806000815250905090565b60606132ec8261295b565b60006132f66132ca565b905060008151116133165760405180602001604052806000815250613341565b8061332084613546565b604051602001613331929190614a60565b6040516020818303038152906040525b915050919050565b60008073ffffffffffffffffffffffffffffffffffffffff166002600084815260200190815260200160002060009054906101000a900473ffffffffffffffffffffffffffffffffffffffff1673ffffffffffffffffffffffffffffffffffffffff1614159050919050565b505050565b505050565b60006133e08473ffffffffffffffffffffffffffffffffffffffff166136a6565b15613539578373ffffffffffffffffffffffffffffffffffffffff1663150b7a026134096129a6565b8786866040518563ffffffff1660e01b815260040161342b9493929190614f63565b6020604051808303816000875af192505050801561346757506040513d601f19601f820116820180604052508101906134649190614fc4565b60015b6134e9573d8060008114613497576040519150601f19603f3d011682016040523d82523d6000602084013e61349c565b606091505b5060008151036134e1576040517f08c379a00000000000000000000000000000000000000000000000000000000081526004016134d890614eee565b60405180910390fd5b805181602001fd5b63150b7a0260e01b7bffffffffffffffffffffffffffffffffffffffffffffffffffffffff1916817bffffffffffffffffffffffffffffffffffffffffffffffffffffffff19161491505061353e565b600190505b949350505050565b60606000820361358d576040518060400160405280600181526020017f300000000000000000000000000000000000000000000000000000000000000081525090506136a1565b600082905060005b600082146135bf5780806135a890614258565b915050600a826135b89190615020565b9150613595565b60008167ffffffffffffffff8111156135db576135da613d21565b5b6040519080825280601f01601f19166020018201604052801561360d5781602001600182028036833780820191505090505b5090505b6000851461369a576001826136269190614886565b9150600a856136359190615051565b60306136419190614195565b60f81b81838151811061365757613656614229565b5b60200101907effffffffffffffffffffffffffffffffffffffffffffffffffffffffffffff1916908160001a905350600a856136939190615020565b9450613611565b8093505050505b919050565b6000808273ffffffffffffffffffffffffffffffffffffffff163b119050919050565b604051806101000160405280600081526020016060815260200160608152602001600073ffffffffffffffffffffffffffffffffffffffff1681526020016060815260200160008152602001600015158152602001600073ffffffffffffffffffffffffffffffffffffffff1681525090565b6000604051905090565b600080fd5b600080fd5b60007fffffffff0000000000000000000000000000000000000000000000000000000082169050919050565b61378581613750565b811461379057600080fd5b50565b6000813590506137a28161377c565b92915050565b6000602082840312156137be576137bd613746565b5b60006137cc84828501613793565b91505092915050565b60008115159050919050565b6137ea816137d5565b82525050565b600060208201905061380560008301846137e1565b92915050565b600081519050919050565b600082825260208201905092915050565b6000819050602082019050919050565b6000819050919050565b61384a81613837565b82525050565b600081519050919050565b600082825260208201905092915050565b60005b8381101561388a57808201518184015260208101905061386f565b60008484015250505050565b6000601f19601f8301169050919050565b60006138b282613850565b6138bc818561385b565b93506138cc81856020860161386c565b6138d581613896565b840191505092915050565b600073ffffffffffffffffffffffffffffffffffffffff82169050919050565b600061390b826138e0565b9050919050565b61391b81613900565b82525050565b61392a816137d5565b82525050565b6000610100830160008301516139496000860182613841565b506020830151848203602086015261396182826138a7565b9150506040830151848203604086015261397b82826138a7565b91505060608301516139906060860182613912565b50608083015184820360808601526139a882826138a7565b91505060a08301516139bd60a0860182613841565b5060c08301516139d060c0860182613921565b5060e08301516139e360e0860182613912565b508091505092915050565b60006139fa8383613930565b905092915050565b6000602082019050919050565b6000613a1a8261380b565b613a248185613816565b935083602082028501613a3685613827565b8060005b85811015613a725784840389528151613a5385826139ee565b9450613a5e83613a02565b925060208a01995050600181019050613a3a565b50829750879550505050505092915050565b60006020820190508181036000830152613a9e8184613a0f565b905092915050565b600082825260208201905092915050565b6000613ac282613850565b613acc8185613aa6565b9350613adc81856020860161386c565b613ae581613896565b840191505092915050565b60006020820190508181036000830152613b0a8184613ab7565b905092915050565b613b1b81613837565b8114613b2657600080fd5b50565b600081359050613b3881613b12565b92915050565b600060208284031215613b5457613b53613746565b5b6000613b6284828501613b29565b91505092915050565b6000613b76826138e0565b9050919050565b613b8681613b6b565b82525050565b6000602082019050613ba16000830184613b7d565b92915050565b613bb081613b6b565b8114613bbb57600080fd5b50565b600081359050613bcd81613ba7565b92915050565b60008060408385031215613bea57613be9613746565b5b6000613bf885828601613bbe565b9250506020613c0985828601613b29565b9150509250929050565b600080600060608486031215613c2c57613c2b613746565b5b6000613c3a86828701613bbe565b9350506020613c4b86828701613bbe565b9250506040613c5c86828701613b29565b9150509250925092565b613c6f81613837565b82525050565b613c7e81613900565b82525050565b600061010082019050613c9a600083018b613c66565b8181036020830152613cac818a613ab7565b90508181036040830152613cc08189613ab7565b9050613ccf6060830188613c75565b8181036080830152613ce18187613ab7565b9050613cf060a0830186613c66565b613cfd60c08301856137e1565b613d0a60e0830184613c75565b9998505050505050505050565b600080fd5b600080fd5b7f4e487b7100000000000000000000000000000000000000000000000000000000600052604160045260246000fd5b613d5982613896565b810181811067ffffffffffffffff82111715613d7857613d77613d21565b5b80604052505050565b6000613d8b61373c565b9050613d978282613d50565b919050565b600067ffffffffffffffff821115613db757613db6613d21565b5b613dc082613896565b9050602081019050919050565b82818337600083830152505050565b6000613def613dea84613d9c565b613d81565b905082815260208101848484011115613e0b57613e0a613d1c565b5b613e16848285613dcd565b509392505050565b600082601f830112613e3357613e32613d17565b5b8135613e43848260208601613ddc565b91505092915050565b600080600060608486031215613e6557613e64613746565b5b600084013567ffffffffffffffff811115613e8357613e8261374b565b5b613e8f86828701613e1e565b935050602084013567ffffffffffffffff811115613eb057613eaf61374b565b5b613ebc86828701613e1e565b925050604084013567ffffffffffffffff811115613edd57613edc61374b565b5b613ee986828701613e1e565b9150509250925092565b6000602082019050613f086000830184613c66565b92915050565b6000602082019050613f236000830184613c75565b92915050565b600060208284031215613f3f57613f3e613746565b5b6000613f4d84828501613bbe565b91505092915050565b60008060408385031215613f6d57613f6c613746565b5b6000613f7b85828601613b29565b9250506020613f8c85828601613b29565b9150509250929050565b613f9f816137d5565b8114613faa57600080fd5b50565b600081359050613fbc81613f96565b92915050565b60008060408385031215613fd957613fd8613746565b5b6000613fe785828601613bbe565b9250506020613ff885828601613fad565b9150509250929050565b600067ffffffffffffffff82111561401d5761401c613d21565b5b61402682613896565b9050602081019050919050565b600061404661404184614002565b613d81565b90508281526020810184848401111561406257614061613d1c565b5b61406d848285613dcd565b509392505050565b600082601f83011261408a57614089613d17565b5b813561409a848260208601614033565b91505092915050565b600080600080608085870312156140bd576140bc613746565b5b60006140cb87828801613bbe565b94505060206140dc87828801613bbe565b93505060406140ed87828801613b29565b925050606085013567ffffffffffffffff81111561410e5761410d61374b565b5b61411a87828801614075565b91505092959194509250565b6000806040838503121561413d5761413c613746565b5b600061414b85828601613bbe565b925050602061415c85828601613bbe565b9150509250929050565b7f4e487b7100000000000000000000000000000000000000000000000000000000600052601160045260246000fd5b60006141a082613837565b91506141ab83613837565b92508282019050808211156141c3576141c2614166565b5b92915050565b7f4e487b7100000000000000000000000000000000000000000000000000000000600052602260045260246000fd5b6000600282049050600182168061421057607f821691505b602082108103614223576142226141c9565b5b50919050565b7f4e487b7100000000000000000000000000000000000000000000000000000000600052603260045260246000fd5b600061426382613837565b91507fffffffffffffffffffffffffffffffffffffffffffffffffffffffffffffffff820361429557614294614166565b5b600182019050919050565b7f4552433732313a20617070726f76616c20746f2063757272656e74206f776e6560008201527f7200000000000000000000000000000000000000000000000000000000000000602082015250565b60006142fc602183613aa6565b9150614307826142a0565b604082019050919050565b6000602082019050818103600083015261432b816142ef565b9050919050565b7f4552433732313a20617070726f76652063616c6c6572206973206e6f7420746f60008201527f6b656e206f776e6572206e6f7220617070726f76656420666f7220616c6c0000602082015250565b600061438e603e83613aa6565b915061439982614332565b604082019050919050565b600060208201905081810360008301526143bd81614381565b9050919050565b7f4552433732313a2063616c6c6572206973206e6f7420746f6b656e206f776e6560008201527f72206e6f7220617070726f766564000000000000000000000000000000000000602082015250565b6000614420602e83613aa6565b915061442b826143c4565b604082019050919050565b6000602082019050818103600083015261444f81614413565b9050919050565b7f4f6e6c792063757272656e74206f776e65722063616e2063616e63656c206c6960008201527f7374696e67000000000000000000000000000000000000000000000000000000602082015250565b60006144b2602583613aa6565b91506144bd82614456565b604082019050919050565b600060208201905081810360008301526144e1816144a5565b9050919050565b60008190508160005260206000209050919050565b6000815461450a816141f8565b6145148186613aa6565b9450600182166000811461452f576001811461454557614578565b60ff198316865281151560200286019350614578565b61454e856144e8565b60005b8381101561457057815481890152600182019150602081019050614551565b808801955050505b50505092915050565b60006040820190506145966000830185613b7d565b81810360208301526145a881846144fd565b90509392505050565b60006020601f8301049050919050565b600082821b905092915050565b6000600883026145fe7fffffffffffffffffffffffffffffffffffffffffffffffffffffffffffffffff826145c1565b61460886836145c1565b95508019841693508086168417925050509392505050565b6000819050919050565b600061464561464061463b84613837565b614620565b613837565b9050919050565b6000819050919050565b61465f8361462a565b61467361466b8261464c565b8484546145ce565b825550505050565b600090565b61468861467b565b614693818484614656565b505050565b5b818110156146b7576146ac600082614680565b600181019050614699565b5050565b601f8211156146fc576146cd816144e8565b6146d6846145b1565b810160208510156146e5578190505b6146f96146f1856145b1565b830182614698565b50505b505050565b600082821c905092915050565b600061471f60001984600802614701565b1980831691505092915050565b6000614738838361470e565b9150826002028217905092915050565b61475182613850565b67ffffffffffffffff81111561476a57614769613d21565b5b61477482546141f8565b61477f8282856146bb565b600060209050601f8311600181146147b257600084156147a0578287015190505b6147aa858261472c565b865550614812565b601f1984166147c0866144e8565b60005b828110156147e8578489015182556001820191506020850194506020810190506147c3565b868310156148055784890151614801601f89168261470e565b8355505b6001600288020188555050505b505050505050565b7f506c65617365207061792074686520726571756972656420616d6f756e740000600082015250565b6000614850601e83613aa6565b915061485b8261481a565b602082019050919050565b6000602082019050818103600083015261487f81614843565b9050919050565b600061489182613837565b915061489c83613837565b92508282039050818111156148b4576148b3614166565b5b92915050565b7f4552433732313a20696e76616c696420746f6b656e2049440000000000000000600082015250565b60006148f0601883613aa6565b91506148fb826148ba565b602082019050919050565b6000602082019050818103600083015261491f816148e3565b9050919050565b7f4552433732313a2061646472657373207a65726f206973206e6f74206120766160008201527f6c6964206f776e65720000000000000000000000000000000000000000000000602082015250565b6000614982602983613aa6565b915061498d82614926565b604082019050919050565b600060208201905081810360008301526149b181614975565b9050919050565b7f63616e6e6f74206c69737420736f6e677320796f7520646f206e6f74206f776e600082015250565b60006149ee602083613aa6565b91506149f9826149b8565b602082019050919050565b60006020820190508181036000830152614a1d816149e1565b9050919050565b600081905092915050565b6000614a3a82613850565b614a448185614a24565b9350614a5481856020860161386c565b80840191505092915050565b6000614a6c8285614a2f565b9150614a788284614a2f565b91508190509392505050565b7f4f776e61626c653a206e6577206f776e657220697320746865207a65726f206160008201527f6464726573730000000000000000000000000000000000000000000000000000602082015250565b6000614ae0602683613aa6565b9150614aeb82614a84565b604082019050919050565b60006020820190508181036000830152614b0f81614ad3565b9050919050565b7f4552433732313a207472616e736665722066726f6d20696e636f72726563742060008201527f6f776e6572000000000000000000000000000000000000000000000000000000602082015250565b6000614b72602583613aa6565b9150614b7d82614b16565b604082019050919050565b60006020820190508181036000830152614ba181614b65565b9050919050565b7f4552433732313a207472616e7366657220746f20746865207a65726f2061646460008201527f7265737300000000000000000000000000000000000000000000000000000000602082015250565b6000614c04602483613aa6565b9150614c0f82614ba8565b604082019050919050565b60006020820190508181036000830152614c3381614bf7565b9050919050565b7f4552433732313a206d696e7420746f20746865207a65726f2061646472657373600082015250565b6000614c70602083613aa6565b9150614c7b82614c3a565b602082019050919050565b60006020820190508181036000830152614c9f81614c63565b9050919050565b7f4552433732313a20746f6b656e20616c7265616479206d696e74656400000000600082015250565b6000614cdc601c83613aa6565b9150614ce782614ca6565b602082019050919050565b60006020820190508181036000830152614d0b81614ccf565b9050919050565b7f45524337323155524953746f726167653a2055524920736574206f66206e6f6e60008201527f6578697374656e7420746f6b656e000000000000000000000000000000000000602082015250565b6000614d6e602e83613aa6565b9150614d7982614d12565b604082019050919050565b60006020820190508181036000830152614d9d81614d61565b9050919050565b7f4f776e61626c653a2063616c6c6572206973206e6f7420746865206f776e6572600082015250565b6000614dda602083613aa6565b9150614de582614da4565b602082019050919050565b60006020820190508181036000830152614e0981614dcd565b9050919050565b7f4552433732313a20617070726f766520746f2063616c6c657200000000000000600082015250565b6000614e46601983613aa6565b9150614e5182614e10565b602082019050919050565b60006020820190508181036000830152614e7581614e39565b9050919050565b7f4552433732313a207472616e7366657220746f206e6f6e20455243373231526560008201527f63656976657220696d706c656d656e7465720000000000000000000000000000602082015250565b6000614ed8603283613aa6565b9150614ee382614e7c565b604082019050919050565b60006020820190508181036000830152614f0781614ecb565b9050919050565b600081519050919050565b600082825260208201905092915050565b6000614f3582614f0e565b614f3f8185614f19565b9350614f4f81856020860161386c565b614f5881613896565b840191505092915050565b6000608082019050614f786000830187613b7d565b614f856020830186613b7d565b614f926040830185613c66565b8181036060830152614fa48184614f2a565b905095945050505050565b600081519050614fbe8161377c565b92915050565b600060208284031215614fda57614fd9613746565b5b6000614fe884828501614faf565b91505092915050565b7f4e487b7100000000000000000000000000000000000000000000000000000000600052601260045260246000fd5b600061502b82613837565b915061503683613837565b92508261504657615045614ff1565b5b828204905092915050565b600061505c82613837565b915061506783613837565b92508261507757615076614ff1565b5b82820690509291505056fea2646970667358221220688fee3b1e93ce448277294bd66bcf2c542afc37682bc78bbf9b4fc9287767b364736f6c63430008110033",
  "linkReferences": {},
  "deployedLinkReferences": {}
}