{
  "_format": "hh-sol-artifact-1",
  "contractName": "DefiBeats",
  "sourceName": "contracts/DefiBeats.sol",
  "abi": [
    {
      "inputs": [],
      "stateMutability": "nonpayable",
      "type": "constructor"
    },
    {
      "anonymous": false,
      "inputs": [
        {
          "indexed": true,
          "internalType": "address",
          "name": "owner",
          "type": "address"
        },
        {
          "indexed": true,
          "internalType": "address",
          "name": "approved",
          "type": "address"
        },
        {
          "indexed": true,
          "internalType": "uint256",
          "name": "tokenId",
          "type": "uint256"
        }
      ],
      "name": "Approval",
      "type": "event"
    },
    {
      "anonymous": false,
      "inputs": [
        {
          "indexed": true,
          "internalType": "address",
          "name": "owner",
          "type": "address"
        },
        {
          "indexed": true,
          "internalType": "address",
          "name": "operator",
          "type": "address"
        },
        {
          "indexed": false,
          "internalType": "bool",
          "name": "approved",
          "type": "bool"
        }
      ],
      "name": "ApprovalForAll",
      "type": "event"
    },
    {
      "anonymous": false,
      "inputs": [
        {
          "indexed": true,
          "internalType": "address",
          "name": "previousOwner",
          "type": "address"
        },
        {
          "indexed": true,
          "internalType": "address",
          "name": "newOwner",
          "type": "address"
        }
      ],
      "name": "OwnershipTransferred",
      "type": "event"
    },
    {
      "anonymous": false,
      "inputs": [
        {
          "indexed": true,
          "internalType": "uint256",
          "name": "tokenId",
          "type": "uint256"
        },
        {
          "indexed": false,
          "internalType": "address",
          "name": "seller",
          "type": "address"
        },
        {
          "indexed": false,
          "internalType": "string",
          "name": "tokenUri",
          "type": "string"
        }
      ],
      "name": "SongCancelled",
      "type": "event"
    },
    {
      "anonymous": false,
      "inputs": [
        {
          "indexed": true,
          "internalType": "uint256",
          "name": "tokenId",
          "type": "uint256"
        },
        {
          "indexed": false,
          "internalType": "address",
          "name": "seller",
          "type": "address"
        },
        {
          "indexed": false,
          "internalType": "string",
          "name": "tokenUri",
          "type": "string"
        }
      ],
      "name": "SongListed",
      "type": "event"
    },
    {
      "anonymous": false,
      "inputs": [
        {
          "indexed": true,
          "internalType": "uint256",
          "name": "tokenId",
          "type": "uint256"
        },
        {
          "indexed": true,
          "internalType": "address",
          "name": "producer",
          "type": "address"
        },
        {
          "indexed": false,
          "internalType": "string",
          "name": "tokenUri",
          "type": "string"
        }
      ],
      "name": "SongMade",
      "type": "event"
    },
    {
      "anonymous": false,
      "inputs": [
        {
          "indexed": true,
          "internalType": "uint256",
          "name": "tokenId",
          "type": "uint256"
        },
        {
          "indexed": false,
          "internalType": "address",
          "name": "seller",
          "type": "address"
        },
        {
          "indexed": false,
          "internalType": "string",
          "name": "tokenUri",
          "type": "string"
        },
        {
          "indexed": true,
          "internalType": "uint256",
          "name": "price",
          "type": "uint256"
        }
      ],
      "name": "SongPurchased",
      "type": "event"
    },
    {
      "anonymous": false,
      "inputs": [
        {
          "indexed": true,
          "internalType": "address",
          "name": "from",
          "type": "address"
        },
        {
          "indexed": true,
          "internalType": "address",
          "name": "to",
          "type": "address"
        },
        {
          "indexed": true,
          "internalType": "uint256",
          "name": "tokenId",
          "type": "uint256"
        }
      ],
      "name": "Transfer",
      "type": "event"
    },
    {
      "inputs": [],
      "name": "admin",
      "outputs": [
        {
          "internalType": "address",
          "name": "",
          "type": "address"
        }
      ],
      "stateMutability": "view",
      "type": "function"
    },
    {
      "inputs": [
        {
          "internalType": "uint256",
          "name": "",
          "type": "uint256"
        }
      ],
      "name": "allSongs",
      "outputs": [
        {
          "internalType": "uint256",
          "name": "tokenId",
          "type": "uint256"
        },
        {
          "internalType": "string",
          "name": "name",
          "type": "string"
        },
        {
          "internalType": "string",
          "name": "collection",
          "type": "string"
        },
        {
          "internalType": "address payable",
          "name": "currentOwner",
          "type": "address"
        },
        {
          "internalType": "string",
          "name": "tokenUri",
          "type": "string"
        },
        {
          "internalType": "uint256",
          "name": "price",
          "type": "uint256"
        },
        {
          "internalType": "bool",
          "name": "isForSale",
          "type": "bool"
        },
        {
          "internalType": "address payable",
          "name": "originalProducer",
          "type": "address"
        }
      ],
      "stateMutability": "view",
      "type": "function"
    },
    {
      "inputs": [
        {
          "internalType": "address",
          "name": "to",
          "type": "address"
        },
        {
          "internalType": "uint256",
          "name": "tokenId",
          "type": "uint256"
        }
      ],
      "name": "approve",
      "outputs": [],
      "stateMutability": "nonpayable",
      "type": "function"
    },
    {
      "inputs": [
        {
          "internalType": "address",
          "name": "owner",
          "type": "address"
        }
      ],
      "name": "balanceOf",
      "outputs": [
        {
          "internalType": "uint256",
          "name": "",
          "type": "uint256"
        }
      ],
      "stateMutability": "view",
      "type": "function"
    },
    {
      "inputs": [
        {
          "internalType": "uint256",
          "name": "songNumber",
          "type": "uint256"
        }
      ],
      "name": "buySong",
      "outputs": [],
      "stateMutability": "payable",
      "type": "function"
    },
    {
      "inputs": [
        {
          "internalType": "uint256",
          "name": "songNumber",
          "type": "uint256"
        }
      ],
      "name": "cancelListing",
      "outputs": [],
      "stateMutability": "nonpayable",
      "type": "function"
    },
    {
      "inputs": [
        {
          "internalType": "address",
          "name": "newAdmin",
          "type": "address"
        }
      ],
      "name": "changeAdmin",
      "outputs": [
        {
          "internalType": "address",
          "name": "",
          "type": "address"
        }
      ],
      "stateMutability": "nonpayable",
      "type": "function"
    },
    {
      "inputs": [
        {
          "internalType": "address",
          "name": "newFeeAddress",
          "type": "address"
        }
      ],
      "name": "changeFeeAccount",
      "outputs": [
        {
          "internalType": "address",
          "name": "",
          "type": "address"
        }
      ],
      "stateMutability": "nonpayable",
      "type": "function"
    },
    {
      "inputs": [],
      "name": "feeAccount",
      "outputs": [
        {
          "internalType": "address payable",
          "name": "",
          "type": "address"
        }
      ],
      "stateMutability": "view",
      "type": "function"
    },
    {
      "inputs": [
        {
          "internalType": "uint256",
          "name": "tokenId",
          "type": "uint256"
        }
      ],
      "name": "getApproved",
      "outputs": [
        {
          "internalType": "address",
          "name": "",
          "type": "address"
        }
      ],
      "stateMutability": "view",
      "type": "function"
    },
    {
      "inputs": [
        {
          "internalType": "address",
          "name": "owner",
          "type": "address"
        },
        {
          "internalType": "address",
          "name": "operator",
          "type": "address"
        }
      ],
      "name": "isApprovedForAll",
      "outputs": [
        {
          "internalType": "bool",
          "name": "",
          "type": "bool"
        }
      ],
      "stateMutability": "view",
      "type": "function"
    },
    {
      "inputs": [
        {
          "internalType": "uint256",
          "name": "songNumber",
          "type": "uint256"
        },
        {
          "internalType": "uint256",
          "name": "songPrice",
          "type": "uint256"
        }
      ],
      "name": "listSong",
      "outputs": [],
      "stateMutability": "nonpayable",
      "type": "function"
    },
    {
      "inputs": [
        {
          "internalType": "string",
          "name": "_tokenUri",
          "type": "string"
        },
        {
          "internalType": "string",
          "name": "songName",
          "type": "string"
        },
        {
          "internalType": "string",
          "name": "collection",
          "type": "string"
        }
      ],
      "name": "makeSong",
      "outputs": [
        {
          "internalType": "uint256",
          "name": "",
          "type": "uint256"
        }
      ],
      "stateMutability": "payable",
      "type": "function"
    },
    {
      "inputs": [],
      "name": "name",
      "outputs": [
        {
          "internalType": "string",
          "name": "",
          "type": "string"
        }
      ],
      "stateMutability": "view",
      "type": "function"
    },
    {
      "inputs": [],
      "name": "owner",
      "outputs": [
        {
          "internalType": "address",
          "name": "",
          "type": "address"
        }
      ],
      "stateMutability": "view",
      "type": "function"
    },
    {
      "inputs": [
        {
          "internalType": "uint256",
          "name": "tokenId",
          "type": "uint256"
        }
      ],
      "name": "ownerOf",
      "outputs": [
        {
          "internalType": "address",
          "name": "",
          "type": "address"
        }
      ],
      "stateMutability": "view",
      "type": "function"
    },
    {
      "inputs": [
        {
          "internalType": "uint256",
          "name": "",
          "type": "uint256"
        }
      ],
      "name": "ownerOfNft",
      "outputs": [
        {
          "internalType": "address",
          "name": "",
          "type": "address"
        }
      ],
      "stateMutability": "view",
      "type": "function"
    },
    {
      "inputs": [],
      "name": "renounceOwnership",
      "outputs": [],
      "stateMutability": "nonpayable",
      "type": "function"
    },
    {
      "inputs": [],
      "name": "returnAllSongs",
      "outputs": [
        {
          "components": [
            {
              "internalType": "uint256",
              "name": "tokenId",
              "type": "uint256"
            },
            {
              "internalType": "string",
              "name": "name",
              "type": "string"
            },
            {
              "internalType": "string",
              "name": "collection",
              "type": "string"
            },
            {
              "internalType": "address payable",
              "name": "currentOwner",
              "type": "address"
            },
            {
              "internalType": "string",
              "name": "tokenUri",
              "type": "string"
            },
            {
              "internalType": "uint256",
              "name": "price",
              "type": "uint256"
            },
            {
              "internalType": "bool",
              "name": "isForSale",
              "type": "bool"
            },
            {
              "internalType": "address payable",
              "name": "originalProducer",
              "type": "address"
            }
          ],
          "internalType": "struct DefiBeats.Song[]",
          "name": "",
          "type": "tuple[]"
        }
      ],
      "stateMutability": "view",
      "type": "function"
    },
    {
      "inputs": [],
      "name": "returnAllSongsForSale",
      "outputs": [
        {
          "components": [
            {
              "internalType": "uint256",
              "name": "tokenId",
              "type": "uint256"
            },
            {
              "internalType": "string",
              "name": "name",
              "type": "string"
            },
            {
              "internalType": "string",
              "name": "collection",
              "type": "string"
            },
            {
              "internalType": "address payable",
              "name": "currentOwner",
              "type": "address"
            },
            {
              "internalType": "string",
              "name": "tokenUri",
              "type": "string"
            },
            {
              "internalType": "uint256",
              "name": "price",
              "type": "uint256"
            },
            {
              "internalType": "bool",
              "name": "isForSale",
              "type": "bool"
            },
            {
              "internalType": "address payable",
              "name": "originalProducer",
              "type": "address"
            }
          ],
          "internalType": "struct DefiBeats.Song[]",
          "name": "",
          "type": "tuple[]"
        }
      ],
      "stateMutability": "view",
      "type": "function"
    },
    {
      "inputs": [],
      "name": "royaltyFee",
      "outputs": [
        {
          "internalType": "uint256",
          "name": "",
          "type": "uint256"
        }
      ],
      "stateMutability": "view",
      "type": "function"
    },
    {
      "inputs": [
        {
          "internalType": "address",
          "name": "from",
          "type": "address"
        },
        {
          "internalType": "address",
          "name": "to",
          "type": "address"
        },
        {
          "internalType": "uint256",
          "name": "tokenId",
          "type": "uint256"
        }
      ],
      "name": "safeTransferFrom",
      "outputs": [],
      "stateMutability": "nonpayable",
      "type": "function"
    },
    {
      "inputs": [
        {
          "internalType": "address",
          "name": "from",
          "type": "address"
        },
        {
          "internalType": "address",
          "name": "to",
          "type": "address"
        },
        {
          "internalType": "uint256",
          "name": "tokenId",
          "type": "uint256"
        },
        {
          "internalType": "bytes",
          "name": "data",
          "type": "bytes"
        }
      ],
      "name": "safeTransferFrom",
      "outputs": [],
      "stateMutability": "nonpayable",
      "type": "function"
    },
    {
      "inputs": [
        {
          "internalType": "address",
          "name": "operator",
          "type": "address"
        },
        {
          "internalType": "bool",
          "name": "approved",
          "type": "bool"
        }
      ],
      "name": "setApprovalForAll",
      "outputs": [],
      "stateMutability": "nonpayable",
      "type": "function"
    },
    {
      "inputs": [
        {
          "internalType": "uint256",
          "name": "",
          "type": "uint256"
        }
      ],
      "name": "songs",
      "outputs": [
        {
          "internalType": "uint256",
          "name": "tokenId",
          "type": "uint256"
        },
        {
          "internalType": "string",
          "name": "name",
          "type": "string"
        },
        {
          "internalType": "string",
          "name": "collection",
          "type": "string"
        },
        {
          "internalType": "address payable",
          "name": "currentOwner",
          "type": "address"
        },
        {
          "internalType": "string",
          "name": "tokenUri",
          "type": "string"
        },
        {
          "internalType": "uint256",
          "name": "price",
          "type": "uint256"
        },
        {
          "internalType": "bool",
          "name": "isForSale",
          "type": "bool"
        },
        {
          "internalType": "address payable",
          "name": "originalProducer",
          "type": "address"
        }
      ],
      "stateMutability": "view",
      "type": "function"
    },
    {
      "inputs": [
        {
          "internalType": "bytes4",
          "name": "interfaceId",
          "type": "bytes4"
        }
      ],
      "name": "supportsInterface",
      "outputs": [
        {
          "internalType": "bool",
          "name": "",
          "type": "bool"
        }
      ],
      "stateMutability": "view",
      "type": "function"
    },
    {
      "inputs": [],
      "name": "symbol",
      "outputs": [
        {
          "internalType": "string",
          "name": "",
          "type": "string"
        }
      ],
      "stateMutability": "view",
      "type": "function"
    },
    {
      "inputs": [],
      "name": "tokenCount",
      "outputs": [
        {
          "internalType": "uint256",
          "name": "",
          "type": "uint256"
        }
      ],
      "stateMutability": "view",
      "type": "function"
    },
    {
      "inputs": [
        {
          "internalType": "uint256",
          "name": "tokenId",
          "type": "uint256"
        }
      ],
      "name": "tokenURI",
      "outputs": [
        {
          "internalType": "string",
          "name": "",
          "type": "string"
        }
      ],
      "stateMutability": "view",
      "type": "function"
    },
    {
      "inputs": [],
      "name": "transactionFee",
      "outputs": [
        {
          "internalType": "uint256",
          "name": "",
          "type": "uint256"
        }
      ],
      "stateMutability": "view",
      "type": "function"
    },
    {
      "inputs": [
        {
          "internalType": "address",
          "name": "from",
          "type": "address"
        },
        {
          "internalType": "address",
          "name": "to",
          "type": "address"
        },
        {
          "internalType": "uint256",
          "name": "tokenId",
          "type": "uint256"
        }
      ],
      "name": "transferFrom",
      "outputs": [],
      "stateMutability": "nonpayable",
      "type": "function"
    },
    {
      "inputs": [
        {
          "internalType": "address",
          "name": "newOwner",
          "type": "address"
        }
      ],
      "name": "transferOwnership",
      "outputs": [],
      "stateMutability": "nonpayable",
      "type": "function"
    },
    {
      "inputs": [
        {
          "internalType": "uint256",
          "name": "_newFeeAmount",
          "type": "uint256"
        }
      ],
      "name": "updateFee",
      "outputs": [
        {
          "internalType": "uint256",
          "name": "",
          "type": "uint256"
        }
      ],
      "stateMutability": "nonpayable",
      "type": "function"
    },
    {
      "inputs": [
        {
          "internalType": "uint256",
          "name": "songNumber",
          "type": "uint256"
        },
        {
          "internalType": "uint256",
          "name": "newPrice",
          "type": "uint256"
        }
      ],
      "name": "updateListingPrice",
      "outputs": [],
      "stateMutability": "nonpayable",
      "type": "function"
    },
    {
      "inputs": [
        {
          "internalType": "uint256",
          "name": "_newFeeAmount",
          "type": "uint256"
        }
      ],
      "name": "updateRoyaltyFee",
      "outputs": [
        {
          "internalType": "uint256",
          "name": "",
          "type": "uint256"
        }
      ],
      "stateMutability": "nonpayable",
      "type": "function"
    }
  ],
  "bytecode": "0x60806040526001600a556001600b553480156200001b57600080fd5b506040518060400160405280600981526020017f44656669426561747300000000000000000000000000000000000000000000008152506040518060400160405280600381526020017f444642000000000000000000000000000000000000000000000000000000000081525081600090816200009991906200049e565b508060019081620000ab91906200049e565b505050620000ce620000c26200015660201b60201c565b6200015e60201b60201c565b33600c60006101000a81548173ffffffffffffffffffffffffffffffffffffffff021916908373ffffffffffffffffffffffffffffffffffffffff16021790555033600d60006101000a81548173ffffffffffffffffffffffffffffffffffffffff021916908373ffffffffffffffffffffffffffffffffffffffff16021790555062000585565b600033905090565b6000600760009054906101000a900473ffffffffffffffffffffffffffffffffffffffff16905081600760006101000a81548173ffffffffffffffffffffffffffffffffffffffff021916908373ffffffffffffffffffffffffffffffffffffffff1602179055508173ffffffffffffffffffffffffffffffffffffffff168173ffffffffffffffffffffffffffffffffffffffff167f8be0079c531659141344cd1fd0a4f28419497f9722a3daafe3b4186f6b6457e060405160405180910390a35050565b600081519050919050565b7f4e487b7100000000000000000000000000000000000000000000000000000000600052604160045260246000fd5b7f4e487b7100000000000000000000000000000000000000000000000000000000600052602260045260246000fd5b60006002820490506001821680620002a657607f821691505b602082108103620002bc57620002bb6200025e565b5b50919050565b60008190508160005260206000209050919050565b60006020601f8301049050919050565b600082821b905092915050565b600060088302620003267fffffffffffffffffffffffffffffffffffffffffffffffffffffffffffffffff82620002e7565b620003328683620002e7565b95508019841693508086168417925050509392505050565b6000819050919050565b6000819050919050565b60006200037f6200037962000373846200034a565b62000354565b6200034a565b9050919050565b6000819050919050565b6200039b836200035e565b620003b3620003aa8262000386565b848454620002f4565b825550505050565b600090565b620003ca620003bb565b620003d781848462000390565b505050565b5b81811015620003ff57620003f3600082620003c0565b600181019050620003dd565b5050565b601f8211156200044e576200041881620002c2565b6200042384620002d7565b8101602085101562000433578190505b6200044b6200044285620002d7565b830182620003dc565b50505b505050565b600082821c905092915050565b6000620004736000198460080262000453565b1980831691505092915050565b60006200048e838362000460565b9150826002028217905092915050565b620004a98262000224565b67ffffffffffffffff811115620004c557620004c46200022f565b5b620004d182546200028d565b620004de82828562000403565b600060209050601f83116001811462000516576000841562000501578287015190505b6200050d858262000480565b8655506200057d565b601f1984166200052686620002c2565b60005b82811015620005505784890151825560018201915060208501945060208101905062000529565b868310156200057057848901516200056c601f89168262000460565b8355505b6001600288020188555050505b505050505050565b6150bd80620005956000396000f3fe6080604052600436106102045760003560e01c806371ffcb1611610118578063a6b46a6f116100a0578063c46049431161006f578063c4604943146107bb578063c87b56dd146107e4578063e985e9c514610821578063f2fde38b1461085e578063f851a4401461088757610204565b8063a6b46a6f146106e6578063b88d4fde1461072a578063b8997a9714610753578063b922f94c1461077e57610204565b80639012c4a8116100e75780639012c4a8146105ff57806395d89b411461063c5780639ed3edf0146106675780639f181b5e14610692578063a22cb465146106bd57610204565b806371ffcb16146105315780638da5cb5b1461056e5780638f283970146105995780638fc59a8a146105d657610204565b8063305a67a81161019b578063606a01751161016a578063606a0175146104595780636352211e1461047557806365e17c9d146104b257806370a08231146104dd578063715018a61461051a57610204565b8063305a67a81461039a57806342842e0e146103c3578063451c67fd146103ec5780634e83be471461041c57610204565b8063095ea7b3116101d7578063095ea7b3146102d95780630e3876be1461030257806323b872dd1461032d578063304cff301461035657610204565b806301ffc9a714610209578063056ccfcf1461024657806306fdde0314610271578063081812fc1461029c575b600080fd5b34801561021557600080fd5b50610230600480360381019061022b91906137ad565b6108b2565b60405161023d91906137f5565b60405180910390f35b34801561025257600080fd5b5061025b610994565b6040516102689190613a89565b60405180910390f35b34801561027d57600080fd5b50610286610cf8565b6040516102939190613af5565b60405180910390f35b3480156102a857600080fd5b506102c360048036038101906102be9190613b43565b610d8a565b6040516102d09190613b91565b60405180910390f35b3480156102e557600080fd5b5061030060048036038101906102fb9190613bd8565b610dd0565b005b34801561030e57600080fd5b50610317610ee7565b6040516103249190613a89565b60405180910390f35b34801561033957600080fd5b50610354600480360381019061034f9190613c18565b61129e565b005b34801561036257600080fd5b5061037d60048036038101906103789190613b43565b6112fe565b604051610391989796959493929190613c89565b60405180910390f35b3480156103a657600080fd5b506103c160048036038101906103bc9190613b43565b61152b565b005b3480156103cf57600080fd5b506103ea60048036038101906103e59190613c18565b61164f565b005b61040660048036038101906104019190613e51565b61166f565b6040516104139190613ef8565b60405180910390f35b34801561042857600080fd5b50610443600480360381019061043e9190613b43565b611a80565b6040516104509190613ef8565b60405180910390f35b610473600480360381019061046e9190613b43565b611ae9565b005b34801561048157600080fd5b5061049c60048036038101906104979190613b43565b611d85565b6040516104a99190613b91565b60405180910390f35b3480156104be57600080fd5b506104c7611e36565b6040516104d49190613f13565b60405180910390f35b3480156104e957600080fd5b5061050460048036038101906104ff9190613f2e565b611e5c565b6040516105119190613ef8565b60405180910390f35b34801561052657600080fd5b5061052f611f13565b005b34801561053d57600080fd5b5061055860048036038101906105539190613f2e565b611f27565b6040516105659190613b91565b60405180910390f35b34801561057a57600080fd5b50610583611fca565b6040516105909190613b91565b60405180910390f35b3480156105a557600080fd5b506105c060048036038101906105bb9190613f2e565b611ff4565b6040516105cd9190613b91565b60405180910390f35b3480156105e257600080fd5b506105fd60048036038101906105f89190613f5b565b612097565b005b34801561060b57600080fd5b5061062660048036038101906106219190613b43565b6121ed565b6040516106339190613ef8565b60405180910390f35b34801561064857600080fd5b50610651612256565b60405161065e9190613af5565b60405180910390f35b34801561067357600080fd5b5061067c6122e8565b6040516106899190613ef8565b60405180910390f35b34801561069e57600080fd5b506106a76122ee565b6040516106b49190613ef8565b60405180910390f35b3480156106c957600080fd5b506106e460048036038101906106df9190613fc7565b6122f4565b005b3480156106f257600080fd5b5061070d60048036038101906107089190613b43565b61230a565b604051610721989796959493929190613c89565b60405180910390f35b34801561073657600080fd5b50610751600480360381019061074c91906140a8565b612547565b005b34801561075f57600080fd5b506107686125a9565b6040516107759190613ef8565b60405180910390f35b34801561078a57600080fd5b506107a560048036038101906107a09190613b43565b6125af565b6040516107b29190613b91565b60405180910390f35b3480156107c757600080fd5b506107e260048036038101906107dd9190613f5b565b6125e2565b005b3480156107f057600080fd5b5061080b60048036038101906108069190613b43565b612699565b6040516108189190613af5565b60405180910390f35b34801561082d57600080fd5b506108486004803603810190610843919061412b565b6127ab565b60405161085591906137f5565b60405180910390f35b34801561086a57600080fd5b5061088560048036038101906108809190613f2e565b61283f565b005b34801561089357600080fd5b5061089c6128c2565b6040516108a99190613b91565b60405180910390f35b60007f80ac58cd000000000000000000000000000000000000000000000000000000007bffffffffffffffffffffffffffffffffffffffffffffffffffffffff1916827bffffffffffffffffffffffffffffffffffffffffffffffffffffffff1916148061097d57507f5b5e139f000000000000000000000000000000000000000000000000000000007bffffffffffffffffffffffffffffffffffffffffffffffffffffffff1916827bffffffffffffffffffffffffffffffffffffffffffffffffffffffff1916145b8061098d575061098c826128e8565b5b9050919050565b6060600060095467ffffffffffffffff8111156109b4576109b3613d26565b5b6040519080825280602002602001820160405280156109ed57816020015b6109da6136ce565b8152602001906001900390816109d25790505b50905060005b601080549050811015610cf05760108181548110610a1457610a1361416b565b5b90600052602060002090600702016040518061010001604052908160008201548152602001600182018054610a48906141c9565b80601f0160208091040260200160405190810160405280929190818152602001828054610a74906141c9565b8015610ac15780601f10610a9657610100808354040283529160200191610ac1565b820191906000526020600020905b815481529060010190602001808311610aa457829003601f168201915b50505050508152602001600282018054610ada906141c9565b80601f0160208091040260200160405190810160405280929190818152602001828054610b06906141c9565b8015610b535780601f10610b2857610100808354040283529160200191610b53565b820191906000526020600020905b815481529060010190602001808311610b3657829003601f168201915b505050505081526020016003820160009054906101000a900473ffffffffffffffffffffffffffffffffffffffff1673ffffffffffffffffffffffffffffffffffffffff1673ffffffffffffffffffffffffffffffffffffffff168152602001600482018054610bc2906141c9565b80601f0160208091040260200160405190810160405280929190818152602001828054610bee906141c9565b8015610c3b5780601f10610c1057610100808354040283529160200191610c3b565b820191906000526020600020905b815481529060010190602001808311610c1e57829003601f168201915b50505050508152602001600582015481526020016006820160009054906101000a900460ff161515151581526020016006820160019054906101000a900473ffffffffffffffffffffffffffffffffffffffff1673ffffffffffffffffffffffffffffffffffffffff1673ffffffffffffffffffffffffffffffffffffffff1681525050828281518110610cd257610cd161416b565b5b60200260200101819052508080610ce890614229565b9150506109f3565b508091505090565b606060008054610d07906141c9565b80601f0160208091040260200160405190810160405280929190818152602001828054610d33906141c9565b8015610d805780601f10610d5557610100808354040283529160200191610d80565b820191906000526020600020905b815481529060010190602001808311610d6357829003601f168201915b5050505050905090565b6000610d9582612952565b6004600083815260200190815260200160002060009054906101000a900473ffffffffffffffffffffffffffffffffffffffff169050919050565b6000610ddb82611d85565b90508073ffffffffffffffffffffffffffffffffffffffff168373ffffffffffffffffffffffffffffffffffffffff1603610e4b576040517f08c379a0000000000000000000000000000000000000000000000000000000008152600401610e42906142e3565b60405180910390fd5b8073ffffffffffffffffffffffffffffffffffffffff16610e6a61299d565b73ffffffffffffffffffffffffffffffffffffffff161480610e995750610e9881610e9361299d565b6127ab565b5b610ed8576040517f08c379a0000000000000000000000000000000000000000000000000000000008152600401610ecf90614375565b60405180910390fd5b610ee283836129a5565b505050565b6060600060095467ffffffffffffffff811115610f0757610f06613d26565b5b604051908082528060200260200182016040528015610f4057816020015b610f2d6136ce565b815260200190600190039081610f255790505b509050600080600090505b601080549050811015611295576001151560108281548110610f7057610f6f61416b565b5b906000526020600020906007020160060160009054906101000a900460ff161515036112825760108181548110610faa57610fa961416b565b5b90600052602060002090600702016040518061010001604052908160008201548152602001600182018054610fde906141c9565b80601f016020809104026020016040519081016040528092919081815260200182805461100a906141c9565b80156110575780601f1061102c57610100808354040283529160200191611057565b820191906000526020600020905b81548152906001019060200180831161103a57829003601f168201915b50505050508152602001600282018054611070906141c9565b80601f016020809104026020016040519081016040528092919081815260200182805461109c906141c9565b80156110e95780601f106110be576101008083540402835291602001916110e9565b820191906000526020600020905b8154815290600101906020018083116110cc57829003601f168201915b505050505081526020016003820160009054906101000a900473ffffffffffffffffffffffffffffffffffffffff1673ffffffffffffffffffffffffffffffffffffffff1673ffffffffffffffffffffffffffffffffffffffff168152602001600482018054611158906141c9565b80601f0160208091040260200160405190810160405280929190818152602001828054611184906141c9565b80156111d15780601f106111a6576101008083540402835291602001916111d1565b820191906000526020600020905b8154815290600101906020018083116111b457829003601f168201915b50505050508152602001600582015481526020016006820160009054906101000a900460ff161515151581526020016006820160019054906101000a900473ffffffffffffffffffffffffffffffffffffffff1673ffffffffffffffffffffffffffffffffffffffff1673ffffffffffffffffffffffffffffffffffffffff16815250508383815181106112685761126761416b565b5b6020026020010181905250818061127e90614229565b9250505b808061128d90614229565b915050610f4b565b50819250505090565b6112af6112a961299d565b82612a5e565b6112ee576040517f08c379a00000000000000000000000000000000000000000000000000000000081526004016112e590614407565b60405180910390fd5b6112f9838383612af3565b505050565b600f602052806000526040600020600091509050806000015490806001018054611327906141c9565b80601f0160208091040260200160405190810160405280929190818152602001828054611353906141c9565b80156113a05780601f10611375576101008083540402835291602001916113a0565b820191906000526020600020905b81548152906001019060200180831161138357829003601f168201915b5050505050908060020180546113b5906141c9565b80601f01602080910402602001604051908101604052809291908181526020018280546113e1906141c9565b801561142e5780601f106114035761010080835404028352916020019161142e565b820191906000526020600020905b81548152906001019060200180831161141157829003601f168201915b5050505050908060030160009054906101000a900473ffffffffffffffffffffffffffffffffffffffff1690806004018054611469906141c9565b80601f0160208091040260200160405190810160405280929190818152602001828054611495906141c9565b80156114e25780601f106114b7576101008083540402835291602001916114e2565b820191906000526020600020905b8154815290600101906020018083116114c557829003601f168201915b5050505050908060050154908060060160009054906101000a900460ff16908060060160019054906101000a900473ffffffffffffffffffffffffffffffffffffffff16905088565b6000600f600083815260200190815260200160002090508060030160009054906101000a900473ffffffffffffffffffffffffffffffffffffffff1673ffffffffffffffffffffffffffffffffffffffff163373ffffffffffffffffffffffffffffffffffffffff16146115d4576040517f08c379a00000000000000000000000000000000000000000000000000000000081526004016115cb90614499565b60405180910390fd5b6115e330338360000154612af3565b60008160060160006101000a81548160ff0219169083151502179055506000816005018190555080600001547f0151dfa0184160d46fa1bdc2b7c8354feb0cf4893c3d8c911d04d50314d879d03383600401604051611643929190614552565b60405180910390a25050565b61166a83838360405180602001604052806000815250612547565b505050565b600061167b6008612d59565b6009600081548092919061168e90614229565b9190505550600061169f6008612d6f565b90506116ab3382612d7d565b33600e600083815260200190815260200160002060006101000a81548173ffffffffffffffffffffffffffffffffffffffff021916908373ffffffffffffffffffffffffffffffffffffffff1602179055506117078186612f56565b6040518061010001604052808281526020018581526020018481526020013373ffffffffffffffffffffffffffffffffffffffff168152602001868152602001600081526020016000151581526020013373ffffffffffffffffffffffffffffffffffffffff16815250600f60008381526020019081526020016000206000820151816000015560208201518160010190816117a39190614719565b5060408201518160020190816117b99190614719565b5060608201518160030160006101000a81548173ffffffffffffffffffffffffffffffffffffffff021916908373ffffffffffffffffffffffffffffffffffffffff16021790555060808201518160040190816118169190614719565b5060a0820151816005015560c08201518160060160006101000a81548160ff02191690831515021790555060e08201518160060160016101000a81548173ffffffffffffffffffffffffffffffffffffffff021916908373ffffffffffffffffffffffffffffffffffffffff16021790555090505060106040518061010001604052808381526020018681526020018581526020013373ffffffffffffffffffffffffffffffffffffffff168152602001878152602001600081526020016000151581526020013373ffffffffffffffffffffffffffffffffffffffff16815250908060018154018082558091505060019003906000526020600020906007020160009091909190915060008201518160000155602082015181600101908161193f9190614719565b5060408201518160020190816119559190614719565b5060608201518160030160006101000a81548173ffffffffffffffffffffffffffffffffffffffff021916908373ffffffffffffffffffffffffffffffffffffffff16021790555060808201518160040190816119b29190614719565b5060a0820151816005015560c08201518160060160006101000a81548160ff02191690831515021790555060e08201518160060160016101000a81548173ffffffffffffffffffffffffffffffffffffffff021916908373ffffffffffffffffffffffffffffffffffffffff16021790555050503373ffffffffffffffffffffffffffffffffffffffff16817f47a149be5ec47637b9e89787b9b21ff88b0b783100d80221f6a5edc5c8d77c4087604051611a6d9190613af5565b60405180910390a3809150509392505050565b6000600d60009054906101000a900473ffffffffffffffffffffffffffffffffffffffff1673ffffffffffffffffffffffffffffffffffffffff163373ffffffffffffffffffffffffffffffffffffffff1614611adc57600080fd5b81600b8190559050919050565b6000600f600083815260200190815260200160002090506000600a54600a548360050154611b1791906147eb565b611b2191906147eb565b905080341015611b66576040517f08c379a0000000000000000000000000000000000000000000000000000000008152600401611b5d9061486b565b60405180910390fd5b6000600b54600a54611b7891906147eb565b905060008134611b88919061488b565b90508360060160019054906101000a900473ffffffffffffffffffffffffffffffffffffffff1673ffffffffffffffffffffffffffffffffffffffff166108fc600b549081150290604051600060405180830381858888f19350505050158015611bf6573d6000803e3d6000fd5b50600c60009054906101000a900473ffffffffffffffffffffffffffffffffffffffff1673ffffffffffffffffffffffffffffffffffffffff166108fc600a549081150290604051600060405180830381858888f19350505050158015611c61573d6000803e3d6000fd5b508360030160009054906101000a900473ffffffffffffffffffffffffffffffffffffffff1673ffffffffffffffffffffffffffffffffffffffff166108fc829081150290604051600060405180830381858888f19350505050158015611ccc573d6000803e3d6000fd5b50611cdc30338660000154612af3565b338460030160006101000a81548173ffffffffffffffffffffffffffffffffffffffff021916908373ffffffffffffffffffffffffffffffffffffffff16021790555060008460060160006101000a81548160ff0219169083151502179055503484600001547f8500049995184367829fb7fae51b1cc359bdd658bae20e3e42f7788a4a72b9ec3387600401604051611d76929190614552565b60405180910390a35050505050565b6000806002600084815260200190815260200160002060009054906101000a900473ffffffffffffffffffffffffffffffffffffffff169050600073ffffffffffffffffffffffffffffffffffffffff168173ffffffffffffffffffffffffffffffffffffffff1603611e2d576040517f08c379a0000000000000000000000000000000000000000000000000000000008152600401611e249061490b565b60405180910390fd5b80915050919050565b600c60009054906101000a900473ffffffffffffffffffffffffffffffffffffffff1681565b60008073ffffffffffffffffffffffffffffffffffffffff168273ffffffffffffffffffffffffffffffffffffffff1603611ecc576040517f08c379a0000000000000000000000000000000000000000000000000000000008152600401611ec39061499d565b60405180910390fd5b600360008373ffffffffffffffffffffffffffffffffffffffff1673ffffffffffffffffffffffffffffffffffffffff168152602001908152602001600020549050919050565b611f1b612fc3565b611f256000613041565b565b6000600d60009054906101000a900473ffffffffffffffffffffffffffffffffffffffff1673ffffffffffffffffffffffffffffffffffffffff163373ffffffffffffffffffffffffffffffffffffffff1614611f8357600080fd5b81600c60006101000a81548173ffffffffffffffffffffffffffffffffffffffff021916908373ffffffffffffffffffffffffffffffffffffffff16021790559050919050565b6000600760009054906101000a900473ffffffffffffffffffffffffffffffffffffffff16905090565b6000600d60009054906101000a900473ffffffffffffffffffffffffffffffffffffffff1673ffffffffffffffffffffffffffffffffffffffff163373ffffffffffffffffffffffffffffffffffffffff161461205057600080fd5b81600d60006101000a81548173ffffffffffffffffffffffffffffffffffffffff021916908373ffffffffffffffffffffffffffffffffffffffff16021790559050919050565b6120a082611d85565b73ffffffffffffffffffffffffffffffffffffffff163373ffffffffffffffffffffffffffffffffffffffff161461210d576040517f08c379a000000000000000000000000000000000000000000000000000000000815260040161210490614a09565b60405180910390fd5b6000600f6000848152602001908152602001600020905060018160060160006101000a81548160ff021916908315150217905550818160050181905550338160030160006101000a81548173ffffffffffffffffffffffffffffffffffffffff021916908373ffffffffffffffffffffffffffffffffffffffff1602179055506121983060016122f4565b6121a73330836000015461129e565b80600001547fe6c8782faa62f3a011302c0c76e85cec78d2d6afd27133ea7ab7a42b64abe93e33836004016040516121e0929190614552565b60405180910390a2505050565b6000600d60009054906101000a900473ffffffffffffffffffffffffffffffffffffffff1673ffffffffffffffffffffffffffffffffffffffff163373ffffffffffffffffffffffffffffffffffffffff161461224957600080fd5b81600a8190559050919050565b606060018054612265906141c9565b80601f0160208091040260200160405190810160405280929190818152602001828054612291906141c9565b80156122de5780601f106122b3576101008083540402835291602001916122de565b820191906000526020600020905b8154815290600101906020018083116122c157829003601f168201915b5050505050905090565b600a5481565b60095481565b6123066122ff61299d565b8383613107565b5050565b6010818154811061231a57600080fd5b9060005260206000209060070201600091509050806000015490806001018054612343906141c9565b80601f016020809104026020016040519081016040528092919081815260200182805461236f906141c9565b80156123bc5780601f10612391576101008083540402835291602001916123bc565b820191906000526020600020905b81548152906001019060200180831161239f57829003601f168201915b5050505050908060020180546123d1906141c9565b80601f01602080910402602001604051908101604052809291908181526020018280546123fd906141c9565b801561244a5780601f1061241f5761010080835404028352916020019161244a565b820191906000526020600020905b81548152906001019060200180831161242d57829003601f168201915b5050505050908060030160009054906101000a900473ffffffffffffffffffffffffffffffffffffffff1690806004018054612485906141c9565b80601f01602080910402602001604051908101604052809291908181526020018280546124b1906141c9565b80156124fe5780601f106124d3576101008083540402835291602001916124fe565b820191906000526020600020905b8154815290600101906020018083116124e157829003601f168201915b5050505050908060050154908060060160009054906101000a900460ff16908060060160019054906101000a900473ffffffffffffffffffffffffffffffffffffffff16905088565b61255861255261299d565b83612a5e565b612597576040517f08c379a000000000000000000000000000000000000000000000000000000000815260040161258e90614407565b60405180910390fd5b6125a384848484613273565b50505050565b600b5481565b600e6020528060005260406000206000915054906101000a900473ffffffffffffffffffffffffffffffffffffffff1681565b6000600f600084815260200190815260200160002090508060030160009054906101000a900473ffffffffffffffffffffffffffffffffffffffff1673ffffffffffffffffffffffffffffffffffffffff163373ffffffffffffffffffffffffffffffffffffffff161461268b576040517f08c379a000000000000000000000000000000000000000000000000000000000815260040161268290614499565b60405180910390fd5b818160050181905550505050565b60606126a482612952565b60006006600084815260200190815260200160002080546126c4906141c9565b80601f01602080910402602001604051908101604052809291908181526020018280546126f0906141c9565b801561273d5780601f106127125761010080835404028352916020019161273d565b820191906000526020600020905b81548152906001019060200180831161272057829003601f168201915b50505050509050600061274e6132cf565b905060008151036127635781925050506127a6565b600082511115612798578082604051602001612780929190614a65565b604051602081830303815290604052925050506127a6565b6127a1846132e6565b925050505b919050565b6000600560008473ffffffffffffffffffffffffffffffffffffffff1673ffffffffffffffffffffffffffffffffffffffff16815260200190815260200160002060008373ffffffffffffffffffffffffffffffffffffffff1673ffffffffffffffffffffffffffffffffffffffff16815260200190815260200160002060009054906101000a900460ff16905092915050565b612847612fc3565b600073ffffffffffffffffffffffffffffffffffffffff168173ffffffffffffffffffffffffffffffffffffffff16036128b6576040517f08c379a00000000000000000000000000000000000000000000000000000000081526004016128ad90614afb565b60405180910390fd5b6128bf81613041565b50565b600d60009054906101000a900473ffffffffffffffffffffffffffffffffffffffff1681565b60007f01ffc9a7000000000000000000000000000000000000000000000000000000007bffffffffffffffffffffffffffffffffffffffffffffffffffffffff1916827bffffffffffffffffffffffffffffffffffffffffffffffffffffffff1916149050919050565b61295b8161334e565b61299a576040517f08c379a00000000000000000000000000000000000000000000000000000000081526004016129919061490b565b60405180910390fd5b50565b600033905090565b816004600083815260200190815260200160002060006101000a81548173ffffffffffffffffffffffffffffffffffffffff021916908373ffffffffffffffffffffffffffffffffffffffff160217905550808273ffffffffffffffffffffffffffffffffffffffff16612a1883611d85565b73ffffffffffffffffffffffffffffffffffffffff167f8c5be1e5ebec7d5bd14f71427d1e84f3dd0314c0f7b2291e5b200ac8c7c3b92560405160405180910390a45050565b600080612a6a83611d85565b90508073ffffffffffffffffffffffffffffffffffffffff168473ffffffffffffffffffffffffffffffffffffffff161480612aac5750612aab81856127ab565b5b80612aea57508373ffffffffffffffffffffffffffffffffffffffff16612ad284610d8a565b73ffffffffffffffffffffffffffffffffffffffff16145b91505092915050565b8273ffffffffffffffffffffffffffffffffffffffff16612b1382611d85565b73ffffffffffffffffffffffffffffffffffffffff1614612b69576040517f08c379a0000000000000000000000000000000000000000000000000000000008152600401612b6090614b8d565b60405180910390fd5b600073ffffffffffffffffffffffffffffffffffffffff168273ffffffffffffffffffffffffffffffffffffffff1603612bd8576040517f08c379a0000000000000000000000000000000000000000000000000000000008152600401612bcf90614c1f565b60405180910390fd5b612be38383836133ba565b612bee6000826129a5565b6001600360008573ffffffffffffffffffffffffffffffffffffffff1673ffffffffffffffffffffffffffffffffffffffff1681526020019081526020016000206000828254612c3e919061488b565b925050819055506001600360008473ffffffffffffffffffffffffffffffffffffffff1673ffffffffffffffffffffffffffffffffffffffff1681526020019081526020016000206000828254612c9591906147eb565b92505081905550816002600083815260200190815260200160002060006101000a81548173ffffffffffffffffffffffffffffffffffffffff021916908373ffffffffffffffffffffffffffffffffffffffff160217905550808273ffffffffffffffffffffffffffffffffffffffff168473ffffffffffffffffffffffffffffffffffffffff167fddf252ad1be2c89b69c2b068fc378daa952ba7f163c4a11628f55a4df523b3ef60405160405180910390a4612d548383836133bf565b505050565b6001816000016000828254019250508190555050565b600081600001549050919050565b600073ffffffffffffffffffffffffffffffffffffffff168273ffffffffffffffffffffffffffffffffffffffff1603612dec576040517f08c379a0000000000000000000000000000000000000000000000000000000008152600401612de390614c8b565b60405180910390fd5b612df58161334e565b15612e35576040517f08c379a0000000000000000000000000000000000000000000000000000000008152600401612e2c90614cf7565b60405180910390fd5b612e41600083836133ba565b6001600360008473ffffffffffffffffffffffffffffffffffffffff1673ffffffffffffffffffffffffffffffffffffffff1681526020019081526020016000206000828254612e9191906147eb565b92505081905550816002600083815260200190815260200160002060006101000a81548173ffffffffffffffffffffffffffffffffffffffff021916908373ffffffffffffffffffffffffffffffffffffffff160217905550808273ffffffffffffffffffffffffffffffffffffffff16600073ffffffffffffffffffffffffffffffffffffffff167fddf252ad1be2c89b69c2b068fc378daa952ba7f163c4a11628f55a4df523b3ef60405160405180910390a4612f52600083836133bf565b5050565b612f5f8261334e565b612f9e576040517f08c379a0000000000000000000000000000000000000000000000000000000008152600401612f9590614d89565b60405180910390fd5b80600660008481526020019081526020016000209081612fbe9190614719565b505050565b612fcb61299d565b73ffffffffffffffffffffffffffffffffffffffff16612fe9611fca565b73ffffffffffffffffffffffffffffffffffffffff161461303f576040517f08c379a000000000000000000000000000000000000000000000000000000000815260040161303690614df5565b60405180910390fd5b565b6000600760009054906101000a900473ffffffffffffffffffffffffffffffffffffffff16905081600760006101000a81548173ffffffffffffffffffffffffffffffffffffffff021916908373ffffffffffffffffffffffffffffffffffffffff1602179055508173ffffffffffffffffffffffffffffffffffffffff168173ffffffffffffffffffffffffffffffffffffffff167f8be0079c531659141344cd1fd0a4f28419497f9722a3daafe3b4186f6b6457e060405160405180910390a35050565b8173ffffffffffffffffffffffffffffffffffffffff168373ffffffffffffffffffffffffffffffffffffffff1603613175576040517f08c379a000000000000000000000000000000000000000000000000000000000815260040161316c90614e61565b60405180910390fd5b80600560008573ffffffffffffffffffffffffffffffffffffffff1673ffffffffffffffffffffffffffffffffffffffff16815260200190815260200160002060008473ffffffffffffffffffffffffffffffffffffffff1673ffffffffffffffffffffffffffffffffffffffff16815260200190815260200160002060006101000a81548160ff0219169083151502179055508173ffffffffffffffffffffffffffffffffffffffff168373ffffffffffffffffffffffffffffffffffffffff167f17307eab39ab6107e8899845ad3d59bd9653f200f220920489ca2b5937696c318360405161326691906137f5565b60405180910390a3505050565b61327e848484612af3565b61328a848484846133c4565b6132c9576040517f08c379a00000000000000000000000000000000000000000000000000000000081526004016132c090614ef3565b60405180910390fd5b50505050565b606060405180602001604052806000815250905090565b60606132f182612952565b60006132fb6132cf565b9050600081511161331b5760405180602001604052806000815250613346565b806133258461354b565b604051602001613336929190614a65565b6040516020818303038152906040525b915050919050565b60008073ffffffffffffffffffffffffffffffffffffffff166002600084815260200190815260200160002060009054906101000a900473ffffffffffffffffffffffffffffffffffffffff1673ffffffffffffffffffffffffffffffffffffffff1614159050919050565b505050565b505050565b60006133e58473ffffffffffffffffffffffffffffffffffffffff166136ab565b1561353e578373ffffffffffffffffffffffffffffffffffffffff1663150b7a0261340e61299d565b8786866040518563ffffffff1660e01b81526004016134309493929190614f68565b6020604051808303816000875af192505050801561346c57506040513d601f19601f820116820180604052508101906134699190614fc9565b60015b6134ee573d806000811461349c576040519150601f19603f3d011682016040523d82523d6000602084013e6134a1565b606091505b5060008151036134e6576040517f08c379a00000000000000000000000000000000000000000000000000000000081526004016134dd90614ef3565b60405180910390fd5b805181602001fd5b63150b7a0260e01b7bffffffffffffffffffffffffffffffffffffffffffffffffffffffff1916817bffffffffffffffffffffffffffffffffffffffffffffffffffffffff191614915050613543565b600190505b949350505050565b606060008203613592576040518060400160405280600181526020017f300000000000000000000000000000000000000000000000000000000000000081525090506136a6565b600082905060005b600082146135c45780806135ad90614229565b915050600a826135bd9190615025565b915061359a565b60008167ffffffffffffffff8111156135e0576135df613d26565b5b6040519080825280601f01601f1916602001820160405280156136125781602001600182028036833780820191505090505b5090505b6000851461369f5760018261362b919061488b565b9150600a8561363a9190615056565b603061364691906147eb565b60f81b81838151811061365c5761365b61416b565b5b60200101907effffffffffffffffffffffffffffffffffffffffffffffffffffffffffffff1916908160001a905350600a856136989190615025565b9450613616565b8093505050505b919050565b6000808273ffffffffffffffffffffffffffffffffffffffff163b119050919050565b604051806101000160405280600081526020016060815260200160608152602001600073ffffffffffffffffffffffffffffffffffffffff1681526020016060815260200160008152602001600015158152602001600073ffffffffffffffffffffffffffffffffffffffff1681525090565b6000604051905090565b600080fd5b600080fd5b60007fffffffff0000000000000000000000000000000000000000000000000000000082169050919050565b61378a81613755565b811461379557600080fd5b50565b6000813590506137a781613781565b92915050565b6000602082840312156137c3576137c261374b565b5b60006137d184828501613798565b91505092915050565b60008115159050919050565b6137ef816137da565b82525050565b600060208201905061380a60008301846137e6565b92915050565b600081519050919050565b600082825260208201905092915050565b6000819050602082019050919050565b6000819050919050565b61384f8161383c565b82525050565b600081519050919050565b600082825260208201905092915050565b60005b8381101561388f578082015181840152602081019050613874565b60008484015250505050565b6000601f19601f8301169050919050565b60006138b782613855565b6138c18185613860565b93506138d1818560208601613871565b6138da8161389b565b840191505092915050565b600073ffffffffffffffffffffffffffffffffffffffff82169050919050565b6000613910826138e5565b9050919050565b61392081613905565b82525050565b61392f816137da565b82525050565b60006101008301600083015161394e6000860182613846565b506020830151848203602086015261396682826138ac565b9150506040830151848203604086015261398082826138ac565b91505060608301516139956060860182613917565b50608083015184820360808601526139ad82826138ac565b91505060a08301516139c260a0860182613846565b5060c08301516139d560c0860182613926565b5060e08301516139e860e0860182613917565b508091505092915050565b60006139ff8383613935565b905092915050565b6000602082019050919050565b6000613a1f82613810565b613a29818561381b565b935083602082028501613a3b8561382c565b8060005b85811015613a775784840389528151613a5885826139f3565b9450613a6383613a07565b925060208a01995050600181019050613a3f565b50829750879550505050505092915050565b60006020820190508181036000830152613aa38184613a14565b905092915050565b600082825260208201905092915050565b6000613ac782613855565b613ad18185613aab565b9350613ae1818560208601613871565b613aea8161389b565b840191505092915050565b60006020820190508181036000830152613b0f8184613abc565b905092915050565b613b208161383c565b8114613b2b57600080fd5b50565b600081359050613b3d81613b17565b92915050565b600060208284031215613b5957613b5861374b565b5b6000613b6784828501613b2e565b91505092915050565b6000613b7b826138e5565b9050919050565b613b8b81613b70565b82525050565b6000602082019050613ba66000830184613b82565b92915050565b613bb581613b70565b8114613bc057600080fd5b50565b600081359050613bd281613bac565b92915050565b60008060408385031215613bef57613bee61374b565b5b6000613bfd85828601613bc3565b9250506020613c0e85828601613b2e565b9150509250929050565b600080600060608486031215613c3157613c3061374b565b5b6000613c3f86828701613bc3565b9350506020613c5086828701613bc3565b9250506040613c6186828701613b2e565b9150509250925092565b613c748161383c565b82525050565b613c8381613905565b82525050565b600061010082019050613c9f600083018b613c6b565b8181036020830152613cb1818a613abc565b90508181036040830152613cc58189613abc565b9050613cd46060830188613c7a565b8181036080830152613ce68187613abc565b9050613cf560a0830186613c6b565b613d0260c08301856137e6565b613d0f60e0830184613c7a565b9998505050505050505050565b600080fd5b600080fd5b7f4e487b7100000000000000000000000000000000000000000000000000000000600052604160045260246000fd5b613d5e8261389b565b810181811067ffffffffffffffff82111715613d7d57613d7c613d26565b5b80604052505050565b6000613d90613741565b9050613d9c8282613d55565b919050565b600067ffffffffffffffff821115613dbc57613dbb613d26565b5b613dc58261389b565b9050602081019050919050565b82818337600083830152505050565b6000613df4613def84613da1565b613d86565b905082815260208101848484011115613e1057613e0f613d21565b5b613e1b848285613dd2565b509392505050565b600082601f830112613e3857613e37613d1c565b5b8135613e48848260208601613de1565b91505092915050565b600080600060608486031215613e6a57613e6961374b565b5b600084013567ffffffffffffffff811115613e8857613e87613750565b5b613e9486828701613e23565b935050602084013567ffffffffffffffff811115613eb557613eb4613750565b5b613ec186828701613e23565b925050604084013567ffffffffffffffff811115613ee257613ee1613750565b5b613eee86828701613e23565b9150509250925092565b6000602082019050613f0d6000830184613c6b565b92915050565b6000602082019050613f286000830184613c7a565b92915050565b600060208284031215613f4457613f4361374b565b5b6000613f5284828501613bc3565b91505092915050565b60008060408385031215613f7257613f7161374b565b5b6000613f8085828601613b2e565b9250506020613f9185828601613b2e565b9150509250929050565b613fa4816137da565b8114613faf57600080fd5b50565b600081359050613fc181613f9b565b92915050565b60008060408385031215613fde57613fdd61374b565b5b6000613fec85828601613bc3565b9250506020613ffd85828601613fb2565b9150509250929050565b600067ffffffffffffffff82111561402257614021613d26565b5b61402b8261389b565b9050602081019050919050565b600061404b61404684614007565b613d86565b90508281526020810184848401111561406757614066613d21565b5b614072848285613dd2565b509392505050565b600082601f83011261408f5761408e613d1c565b5b813561409f848260208601614038565b91505092915050565b600080600080608085870312156140c2576140c161374b565b5b60006140d087828801613bc3565b94505060206140e187828801613bc3565b93505060406140f287828801613b2e565b925050606085013567ffffffffffffffff81111561411357614112613750565b5b61411f8782880161407a565b91505092959194509250565b600080604083850312156141425761414161374b565b5b600061415085828601613bc3565b925050602061416185828601613bc3565b9150509250929050565b7f4e487b7100000000000000000000000000000000000000000000000000000000600052603260045260246000fd5b7f4e487b7100000000000000000000000000000000000000000000000000000000600052602260045260246000fd5b600060028204905060018216806141e157607f821691505b6020821081036141f4576141f361419a565b5b50919050565b7f4e487b7100000000000000000000000000000000000000000000000000000000600052601160045260246000fd5b60006142348261383c565b91507fffffffffffffffffffffffffffffffffffffffffffffffffffffffffffffffff8203614266576142656141fa565b5b600182019050919050565b7f4552433732313a20617070726f76616c20746f2063757272656e74206f776e6560008201527f7200000000000000000000000000000000000000000000000000000000000000602082015250565b60006142cd602183613aab565b91506142d882614271565b604082019050919050565b600060208201905081810360008301526142fc816142c0565b9050919050565b7f4552433732313a20617070726f76652063616c6c6572206973206e6f7420746f60008201527f6b656e206f776e6572206e6f7220617070726f76656420666f7220616c6c0000602082015250565b600061435f603e83613aab565b915061436a82614303565b604082019050919050565b6000602082019050818103600083015261438e81614352565b9050919050565b7f4552433732313a2063616c6c6572206973206e6f7420746f6b656e206f776e6560008201527f72206e6f7220617070726f766564000000000000000000000000000000000000602082015250565b60006143f1602e83613aab565b91506143fc82614395565b604082019050919050565b60006020820190508181036000830152614420816143e4565b9050919050565b7f4f6e6c792063757272656e74206f776e65722063616e2063616e63656c206c6960008201527f7374696e67000000000000000000000000000000000000000000000000000000602082015250565b6000614483602583613aab565b915061448e82614427565b604082019050919050565b600060208201905081810360008301526144b281614476565b9050919050565b60008190508160005260206000209050919050565b600081546144db816141c9565b6144e58186613aab565b94506001821660008114614500576001811461451657614549565b60ff198316865281151560200286019350614549565b61451f856144b9565b60005b8381101561454157815481890152600182019150602081019050614522565b808801955050505b50505092915050565b60006040820190506145676000830185613b82565b818103602083015261457981846144ce565b90509392505050565b60006020601f8301049050919050565b600082821b905092915050565b6000600883026145cf7fffffffffffffffffffffffffffffffffffffffffffffffffffffffffffffffff82614592565b6145d98683614592565b95508019841693508086168417925050509392505050565b6000819050919050565b600061461661461161460c8461383c565b6145f1565b61383c565b9050919050565b6000819050919050565b614630836145fb565b61464461463c8261461d565b84845461459f565b825550505050565b600090565b61465961464c565b614664818484614627565b505050565b5b818110156146885761467d600082614651565b60018101905061466a565b5050565b601f8211156146cd5761469e816144b9565b6146a784614582565b810160208510156146b6578190505b6146ca6146c285614582565b830182614669565b50505b505050565b600082821c905092915050565b60006146f0600019846008026146d2565b1980831691505092915050565b600061470983836146df565b9150826002028217905092915050565b61472282613855565b67ffffffffffffffff81111561473b5761473a613d26565b5b61474582546141c9565b61475082828561468c565b600060209050601f8311600181146147835760008415614771578287015190505b61477b85826146fd565b8655506147e3565b601f198416614791866144b9565b60005b828110156147b957848901518255600182019150602085019450602081019050614794565b868310156147d657848901516147d2601f8916826146df565b8355505b6001600288020188555050505b505050505050565b60006147f68261383c565b91506148018361383c565b9250828201905080821115614819576148186141fa565b5b92915050565b7f506c65617365207061792074686520726571756972656420616d6f756e740000600082015250565b6000614855601e83613aab565b91506148608261481f565b602082019050919050565b6000602082019050818103600083015261488481614848565b9050919050565b60006148968261383c565b91506148a18361383c565b92508282039050818111156148b9576148b86141fa565b5b92915050565b7f4552433732313a20696e76616c696420746f6b656e2049440000000000000000600082015250565b60006148f5601883613aab565b9150614900826148bf565b602082019050919050565b60006020820190508181036000830152614924816148e8565b9050919050565b7f4552433732313a2061646472657373207a65726f206973206e6f74206120766160008201527f6c6964206f776e65720000000000000000000000000000000000000000000000602082015250565b6000614987602983613aab565b91506149928261492b565b604082019050919050565b600060208201905081810360008301526149b68161497a565b9050919050565b7f63616e6e6f74206c69737420736f6e677320796f7520646f206e6f74206f776e600082015250565b60006149f3602083613aab565b91506149fe826149bd565b602082019050919050565b60006020820190508181036000830152614a22816149e6565b9050919050565b600081905092915050565b6000614a3f82613855565b614a498185614a29565b9350614a59818560208601613871565b80840191505092915050565b6000614a718285614a34565b9150614a7d8284614a34565b91508190509392505050565b7f4f776e61626c653a206e6577206f776e657220697320746865207a65726f206160008201527f6464726573730000000000000000000000000000000000000000000000000000602082015250565b6000614ae5602683613aab565b9150614af082614a89565b604082019050919050565b60006020820190508181036000830152614b1481614ad8565b9050919050565b7f4552433732313a207472616e736665722066726f6d20696e636f72726563742060008201527f6f776e6572000000000000000000000000000000000000000000000000000000602082015250565b6000614b77602583613aab565b9150614b8282614b1b565b604082019050919050565b60006020820190508181036000830152614ba681614b6a565b9050919050565b7f4552433732313a207472616e7366657220746f20746865207a65726f2061646460008201527f7265737300000000000000000000000000000000000000000000000000000000602082015250565b6000614c09602483613aab565b9150614c1482614bad565b604082019050919050565b60006020820190508181036000830152614c3881614bfc565b9050919050565b7f4552433732313a206d696e7420746f20746865207a65726f2061646472657373600082015250565b6000614c75602083613aab565b9150614c8082614c3f565b602082019050919050565b60006020820190508181036000830152614ca481614c68565b9050919050565b7f4552433732313a20746f6b656e20616c7265616479206d696e74656400000000600082015250565b6000614ce1601c83613aab565b9150614cec82614cab565b602082019050919050565b60006020820190508181036000830152614d1081614cd4565b9050919050565b7f45524337323155524953746f726167653a2055524920736574206f66206e6f6e60008201527f6578697374656e7420746f6b656e000000000000000000000000000000000000602082015250565b6000614d73602e83613aab565b9150614d7e82614d17565b604082019050919050565b60006020820190508181036000830152614da281614d66565b9050919050565b7f4f776e61626c653a2063616c6c6572206973206e6f7420746865206f776e6572600082015250565b6000614ddf602083613aab565b9150614dea82614da9565b602082019050919050565b60006020820190508181036000830152614e0e81614dd2565b9050919050565b7f4552433732313a20617070726f766520746f2063616c6c657200000000000000600082015250565b6000614e4b601983613aab565b9150614e5682614e15565b602082019050919050565b60006020820190508181036000830152614e7a81614e3e565b9050919050565b7f4552433732313a207472616e7366657220746f206e6f6e20455243373231526560008201527f63656976657220696d706c656d656e7465720000000000000000000000000000602082015250565b6000614edd603283613aab565b9150614ee882614e81565b604082019050919050565b60006020820190508181036000830152614f0c81614ed0565b9050919050565b600081519050919050565b600082825260208201905092915050565b6000614f3a82614f13565b614f448185614f1e565b9350614f54818560208601613871565b614f5d8161389b565b840191505092915050565b6000608082019050614f7d6000830187613b82565b614f8a6020830186613b82565b614f976040830185613c6b565b8181036060830152614fa98184614f2f565b905095945050505050565b600081519050614fc381613781565b92915050565b600060208284031215614fdf57614fde61374b565b5b6000614fed84828501614fb4565b91505092915050565b7f4e487b7100000000000000000000000000000000000000000000000000000000600052601260045260246000fd5b60006150308261383c565b915061503b8361383c565b92508261504b5761504a614ff6565b5b828204905092915050565b60006150618261383c565b915061506c8361383c565b92508261507c5761507b614ff6565b5b82820690509291505056fea2646970667358221220ea196971c39095058cf7ff54e85030e117e08435cbf3fd7cf7efb660791d721b64736f6c63430008110033",
  "linkReferences": {},
  "deployedLinkReferences": {}
}