{
    "_format": "hh-sol-artifact-1",
    "contractName": "ProfileNFT",
    "sourceName": "contracts/ProfileNFT.sol",
    "abi": [
        {
            "inputs": [],
            "stateMutability": "nonpayable",
            "type": "constructor"
        },
        {
            "anonymous": false,
            "inputs": [
                {
                    "indexed": true,
                    "internalType": "address",
                    "name": "owner",
                    "type": "address"
                },
                {
                    "indexed": true,
                    "internalType": "address",
                    "name": "approved",
                    "type": "address"
                },
                {
                    "indexed": true,
                    "internalType": "uint256",
                    "name": "tokenId",
                    "type": "uint256"
                }
            ],
            "name": "Approval",
            "type": "event"
        },
        {
            "anonymous": false,
            "inputs": [
                {
                    "indexed": true,
                    "internalType": "address",
                    "name": "owner",
                    "type": "address"
                },
                {
                    "indexed": true,
                    "internalType": "address",
                    "name": "operator",
                    "type": "address"
                },
                {
                    "indexed": false,
                    "internalType": "bool",
                    "name": "approved",
                    "type": "bool"
                }
            ],
            "name": "ApprovalForAll",
            "type": "event"
        },
        {
            "anonymous": false,
            "inputs": [
                {
                    "indexed": true,
                    "internalType": "address",
                    "name": "from",
                    "type": "address"
                },
                {
                    "indexed": true,
                    "internalType": "address",
                    "name": "to",
                    "type": "address"
                },
                {
                    "indexed": true,
                    "internalType": "uint256",
                    "name": "tokenId",
                    "type": "uint256"
                }
            ],
            "name": "Transfer",
            "type": "event"
        },
        {
            "inputs": [
                {
                    "internalType": "address",
                    "name": "to",
                    "type": "address"
                },
                {
                    "internalType": "uint256",
                    "name": "tokenId",
                    "type": "uint256"
                }
            ],
            "name": "approve",
            "outputs": [],
            "stateMutability": "nonpayable",
            "type": "function"
        },
        {
            "inputs": [
                {
                    "internalType": "address",
                    "name": "owner",
                    "type": "address"
                }
            ],
            "name": "balanceOf",
            "outputs": [
                {
                    "internalType": "uint256",
                    "name": "",
                    "type": "uint256"
                }
            ],
            "stateMutability": "view",
            "type": "function"
        },
        {
            "inputs": [
                {
                    "internalType": "uint256",
                    "name": "_tokenId",
                    "type": "uint256"
                }
            ],
            "name": "burn",
            "outputs": [],
            "stateMutability": "nonpayable",
            "type": "function"
        },
        {
            "inputs": [
                {
                    "internalType": "address",
                    "name": "",
                    "type": "address"
                }
            ],
            "name": "creatorsProfile",
            "outputs": [
                {
                    "internalType": "address payable",
                    "name": "creatorAddress",
                    "type": "address"
                },
                {
                    "internalType": "string",
                    "name": "profileMessage",
                    "type": "string"
                },
                {
                    "internalType": "uint256",
                    "name": "tipsReceived",
                    "type": "uint256"
                },
                {
                    "internalType": "uint256",
                    "name": "profileToken",
                    "type": "uint256"
                },
                {
                    "internalType": "uint256",
                    "name": "numOfLikes",
                    "type": "uint256"
                }
            ],
            "stateMutability": "view",
            "type": "function"
        },
        {
            "inputs": [
                {
                    "internalType": "uint256",
                    "name": "tokenId",
                    "type": "uint256"
                }
            ],
            "name": "getApproved",
            "outputs": [
                {
                    "internalType": "address",
                    "name": "",
                    "type": "address"
                }
            ],
            "stateMutability": "view",
            "type": "function"
        },
        {
            "inputs": [
                {
                    "internalType": "address",
                    "name": "",
                    "type": "address"
                },
                {
                    "internalType": "address",
                    "name": "",
                    "type": "address"
                }
            ],
            "name": "hasLikeProfile",
            "outputs": [
                {
                    "internalType": "bool",
                    "name": "",
                    "type": "bool"
                }
            ],
            "stateMutability": "view",
            "type": "function"
        },
        {
            "inputs": [
                {
                    "internalType": "address",
                    "name": "owner",
                    "type": "address"
                },
                {
                    "internalType": "address",
                    "name": "operator",
                    "type": "address"
                }
            ],
            "name": "isApprovedForAll",
            "outputs": [
                {
                    "internalType": "bool",
                    "name": "",
                    "type": "bool"
                }
            ],
            "stateMutability": "view",
            "type": "function"
        },
        {
            "inputs": [
                {
                    "internalType": "string",
                    "name": "_tokenUri",
                    "type": "string"
                }
            ],
            "name": "mint",
            "outputs": [
                {
                    "internalType": "uint256",
                    "name": "",
                    "type": "uint256"
                }
            ],
            "stateMutability": "nonpayable",
            "type": "function"
        },
        {
            "inputs": [],
            "name": "name",
            "outputs": [
                {
                    "internalType": "string",
                    "name": "",
                    "type": "string"
                }
            ],
            "stateMutability": "view",
            "type": "function"
        },
        {
            "inputs": [
                {
                    "internalType": "address",
                    "name": "",
                    "type": "address"
                }
            ],
            "name": "nftProfileOwners",
            "outputs": [
                {
                    "internalType": "uint256",
                    "name": "",
                    "type": "uint256"
                }
            ],
            "stateMutability": "view",
            "type": "function"
        },
        {
            "inputs": [
                {
                    "internalType": "uint256",
                    "name": "",
                    "type": "uint256"
                }
            ],
            "name": "numberToCreator",
            "outputs": [
                {
                    "internalType": "address payable",
                    "name": "creatorAddress",
                    "type": "address"
                },
                {
                    "internalType": "string",
                    "name": "profileMessage",
                    "type": "string"
                },
                {
                    "internalType": "uint256",
                    "name": "tipsReceived",
                    "type": "uint256"
                },
                {
                    "internalType": "uint256",
                    "name": "profileToken",
                    "type": "uint256"
                },
                {
                    "internalType": "uint256",
                    "name": "numOfLikes",
                    "type": "uint256"
                }
            ],
            "stateMutability": "view",
            "type": "function"
        },
        {
            "inputs": [
                {
                    "internalType": "uint256",
                    "name": "tokenId",
                    "type": "uint256"
                }
            ],
            "name": "ownerOf",
            "outputs": [
                {
                    "internalType": "address",
                    "name": "",
                    "type": "address"
                }
            ],
            "stateMutability": "view",
            "type": "function"
        },
        {
            "inputs": [
                {
                    "internalType": "address",
                    "name": "from",
                    "type": "address"
                },
                {
                    "internalType": "address",
                    "name": "to",
                    "type": "address"
                },
                {
                    "internalType": "uint256",
                    "name": "tokenId",
                    "type": "uint256"
                }
            ],
            "name": "safeTransferFrom",
            "outputs": [],
            "stateMutability": "nonpayable",
            "type": "function"
        },
        {
            "inputs": [
                {
                    "internalType": "address",
                    "name": "from",
                    "type": "address"
                },
                {
                    "internalType": "address",
                    "name": "to",
                    "type": "address"
                },
                {
                    "internalType": "uint256",
                    "name": "tokenId",
                    "type": "uint256"
                },
                {
                    "internalType": "bytes",
                    "name": "data",
                    "type": "bytes"
                }
            ],
            "name": "safeTransferFrom",
            "outputs": [],
            "stateMutability": "nonpayable",
            "type": "function"
        },
        {
            "inputs": [
                {
                    "internalType": "address",
                    "name": "creatorAddress",
                    "type": "address"
                }
            ],
            "name": "sendLike",
            "outputs": [
                {
                    "internalType": "uint256",
                    "name": "",
                    "type": "uint256"
                }
            ],
            "stateMutability": "nonpayable",
            "type": "function"
        },
        {
            "inputs": [
                {
                    "internalType": "address",
                    "name": "operator",
                    "type": "address"
                },
                {
                    "internalType": "bool",
                    "name": "approved",
                    "type": "bool"
                }
            ],
            "name": "setApprovalForAll",
            "outputs": [],
            "stateMutability": "nonpayable",
            "type": "function"
        },
        {
            "inputs": [
                {
                    "internalType": "address",
                    "name": "creatorsPro",
                    "type": "address"
                },
                {
                    "internalType": "string",
                    "name": "message",
                    "type": "string"
                }
            ],
            "name": "setMessage",
            "outputs": [
                {
                    "internalType": "string",
                    "name": "",
                    "type": "string"
                }
            ],
            "stateMutability": "nonpayable",
            "type": "function"
        },
        {
            "inputs": [
                {
                    "internalType": "uint256",
                    "name": "tokenId",
                    "type": "uint256"
                }
            ],
            "name": "setProfile",
            "outputs": [
                {
                    "internalType": "uint256",
                    "name": "",
                    "type": "uint256"
                }
            ],
            "stateMutability": "nonpayable",
            "type": "function"
        },
        {
            "inputs": [
                {
                    "internalType": "bytes4",
                    "name": "interfaceId",
                    "type": "bytes4"
                }
            ],
            "name": "supportsInterface",
            "outputs": [
                {
                    "internalType": "bool",
                    "name": "",
                    "type": "bool"
                }
            ],
            "stateMutability": "view",
            "type": "function"
        },
        {
            "inputs": [],
            "name": "symbol",
            "outputs": [
                {
                    "internalType": "string",
                    "name": "",
                    "type": "string"
                }
            ],
            "stateMutability": "view",
            "type": "function"
        },
        {
            "inputs": [
                {
                    "internalType": "address",
                    "name": "creatorAddress",
                    "type": "address"
                }
            ],
            "name": "tipCreator",
            "outputs": [
                {
                    "internalType": "uint256",
                    "name": "",
                    "type": "uint256"
                }
            ],
            "stateMutability": "payable",
            "type": "function"
        },
        {
            "inputs": [],
            "name": "tokenCount",
            "outputs": [
                {
                    "internalType": "uint256",
                    "name": "",
                    "type": "uint256"
                }
            ],
            "stateMutability": "view",
            "type": "function"
        },
        {
            "inputs": [
                {
                    "internalType": "uint256",
                    "name": "tokenId",
                    "type": "uint256"
                }
            ],
            "name": "tokenURI",
            "outputs": [
                {
                    "internalType": "string",
                    "name": "",
                    "type": "string"
                }
            ],
            "stateMutability": "view",
            "type": "function"
        },
        {
            "inputs": [
                {
                    "internalType": "address",
                    "name": "from",
                    "type": "address"
                },
                {
                    "internalType": "address",
                    "name": "to",
                    "type": "address"
                },
                {
                    "internalType": "uint256",
                    "name": "tokenId",
                    "type": "uint256"
                }
            ],
            "name": "transferFrom",
            "outputs": [],
            "stateMutability": "nonpayable",
            "type": "function"
        }
    ],
    "bytecode": "0x60806040523480156200001157600080fd5b506040518060400160405280601181526020017f4465666942656174732050726f66696c650000000000000000000000000000008152506040518060400160405280600481526020017f444642500000000000000000000000000000000000000000000000000000000081525081600090816200008f919062000324565b508060019081620000a1919062000324565b5050506200040b565b600081519050919050565b7f4e487b7100000000000000000000000000000000000000000000000000000000600052604160045260246000fd5b7f4e487b7100000000000000000000000000000000000000000000000000000000600052602260045260246000fd5b600060028204905060018216806200012c57607f821691505b602082108103620001425762000141620000e4565b5b50919050565b60008190508160005260206000209050919050565b60006020601f8301049050919050565b600082821b905092915050565b600060088302620001ac7fffffffffffffffffffffffffffffffffffffffffffffffffffffffffffffffff826200016d565b620001b886836200016d565b95508019841693508086168417925050509392505050565b6000819050919050565b6000819050919050565b600062000205620001ff620001f984620001d0565b620001da565b620001d0565b9050919050565b6000819050919050565b6200022183620001e4565b6200023962000230826200020c565b8484546200017a565b825550505050565b600090565b6200025062000241565b6200025d81848462000216565b505050565b5b8181101562000285576200027960008262000246565b60018101905062000263565b5050565b601f821115620002d4576200029e8162000148565b620002a9846200015d565b81016020851015620002b9578190505b620002d1620002c8856200015d565b83018262000262565b50505b505050565b600082821c905092915050565b6000620002f960001984600802620002d9565b1980831691505092915050565b6000620003148383620002e6565b9150826002028217905092915050565b6200032f82620000aa565b67ffffffffffffffff8111156200034b576200034a620000b5565b5b62000357825462000113565b6200036482828562000289565b600060209050601f8311600181146200039c576000841562000387578287015190505b62000393858262000306565b86555062000403565b601f198416620003ac8662000148565b60005b82811015620003d657848901518255600182019150602085019450602081019050620003af565b86831015620003f65784890151620003f2601f891682620002e6565b8355505b6001600288020188555050505b505050505050565b613dfd806200041b6000396000f3fe60806040526004361061014b5760003560e01c806385d3cb37116100b6578063c87b56dd1161006f578063c87b56dd146104e7578063d85d3d2714610524578063e985e9c514610561578063e9aa460f1461059e578063ebb14c7f146105db578063f8b60fe3146106185761014b565b806385d3cb37146103c157806395d89b41146103fe5780639f181b5e14610429578063a22cb46514610454578063b5db04721461047d578063b88d4fde146104be5761014b565b806323b872dd1161010857806323b872dd1461029c57806342842e0e146102c557806342966c68146102ee5780636352211e1461031757806365c4e4aa1461035457806370a08231146103845761014b565b806301ffc9a71461015057806306fdde031461018d578063081812fc146101b8578063095ea7b3146101f55780630aef61a11461021e5780630c5d6ed01461025f575b600080fd5b34801561015c57600080fd5b506101776004803603810190610172919061279e565b610655565b60405161018491906127e6565b60405180910390f35b34801561019957600080fd5b506101a2610737565b6040516101af9190612891565b60405180910390f35b3480156101c457600080fd5b506101df60048036038101906101da91906128e9565b6107c9565b6040516101ec9190612957565b60405180910390f35b34801561020157600080fd5b5061021c6004803603810190610217919061299e565b61080f565b005b34801561022a57600080fd5b50610245600480360381019061024091906128e9565b610926565b604051610256959493929190612a0e565b60405180910390f35b34801561026b57600080fd5b5061028660048036038101906102819190612a68565b610a04565b6040516102939190612a95565b60405180910390f35b3480156102a857600080fd5b506102c360048036038101906102be9190612ab0565b610a1c565b005b3480156102d157600080fd5b506102ec60048036038101906102e79190612ab0565b610a7c565b005b3480156102fa57600080fd5b50610315600480360381019061031091906128e9565b610a9c565b005b34801561032357600080fd5b5061033e600480360381019061033991906128e9565b610b83565b60405161034b9190612957565b60405180910390f35b61036e60048036038101906103699190612a68565b610c34565b60405161037b9190612a95565b60405180910390f35b34801561039057600080fd5b506103ab60048036038101906103a69190612a68565b610d92565b6040516103b89190612a95565b60405180910390f35b3480156103cd57600080fd5b506103e860048036038101906103e391906128e9565b610e49565b6040516103f59190612a95565b60405180910390f35b34801561040a57600080fd5b50610413610f14565b6040516104209190612891565b60405180910390f35b34801561043557600080fd5b5061043e610fa6565b60405161044b9190612a95565b60405180910390f35b34801561046057600080fd5b5061047b60048036038101906104769190612b2f565b610fac565b005b34801561048957600080fd5b506104a4600480360381019061049f9190612a68565b610fc2565b6040516104b5959493929190612a0e565b60405180910390f35b3480156104ca57600080fd5b506104e560048036038101906104e09190612ca4565b6110a0565b005b3480156104f357600080fd5b5061050e600480360381019061050991906128e9565b611102565b60405161051b9190612891565b60405180910390f35b34801561053057600080fd5b5061054b60048036038101906105469190612dc8565b611214565b6040516105589190612a95565b60405180910390f35b34801561056d57600080fd5b5061058860048036038101906105839190612e11565b61144d565b60405161059591906127e6565b60405180910390f35b3480156105aa57600080fd5b506105c560048036038101906105c09190612e51565b6114e1565b6040516105d29190612891565b60405180910390f35b3480156105e757600080fd5b5061060260048036038101906105fd9190612a68565b61165b565b60405161060f9190612a95565b60405180910390f35b34801561062457600080fd5b5061063f600480360381019061063a9190612e11565b611894565b60405161064c91906127e6565b60405180910390f35b60007f80ac58cd000000000000000000000000000000000000000000000000000000007bffffffffffffffffffffffffffffffffffffffffffffffffffffffff1916827bffffffffffffffffffffffffffffffffffffffffffffffffffffffff1916148061072057507f5b5e139f000000000000000000000000000000000000000000000000000000007bffffffffffffffffffffffffffffffffffffffffffffffffffffffff1916827bffffffffffffffffffffffffffffffffffffffffffffffffffffffff1916145b80610730575061072f826118c3565b5b9050919050565b60606000805461074690612edc565b80601f016020809104026020016040519081016040528092919081815260200182805461077290612edc565b80156107bf5780601f10610794576101008083540402835291602001916107bf565b820191906000526020600020905b8154815290600101906020018083116107a257829003601f168201915b5050505050905090565b60006107d48261192d565b6004600083815260200190815260200160002060009054906101000a900473ffffffffffffffffffffffffffffffffffffffff169050919050565b600061081a82610b83565b90508073ffffffffffffffffffffffffffffffffffffffff168373ffffffffffffffffffffffffffffffffffffffff160361088a576040517f08c379a000000000000000000000000000000000000000000000000000000000815260040161088190612f7f565b60405180910390fd5b8073ffffffffffffffffffffffffffffffffffffffff166108a9611978565b73ffffffffffffffffffffffffffffffffffffffff1614806108d857506108d7816108d2611978565b61144d565b5b610917576040517f08c379a000000000000000000000000000000000000000000000000000000000815260040161090e90613011565b60405180910390fd5b6109218383611980565b505050565b600a6020528060005260406000206000915090508060000160009054906101000a900473ffffffffffffffffffffffffffffffffffffffff169080600101805461096f90612edc565b80601f016020809104026020016040519081016040528092919081815260200182805461099b90612edc565b80156109e85780601f106109bd576101008083540402835291602001916109e8565b820191906000526020600020905b8154815290600101906020018083116109cb57829003601f168201915b5050505050908060020154908060030154908060040154905085565b60096020528060005260406000206000915090505481565b610a2d610a27611978565b82611a39565b610a6c576040517f08c379a0000000000000000000000000000000000000000000000000000000008152600401610a63906130a3565b60405180910390fd5b610a77838383611ace565b505050565b610a97838383604051806020016040528060008152506110a0565b505050565b610aa581610b83565b73ffffffffffffffffffffffffffffffffffffffff163373ffffffffffffffffffffffffffffffffffffffff1614610b12576040517f08c379a0000000000000000000000000000000000000000000000000000000008152600401610b099061310f565b60405180910390fd5b600a6000828152602001908152602001600020600080820160006101000a81549073ffffffffffffffffffffffffffffffffffffffff0219169055600182016000610b5d91906126d5565b6002820160009055600382016000905560048201600090555050610b8081611d34565b50565b6000806002600084815260200190815260200160002060009054906101000a900473ffffffffffffffffffffffffffffffffffffffff169050600073ffffffffffffffffffffffffffffffffffffffff168173ffffffffffffffffffffffffffffffffffffffff1603610c2b576040517f08c379a0000000000000000000000000000000000000000000000000000000008152600401610c229061317b565b60405180910390fd5b80915050919050565b6000803411610c78576040517f08c379a0000000000000000000000000000000000000000000000000000000008152600401610c6f906131e7565b60405180910390fd5b8173ffffffffffffffffffffffffffffffffffffffff163373ffffffffffffffffffffffffffffffffffffffff1603610ce6576040517f08c379a0000000000000000000000000000000000000000000000000000000008152600401610cdd90613253565b60405180910390fd5b6000600b60008473ffffffffffffffffffffffffffffffffffffffff1673ffffffffffffffffffffffffffffffffffffffff16815260200190815260200160002090508273ffffffffffffffffffffffffffffffffffffffff166108fc349081150290604051600060405180830381858888f19350505050158015610d6f573d6000803e3d6000fd5b5034816002016000828254610d8491906132a2565b925050819055915050919050565b60008073ffffffffffffffffffffffffffffffffffffffff168273ffffffffffffffffffffffffffffffffffffffff1603610e02576040517f08c379a0000000000000000000000000000000000000000000000000000000008152600401610df990613348565b60405180910390fd5b600360008373ffffffffffffffffffffffffffffffffffffffff1673ffffffffffffffffffffffffffffffffffffffff168152602001908152602001600020549050919050565b6000610e5482610b83565b73ffffffffffffffffffffffffffffffffffffffff163373ffffffffffffffffffffffffffffffffffffffff1614610ec1576040517f08c379a0000000000000000000000000000000000000000000000000000000008152600401610eb8906133da565b60405180910390fd5b6000600b60003373ffffffffffffffffffffffffffffffffffffffff1673ffffffffffffffffffffffffffffffffffffffff16815260200190815260200160002090508281600301819055915050919050565b606060018054610f2390612edc565b80601f0160208091040260200160405190810160405280929190818152602001828054610f4f90612edc565b8015610f9c5780601f10610f7157610100808354040283529160200191610f9c565b820191906000526020600020905b815481529060010190602001808311610f7f57829003601f168201915b5050505050905090565b60085481565b610fbe610fb7611978565b8383611d87565b5050565b600b6020528060005260406000206000915090508060000160009054906101000a900473ffffffffffffffffffffffffffffffffffffffff169080600101805461100b90612edc565b80601f016020809104026020016040519081016040528092919081815260200182805461103790612edc565b80156110845780601f1061105957610100808354040283529160200191611084565b820191906000526020600020905b81548152906001019060200180831161106757829003601f168201915b5050505050908060020154908060030154908060040154905085565b6110b16110ab611978565b83611a39565b6110f0576040517f08c379a00000000000000000000000000000000000000000000000000000000081526004016110e7906130a3565b60405180910390fd5b6110fc84848484611ef3565b50505050565b606061110d8261192d565b600060066000848152602001908152602001600020805461112d90612edc565b80601f016020809104026020016040519081016040528092919081815260200182805461115990612edc565b80156111a65780601f1061117b576101008083540402835291602001916111a6565b820191906000526020600020905b81548152906001019060200180831161118957829003601f168201915b5050505050905060006111b7611f4f565b905060008151036111cc57819250505061120f565b6000825111156112015780826040516020016111e9929190613436565b6040516020818303038152906040529250505061120f565b61120a84611f66565b925050505b919050565b60006112206007611fce565b600860008154809291906112339061345a565b919050555060006112446007611fe4565b90506112503382611ff2565b6040518060a001604052803373ffffffffffffffffffffffffffffffffffffffff168152602001604051806020016040528060008152508152602001600081526020018281526020016000815250600a600083815260200190815260200160002060008201518160000160006101000a81548173ffffffffffffffffffffffffffffffffffffffff021916908373ffffffffffffffffffffffffffffffffffffffff160217905550602082015181600101908161130d919061364e565b5060408201518160020155606082015181600301556080820151816004015590505061133981846121cb565b6040518060a001604052803373ffffffffffffffffffffffffffffffffffffffff168152602001604051806020016040528060008152508152602001600081526020018281526020016000815250600b60003373ffffffffffffffffffffffffffffffffffffffff1673ffffffffffffffffffffffffffffffffffffffff16815260200190815260200160002060008201518160000160006101000a81548173ffffffffffffffffffffffffffffffffffffffff021916908373ffffffffffffffffffffffffffffffffffffffff1602179055506020820151816001019081611422919061364e565b5060408201518160020155606082015181600301556080820151816004015590505080915050919050565b6000600560008473ffffffffffffffffffffffffffffffffffffffff1673ffffffffffffffffffffffffffffffffffffffff16815260200190815260200160002060008373ffffffffffffffffffffffffffffffffffffffff1673ffffffffffffffffffffffffffffffffffffffff16815260200190815260200160002060009054906101000a900460ff16905092915050565b60606000600b60008573ffffffffffffffffffffffffffffffffffffffff1673ffffffffffffffffffffffffffffffffffffffff16815260200190815260200160002090508060000160009054906101000a900473ffffffffffffffffffffffffffffffffffffffff1673ffffffffffffffffffffffffffffffffffffffff163373ffffffffffffffffffffffffffffffffffffffff16146115b8576040517f08c379a00000000000000000000000000000000000000000000000000000000081526004016115af9061376c565b60405180910390fd5b828160010190816115c9919061364e565b80546115d490612edc565b80601f016020809104026020016040519081016040528092919081815260200182805461160090612edc565b801561164d5780601f106116225761010080835404028352916020019161164d565b820191906000526020600020905b81548152906001019060200180831161163057829003601f168201915b505050505091505092915050565b60008173ffffffffffffffffffffffffffffffffffffffff163373ffffffffffffffffffffffffffffffffffffffff16036116cb576040517f08c379a00000000000000000000000000000000000000000000000000000000081526004016116c2906137d8565b60405180910390fd5b60001515600c60003373ffffffffffffffffffffffffffffffffffffffff1673ffffffffffffffffffffffffffffffffffffffff16815260200190815260200160002060008473ffffffffffffffffffffffffffffffffffffffff1673ffffffffffffffffffffffffffffffffffffffff16815260200190815260200160002060009054906101000a900460ff1615151461179b576040517f08c379a000000000000000000000000000000000000000000000000000000000815260040161179290613844565b60405180910390fd5b6001600c60003373ffffffffffffffffffffffffffffffffffffffff1673ffffffffffffffffffffffffffffffffffffffff16815260200190815260200160002060008473ffffffffffffffffffffffffffffffffffffffff1673ffffffffffffffffffffffffffffffffffffffff16815260200190815260200160002060006101000a81548160ff0219169083151502179055506000600b60008473ffffffffffffffffffffffffffffffffffffffff1673ffffffffffffffffffffffffffffffffffffffff16815260200190815260200160002090508060040160008154809291906118889061345a565b91905055915050919050565b600c6020528160005260406000206020528060005260406000206000915091509054906101000a900460ff1681565b60007f01ffc9a7000000000000000000000000000000000000000000000000000000007bffffffffffffffffffffffffffffffffffffffffffffffffffffffff1916827bffffffffffffffffffffffffffffffffffffffffffffffffffffffff1916149050919050565b61193681612238565b611975576040517f08c379a000000000000000000000000000000000000000000000000000000000815260040161196c9061317b565b60405180910390fd5b50565b600033905090565b816004600083815260200190815260200160002060006101000a81548173ffffffffffffffffffffffffffffffffffffffff021916908373ffffffffffffffffffffffffffffffffffffffff160217905550808273ffffffffffffffffffffffffffffffffffffffff166119f383610b83565b73ffffffffffffffffffffffffffffffffffffffff167f8c5be1e5ebec7d5bd14f71427d1e84f3dd0314c0f7b2291e5b200ac8c7c3b92560405160405180910390a45050565b600080611a4583610b83565b90508073ffffffffffffffffffffffffffffffffffffffff168473ffffffffffffffffffffffffffffffffffffffff161480611a875750611a86818561144d565b5b80611ac557508373ffffffffffffffffffffffffffffffffffffffff16611aad846107c9565b73ffffffffffffffffffffffffffffffffffffffff16145b91505092915050565b8273ffffffffffffffffffffffffffffffffffffffff16611aee82610b83565b73ffffffffffffffffffffffffffffffffffffffff1614611b44576040517f08c379a0000000000000000000000000000000000000000000000000000000008152600401611b3b906138d6565b60405180910390fd5b600073ffffffffffffffffffffffffffffffffffffffff168273ffffffffffffffffffffffffffffffffffffffff1603611bb3576040517f08c379a0000000000000000000000000000000000000000000000000000000008152600401611baa90613968565b60405180910390fd5b611bbe8383836122a4565b611bc9600082611980565b6001600360008573ffffffffffffffffffffffffffffffffffffffff1673ffffffffffffffffffffffffffffffffffffffff1681526020019081526020016000206000828254611c199190613988565b925050819055506001600360008473ffffffffffffffffffffffffffffffffffffffff1673ffffffffffffffffffffffffffffffffffffffff1681526020019081526020016000206000828254611c7091906132a2565b92505081905550816002600083815260200190815260200160002060006101000a81548173ffffffffffffffffffffffffffffffffffffffff021916908373ffffffffffffffffffffffffffffffffffffffff160217905550808273ffffffffffffffffffffffffffffffffffffffff168473ffffffffffffffffffffffffffffffffffffffff167fddf252ad1be2c89b69c2b068fc378daa952ba7f163c4a11628f55a4df523b3ef60405160405180910390a4611d2f8383836122a9565b505050565b611d3d816122ae565b6000600660008381526020019081526020016000208054611d5d90612edc565b905014611d8457600660008281526020019081526020016000206000611d8391906126d5565b5b50565b8173ffffffffffffffffffffffffffffffffffffffff168373ffffffffffffffffffffffffffffffffffffffff1603611df5576040517f08c379a0000000000000000000000000000000000000000000000000000000008152600401611dec90613a08565b60405180910390fd5b80600560008573ffffffffffffffffffffffffffffffffffffffff1673ffffffffffffffffffffffffffffffffffffffff16815260200190815260200160002060008473ffffffffffffffffffffffffffffffffffffffff1673ffffffffffffffffffffffffffffffffffffffff16815260200190815260200160002060006101000a81548160ff0219169083151502179055508173ffffffffffffffffffffffffffffffffffffffff168373ffffffffffffffffffffffffffffffffffffffff167f17307eab39ab6107e8899845ad3d59bd9653f200f220920489ca2b5937696c3183604051611ee691906127e6565b60405180910390a3505050565b611efe848484611ace565b611f0a848484846123cb565b611f49576040517f08c379a0000000000000000000000000000000000000000000000000000000008152600401611f4090613a9a565b60405180910390fd5b50505050565b606060405180602001604052806000815250905090565b6060611f718261192d565b6000611f7b611f4f565b90506000815111611f9b5760405180602001604052806000815250611fc6565b80611fa584612552565b604051602001611fb6929190613436565b6040516020818303038152906040525b915050919050565b6001816000016000828254019250508190555050565b600081600001549050919050565b600073ffffffffffffffffffffffffffffffffffffffff168273ffffffffffffffffffffffffffffffffffffffff1603612061576040517f08c379a000000000000000000000000000000000000000000000000000000000815260040161205890613b06565b60405180910390fd5b61206a81612238565b156120aa576040517f08c379a00000000000000000000000000000000000000000000000000000000081526004016120a190613b72565b60405180910390fd5b6120b6600083836122a4565b6001600360008473ffffffffffffffffffffffffffffffffffffffff1673ffffffffffffffffffffffffffffffffffffffff168152602001908152602001600020600082825461210691906132a2565b92505081905550816002600083815260200190815260200160002060006101000a81548173ffffffffffffffffffffffffffffffffffffffff021916908373ffffffffffffffffffffffffffffffffffffffff160217905550808273ffffffffffffffffffffffffffffffffffffffff16600073ffffffffffffffffffffffffffffffffffffffff167fddf252ad1be2c89b69c2b068fc378daa952ba7f163c4a11628f55a4df523b3ef60405160405180910390a46121c7600083836122a9565b5050565b6121d482612238565b612213576040517f08c379a000000000000000000000000000000000000000000000000000000000815260040161220a90613c04565b60405180910390fd5b80600660008481526020019081526020016000209081612233919061364e565b505050565b60008073ffffffffffffffffffffffffffffffffffffffff166002600084815260200190815260200160002060009054906101000a900473ffffffffffffffffffffffffffffffffffffffff1673ffffffffffffffffffffffffffffffffffffffff1614159050919050565b505050565b505050565b60006122b982610b83565b90506122c7816000846122a4565b6122d2600083611980565b6001600360008373ffffffffffffffffffffffffffffffffffffffff1673ffffffffffffffffffffffffffffffffffffffff16815260200190815260200160002060008282546123229190613988565b925050819055506002600083815260200190815260200160002060006101000a81549073ffffffffffffffffffffffffffffffffffffffff021916905581600073ffffffffffffffffffffffffffffffffffffffff168273ffffffffffffffffffffffffffffffffffffffff167fddf252ad1be2c89b69c2b068fc378daa952ba7f163c4a11628f55a4df523b3ef60405160405180910390a46123c7816000846122a9565b5050565b60006123ec8473ffffffffffffffffffffffffffffffffffffffff166126b2565b15612545578373ffffffffffffffffffffffffffffffffffffffff1663150b7a02612415611978565b8786866040518563ffffffff1660e01b81526004016124379493929190613c79565b6020604051808303816000875af192505050801561247357506040513d601f19601f820116820180604052508101906124709190613cda565b60015b6124f5573d80600081146124a3576040519150601f19603f3d011682016040523d82523d6000602084013e6124a8565b606091505b5060008151036124ed576040517f08c379a00000000000000000000000000000000000000000000000000000000081526004016124e490613a9a565b60405180910390fd5b805181602001fd5b63150b7a0260e01b7bffffffffffffffffffffffffffffffffffffffffffffffffffffffff1916817bffffffffffffffffffffffffffffffffffffffffffffffffffffffff19161491505061254a565b600190505b949350505050565b606060008203612599576040518060400160405280600181526020017f300000000000000000000000000000000000000000000000000000000000000081525090506126ad565b600082905060005b600082146125cb5780806125b49061345a565b915050600a826125c49190613d36565b91506125a1565b60008167ffffffffffffffff8111156125e7576125e6612b79565b5b6040519080825280601f01601f1916602001820160405280156126195781602001600182028036833780820191505090505b5090505b600085146126a6576001826126329190613988565b9150600a856126419190613d67565b603061264d91906132a2565b60f81b81838151811061266357612662613d98565b5b60200101907effffffffffffffffffffffffffffffffffffffffffffffffffffffffffffff1916908160001a905350600a8561269f9190613d36565b945061261d565b8093505050505b919050565b6000808273ffffffffffffffffffffffffffffffffffffffff163b119050919050565b5080546126e190612edc565b6000825580601f106126f35750612712565b601f0160209004906000526020600020908101906127119190612715565b5b50565b5b8082111561272e576000816000905550600101612716565b5090565b6000604051905090565b600080fd5b600080fd5b60007fffffffff0000000000000000000000000000000000000000000000000000000082169050919050565b61277b81612746565b811461278657600080fd5b50565b60008135905061279881612772565b92915050565b6000602082840312156127b4576127b361273c565b5b60006127c284828501612789565b91505092915050565b60008115159050919050565b6127e0816127cb565b82525050565b60006020820190506127fb60008301846127d7565b92915050565b600081519050919050565b600082825260208201905092915050565b60005b8381101561283b578082015181840152602081019050612820565b60008484015250505050565b6000601f19601f8301169050919050565b600061286382612801565b61286d818561280c565b935061287d81856020860161281d565b61288681612847565b840191505092915050565b600060208201905081810360008301526128ab8184612858565b905092915050565b6000819050919050565b6128c6816128b3565b81146128d157600080fd5b50565b6000813590506128e3816128bd565b92915050565b6000602082840312156128ff576128fe61273c565b5b600061290d848285016128d4565b91505092915050565b600073ffffffffffffffffffffffffffffffffffffffff82169050919050565b600061294182612916565b9050919050565b61295181612936565b82525050565b600060208201905061296c6000830184612948565b92915050565b61297b81612936565b811461298657600080fd5b50565b60008135905061299881612972565b92915050565b600080604083850312156129b5576129b461273c565b5b60006129c385828601612989565b92505060206129d4858286016128d4565b9150509250929050565b60006129e982612916565b9050919050565b6129f9816129de565b82525050565b612a08816128b3565b82525050565b600060a082019050612a2360008301886129f0565b8181036020830152612a358187612858565b9050612a4460408301866129ff565b612a5160608301856129ff565b612a5e60808301846129ff565b9695505050505050565b600060208284031215612a7e57612a7d61273c565b5b6000612a8c84828501612989565b91505092915050565b6000602082019050612aaa60008301846129ff565b92915050565b600080600060608486031215612ac957612ac861273c565b5b6000612ad786828701612989565b9350506020612ae886828701612989565b9250506040612af9868287016128d4565b9150509250925092565b612b0c816127cb565b8114612b1757600080fd5b50565b600081359050612b2981612b03565b92915050565b60008060408385031215612b4657612b4561273c565b5b6000612b5485828601612989565b9250506020612b6585828601612b1a565b9150509250929050565b600080fd5b600080fd5b7f4e487b7100000000000000000000000000000000000000000000000000000000600052604160045260246000fd5b612bb182612847565b810181811067ffffffffffffffff82111715612bd057612bcf612b79565b5b80604052505050565b6000612be3612732565b9050612bef8282612ba8565b919050565b600067ffffffffffffffff821115612c0f57612c0e612b79565b5b612c1882612847565b9050602081019050919050565b82818337600083830152505050565b6000612c47612c4284612bf4565b612bd9565b905082815260208101848484011115612c6357612c62612b74565b5b612c6e848285612c25565b509392505050565b600082601f830112612c8b57612c8a612b6f565b5b8135612c9b848260208601612c34565b91505092915050565b60008060008060808587031215612cbe57612cbd61273c565b5b6000612ccc87828801612989565b9450506020612cdd87828801612989565b9350506040612cee878288016128d4565b925050606085013567ffffffffffffffff811115612d0f57612d0e612741565b5b612d1b87828801612c76565b91505092959194509250565b600067ffffffffffffffff821115612d4257612d41612b79565b5b612d4b82612847565b9050602081019050919050565b6000612d6b612d6684612d27565b612bd9565b905082815260208101848484011115612d8757612d86612b74565b5b612d92848285612c25565b509392505050565b600082601f830112612daf57612dae612b6f565b5b8135612dbf848260208601612d58565b91505092915050565b600060208284031215612dde57612ddd61273c565b5b600082013567ffffffffffffffff811115612dfc57612dfb612741565b5b612e0884828501612d9a565b91505092915050565b60008060408385031215612e2857612e2761273c565b5b6000612e3685828601612989565b9250506020612e4785828601612989565b9150509250929050565b60008060408385031215612e6857612e6761273c565b5b6000612e7685828601612989565b925050602083013567ffffffffffffffff811115612e9757612e96612741565b5b612ea385828601612d9a565b9150509250929050565b7f4e487b7100000000000000000000000000000000000000000000000000000000600052602260045260246000fd5b60006002820490506001821680612ef457607f821691505b602082108103612f0757612f06612ead565b5b50919050565b7f4552433732313a20617070726f76616c20746f2063757272656e74206f776e6560008201527f7200000000000000000000000000000000000000000000000000000000000000602082015250565b6000612f6960218361280c565b9150612f7482612f0d565b604082019050919050565b60006020820190508181036000830152612f9881612f5c565b9050919050565b7f4552433732313a20617070726f76652063616c6c6572206973206e6f7420746f60008201527f6b656e206f776e6572206e6f7220617070726f76656420666f7220616c6c0000602082015250565b6000612ffb603e8361280c565b915061300682612f9f565b604082019050919050565b6000602082019050818103600083015261302a81612fee565b9050919050565b7f4552433732313a2063616c6c6572206973206e6f7420746f6b656e206f776e6560008201527f72206e6f7220617070726f766564000000000000000000000000000000000000602082015250565b600061308d602e8361280c565b915061309882613031565b604082019050919050565b600060208201905081810360008301526130bc81613080565b9050919050565b7f6d757374206265206f776e657220746f206275726e0000000000000000000000600082015250565b60006130f960158361280c565b9150613104826130c3565b602082019050919050565b60006020820190508181036000830152613128816130ec565b9050919050565b7f4552433732313a20696e76616c696420746f6b656e2049440000000000000000600082015250565b600061316560188361280c565b91506131708261312f565b602082019050919050565b6000602082019050818103600083015261319481613158565b9050919050565b7f63616e6e6f742074697020300000000000000000000000000000000000000000600082015250565b60006131d1600c8361280c565b91506131dc8261319b565b602082019050919050565b60006020820190508181036000830152613200816131c4565b9050919050565b7f63616e6e6f742074697020796f757273656c6600000000000000000000000000600082015250565b600061323d60138361280c565b915061324882613207565b602082019050919050565b6000602082019050818103600083015261326c81613230565b9050919050565b7f4e487b7100000000000000000000000000000000000000000000000000000000600052601160045260246000fd5b60006132ad826128b3565b91506132b8836128b3565b92508282019050808211156132d0576132cf613273565b5b92915050565b7f4552433732313a2061646472657373207a65726f206973206e6f74206120766160008201527f6c6964206f776e65720000000000000000000000000000000000000000000000602082015250565b600061333260298361280c565b915061333d826132d6565b604082019050919050565b6000602082019050818103600083015261336181613325565b9050919050565b7f6f776e65722063616e206f6e6c79207365742070726f66696c6520746865792060008201527f6f776e0000000000000000000000000000000000000000000000000000000000602082015250565b60006133c460238361280c565b91506133cf82613368565b604082019050919050565b600060208201905081810360008301526133f3816133b7565b9050919050565b600081905092915050565b600061341082612801565b61341a81856133fa565b935061342a81856020860161281d565b80840191505092915050565b60006134428285613405565b915061344e8284613405565b91508190509392505050565b6000613465826128b3565b91507fffffffffffffffffffffffffffffffffffffffffffffffffffffffffffffffff820361349757613496613273565b5b600182019050919050565b60008190508160005260206000209050919050565b60006020601f8301049050919050565b600082821b905092915050565b6000600883026135047fffffffffffffffffffffffffffffffffffffffffffffffffffffffffffffffff826134c7565b61350e86836134c7565b95508019841693508086168417925050509392505050565b6000819050919050565b600061354b613546613541846128b3565b613526565b6128b3565b9050919050565b6000819050919050565b61356583613530565b61357961357182613552565b8484546134d4565b825550505050565b600090565b61358e613581565b61359981848461355c565b505050565b5b818110156135bd576135b2600082613586565b60018101905061359f565b5050565b601f821115613602576135d3816134a2565b6135dc846134b7565b810160208510156135eb578190505b6135ff6135f7856134b7565b83018261359e565b50505b505050565b600082821c905092915050565b600061362560001984600802613607565b1980831691505092915050565b600061363e8383613614565b9150826002028217905092915050565b61365782612801565b67ffffffffffffffff8111156136705761366f612b79565b5b61367a8254612edc565b6136858282856135c1565b600060209050601f8311600181146136b857600084156136a6578287015190505b6136b08582613632565b865550613718565b601f1984166136c6866134a2565b60005b828110156136ee578489015182556001820191506020850194506020810190506136c9565b8683101561370b5784890151613707601f891682613614565b8355505b6001600288020188555050505b505050505050565b7f63616e6e6f742073657420736f6d656f6e6520656c736573206d657373616765600082015250565b600061375660208361280c565b915061376182613720565b602082019050919050565b6000602082019050818103600083015261378581613749565b9050919050565b7f63616e6e6f74206c696b6520796f7572206f776e2070726f66696c6500000000600082015250565b60006137c2601c8361280c565b91506137cd8261378c565b602082019050919050565b600060208201905081810360008301526137f1816137b5565b9050919050565b7f616c7265616479206c696b656420617274697374000000000000000000000000600082015250565b600061382e60148361280c565b9150613839826137f8565b602082019050919050565b6000602082019050818103600083015261385d81613821565b9050919050565b7f4552433732313a207472616e736665722066726f6d20696e636f72726563742060008201527f6f776e6572000000000000000000000000000000000000000000000000000000602082015250565b60006138c060258361280c565b91506138cb82613864565b604082019050919050565b600060208201905081810360008301526138ef816138b3565b9050919050565b7f4552433732313a207472616e7366657220746f20746865207a65726f2061646460008201527f7265737300000000000000000000000000000000000000000000000000000000602082015250565b600061395260248361280c565b915061395d826138f6565b604082019050919050565b6000602082019050818103600083015261398181613945565b9050919050565b6000613993826128b3565b915061399e836128b3565b92508282039050818111156139b6576139b5613273565b5b92915050565b7f4552433732313a20617070726f766520746f2063616c6c657200000000000000600082015250565b60006139f260198361280c565b91506139fd826139bc565b602082019050919050565b60006020820190508181036000830152613a21816139e5565b9050919050565b7f4552433732313a207472616e7366657220746f206e6f6e20455243373231526560008201527f63656976657220696d706c656d656e7465720000000000000000000000000000602082015250565b6000613a8460328361280c565b9150613a8f82613a28565b604082019050919050565b60006020820190508181036000830152613ab381613a77565b9050919050565b7f4552433732313a206d696e7420746f20746865207a65726f2061646472657373600082015250565b6000613af060208361280c565b9150613afb82613aba565b602082019050919050565b60006020820190508181036000830152613b1f81613ae3565b9050919050565b7f4552433732313a20746f6b656e20616c7265616479206d696e74656400000000600082015250565b6000613b5c601c8361280c565b9150613b6782613b26565b602082019050919050565b60006020820190508181036000830152613b8b81613b4f565b9050919050565b7f45524337323155524953746f726167653a2055524920736574206f66206e6f6e60008201527f6578697374656e7420746f6b656e000000000000000000000000000000000000602082015250565b6000613bee602e8361280c565b9150613bf982613b92565b604082019050919050565b60006020820190508181036000830152613c1d81613be1565b9050919050565b600081519050919050565b600082825260208201905092915050565b6000613c4b82613c24565b613c558185613c2f565b9350613c6581856020860161281d565b613c6e81612847565b840191505092915050565b6000608082019050613c8e6000830187612948565b613c9b6020830186612948565b613ca860408301856129ff565b8181036060830152613cba8184613c40565b905095945050505050565b600081519050613cd481612772565b92915050565b600060208284031215613cf057613cef61273c565b5b6000613cfe84828501613cc5565b91505092915050565b7f4e487b7100000000000000000000000000000000000000000000000000000000600052601260045260246000fd5b6000613d41826128b3565b9150613d4c836128b3565b925082613d5c57613d5b613d07565b5b828204905092915050565b6000613d72826128b3565b9150613d7d836128b3565b925082613d8d57613d8c613d07565b5b828206905092915050565b7f4e487b7100000000000000000000000000000000000000000000000000000000600052603260045260246000fdfea2646970667358221220a76934202bbdb45f0d8243992420a1356026d283e257431e5b7b24d81f1d4aec64736f6c63430008110033",
    "linkReferences": {},
    "deployedLinkReferences": {}
}