{
  "_format": "hh-sol-artifact-1",
  "contractName": "ProfileNFT",
  "sourceName": "contracts/ProfileNFT.sol",
  "abi": [
    {
      "inputs": [],
      "stateMutability": "nonpayable",
      "type": "constructor"
    },
    {
      "anonymous": false,
      "inputs": [
        {
          "indexed": true,
          "internalType": "address",
          "name": "owner",
          "type": "address"
        },
        {
          "indexed": true,
          "internalType": "address",
          "name": "approved",
          "type": "address"
        },
        {
          "indexed": true,
          "internalType": "uint256",
          "name": "tokenId",
          "type": "uint256"
        }
      ],
      "name": "Approval",
      "type": "event"
    },
    {
      "anonymous": false,
      "inputs": [
        {
          "indexed": true,
          "internalType": "address",
          "name": "owner",
          "type": "address"
        },
        {
          "indexed": true,
          "internalType": "address",
          "name": "operator",
          "type": "address"
        },
        {
          "indexed": false,
          "internalType": "bool",
          "name": "approved",
          "type": "bool"
        }
      ],
      "name": "ApprovalForAll",
      "type": "event"
    },
    {
      "anonymous": false,
      "inputs": [
        {
          "indexed": true,
          "internalType": "address",
          "name": "from",
          "type": "address"
        },
        {
          "indexed": true,
          "internalType": "address",
          "name": "to",
          "type": "address"
        },
        {
          "indexed": true,
          "internalType": "uint256",
          "name": "tokenId",
          "type": "uint256"
        }
      ],
      "name": "Transfer",
      "type": "event"
    },
    {
      "inputs": [
        {
          "internalType": "address",
          "name": "to",
          "type": "address"
        },
        {
          "internalType": "uint256",
          "name": "tokenId",
          "type": "uint256"
        }
      ],
      "name": "approve",
      "outputs": [],
      "stateMutability": "nonpayable",
      "type": "function"
    },
    {
      "inputs": [
        {
          "internalType": "address",
          "name": "owner",
          "type": "address"
        }
      ],
      "name": "balanceOf",
      "outputs": [
        {
          "internalType": "uint256",
          "name": "",
          "type": "uint256"
        }
      ],
      "stateMutability": "view",
      "type": "function"
    },
    {
      "inputs": [
        {
          "internalType": "uint256",
          "name": "_tokenId",
          "type": "uint256"
        }
      ],
      "name": "burn",
      "outputs": [],
      "stateMutability": "nonpayable",
      "type": "function"
    },
    {
      "inputs": [
        {
          "internalType": "address",
          "name": "",
          "type": "address"
        }
      ],
      "name": "creatorsProfile",
      "outputs": [
        {
          "internalType": "address payable",
          "name": "creatorAddress",
          "type": "address"
        },
        {
          "internalType": "string",
          "name": "profileMessage",
          "type": "string"
        },
        {
          "internalType": "uint256",
          "name": "tipsReceived",
          "type": "uint256"
        },
        {
          "internalType": "uint256",
          "name": "profileToken",
          "type": "uint256"
        },
        {
          "internalType": "uint256",
          "name": "numOfLikes",
          "type": "uint256"
        },
        {
          "internalType": "string",
          "name": "username",
          "type": "string"
        }
      ],
      "stateMutability": "view",
      "type": "function"
    },
    {
      "inputs": [
        {
          "internalType": "uint256",
          "name": "tokenId",
          "type": "uint256"
        }
      ],
      "name": "getApproved",
      "outputs": [
        {
          "internalType": "address",
          "name": "",
          "type": "address"
        }
      ],
      "stateMutability": "view",
      "type": "function"
    },
    {
      "inputs": [
        {
          "internalType": "address",
          "name": "",
          "type": "address"
        },
        {
          "internalType": "address",
          "name": "",
          "type": "address"
        }
      ],
      "name": "hasLikeProfile",
      "outputs": [
        {
          "internalType": "bool",
          "name": "",
          "type": "bool"
        }
      ],
      "stateMutability": "view",
      "type": "function"
    },
    {
      "inputs": [
        {
          "internalType": "address",
          "name": "owner",
          "type": "address"
        },
        {
          "internalType": "address",
          "name": "operator",
          "type": "address"
        }
      ],
      "name": "isApprovedForAll",
      "outputs": [
        {
          "internalType": "bool",
          "name": "",
          "type": "bool"
        }
      ],
      "stateMutability": "view",
      "type": "function"
    },
    {
      "inputs": [
        {
          "internalType": "string",
          "name": "_tokenUri",
          "type": "string"
        }
      ],
      "name": "mint",
      "outputs": [
        {
          "internalType": "uint256",
          "name": "",
          "type": "uint256"
        }
      ],
      "stateMutability": "nonpayable",
      "type": "function"
    },
    {
      "inputs": [],
      "name": "name",
      "outputs": [
        {
          "internalType": "string",
          "name": "",
          "type": "string"
        }
      ],
      "stateMutability": "view",
      "type": "function"
    },
    {
      "inputs": [
        {
          "internalType": "address",
          "name": "",
          "type": "address"
        }
      ],
      "name": "nftProfileOwners",
      "outputs": [
        {
          "internalType": "uint256",
          "name": "",
          "type": "uint256"
        }
      ],
      "stateMutability": "view",
      "type": "function"
    },
    {
      "inputs": [
        {
          "internalType": "uint256",
          "name": "",
          "type": "uint256"
        }
      ],
      "name": "numberToCreator",
      "outputs": [
        {
          "internalType": "address payable",
          "name": "creatorAddress",
          "type": "address"
        },
        {
          "internalType": "string",
          "name": "profileMessage",
          "type": "string"
        },
        {
          "internalType": "uint256",
          "name": "tipsReceived",
          "type": "uint256"
        },
        {
          "internalType": "uint256",
          "name": "profileToken",
          "type": "uint256"
        },
        {
          "internalType": "uint256",
          "name": "numOfLikes",
          "type": "uint256"
        },
        {
          "internalType": "string",
          "name": "username",
          "type": "string"
        }
      ],
      "stateMutability": "view",
      "type": "function"
    },
    {
      "inputs": [
        {
          "internalType": "uint256",
          "name": "tokenId",
          "type": "uint256"
        }
      ],
      "name": "ownerOf",
      "outputs": [
        {
          "internalType": "address",
          "name": "",
          "type": "address"
        }
      ],
      "stateMutability": "view",
      "type": "function"
    },
    {
      "inputs": [
        {
          "internalType": "address",
          "name": "from",
          "type": "address"
        },
        {
          "internalType": "address",
          "name": "to",
          "type": "address"
        },
        {
          "internalType": "uint256",
          "name": "tokenId",
          "type": "uint256"
        }
      ],
      "name": "safeTransferFrom",
      "outputs": [],
      "stateMutability": "nonpayable",
      "type": "function"
    },
    {
      "inputs": [
        {
          "internalType": "address",
          "name": "from",
          "type": "address"
        },
        {
          "internalType": "address",
          "name": "to",
          "type": "address"
        },
        {
          "internalType": "uint256",
          "name": "tokenId",
          "type": "uint256"
        },
        {
          "internalType": "bytes",
          "name": "data",
          "type": "bytes"
        }
      ],
      "name": "safeTransferFrom",
      "outputs": [],
      "stateMutability": "nonpayable",
      "type": "function"
    },
    {
      "inputs": [
        {
          "internalType": "address",
          "name": "creatorAddress",
          "type": "address"
        }
      ],
      "name": "sendLike",
      "outputs": [
        {
          "internalType": "uint256",
          "name": "",
          "type": "uint256"
        }
      ],
      "stateMutability": "nonpayable",
      "type": "function"
    },
    {
      "inputs": [
        {
          "internalType": "address",
          "name": "operator",
          "type": "address"
        },
        {
          "internalType": "bool",
          "name": "approved",
          "type": "bool"
        }
      ],
      "name": "setApprovalForAll",
      "outputs": [],
      "stateMutability": "nonpayable",
      "type": "function"
    },
    {
      "inputs": [
        {
          "internalType": "address",
          "name": "creatorsPro",
          "type": "address"
        },
        {
          "internalType": "string",
          "name": "message",
          "type": "string"
        }
      ],
      "name": "setMessage",
      "outputs": [
        {
          "internalType": "string",
          "name": "",
          "type": "string"
        }
      ],
      "stateMutability": "nonpayable",
      "type": "function"
    },
    {
      "inputs": [
        {
          "internalType": "uint256",
          "name": "tokenId",
          "type": "uint256"
        }
      ],
      "name": "setProfile",
      "outputs": [
        {
          "internalType": "uint256",
          "name": "",
          "type": "uint256"
        }
      ],
      "stateMutability": "nonpayable",
      "type": "function"
    },
    {
      "inputs": [
        {
          "internalType": "address",
          "name": "creatorAddress",
          "type": "address"
        },
        {
          "internalType": "string",
          "name": "_username",
          "type": "string"
        }
      ],
      "name": "setUsername",
      "outputs": [
        {
          "internalType": "string",
          "name": "",
          "type": "string"
        }
      ],
      "stateMutability": "nonpayable",
      "type": "function"
    },
    {
      "inputs": [
        {
          "internalType": "bytes4",
          "name": "interfaceId",
          "type": "bytes4"
        }
      ],
      "name": "supportsInterface",
      "outputs": [
        {
          "internalType": "bool",
          "name": "",
          "type": "bool"
        }
      ],
      "stateMutability": "view",
      "type": "function"
    },
    {
      "inputs": [],
      "name": "symbol",
      "outputs": [
        {
          "internalType": "string",
          "name": "",
          "type": "string"
        }
      ],
      "stateMutability": "view",
      "type": "function"
    },
    {
      "inputs": [
        {
          "internalType": "address",
          "name": "creatorAddress",
          "type": "address"
        }
      ],
      "name": "tipCreator",
      "outputs": [
        {
          "internalType": "uint256",
          "name": "",
          "type": "uint256"
        }
      ],
      "stateMutability": "payable",
      "type": "function"
    },
    {
      "inputs": [],
      "name": "tokenCount",
      "outputs": [
        {
          "internalType": "uint256",
          "name": "",
          "type": "uint256"
        }
      ],
      "stateMutability": "view",
      "type": "function"
    },
    {
      "inputs": [
        {
          "internalType": "uint256",
          "name": "tokenId",
          "type": "uint256"
        }
      ],
      "name": "tokenURI",
      "outputs": [
        {
          "internalType": "string",
          "name": "",
          "type": "string"
        }
      ],
      "stateMutability": "view",
      "type": "function"
    },
    {
      "inputs": [
        {
          "internalType": "address",
          "name": "from",
          "type": "address"
        },
        {
          "internalType": "address",
          "name": "to",
          "type": "address"
        },
        {
          "internalType": "uint256",
          "name": "tokenId",
          "type": "uint256"
        }
      ],
      "name": "transferFrom",
      "outputs": [],
      "stateMutability": "nonpayable",
      "type": "function"
    }
  ],
  "bytecode": "0x60806040523480156200001157600080fd5b506040518060400160405280601181526020017f4465666942656174732050726f66696c650000000000000000000000000000008152506040518060400160405280600481526020017f444642500000000000000000000000000000000000000000000000000000000081525081600090816200008f919062000324565b508060019081620000a1919062000324565b5050506200040b565b600081519050919050565b7f4e487b7100000000000000000000000000000000000000000000000000000000600052604160045260246000fd5b7f4e487b7100000000000000000000000000000000000000000000000000000000600052602260045260246000fd5b600060028204905060018216806200012c57607f821691505b602082108103620001425762000141620000e4565b5b50919050565b60008190508160005260206000209050919050565b60006020601f8301049050919050565b600082821b905092915050565b600060088302620001ac7fffffffffffffffffffffffffffffffffffffffffffffffffffffffffffffffff826200016d565b620001b886836200016d565b95508019841693508086168417925050509392505050565b6000819050919050565b6000819050919050565b600062000205620001ff620001f984620001d0565b620001da565b620001d0565b9050919050565b6000819050919050565b6200022183620001e4565b6200023962000230826200020c565b8484546200017a565b825550505050565b600090565b6200025062000241565b6200025d81848462000216565b505050565b5b8181101562000285576200027960008262000246565b60018101905062000263565b5050565b601f821115620002d4576200029e8162000148565b620002a9846200015d565b81016020851015620002b9578190505b620002d1620002c8856200015d565b83018262000262565b50505b505050565b600082821c905092915050565b6000620002f960001984600802620002d9565b1980831691505092915050565b6000620003148383620002e6565b9150826002028217905092915050565b6200032f82620000aa565b67ffffffffffffffff8111156200034b576200034a620000b5565b5b62000357825462000113565b6200036482828562000289565b600060209050601f8311600181146200039c576000841562000387578287015190505b62000393858262000306565b86555062000403565b601f198416620003ac8662000148565b60005b82811015620003d657848901518255600182019150602085019450602081019050620003af565b86831015620003f65784890151620003f2601f891682620002e6565b8355505b6001600288020188555050505b505050505050565b61414e806200041b6000396000f3fe6080604052600436106101665760003560e01c806385d3cb37116100d1578063c87b56dd1161008a578063e985e9c511610064578063e985e9c5146105bb578063e9aa460f146105f8578063ebb14c7f14610635578063f8b60fe31461067257610166565b8063c87b56dd14610504578063d85d3d2714610541578063e20454521461057e57610166565b806385d3cb37146103dd57806395d89b411461041a5780639f181b5e14610445578063a22cb46514610470578063b5db047214610499578063b88d4fde146104db57610166565b806323b872dd1161012357806323b872dd146102b857806342842e0e146102e157806342966c681461030a5780636352211e1461033357806365c4e4aa1461037057806370a08231146103a057610166565b806301ffc9a71461016b57806306fdde03146101a8578063081812fc146101d3578063095ea7b3146102105780630aef61a1146102395780630c5d6ed01461027b575b600080fd5b34801561017757600080fd5b50610192600480360381019061018d9190612ada565b6106af565b60405161019f9190612b22565b60405180910390f35b3480156101b457600080fd5b506101bd610791565b6040516101ca9190612bcd565b60405180910390f35b3480156101df57600080fd5b506101fa60048036038101906101f59190612c25565b610823565b6040516102079190612c93565b60405180910390f35b34801561021c57600080fd5b5061023760048036038101906102329190612cda565b610869565b005b34801561024557600080fd5b50610260600480360381019061025b9190612c25565b610980565b60405161027296959493929190612d4a565b60405180910390f35b34801561028757600080fd5b506102a2600480360381019061029d9190612db9565b610aec565b6040516102af9190612de6565b60405180910390f35b3480156102c457600080fd5b506102df60048036038101906102da9190612e01565b610b04565b005b3480156102ed57600080fd5b5061030860048036038101906103039190612e01565b610b64565b005b34801561031657600080fd5b50610331600480360381019061032c9190612c25565b610b84565b005b34801561033f57600080fd5b5061035a60048036038101906103559190612c25565b610c7b565b6040516103679190612c93565b60405180910390f35b61038a60048036038101906103859190612db9565b610d2c565b6040516103979190612de6565b60405180910390f35b3480156103ac57600080fd5b506103c760048036038101906103c29190612db9565b610e8a565b6040516103d49190612de6565b60405180910390f35b3480156103e957600080fd5b5061040460048036038101906103ff9190612c25565b610f41565b6040516104119190612de6565b60405180910390f35b34801561042657600080fd5b5061042f61100c565b60405161043c9190612bcd565b60405180910390f35b34801561045157600080fd5b5061045a61109e565b6040516104679190612de6565b60405180910390f35b34801561047c57600080fd5b5061049760048036038101906104929190612e80565b6110a4565b005b3480156104a557600080fd5b506104c060048036038101906104bb9190612db9565b6110ba565b6040516104d296959493929190612d4a565b60405180910390f35b3480156104e757600080fd5b5061050260048036038101906104fd9190612ff5565b611226565b005b34801561051057600080fd5b5061052b60048036038101906105269190612c25565b611288565b6040516105389190612bcd565b60405180910390f35b34801561054d57600080fd5b5061056860048036038101906105639190613119565b61139a565b6040516105759190612de6565b60405180910390f35b34801561058a57600080fd5b506105a560048036038101906105a09190613162565b611633565b6040516105b29190612bcd565b60405180910390f35b3480156105c757600080fd5b506105e260048036038101906105dd91906131be565b611789565b6040516105ef9190612b22565b60405180910390f35b34801561060457600080fd5b5061061f600480360381019061061a9190613162565b61181d565b60405161062c9190612bcd565b60405180910390f35b34801561064157600080fd5b5061065c60048036038101906106579190612db9565b611997565b6040516106699190612de6565b60405180910390f35b34801561067e57600080fd5b50610699600480360381019061069491906131be565b611bd0565b6040516106a69190612b22565b60405180910390f35b60007f80ac58cd000000000000000000000000000000000000000000000000000000007bffffffffffffffffffffffffffffffffffffffffffffffffffffffff1916827bffffffffffffffffffffffffffffffffffffffffffffffffffffffff1916148061077a57507f5b5e139f000000000000000000000000000000000000000000000000000000007bffffffffffffffffffffffffffffffffffffffffffffffffffffffff1916827bffffffffffffffffffffffffffffffffffffffffffffffffffffffff1916145b8061078a575061078982611bff565b5b9050919050565b6060600080546107a09061322d565b80601f01602080910402602001604051908101604052809291908181526020018280546107cc9061322d565b80156108195780601f106107ee57610100808354040283529160200191610819565b820191906000526020600020905b8154815290600101906020018083116107fc57829003601f168201915b5050505050905090565b600061082e82611c69565b6004600083815260200190815260200160002060009054906101000a900473ffffffffffffffffffffffffffffffffffffffff169050919050565b600061087482610c7b565b90508073ffffffffffffffffffffffffffffffffffffffff168373ffffffffffffffffffffffffffffffffffffffff16036108e4576040517f08c379a00000000000000000000000000000000000000000000000000000000081526004016108db906132d0565b60405180910390fd5b8073ffffffffffffffffffffffffffffffffffffffff16610903611cb4565b73ffffffffffffffffffffffffffffffffffffffff16148061093257506109318161092c611cb4565b611789565b5b610971576040517f08c379a000000000000000000000000000000000000000000000000000000000815260040161096890613362565b60405180910390fd5b61097b8383611cbc565b505050565b600a6020528060005260406000206000915090508060000160009054906101000a900473ffffffffffffffffffffffffffffffffffffffff16908060010180546109c99061322d565b80601f01602080910402602001604051908101604052809291908181526020018280546109f59061322d565b8015610a425780601f10610a1757610100808354040283529160200191610a42565b820191906000526020600020905b815481529060010190602001808311610a2557829003601f168201915b505050505090806002015490806003015490806004015490806005018054610a699061322d565b80601f0160208091040260200160405190810160405280929190818152602001828054610a959061322d565b8015610ae25780601f10610ab757610100808354040283529160200191610ae2565b820191906000526020600020905b815481529060010190602001808311610ac557829003601f168201915b5050505050905086565b60096020528060005260406000206000915090505481565b610b15610b0f611cb4565b82611d75565b610b54576040517f08c379a0000000000000000000000000000000000000000000000000000000008152600401610b4b906133f4565b60405180910390fd5b610b5f838383611e0a565b505050565b610b7f83838360405180602001604052806000815250611226565b505050565b610b8d81610c7b565b73ffffffffffffffffffffffffffffffffffffffff163373ffffffffffffffffffffffffffffffffffffffff1614610bfa576040517f08c379a0000000000000000000000000000000000000000000000000000000008152600401610bf190613460565b60405180910390fd5b600a6000828152602001908152602001600020600080820160006101000a81549073ffffffffffffffffffffffffffffffffffffffff0219169055600182016000610c459190612a11565b600282016000905560038201600090556004820160009055600582016000610c6d9190612a11565b5050610c7881612070565b50565b6000806002600084815260200190815260200160002060009054906101000a900473ffffffffffffffffffffffffffffffffffffffff169050600073ffffffffffffffffffffffffffffffffffffffff168173ffffffffffffffffffffffffffffffffffffffff1603610d23576040517f08c379a0000000000000000000000000000000000000000000000000000000008152600401610d1a906134cc565b60405180910390fd5b80915050919050565b6000803411610d70576040517f08c379a0000000000000000000000000000000000000000000000000000000008152600401610d6790613538565b60405180910390fd5b8173ffffffffffffffffffffffffffffffffffffffff163373ffffffffffffffffffffffffffffffffffffffff1603610dde576040517f08c379a0000000000000000000000000000000000000000000000000000000008152600401610dd5906135a4565b60405180910390fd5b6000600b60008473ffffffffffffffffffffffffffffffffffffffff1673ffffffffffffffffffffffffffffffffffffffff16815260200190815260200160002090508273ffffffffffffffffffffffffffffffffffffffff166108fc349081150290604051600060405180830381858888f19350505050158015610e67573d6000803e3d6000fd5b5034816002016000828254610e7c91906135f3565b925050819055915050919050565b60008073ffffffffffffffffffffffffffffffffffffffff168273ffffffffffffffffffffffffffffffffffffffff1603610efa576040517f08c379a0000000000000000000000000000000000000000000000000000000008152600401610ef190613699565b60405180910390fd5b600360008373ffffffffffffffffffffffffffffffffffffffff1673ffffffffffffffffffffffffffffffffffffffff168152602001908152602001600020549050919050565b6000610f4c82610c7b565b73ffffffffffffffffffffffffffffffffffffffff163373ffffffffffffffffffffffffffffffffffffffff1614610fb9576040517f08c379a0000000000000000000000000000000000000000000000000000000008152600401610fb09061372b565b60405180910390fd5b6000600b60003373ffffffffffffffffffffffffffffffffffffffff1673ffffffffffffffffffffffffffffffffffffffff16815260200190815260200160002090508281600301819055915050919050565b60606001805461101b9061322d565b80601f01602080910402602001604051908101604052809291908181526020018280546110479061322d565b80156110945780601f1061106957610100808354040283529160200191611094565b820191906000526020600020905b81548152906001019060200180831161107757829003601f168201915b5050505050905090565b60085481565b6110b66110af611cb4565b83836120c3565b5050565b600b6020528060005260406000206000915090508060000160009054906101000a900473ffffffffffffffffffffffffffffffffffffffff16908060010180546111039061322d565b80601f016020809104026020016040519081016040528092919081815260200182805461112f9061322d565b801561117c5780601f106111515761010080835404028352916020019161117c565b820191906000526020600020905b81548152906001019060200180831161115f57829003601f168201915b5050505050908060020154908060030154908060040154908060050180546111a39061322d565b80601f01602080910402602001604051908101604052809291908181526020018280546111cf9061322d565b801561121c5780601f106111f15761010080835404028352916020019161121c565b820191906000526020600020905b8154815290600101906020018083116111ff57829003601f168201915b5050505050905086565b611237611231611cb4565b83611d75565b611276576040517f08c379a000000000000000000000000000000000000000000000000000000000815260040161126d906133f4565b60405180910390fd5b6112828484848461222f565b50505050565b606061129382611c69565b60006006600084815260200190815260200160002080546112b39061322d565b80601f01602080910402602001604051908101604052809291908181526020018280546112df9061322d565b801561132c5780601f106113015761010080835404028352916020019161132c565b820191906000526020600020905b81548152906001019060200180831161130f57829003601f168201915b50505050509050600061133d61228b565b90506000815103611352578192505050611395565b60008251111561138757808260405160200161136f929190613787565b60405160208183030381529060405292505050611395565b611390846122a2565b925050505b919050565b60006113a6600761230a565b600860008154809291906113b9906137ab565b919050555060006113ca6007612320565b90506113d6338261232e565b6040518060c001604052803373ffffffffffffffffffffffffffffffffffffffff168152602001604051806020016040528060008152508152602001600081526020018281526020016000815260200160405180602001604052806000815250815250600a600083815260200190815260200160002060008201518160000160006101000a81548173ffffffffffffffffffffffffffffffffffffffff021916908373ffffffffffffffffffffffffffffffffffffffff16021790555060208201518160010190816114a8919061399f565b5060408201518160020155606082015181600301556080820151816004015560a08201518160050190816114dc919061399f565b509050506114ea8184612507565b6040518060c001604052803373ffffffffffffffffffffffffffffffffffffffff168152602001604051806020016040528060008152508152602001600081526020018281526020016000815260200160405180602001604052806000815250815250600b60003373ffffffffffffffffffffffffffffffffffffffff1673ffffffffffffffffffffffffffffffffffffffff16815260200190815260200160002060008201518160000160006101000a81548173ffffffffffffffffffffffffffffffffffffffff021916908373ffffffffffffffffffffffffffffffffffffffff16021790555060208201518160010190816115e8919061399f565b5060408201518160020155606082015181600301556080820151816004015560a082015181600501908161161c919061399f565b5090505061162981610f41565b5080915050919050565b60608273ffffffffffffffffffffffffffffffffffffffff163373ffffffffffffffffffffffffffffffffffffffff16146116a3576040517f08c379a000000000000000000000000000000000000000000000000000000000815260040161169a90613abd565b60405180910390fd5b6000600b60003373ffffffffffffffffffffffffffffffffffffffff1673ffffffffffffffffffffffffffffffffffffffff1681526020019081526020016000209050828160050190816116f7919061399f565b80546117029061322d565b80601f016020809104026020016040519081016040528092919081815260200182805461172e9061322d565b801561177b5780601f106117505761010080835404028352916020019161177b565b820191906000526020600020905b81548152906001019060200180831161175e57829003601f168201915b505050505091505092915050565b6000600560008473ffffffffffffffffffffffffffffffffffffffff1673ffffffffffffffffffffffffffffffffffffffff16815260200190815260200160002060008373ffffffffffffffffffffffffffffffffffffffff1673ffffffffffffffffffffffffffffffffffffffff16815260200190815260200160002060009054906101000a900460ff16905092915050565b60606000600b60008573ffffffffffffffffffffffffffffffffffffffff1673ffffffffffffffffffffffffffffffffffffffff16815260200190815260200160002090508060000160009054906101000a900473ffffffffffffffffffffffffffffffffffffffff1673ffffffffffffffffffffffffffffffffffffffff163373ffffffffffffffffffffffffffffffffffffffff16146118f4576040517f08c379a00000000000000000000000000000000000000000000000000000000081526004016118eb90613b29565b60405180910390fd5b82816001019081611905919061399f565b80546119109061322d565b80601f016020809104026020016040519081016040528092919081815260200182805461193c9061322d565b80156119895780601f1061195e57610100808354040283529160200191611989565b820191906000526020600020905b81548152906001019060200180831161196c57829003601f168201915b505050505091505092915050565b60008173ffffffffffffffffffffffffffffffffffffffff163373ffffffffffffffffffffffffffffffffffffffff1603611a07576040517f08c379a00000000000000000000000000000000000000000000000000000000081526004016119fe90613abd565b60405180910390fd5b60001515600c60003373ffffffffffffffffffffffffffffffffffffffff1673ffffffffffffffffffffffffffffffffffffffff16815260200190815260200160002060008473ffffffffffffffffffffffffffffffffffffffff1673ffffffffffffffffffffffffffffffffffffffff16815260200190815260200160002060009054906101000a900460ff16151514611ad7576040517f08c379a0000000000000000000000000000000000000000000000000000000008152600401611ace90613b95565b60405180910390fd5b6001600c60003373ffffffffffffffffffffffffffffffffffffffff1673ffffffffffffffffffffffffffffffffffffffff16815260200190815260200160002060008473ffffffffffffffffffffffffffffffffffffffff1673ffffffffffffffffffffffffffffffffffffffff16815260200190815260200160002060006101000a81548160ff0219169083151502179055506000600b60008473ffffffffffffffffffffffffffffffffffffffff1673ffffffffffffffffffffffffffffffffffffffff1681526020019081526020016000209050806004016000815480929190611bc4906137ab565b91905055915050919050565b600c6020528160005260406000206020528060005260406000206000915091509054906101000a900460ff1681565b60007f01ffc9a7000000000000000000000000000000000000000000000000000000007bffffffffffffffffffffffffffffffffffffffffffffffffffffffff1916827bffffffffffffffffffffffffffffffffffffffffffffffffffffffff1916149050919050565b611c7281612574565b611cb1576040517f08c379a0000000000000000000000000000000000000000000000000000000008152600401611ca8906134cc565b60405180910390fd5b50565b600033905090565b816004600083815260200190815260200160002060006101000a81548173ffffffffffffffffffffffffffffffffffffffff021916908373ffffffffffffffffffffffffffffffffffffffff160217905550808273ffffffffffffffffffffffffffffffffffffffff16611d2f83610c7b565b73ffffffffffffffffffffffffffffffffffffffff167f8c5be1e5ebec7d5bd14f71427d1e84f3dd0314c0f7b2291e5b200ac8c7c3b92560405160405180910390a45050565b600080611d8183610c7b565b90508073ffffffffffffffffffffffffffffffffffffffff168473ffffffffffffffffffffffffffffffffffffffff161480611dc35750611dc28185611789565b5b80611e0157508373ffffffffffffffffffffffffffffffffffffffff16611de984610823565b73ffffffffffffffffffffffffffffffffffffffff16145b91505092915050565b8273ffffffffffffffffffffffffffffffffffffffff16611e2a82610c7b565b73ffffffffffffffffffffffffffffffffffffffff1614611e80576040517f08c379a0000000000000000000000000000000000000000000000000000000008152600401611e7790613c27565b60405180910390fd5b600073ffffffffffffffffffffffffffffffffffffffff168273ffffffffffffffffffffffffffffffffffffffff1603611eef576040517f08c379a0000000000000000000000000000000000000000000000000000000008152600401611ee690613cb9565b60405180910390fd5b611efa8383836125e0565b611f05600082611cbc565b6001600360008573ffffffffffffffffffffffffffffffffffffffff1673ffffffffffffffffffffffffffffffffffffffff1681526020019081526020016000206000828254611f559190613cd9565b925050819055506001600360008473ffffffffffffffffffffffffffffffffffffffff1673ffffffffffffffffffffffffffffffffffffffff1681526020019081526020016000206000828254611fac91906135f3565b92505081905550816002600083815260200190815260200160002060006101000a81548173ffffffffffffffffffffffffffffffffffffffff021916908373ffffffffffffffffffffffffffffffffffffffff160217905550808273ffffffffffffffffffffffffffffffffffffffff168473ffffffffffffffffffffffffffffffffffffffff167fddf252ad1be2c89b69c2b068fc378daa952ba7f163c4a11628f55a4df523b3ef60405160405180910390a461206b8383836125e5565b505050565b612079816125ea565b60006006600083815260200190815260200160002080546120999061322d565b9050146120c0576006600082815260200190815260200160002060006120bf9190612a11565b5b50565b8173ffffffffffffffffffffffffffffffffffffffff168373ffffffffffffffffffffffffffffffffffffffff1603612131576040517f08c379a000000000000000000000000000000000000000000000000000000000815260040161212890613d59565b60405180910390fd5b80600560008573ffffffffffffffffffffffffffffffffffffffff1673ffffffffffffffffffffffffffffffffffffffff16815260200190815260200160002060008473ffffffffffffffffffffffffffffffffffffffff1673ffffffffffffffffffffffffffffffffffffffff16815260200190815260200160002060006101000a81548160ff0219169083151502179055508173ffffffffffffffffffffffffffffffffffffffff168373ffffffffffffffffffffffffffffffffffffffff167f17307eab39ab6107e8899845ad3d59bd9653f200f220920489ca2b5937696c31836040516122229190612b22565b60405180910390a3505050565b61223a848484611e0a565b61224684848484612707565b612285576040517f08c379a000000000000000000000000000000000000000000000000000000000815260040161227c90613deb565b60405180910390fd5b50505050565b606060405180602001604052806000815250905090565b60606122ad82611c69565b60006122b761228b565b905060008151116122d75760405180602001604052806000815250612302565b806122e18461288e565b6040516020016122f2929190613787565b6040516020818303038152906040525b915050919050565b6001816000016000828254019250508190555050565b600081600001549050919050565b600073ffffffffffffffffffffffffffffffffffffffff168273ffffffffffffffffffffffffffffffffffffffff160361239d576040517f08c379a000000000000000000000000000000000000000000000000000000000815260040161239490613e57565b60405180910390fd5b6123a681612574565b156123e6576040517f08c379a00000000000000000000000000000000000000000000000000000000081526004016123dd90613ec3565b60405180910390fd5b6123f2600083836125e0565b6001600360008473ffffffffffffffffffffffffffffffffffffffff1673ffffffffffffffffffffffffffffffffffffffff168152602001908152602001600020600082825461244291906135f3565b92505081905550816002600083815260200190815260200160002060006101000a81548173ffffffffffffffffffffffffffffffffffffffff021916908373ffffffffffffffffffffffffffffffffffffffff160217905550808273ffffffffffffffffffffffffffffffffffffffff16600073ffffffffffffffffffffffffffffffffffffffff167fddf252ad1be2c89b69c2b068fc378daa952ba7f163c4a11628f55a4df523b3ef60405160405180910390a4612503600083836125e5565b5050565b61251082612574565b61254f576040517f08c379a000000000000000000000000000000000000000000000000000000000815260040161254690613f55565b60405180910390fd5b8060066000848152602001908152602001600020908161256f919061399f565b505050565b60008073ffffffffffffffffffffffffffffffffffffffff166002600084815260200190815260200160002060009054906101000a900473ffffffffffffffffffffffffffffffffffffffff1673ffffffffffffffffffffffffffffffffffffffff1614159050919050565b505050565b505050565b60006125f582610c7b565b9050612603816000846125e0565b61260e600083611cbc565b6001600360008373ffffffffffffffffffffffffffffffffffffffff1673ffffffffffffffffffffffffffffffffffffffff168152602001908152602001600020600082825461265e9190613cd9565b925050819055506002600083815260200190815260200160002060006101000a81549073ffffffffffffffffffffffffffffffffffffffff021916905581600073ffffffffffffffffffffffffffffffffffffffff168273ffffffffffffffffffffffffffffffffffffffff167fddf252ad1be2c89b69c2b068fc378daa952ba7f163c4a11628f55a4df523b3ef60405160405180910390a4612703816000846125e5565b5050565b60006127288473ffffffffffffffffffffffffffffffffffffffff166129ee565b15612881578373ffffffffffffffffffffffffffffffffffffffff1663150b7a02612751611cb4565b8786866040518563ffffffff1660e01b81526004016127739493929190613fca565b6020604051808303816000875af19250505080156127af57506040513d601f19601f820116820180604052508101906127ac919061402b565b60015b612831573d80600081146127df576040519150601f19603f3d011682016040523d82523d6000602084013e6127e4565b606091505b506000815103612829576040517f08c379a000000000000000000000000000000000000000000000000000000000815260040161282090613deb565b60405180910390fd5b805181602001fd5b63150b7a0260e01b7bffffffffffffffffffffffffffffffffffffffffffffffffffffffff1916817bffffffffffffffffffffffffffffffffffffffffffffffffffffffff191614915050612886565b600190505b949350505050565b6060600082036128d5576040518060400160405280600181526020017f300000000000000000000000000000000000000000000000000000000000000081525090506129e9565b600082905060005b600082146129075780806128f0906137ab565b915050600a826129009190614087565b91506128dd565b60008167ffffffffffffffff81111561292357612922612eca565b5b6040519080825280601f01601f1916602001820160405280156129555781602001600182028036833780820191505090505b5090505b600085146129e25760018261296e9190613cd9565b9150600a8561297d91906140b8565b603061298991906135f3565b60f81b81838151811061299f5761299e6140e9565b5b60200101907effffffffffffffffffffffffffffffffffffffffffffffffffffffffffffff1916908160001a905350600a856129db9190614087565b9450612959565b8093505050505b919050565b6000808273ffffffffffffffffffffffffffffffffffffffff163b119050919050565b508054612a1d9061322d565b6000825580601f10612a2f5750612a4e565b601f016020900490600052602060002090810190612a4d9190612a51565b5b50565b5b80821115612a6a576000816000905550600101612a52565b5090565b6000604051905090565b600080fd5b600080fd5b60007fffffffff0000000000000000000000000000000000000000000000000000000082169050919050565b612ab781612a82565b8114612ac257600080fd5b50565b600081359050612ad481612aae565b92915050565b600060208284031215612af057612aef612a78565b5b6000612afe84828501612ac5565b91505092915050565b60008115159050919050565b612b1c81612b07565b82525050565b6000602082019050612b376000830184612b13565b92915050565b600081519050919050565b600082825260208201905092915050565b60005b83811015612b77578082015181840152602081019050612b5c565b60008484015250505050565b6000601f19601f8301169050919050565b6000612b9f82612b3d565b612ba98185612b48565b9350612bb9818560208601612b59565b612bc281612b83565b840191505092915050565b60006020820190508181036000830152612be78184612b94565b905092915050565b6000819050919050565b612c0281612bef565b8114612c0d57600080fd5b50565b600081359050612c1f81612bf9565b92915050565b600060208284031215612c3b57612c3a612a78565b5b6000612c4984828501612c10565b91505092915050565b600073ffffffffffffffffffffffffffffffffffffffff82169050919050565b6000612c7d82612c52565b9050919050565b612c8d81612c72565b82525050565b6000602082019050612ca86000830184612c84565b92915050565b612cb781612c72565b8114612cc257600080fd5b50565b600081359050612cd481612cae565b92915050565b60008060408385031215612cf157612cf0612a78565b5b6000612cff85828601612cc5565b9250506020612d1085828601612c10565b9150509250929050565b6000612d2582612c52565b9050919050565b612d3581612d1a565b82525050565b612d4481612bef565b82525050565b600060c082019050612d5f6000830189612d2c565b8181036020830152612d718188612b94565b9050612d806040830187612d3b565b612d8d6060830186612d3b565b612d9a6080830185612d3b565b81810360a0830152612dac8184612b94565b9050979650505050505050565b600060208284031215612dcf57612dce612a78565b5b6000612ddd84828501612cc5565b91505092915050565b6000602082019050612dfb6000830184612d3b565b92915050565b600080600060608486031215612e1a57612e19612a78565b5b6000612e2886828701612cc5565b9350506020612e3986828701612cc5565b9250506040612e4a86828701612c10565b9150509250925092565b612e5d81612b07565b8114612e6857600080fd5b50565b600081359050612e7a81612e54565b92915050565b60008060408385031215612e9757612e96612a78565b5b6000612ea585828601612cc5565b9250506020612eb685828601612e6b565b9150509250929050565b600080fd5b600080fd5b7f4e487b7100000000000000000000000000000000000000000000000000000000600052604160045260246000fd5b612f0282612b83565b810181811067ffffffffffffffff82111715612f2157612f20612eca565b5b80604052505050565b6000612f34612a6e565b9050612f408282612ef9565b919050565b600067ffffffffffffffff821115612f6057612f5f612eca565b5b612f6982612b83565b9050602081019050919050565b82818337600083830152505050565b6000612f98612f9384612f45565b612f2a565b905082815260208101848484011115612fb457612fb3612ec5565b5b612fbf848285612f76565b509392505050565b600082601f830112612fdc57612fdb612ec0565b5b8135612fec848260208601612f85565b91505092915050565b6000806000806080858703121561300f5761300e612a78565b5b600061301d87828801612cc5565b945050602061302e87828801612cc5565b935050604061303f87828801612c10565b925050606085013567ffffffffffffffff8111156130605761305f612a7d565b5b61306c87828801612fc7565b91505092959194509250565b600067ffffffffffffffff82111561309357613092612eca565b5b61309c82612b83565b9050602081019050919050565b60006130bc6130b784613078565b612f2a565b9050828152602081018484840111156130d8576130d7612ec5565b5b6130e3848285612f76565b509392505050565b600082601f830112613100576130ff612ec0565b5b81356131108482602086016130a9565b91505092915050565b60006020828403121561312f5761312e612a78565b5b600082013567ffffffffffffffff81111561314d5761314c612a7d565b5b613159848285016130eb565b91505092915050565b6000806040838503121561317957613178612a78565b5b600061318785828601612cc5565b925050602083013567ffffffffffffffff8111156131a8576131a7612a7d565b5b6131b4858286016130eb565b9150509250929050565b600080604083850312156131d5576131d4612a78565b5b60006131e385828601612cc5565b92505060206131f485828601612cc5565b9150509250929050565b7f4e487b7100000000000000000000000000000000000000000000000000000000600052602260045260246000fd5b6000600282049050600182168061324557607f821691505b602082108103613258576132576131fe565b5b50919050565b7f4552433732313a20617070726f76616c20746f2063757272656e74206f776e6560008201527f7200000000000000000000000000000000000000000000000000000000000000602082015250565b60006132ba602183612b48565b91506132c58261325e565b604082019050919050565b600060208201905081810360008301526132e9816132ad565b9050919050565b7f4552433732313a20617070726f76652063616c6c6572206973206e6f7420746f60008201527f6b656e206f776e6572206e6f7220617070726f76656420666f7220616c6c0000602082015250565b600061334c603e83612b48565b9150613357826132f0565b604082019050919050565b6000602082019050818103600083015261337b8161333f565b9050919050565b7f4552433732313a2063616c6c6572206973206e6f7420746f6b656e206f776e6560008201527f72206e6f7220617070726f766564000000000000000000000000000000000000602082015250565b60006133de602e83612b48565b91506133e982613382565b604082019050919050565b6000602082019050818103600083015261340d816133d1565b9050919050565b7f6d757374206265206f776e657220746f206275726e0000000000000000000000600082015250565b600061344a601583612b48565b915061345582613414565b602082019050919050565b600060208201905081810360008301526134798161343d565b9050919050565b7f4552433732313a20696e76616c696420746f6b656e2049440000000000000000600082015250565b60006134b6601883612b48565b91506134c182613480565b602082019050919050565b600060208201905081810360008301526134e5816134a9565b9050919050565b7f63616e6e6f742074697020300000000000000000000000000000000000000000600082015250565b6000613522600c83612b48565b915061352d826134ec565b602082019050919050565b6000602082019050818103600083015261355181613515565b9050919050565b7f63616e6e6f742074697020796f757273656c6600000000000000000000000000600082015250565b600061358e601383612b48565b915061359982613558565b602082019050919050565b600060208201905081810360008301526135bd81613581565b9050919050565b7f4e487b7100000000000000000000000000000000000000000000000000000000600052601160045260246000fd5b60006135fe82612bef565b915061360983612bef565b9250828201905080821115613621576136206135c4565b5b92915050565b7f4552433732313a2061646472657373207a65726f206973206e6f74206120766160008201527f6c6964206f776e65720000000000000000000000000000000000000000000000602082015250565b6000613683602983612b48565b915061368e82613627565b604082019050919050565b600060208201905081810360008301526136b281613676565b9050919050565b7f6f776e65722063616e206f6e6c79207365742070726f66696c6520746865792060008201527f6f776e0000000000000000000000000000000000000000000000000000000000602082015250565b6000613715602383612b48565b9150613720826136b9565b604082019050919050565b6000602082019050818103600083015261374481613708565b9050919050565b600081905092915050565b600061376182612b3d565b61376b818561374b565b935061377b818560208601612b59565b80840191505092915050565b60006137938285613756565b915061379f8284613756565b91508190509392505050565b60006137b682612bef565b91507fffffffffffffffffffffffffffffffffffffffffffffffffffffffffffffffff82036137e8576137e76135c4565b5b600182019050919050565b60008190508160005260206000209050919050565b60006020601f8301049050919050565b600082821b905092915050565b6000600883026138557fffffffffffffffffffffffffffffffffffffffffffffffffffffffffffffffff82613818565b61385f8683613818565b95508019841693508086168417925050509392505050565b6000819050919050565b600061389c61389761389284612bef565b613877565b612bef565b9050919050565b6000819050919050565b6138b683613881565b6138ca6138c2826138a3565b848454613825565b825550505050565b600090565b6138df6138d2565b6138ea8184846138ad565b505050565b5b8181101561390e576139036000826138d7565b6001810190506138f0565b5050565b601f82111561395357613924816137f3565b61392d84613808565b8101602085101561393c578190505b61395061394885613808565b8301826138ef565b50505b505050565b600082821c905092915050565b600061397660001984600802613958565b1980831691505092915050565b600061398f8383613965565b9150826002028217905092915050565b6139a882612b3d565b67ffffffffffffffff8111156139c1576139c0612eca565b5b6139cb825461322d565b6139d6828285613912565b600060209050601f831160018114613a0957600084156139f7578287015190505b613a018582613983565b865550613a69565b601f198416613a17866137f3565b60005b82811015613a3f57848901518255600182019150602085019450602081019050613a1a565b86831015613a5c5784890151613a58601f891682613965565b8355505b6001600288020188555050505b505050505050565b7f63616e6e6f74206c696b6520796f7572206f776e2070726f66696c6500000000600082015250565b6000613aa7601c83612b48565b9150613ab282613a71565b602082019050919050565b60006020820190508181036000830152613ad681613a9a565b9050919050565b7f63616e6e6f742073657420736f6d656f6e6520656c736573206d657373616765600082015250565b6000613b13602083612b48565b9150613b1e82613add565b602082019050919050565b60006020820190508181036000830152613b4281613b06565b9050919050565b7f616c7265616479206c696b656420617274697374000000000000000000000000600082015250565b6000613b7f601483612b48565b9150613b8a82613b49565b602082019050919050565b60006020820190508181036000830152613bae81613b72565b9050919050565b7f4552433732313a207472616e736665722066726f6d20696e636f72726563742060008201527f6f776e6572000000000000000000000000000000000000000000000000000000602082015250565b6000613c11602583612b48565b9150613c1c82613bb5565b604082019050919050565b60006020820190508181036000830152613c4081613c04565b9050919050565b7f4552433732313a207472616e7366657220746f20746865207a65726f2061646460008201527f7265737300000000000000000000000000000000000000000000000000000000602082015250565b6000613ca3602483612b48565b9150613cae82613c47565b604082019050919050565b60006020820190508181036000830152613cd281613c96565b9050919050565b6000613ce482612bef565b9150613cef83612bef565b9250828203905081811115613d0757613d066135c4565b5b92915050565b7f4552433732313a20617070726f766520746f2063616c6c657200000000000000600082015250565b6000613d43601983612b48565b9150613d4e82613d0d565b602082019050919050565b60006020820190508181036000830152613d7281613d36565b9050919050565b7f4552433732313a207472616e7366657220746f206e6f6e20455243373231526560008201527f63656976657220696d706c656d656e7465720000000000000000000000000000602082015250565b6000613dd5603283612b48565b9150613de082613d79565b604082019050919050565b60006020820190508181036000830152613e0481613dc8565b9050919050565b7f4552433732313a206d696e7420746f20746865207a65726f2061646472657373600082015250565b6000613e41602083612b48565b9150613e4c82613e0b565b602082019050919050565b60006020820190508181036000830152613e7081613e34565b9050919050565b7f4552433732313a20746f6b656e20616c7265616479206d696e74656400000000600082015250565b6000613ead601c83612b48565b9150613eb882613e77565b602082019050919050565b60006020820190508181036000830152613edc81613ea0565b9050919050565b7f45524337323155524953746f726167653a2055524920736574206f66206e6f6e60008201527f6578697374656e7420746f6b656e000000000000000000000000000000000000602082015250565b6000613f3f602e83612b48565b9150613f4a82613ee3565b604082019050919050565b60006020820190508181036000830152613f6e81613f32565b9050919050565b600081519050919050565b600082825260208201905092915050565b6000613f9c82613f75565b613fa68185613f80565b9350613fb6818560208601612b59565b613fbf81612b83565b840191505092915050565b6000608082019050613fdf6000830187612c84565b613fec6020830186612c84565b613ff96040830185612d3b565b818103606083015261400b8184613f91565b905095945050505050565b60008151905061402581612aae565b92915050565b60006020828403121561404157614040612a78565b5b600061404f84828501614016565b91505092915050565b7f4e487b7100000000000000000000000000000000000000000000000000000000600052601260045260246000fd5b600061409282612bef565b915061409d83612bef565b9250826140ad576140ac614058565b5b828204905092915050565b60006140c382612bef565b91506140ce83612bef565b9250826140de576140dd614058565b5b828206905092915050565b7f4e487b7100000000000000000000000000000000000000000000000000000000600052603260045260246000fdfea2646970667358221220d2b661f0a332ec5b116e145d795d35f2166fe46b24c6d415168be43d27f6378764736f6c63430008110033",
  "linkReferences": {},
  "deployedLinkReferences": {}
}