{
  "_format": "hh-sol-artifact-1",
  "contractName": "ProfileNFT",
  "sourceName": "contracts/ProfileNFT.sol",
  "abi": [
    {
      "inputs": [],
      "stateMutability": "nonpayable",
      "type": "constructor"
    },
    {
      "anonymous": false,
      "inputs": [
        {
          "indexed": true,
          "internalType": "address",
          "name": "owner",
          "type": "address"
        },
        {
          "indexed": true,
          "internalType": "address",
          "name": "approved",
          "type": "address"
        },
        {
          "indexed": true,
          "internalType": "uint256",
          "name": "tokenId",
          "type": "uint256"
        }
      ],
      "name": "Approval",
      "type": "event"
    },
    {
      "anonymous": false,
      "inputs": [
        {
          "indexed": true,
          "internalType": "address",
          "name": "owner",
          "type": "address"
        },
        {
          "indexed": true,
          "internalType": "address",
          "name": "operator",
          "type": "address"
        },
        {
          "indexed": false,
          "internalType": "bool",
          "name": "approved",
          "type": "bool"
        }
      ],
      "name": "ApprovalForAll",
      "type": "event"
    },
    {
      "anonymous": false,
      "inputs": [
        {
          "indexed": true,
          "internalType": "address",
          "name": "from",
          "type": "address"
        },
        {
          "indexed": true,
          "internalType": "address",
          "name": "to",
          "type": "address"
        },
        {
          "indexed": true,
          "internalType": "uint256",
          "name": "tokenId",
          "type": "uint256"
        }
      ],
      "name": "Transfer",
      "type": "event"
    },
    {
      "inputs": [
        {
          "internalType": "address",
          "name": "to",
          "type": "address"
        },
        {
          "internalType": "uint256",
          "name": "tokenId",
          "type": "uint256"
        }
      ],
      "name": "approve",
      "outputs": [],
      "stateMutability": "nonpayable",
      "type": "function"
    },
    {
      "inputs": [
        {
          "internalType": "address",
          "name": "owner",
          "type": "address"
        }
      ],
      "name": "balanceOf",
      "outputs": [
        {
          "internalType": "uint256",
          "name": "",
          "type": "uint256"
        }
      ],
      "stateMutability": "view",
      "type": "function"
    },
    {
      "inputs": [
        {
          "internalType": "uint256",
          "name": "_tokenId",
          "type": "uint256"
        }
      ],
      "name": "burn",
      "outputs": [],
      "stateMutability": "nonpayable",
      "type": "function"
    },
    {
      "inputs": [
        {
          "internalType": "address",
          "name": "",
          "type": "address"
        }
      ],
      "name": "creatorsProfile",
      "outputs": [
        {
          "internalType": "address payable",
          "name": "creatorAddress",
          "type": "address"
        },
        {
          "internalType": "string",
          "name": "profileMessage",
          "type": "string"
        },
        {
          "internalType": "uint256",
          "name": "tipsReceived",
          "type": "uint256"
        },
        {
          "internalType": "uint256",
          "name": "profileToken",
          "type": "uint256"
        },
        {
          "internalType": "uint256",
          "name": "numOfLikes",
          "type": "uint256"
        },
        {
          "internalType": "string",
          "name": "username",
          "type": "string"
        }
      ],
      "stateMutability": "view",
      "type": "function"
    },
    {
      "inputs": [
        {
          "internalType": "uint256",
          "name": "tokenId",
          "type": "uint256"
        }
      ],
      "name": "getApproved",
      "outputs": [
        {
          "internalType": "address",
          "name": "",
          "type": "address"
        }
      ],
      "stateMutability": "view",
      "type": "function"
    },
    {
      "inputs": [
        {
          "internalType": "address",
          "name": "",
          "type": "address"
        },
        {
          "internalType": "address",
          "name": "",
          "type": "address"
        }
      ],
      "name": "hasLikeProfile",
      "outputs": [
        {
          "internalType": "bool",
          "name": "",
          "type": "bool"
        }
      ],
      "stateMutability": "view",
      "type": "function"
    },
    {
      "inputs": [
        {
          "internalType": "address",
          "name": "owner",
          "type": "address"
        },
        {
          "internalType": "address",
          "name": "operator",
          "type": "address"
        }
      ],
      "name": "isApprovedForAll",
      "outputs": [
        {
          "internalType": "bool",
          "name": "",
          "type": "bool"
        }
      ],
      "stateMutability": "view",
      "type": "function"
    },
    {
      "inputs": [
        {
          "internalType": "string",
          "name": "_tokenUri",
          "type": "string"
        }
      ],
      "name": "mint",
      "outputs": [
        {
          "internalType": "uint256",
          "name": "",
          "type": "uint256"
        }
      ],
      "stateMutability": "nonpayable",
      "type": "function"
    },
    {
      "inputs": [],
      "name": "name",
      "outputs": [
        {
          "internalType": "string",
          "name": "",
          "type": "string"
        }
      ],
      "stateMutability": "view",
      "type": "function"
    },
    {
      "inputs": [
        {
          "internalType": "address",
          "name": "",
          "type": "address"
        }
      ],
      "name": "nftProfileOwners",
      "outputs": [
        {
          "internalType": "uint256",
          "name": "",
          "type": "uint256"
        }
      ],
      "stateMutability": "view",
      "type": "function"
    },
    {
      "inputs": [
        {
          "internalType": "uint256",
          "name": "",
          "type": "uint256"
        }
      ],
      "name": "numberToCreator",
      "outputs": [
        {
          "internalType": "address payable",
          "name": "creatorAddress",
          "type": "address"
        },
        {
          "internalType": "string",
          "name": "profileMessage",
          "type": "string"
        },
        {
          "internalType": "uint256",
          "name": "tipsReceived",
          "type": "uint256"
        },
        {
          "internalType": "uint256",
          "name": "profileToken",
          "type": "uint256"
        },
        {
          "internalType": "uint256",
          "name": "numOfLikes",
          "type": "uint256"
        },
        {
          "internalType": "string",
          "name": "username",
          "type": "string"
        }
      ],
      "stateMutability": "view",
      "type": "function"
    },
    {
      "inputs": [
        {
          "internalType": "uint256",
          "name": "tokenId",
          "type": "uint256"
        }
      ],
      "name": "ownerOf",
      "outputs": [
        {
          "internalType": "address",
          "name": "",
          "type": "address"
        }
      ],
      "stateMutability": "view",
      "type": "function"
    },
    {
      "inputs": [],
      "name": "returnAllProfiles",
      "outputs": [
        {
          "components": [
            {
              "internalType": "address payable",
              "name": "creatorAddress",
              "type": "address"
            },
            {
              "internalType": "string",
              "name": "profileMessage",
              "type": "string"
            },
            {
              "internalType": "uint256",
              "name": "tipsReceived",
              "type": "uint256"
            },
            {
              "internalType": "uint256",
              "name": "profileToken",
              "type": "uint256"
            },
            {
              "internalType": "uint256",
              "name": "numOfLikes",
              "type": "uint256"
            },
            {
              "internalType": "string",
              "name": "username",
              "type": "string"
            }
          ],
          "internalType": "struct ProfileNFT.Creator[]",
          "name": "",
          "type": "tuple[]"
        }
      ],
      "stateMutability": "view",
      "type": "function"
    },
    {
      "inputs": [
        {
          "internalType": "address",
          "name": "from",
          "type": "address"
        },
        {
          "internalType": "address",
          "name": "to",
          "type": "address"
        },
        {
          "internalType": "uint256",
          "name": "tokenId",
          "type": "uint256"
        }
      ],
      "name": "safeTransferFrom",
      "outputs": [],
      "stateMutability": "nonpayable",
      "type": "function"
    },
    {
      "inputs": [
        {
          "internalType": "address",
          "name": "from",
          "type": "address"
        },
        {
          "internalType": "address",
          "name": "to",
          "type": "address"
        },
        {
          "internalType": "uint256",
          "name": "tokenId",
          "type": "uint256"
        },
        {
          "internalType": "bytes",
          "name": "data",
          "type": "bytes"
        }
      ],
      "name": "safeTransferFrom",
      "outputs": [],
      "stateMutability": "nonpayable",
      "type": "function"
    },
    {
      "inputs": [
        {
          "internalType": "address",
          "name": "creatorAddress",
          "type": "address"
        }
      ],
      "name": "sendLike",
      "outputs": [
        {
          "internalType": "uint256",
          "name": "",
          "type": "uint256"
        }
      ],
      "stateMutability": "nonpayable",
      "type": "function"
    },
    {
      "inputs": [
        {
          "internalType": "address",
          "name": "operator",
          "type": "address"
        },
        {
          "internalType": "bool",
          "name": "approved",
          "type": "bool"
        }
      ],
      "name": "setApprovalForAll",
      "outputs": [],
      "stateMutability": "nonpayable",
      "type": "function"
    },
    {
      "inputs": [
        {
          "internalType": "address",
          "name": "creatorsPro",
          "type": "address"
        },
        {
          "internalType": "string",
          "name": "message",
          "type": "string"
        }
      ],
      "name": "setMessage",
      "outputs": [
        {
          "internalType": "string",
          "name": "",
          "type": "string"
        }
      ],
      "stateMutability": "nonpayable",
      "type": "function"
    },
    {
      "inputs": [
        {
          "internalType": "uint256",
          "name": "tokenId",
          "type": "uint256"
        }
      ],
      "name": "setProfile",
      "outputs": [
        {
          "internalType": "uint256",
          "name": "",
          "type": "uint256"
        }
      ],
      "stateMutability": "nonpayable",
      "type": "function"
    },
    {
      "inputs": [
        {
          "internalType": "address",
          "name": "creatorAddress",
          "type": "address"
        },
        {
          "internalType": "string",
          "name": "_username",
          "type": "string"
        }
      ],
      "name": "setUsername",
      "outputs": [
        {
          "internalType": "string",
          "name": "",
          "type": "string"
        }
      ],
      "stateMutability": "nonpayable",
      "type": "function"
    },
    {
      "inputs": [
        {
          "internalType": "bytes4",
          "name": "interfaceId",
          "type": "bytes4"
        }
      ],
      "name": "supportsInterface",
      "outputs": [
        {
          "internalType": "bool",
          "name": "",
          "type": "bool"
        }
      ],
      "stateMutability": "view",
      "type": "function"
    },
    {
      "inputs": [],
      "name": "symbol",
      "outputs": [
        {
          "internalType": "string",
          "name": "",
          "type": "string"
        }
      ],
      "stateMutability": "view",
      "type": "function"
    },
    {
      "inputs": [
        {
          "internalType": "address",
          "name": "creatorAddress",
          "type": "address"
        }
      ],
      "name": "tipCreator",
      "outputs": [
        {
          "internalType": "uint256",
          "name": "",
          "type": "uint256"
        }
      ],
      "stateMutability": "payable",
      "type": "function"
    },
    {
      "inputs": [],
      "name": "tokenCount",
      "outputs": [
        {
          "internalType": "uint256",
          "name": "",
          "type": "uint256"
        }
      ],
      "stateMutability": "view",
      "type": "function"
    },
    {
      "inputs": [
        {
          "internalType": "uint256",
          "name": "tokenId",
          "type": "uint256"
        }
      ],
      "name": "tokenURI",
      "outputs": [
        {
          "internalType": "string",
          "name": "",
          "type": "string"
        }
      ],
      "stateMutability": "view",
      "type": "function"
    },
    {
      "inputs": [
        {
          "internalType": "address",
          "name": "from",
          "type": "address"
        },
        {
          "internalType": "address",
          "name": "to",
          "type": "address"
        },
        {
          "internalType": "uint256",
          "name": "tokenId",
          "type": "uint256"
        }
      ],
      "name": "transferFrom",
      "outputs": [],
      "stateMutability": "nonpayable",
      "type": "function"
    },
    {
      "inputs": [
        {
          "internalType": "uint256",
          "name": "",
          "type": "uint256"
        }
      ],
      "name": "users",
      "outputs": [
        {
          "internalType": "address",
          "name": "",
          "type": "address"
        }
      ],
      "stateMutability": "view",
      "type": "function"
    }
  ],
  "bytecode": "0x60806040523480156200001157600080fd5b506040518060400160405280601181526020017f4465666942656174732050726f66696c650000000000000000000000000000008152506040518060400160405280600481526020017f444642500000000000000000000000000000000000000000000000000000000081525081600090816200008f919062000324565b508060019081620000a1919062000324565b5050506200040b565b600081519050919050565b7f4e487b7100000000000000000000000000000000000000000000000000000000600052604160045260246000fd5b7f4e487b7100000000000000000000000000000000000000000000000000000000600052602260045260246000fd5b600060028204905060018216806200012c57607f821691505b602082108103620001425762000141620000e4565b5b50919050565b60008190508160005260206000209050919050565b60006020601f8301049050919050565b600082821b905092915050565b600060088302620001ac7fffffffffffffffffffffffffffffffffffffffffffffffffffffffffffffffff826200016d565b620001b886836200016d565b95508019841693508086168417925050509392505050565b6000819050919050565b6000819050919050565b600062000205620001ff620001f984620001d0565b620001da565b620001d0565b9050919050565b6000819050919050565b6200022183620001e4565b6200023962000230826200020c565b8484546200017a565b825550505050565b600090565b6200025062000241565b6200025d81848462000216565b505050565b5b8181101562000285576200027960008262000246565b60018101905062000263565b5050565b601f821115620002d4576200029e8162000148565b620002a9846200015d565b81016020851015620002b9578190505b620002d1620002c8856200015d565b83018262000262565b50505b505050565b600082821c905092915050565b6000620002f960001984600802620002d9565b1980831691505092915050565b6000620003148383620002e6565b9150826002028217905092915050565b6200032f82620000aa565b67ffffffffffffffff8111156200034b576200034a620000b5565b5b62000357825462000113565b6200036482828562000289565b600060209050601f8311600181146200039c576000841562000387578287015190505b62000393858262000306565b86555062000403565b601f198416620003ac8662000148565b60005b82811015620003d657848901518255600182019150602085019450602081019050620003af565b86831015620003f65784890151620003f2601f891682620002e6565b8355505b6001600288020188555050505b505050505050565b614816806200041b6000396000f3fe60806040526004361061019c5760003560e01c806370a08231116100ec578063c87b56dd1161008a578063e985e9c511610064578063e985e9c514610659578063e9aa460f14610696578063ebb14c7f146106d3578063f8b60fe3146107105761019c565b8063c87b56dd146105a2578063d85d3d27146105df578063e20454521461061c5761019c565b80639f181b5e116100c65780639f181b5e146104e3578063a22cb4651461050e578063b5db047214610537578063b88d4fde146105795761019c565b806370a082311461043e57806385d3cb371461047b57806395d89b41146104b85761019c565b806323b872dd1161015957806342842e0e1161013357806342842e0e1461037f57806342966c68146103a85780636352211e146103d157806365c4e4aa1461040e5761019c565b806323b872dd146102ee578063365b98b21461031757806340cfadf8146103545761019c565b806301ffc9a7146101a157806306fdde03146101de578063081812fc14610209578063095ea7b3146102465780630aef61a11461026f5780630c5d6ed0146102b1575b600080fd5b3480156101ad57600080fd5b506101c860048036038101906101c39190612fc6565b61074d565b6040516101d5919061300e565b60405180910390f35b3480156101ea57600080fd5b506101f361082f565b60405161020091906130b9565b60405180910390f35b34801561021557600080fd5b50610230600480360381019061022b9190613111565b6108c1565b60405161023d919061317f565b60405180910390f35b34801561025257600080fd5b5061026d600480360381019061026891906131c6565b610907565b005b34801561027b57600080fd5b5061029660048036038101906102919190613111565b610a1e565b6040516102a896959493929190613236565b60405180910390f35b3480156102bd57600080fd5b506102d860048036038101906102d391906132a5565b610b8a565b6040516102e591906132d2565b60405180910390f35b3480156102fa57600080fd5b50610315600480360381019061031091906132ed565b610ba2565b005b34801561032357600080fd5b5061033e60048036038101906103399190613111565b610c02565b60405161034b919061317f565b60405180910390f35b34801561036057600080fd5b50610369610c41565b60405161037691906134fa565b60405180910390f35b34801561038b57600080fd5b506103a660048036038101906103a191906132ed565b610f0a565b005b3480156103b457600080fd5b506103cf60048036038101906103ca9190613111565b610f2a565b005b3480156103dd57600080fd5b506103f860048036038101906103f39190613111565b611021565b604051610405919061317f565b60405180910390f35b610428600480360381019061042391906132a5565b6110d2565b60405161043591906132d2565b60405180910390f35b34801561044a57600080fd5b50610465600480360381019061046091906132a5565b611230565b60405161047291906132d2565b60405180910390f35b34801561048757600080fd5b506104a2600480360381019061049d9190613111565b6112e7565b6040516104af91906132d2565b60405180910390f35b3480156104c457600080fd5b506104cd6113b2565b6040516104da91906130b9565b60405180910390f35b3480156104ef57600080fd5b506104f8611444565b60405161050591906132d2565b60405180910390f35b34801561051a57600080fd5b5061053560048036038101906105309190613548565b61144a565b005b34801561054357600080fd5b5061055e600480360381019061055991906132a5565b611460565b60405161057096959493929190613236565b60405180910390f35b34801561058557600080fd5b506105a0600480360381019061059b91906136bd565b6115cc565b005b3480156105ae57600080fd5b506105c960048036038101906105c49190613111565b61162e565b6040516105d691906130b9565b60405180910390f35b3480156105eb57600080fd5b50610606600480360381019061060191906137e1565b611740565b60405161061391906132d2565b60405180910390f35b34801561062857600080fd5b50610643600480360381019061063e919061382a565b611ad3565b60405161065091906130b9565b60405180910390f35b34801561066557600080fd5b50610680600480360381019061067b9190613886565b611c29565b60405161068d919061300e565b60405180910390f35b3480156106a257600080fd5b506106bd60048036038101906106b8919061382a565b611cbd565b6040516106ca91906130b9565b60405180910390f35b3480156106df57600080fd5b506106fa60048036038101906106f591906132a5565b611e37565b60405161070791906132d2565b60405180910390f35b34801561071c57600080fd5b5061073760048036038101906107329190613886565b612070565b604051610744919061300e565b60405180910390f35b60007f80ac58cd000000000000000000000000000000000000000000000000000000007bffffffffffffffffffffffffffffffffffffffffffffffffffffffff1916827bffffffffffffffffffffffffffffffffffffffffffffffffffffffff1916148061081857507f5b5e139f000000000000000000000000000000000000000000000000000000007bffffffffffffffffffffffffffffffffffffffffffffffffffffffff1916827bffffffffffffffffffffffffffffffffffffffffffffffffffffffff1916145b8061082857506108278261209f565b5b9050919050565b60606000805461083e906138f5565b80601f016020809104026020016040519081016040528092919081815260200182805461086a906138f5565b80156108b75780601f1061088c576101008083540402835291602001916108b7565b820191906000526020600020905b81548152906001019060200180831161089a57829003601f168201915b5050505050905090565b60006108cc82612109565b6004600083815260200190815260200160002060009054906101000a900473ffffffffffffffffffffffffffffffffffffffff169050919050565b600061091282611021565b90508073ffffffffffffffffffffffffffffffffffffffff168373ffffffffffffffffffffffffffffffffffffffff1603610982576040517f08c379a000000000000000000000000000000000000000000000000000000000815260040161097990613998565b60405180910390fd5b8073ffffffffffffffffffffffffffffffffffffffff166109a1612154565b73ffffffffffffffffffffffffffffffffffffffff1614806109d057506109cf816109ca612154565b611c29565b5b610a0f576040517f08c379a0000000000000000000000000000000000000000000000000000000008152600401610a0690613a2a565b60405180910390fd5b610a19838361215c565b505050565b600a6020528060005260406000206000915090508060000160009054906101000a900473ffffffffffffffffffffffffffffffffffffffff1690806001018054610a67906138f5565b80601f0160208091040260200160405190810160405280929190818152602001828054610a93906138f5565b8015610ae05780601f10610ab557610100808354040283529160200191610ae0565b820191906000526020600020905b815481529060010190602001808311610ac357829003601f168201915b505050505090806002015490806003015490806004015490806005018054610b07906138f5565b80601f0160208091040260200160405190810160405280929190818152602001828054610b33906138f5565b8015610b805780601f10610b5557610100808354040283529160200191610b80565b820191906000526020600020905b815481529060010190602001808311610b6357829003601f168201915b5050505050905086565b60096020528060005260406000206000915090505481565b610bb3610bad612154565b82612215565b610bf2576040517f08c379a0000000000000000000000000000000000000000000000000000000008152600401610be990613abc565b60405180910390fd5b610bfd8383836122aa565b505050565b600d8181548110610c1257600080fd5b906000526020600020016000915054906101000a900473ffffffffffffffffffffffffffffffffffffffff1681565b60606000600d80549050905060008167ffffffffffffffff811115610c6957610c68613592565b5b604051908082528060200260200182016040528015610ca257816020015b610c8f612eb1565b815260200190600190039081610c875790505b50905060005b82811015610f0157600b6000600d8381548110610cc857610cc7613adc565b5b9060005260206000200160009054906101000a900473ffffffffffffffffffffffffffffffffffffffff1673ffffffffffffffffffffffffffffffffffffffff1673ffffffffffffffffffffffffffffffffffffffff1681526020019081526020016000206040518060c00160405290816000820160009054906101000a900473ffffffffffffffffffffffffffffffffffffffff1673ffffffffffffffffffffffffffffffffffffffff1673ffffffffffffffffffffffffffffffffffffffff168152602001600182018054610d9e906138f5565b80601f0160208091040260200160405190810160405280929190818152602001828054610dca906138f5565b8015610e175780601f10610dec57610100808354040283529160200191610e17565b820191906000526020600020905b815481529060010190602001808311610dfa57829003601f168201915b50505050508152602001600282015481526020016003820154815260200160048201548152602001600582018054610e4e906138f5565b80601f0160208091040260200160405190810160405280929190818152602001828054610e7a906138f5565b8015610ec75780601f10610e9c57610100808354040283529160200191610ec7565b820191906000526020600020905b815481529060010190602001808311610eaa57829003601f168201915b505050505081525050828281518110610ee357610ee2613adc565b5b60200260200101819052508080610ef990613b3a565b915050610ca8565b50809250505090565b610f25838383604051806020016040528060008152506115cc565b505050565b610f3381611021565b73ffffffffffffffffffffffffffffffffffffffff163373ffffffffffffffffffffffffffffffffffffffff1614610fa0576040517f08c379a0000000000000000000000000000000000000000000000000000000008152600401610f9790613bce565b60405180910390fd5b600a6000828152602001908152602001600020600080820160006101000a81549073ffffffffffffffffffffffffffffffffffffffff0219169055600182016000610feb9190612efd565b6002820160009055600382016000905560048201600090556005820160006110139190612efd565b505061101e81612510565b50565b6000806002600084815260200190815260200160002060009054906101000a900473ffffffffffffffffffffffffffffffffffffffff169050600073ffffffffffffffffffffffffffffffffffffffff168173ffffffffffffffffffffffffffffffffffffffff16036110c9576040517f08c379a00000000000000000000000000000000000000000000000000000000081526004016110c090613c3a565b60405180910390fd5b80915050919050565b6000803411611116576040517f08c379a000000000000000000000000000000000000000000000000000000000815260040161110d90613ca6565b60405180910390fd5b8173ffffffffffffffffffffffffffffffffffffffff163373ffffffffffffffffffffffffffffffffffffffff1603611184576040517f08c379a000000000000000000000000000000000000000000000000000000000815260040161117b90613d12565b60405180910390fd5b6000600b60008473ffffffffffffffffffffffffffffffffffffffff1673ffffffffffffffffffffffffffffffffffffffff16815260200190815260200160002090508273ffffffffffffffffffffffffffffffffffffffff166108fc349081150290604051600060405180830381858888f1935050505015801561120d573d6000803e3d6000fd5b50348160020160008282546112229190613d32565b925050819055915050919050565b60008073ffffffffffffffffffffffffffffffffffffffff168273ffffffffffffffffffffffffffffffffffffffff16036112a0576040517f08c379a000000000000000000000000000000000000000000000000000000000815260040161129790613dd8565b60405180910390fd5b600360008373ffffffffffffffffffffffffffffffffffffffff1673ffffffffffffffffffffffffffffffffffffffff168152602001908152602001600020549050919050565b60006112f282611021565b73ffffffffffffffffffffffffffffffffffffffff163373ffffffffffffffffffffffffffffffffffffffff161461135f576040517f08c379a000000000000000000000000000000000000000000000000000000000815260040161135690613e6a565b60405180910390fd5b6000600b60003373ffffffffffffffffffffffffffffffffffffffff1673ffffffffffffffffffffffffffffffffffffffff16815260200190815260200160002090508281600301819055915050919050565b6060600180546113c1906138f5565b80601f01602080910402602001604051908101604052809291908181526020018280546113ed906138f5565b801561143a5780601f1061140f5761010080835404028352916020019161143a565b820191906000526020600020905b81548152906001019060200180831161141d57829003601f168201915b5050505050905090565b60085481565b61145c611455612154565b8383612563565b5050565b600b6020528060005260406000206000915090508060000160009054906101000a900473ffffffffffffffffffffffffffffffffffffffff16908060010180546114a9906138f5565b80601f01602080910402602001604051908101604052809291908181526020018280546114d5906138f5565b80156115225780601f106114f757610100808354040283529160200191611522565b820191906000526020600020905b81548152906001019060200180831161150557829003601f168201915b505050505090806002015490806003015490806004015490806005018054611549906138f5565b80601f0160208091040260200160405190810160405280929190818152602001828054611575906138f5565b80156115c25780601f10611597576101008083540402835291602001916115c2565b820191906000526020600020905b8154815290600101906020018083116115a557829003601f168201915b5050505050905086565b6115dd6115d7612154565b83612215565b61161c576040517f08c379a000000000000000000000000000000000000000000000000000000000815260040161161390613abc565b60405180910390fd5b611628848484846126cf565b50505050565b606061163982612109565b6000600660008481526020019081526020016000208054611659906138f5565b80601f0160208091040260200160405190810160405280929190818152602001828054611685906138f5565b80156116d25780601f106116a7576101008083540402835291602001916116d2565b820191906000526020600020905b8154815290600101906020018083116116b557829003601f168201915b5050505050905060006116e361272b565b905060008151036116f857819250505061173b565b60008251111561172d578082604051602001611715929190613ec6565b6040516020818303038152906040529250505061173b565b61173684612742565b925050505b919050565b600061174c60076127aa565b6008600081548092919061175f90613b3a565b9190505550600061177060076127c0565b905061177c33826127ce565b600073ffffffffffffffffffffffffffffffffffffffff16600b60003373ffffffffffffffffffffffffffffffffffffffff1673ffffffffffffffffffffffffffffffffffffffff16815260200190815260200160002060000160009054906101000a900473ffffffffffffffffffffffffffffffffffffffff1673ffffffffffffffffffffffffffffffffffffffff1603611ab657600d339080600181540180825580915050600190039060005260206000200160009091909190916101000a81548173ffffffffffffffffffffffffffffffffffffffff021916908373ffffffffffffffffffffffffffffffffffffffff1602179055506040518060c001604052803373ffffffffffffffffffffffffffffffffffffffff168152602001604051806020016040528060008152508152602001600081526020018281526020016000815260200160405180602001604052806000815250815250600b60003373ffffffffffffffffffffffffffffffffffffffff1673ffffffffffffffffffffffffffffffffffffffff16815260200190815260200160002060008201518160000160006101000a81548173ffffffffffffffffffffffffffffffffffffffff021916908373ffffffffffffffffffffffffffffffffffffffff16021790555060208201518160010190816119739190614096565b5060408201518160020155606082015181600301556080820151816004015560a08201518160050190816119a79190614096565b509050506040518060c001604052803373ffffffffffffffffffffffffffffffffffffffff168152602001604051806020016040528060008152508152602001600081526020018281526020016000815260200160405180602001604052806000815250815250600a600083815260200190815260200160002060008201518160000160006101000a81548173ffffffffffffffffffffffffffffffffffffffff021916908373ffffffffffffffffffffffffffffffffffffffff1602179055506020820151816001019081611a7d9190614096565b5060408201518160020155606082015181600301556080820151816004015560a0820151816005019081611ab19190614096565b509050505b611ac081846129a7565b611ac9816112e7565b5080915050919050565b60608273ffffffffffffffffffffffffffffffffffffffff163373ffffffffffffffffffffffffffffffffffffffff1614611b43576040517f08c379a0000000000000000000000000000000000000000000000000000000008152600401611b3a906141b4565b60405180910390fd5b6000600b60003373ffffffffffffffffffffffffffffffffffffffff1673ffffffffffffffffffffffffffffffffffffffff168152602001908152602001600020905082816005019081611b979190614096565b8054611ba2906138f5565b80601f0160208091040260200160405190810160405280929190818152602001828054611bce906138f5565b8015611c1b5780601f10611bf057610100808354040283529160200191611c1b565b820191906000526020600020905b815481529060010190602001808311611bfe57829003601f168201915b505050505091505092915050565b6000600560008473ffffffffffffffffffffffffffffffffffffffff1673ffffffffffffffffffffffffffffffffffffffff16815260200190815260200160002060008373ffffffffffffffffffffffffffffffffffffffff1673ffffffffffffffffffffffffffffffffffffffff16815260200190815260200160002060009054906101000a900460ff16905092915050565b60606000600b60008573ffffffffffffffffffffffffffffffffffffffff1673ffffffffffffffffffffffffffffffffffffffff16815260200190815260200160002090508060000160009054906101000a900473ffffffffffffffffffffffffffffffffffffffff1673ffffffffffffffffffffffffffffffffffffffff163373ffffffffffffffffffffffffffffffffffffffff1614611d94576040517f08c379a0000000000000000000000000000000000000000000000000000000008152600401611d8b90614220565b60405180910390fd5b82816001019081611da59190614096565b8054611db0906138f5565b80601f0160208091040260200160405190810160405280929190818152602001828054611ddc906138f5565b8015611e295780601f10611dfe57610100808354040283529160200191611e29565b820191906000526020600020905b815481529060010190602001808311611e0c57829003601f168201915b505050505091505092915050565b60008173ffffffffffffffffffffffffffffffffffffffff163373ffffffffffffffffffffffffffffffffffffffff1603611ea7576040517f08c379a0000000000000000000000000000000000000000000000000000000008152600401611e9e906141b4565b60405180910390fd5b60001515600c60003373ffffffffffffffffffffffffffffffffffffffff1673ffffffffffffffffffffffffffffffffffffffff16815260200190815260200160002060008473ffffffffffffffffffffffffffffffffffffffff1673ffffffffffffffffffffffffffffffffffffffff16815260200190815260200160002060009054906101000a900460ff16151514611f77576040517f08c379a0000000000000000000000000000000000000000000000000000000008152600401611f6e9061428c565b60405180910390fd5b6001600c60003373ffffffffffffffffffffffffffffffffffffffff1673ffffffffffffffffffffffffffffffffffffffff16815260200190815260200160002060008473ffffffffffffffffffffffffffffffffffffffff1673ffffffffffffffffffffffffffffffffffffffff16815260200190815260200160002060006101000a81548160ff0219169083151502179055506000600b60008473ffffffffffffffffffffffffffffffffffffffff1673ffffffffffffffffffffffffffffffffffffffff168152602001908152602001600020905080600401600081548092919061206490613b3a565b91905055915050919050565b600c6020528160005260406000206020528060005260406000206000915091509054906101000a900460ff1681565b60007f01ffc9a7000000000000000000000000000000000000000000000000000000007bffffffffffffffffffffffffffffffffffffffffffffffffffffffff1916827bffffffffffffffffffffffffffffffffffffffffffffffffffffffff1916149050919050565b61211281612a14565b612151576040517f08c379a000000000000000000000000000000000000000000000000000000000815260040161214890613c3a565b60405180910390fd5b50565b600033905090565b816004600083815260200190815260200160002060006101000a81548173ffffffffffffffffffffffffffffffffffffffff021916908373ffffffffffffffffffffffffffffffffffffffff160217905550808273ffffffffffffffffffffffffffffffffffffffff166121cf83611021565b73ffffffffffffffffffffffffffffffffffffffff167f8c5be1e5ebec7d5bd14f71427d1e84f3dd0314c0f7b2291e5b200ac8c7c3b92560405160405180910390a45050565b60008061222183611021565b90508073ffffffffffffffffffffffffffffffffffffffff168473ffffffffffffffffffffffffffffffffffffffff16148061226357506122628185611c29565b5b806122a157508373ffffffffffffffffffffffffffffffffffffffff16612289846108c1565b73ffffffffffffffffffffffffffffffffffffffff16145b91505092915050565b8273ffffffffffffffffffffffffffffffffffffffff166122ca82611021565b73ffffffffffffffffffffffffffffffffffffffff1614612320576040517f08c379a00000000000000000000000000000000000000000000000000000000081526004016123179061431e565b60405180910390fd5b600073ffffffffffffffffffffffffffffffffffffffff168273ffffffffffffffffffffffffffffffffffffffff160361238f576040517f08c379a0000000000000000000000000000000000000000000000000000000008152600401612386906143b0565b60405180910390fd5b61239a838383612a80565b6123a560008261215c565b6001600360008573ffffffffffffffffffffffffffffffffffffffff1673ffffffffffffffffffffffffffffffffffffffff16815260200190815260200160002060008282546123f591906143d0565b925050819055506001600360008473ffffffffffffffffffffffffffffffffffffffff1673ffffffffffffffffffffffffffffffffffffffff168152602001908152602001600020600082825461244c9190613d32565b92505081905550816002600083815260200190815260200160002060006101000a81548173ffffffffffffffffffffffffffffffffffffffff021916908373ffffffffffffffffffffffffffffffffffffffff160217905550808273ffffffffffffffffffffffffffffffffffffffff168473ffffffffffffffffffffffffffffffffffffffff167fddf252ad1be2c89b69c2b068fc378daa952ba7f163c4a11628f55a4df523b3ef60405160405180910390a461250b838383612a85565b505050565b61251981612a8a565b6000600660008381526020019081526020016000208054612539906138f5565b9050146125605760066000828152602001908152602001600020600061255f9190612efd565b5b50565b8173ffffffffffffffffffffffffffffffffffffffff168373ffffffffffffffffffffffffffffffffffffffff16036125d1576040517f08c379a00000000000000000000000000000000000000000000000000000000081526004016125c890614450565b60405180910390fd5b80600560008573ffffffffffffffffffffffffffffffffffffffff1673ffffffffffffffffffffffffffffffffffffffff16815260200190815260200160002060008473ffffffffffffffffffffffffffffffffffffffff1673ffffffffffffffffffffffffffffffffffffffff16815260200190815260200160002060006101000a81548160ff0219169083151502179055508173ffffffffffffffffffffffffffffffffffffffff168373ffffffffffffffffffffffffffffffffffffffff167f17307eab39ab6107e8899845ad3d59bd9653f200f220920489ca2b5937696c31836040516126c2919061300e565b60405180910390a3505050565b6126da8484846122aa565b6126e684848484612ba7565b612725576040517f08c379a000000000000000000000000000000000000000000000000000000000815260040161271c906144e2565b60405180910390fd5b50505050565b606060405180602001604052806000815250905090565b606061274d82612109565b600061275761272b565b9050600081511161277757604051806020016040528060008152506127a2565b8061278184612d2e565b604051602001612792929190613ec6565b6040516020818303038152906040525b915050919050565b6001816000016000828254019250508190555050565b600081600001549050919050565b600073ffffffffffffffffffffffffffffffffffffffff168273ffffffffffffffffffffffffffffffffffffffff160361283d576040517f08c379a00000000000000000000000000000000000000000000000000000000081526004016128349061454e565b60405180910390fd5b61284681612a14565b15612886576040517f08c379a000000000000000000000000000000000000000000000000000000000815260040161287d906145ba565b60405180910390fd5b61289260008383612a80565b6001600360008473ffffffffffffffffffffffffffffffffffffffff1673ffffffffffffffffffffffffffffffffffffffff16815260200190815260200160002060008282546128e29190613d32565b92505081905550816002600083815260200190815260200160002060006101000a81548173ffffffffffffffffffffffffffffffffffffffff021916908373ffffffffffffffffffffffffffffffffffffffff160217905550808273ffffffffffffffffffffffffffffffffffffffff16600073ffffffffffffffffffffffffffffffffffffffff167fddf252ad1be2c89b69c2b068fc378daa952ba7f163c4a11628f55a4df523b3ef60405160405180910390a46129a360008383612a85565b5050565b6129b082612a14565b6129ef576040517f08c379a00000000000000000000000000000000000000000000000000000000081526004016129e69061464c565b60405180910390fd5b80600660008481526020019081526020016000209081612a0f9190614096565b505050565b60008073ffffffffffffffffffffffffffffffffffffffff166002600084815260200190815260200160002060009054906101000a900473ffffffffffffffffffffffffffffffffffffffff1673ffffffffffffffffffffffffffffffffffffffff1614159050919050565b505050565b505050565b6000612a9582611021565b9050612aa381600084612a80565b612aae60008361215c565b6001600360008373ffffffffffffffffffffffffffffffffffffffff1673ffffffffffffffffffffffffffffffffffffffff1681526020019081526020016000206000828254612afe91906143d0565b925050819055506002600083815260200190815260200160002060006101000a81549073ffffffffffffffffffffffffffffffffffffffff021916905581600073ffffffffffffffffffffffffffffffffffffffff168273ffffffffffffffffffffffffffffffffffffffff167fddf252ad1be2c89b69c2b068fc378daa952ba7f163c4a11628f55a4df523b3ef60405160405180910390a4612ba381600084612a85565b5050565b6000612bc88473ffffffffffffffffffffffffffffffffffffffff16612e8e565b15612d21578373ffffffffffffffffffffffffffffffffffffffff1663150b7a02612bf1612154565b8786866040518563ffffffff1660e01b8152600401612c1394939291906146c1565b6020604051808303816000875af1925050508015612c4f57506040513d601f19601f82011682018060405250810190612c4c9190614722565b60015b612cd1573d8060008114612c7f576040519150601f19603f3d011682016040523d82523d6000602084013e612c84565b606091505b506000815103612cc9576040517f08c379a0000000000000000000000000000000000000000000000000000000008152600401612cc0906144e2565b60405180910390fd5b805181602001fd5b63150b7a0260e01b7bffffffffffffffffffffffffffffffffffffffffffffffffffffffff1916817bffffffffffffffffffffffffffffffffffffffffffffffffffffffff191614915050612d26565b600190505b949350505050565b606060008203612d75576040518060400160405280600181526020017f30000000000000000000000000000000000000000000000000000000000000008152509050612e89565b600082905060005b60008214612da7578080612d9090613b3a565b915050600a82612da0919061477e565b9150612d7d565b60008167ffffffffffffffff811115612dc357612dc2613592565b5b6040519080825280601f01601f191660200182016040528015612df55781602001600182028036833780820191505090505b5090505b60008514612e8257600182612e0e91906143d0565b9150600a85612e1d91906147af565b6030612e299190613d32565b60f81b818381518110612e3f57612e3e613adc565b5b60200101907effffffffffffffffffffffffffffffffffffffffffffffffffffffffffffff1916908160001a905350600a85612e7b919061477e565b9450612df9565b8093505050505b919050565b6000808273ffffffffffffffffffffffffffffffffffffffff163b119050919050565b6040518060c00160405280600073ffffffffffffffffffffffffffffffffffffffff16815260200160608152602001600081526020016000815260200160008152602001606081525090565b508054612f09906138f5565b6000825580601f10612f1b5750612f3a565b601f016020900490600052602060002090810190612f399190612f3d565b5b50565b5b80821115612f56576000816000905550600101612f3e565b5090565b6000604051905090565b600080fd5b600080fd5b60007fffffffff0000000000000000000000000000000000000000000000000000000082169050919050565b612fa381612f6e565b8114612fae57600080fd5b50565b600081359050612fc081612f9a565b92915050565b600060208284031215612fdc57612fdb612f64565b5b6000612fea84828501612fb1565b91505092915050565b60008115159050919050565b61300881612ff3565b82525050565b60006020820190506130236000830184612fff565b92915050565b600081519050919050565b600082825260208201905092915050565b60005b83811015613063578082015181840152602081019050613048565b60008484015250505050565b6000601f19601f8301169050919050565b600061308b82613029565b6130958185613034565b93506130a5818560208601613045565b6130ae8161306f565b840191505092915050565b600060208201905081810360008301526130d38184613080565b905092915050565b6000819050919050565b6130ee816130db565b81146130f957600080fd5b50565b60008135905061310b816130e5565b92915050565b60006020828403121561312757613126612f64565b5b6000613135848285016130fc565b91505092915050565b600073ffffffffffffffffffffffffffffffffffffffff82169050919050565b60006131698261313e565b9050919050565b6131798161315e565b82525050565b60006020820190506131946000830184613170565b92915050565b6131a38161315e565b81146131ae57600080fd5b50565b6000813590506131c08161319a565b92915050565b600080604083850312156131dd576131dc612f64565b5b60006131eb858286016131b1565b92505060206131fc858286016130fc565b9150509250929050565b60006132118261313e565b9050919050565b61322181613206565b82525050565b613230816130db565b82525050565b600060c08201905061324b6000830189613218565b818103602083015261325d8188613080565b905061326c6040830187613227565b6132796060830186613227565b6132866080830185613227565b81810360a08301526132988184613080565b9050979650505050505050565b6000602082840312156132bb576132ba612f64565b5b60006132c9848285016131b1565b91505092915050565b60006020820190506132e76000830184613227565b92915050565b60008060006060848603121561330657613305612f64565b5b6000613314868287016131b1565b9350506020613325868287016131b1565b9250506040613336868287016130fc565b9150509250925092565b600081519050919050565b600082825260208201905092915050565b6000819050602082019050919050565b61337581613206565b82525050565b600082825260208201905092915050565b600061339782613029565b6133a1818561337b565b93506133b1818560208601613045565b6133ba8161306f565b840191505092915050565b6133ce816130db565b82525050565b600060c0830160008301516133ec600086018261336c565b5060208301518482036020860152613404828261338c565b915050604083015161341960408601826133c5565b50606083015161342c60608601826133c5565b50608083015161343f60808601826133c5565b5060a083015184820360a0860152613457828261338c565b9150508091505092915050565b600061347083836133d4565b905092915050565b6000602082019050919050565b600061349082613340565b61349a818561334b565b9350836020820285016134ac8561335c565b8060005b858110156134e857848403895281516134c98582613464565b94506134d483613478565b925060208a019950506001810190506134b0565b50829750879550505050505092915050565b600060208201905081810360008301526135148184613485565b905092915050565b61352581612ff3565b811461353057600080fd5b50565b6000813590506135428161351c565b92915050565b6000806040838503121561355f5761355e612f64565b5b600061356d858286016131b1565b925050602061357e85828601613533565b9150509250929050565b600080fd5b600080fd5b7f4e487b7100000000000000000000000000000000000000000000000000000000600052604160045260246000fd5b6135ca8261306f565b810181811067ffffffffffffffff821117156135e9576135e8613592565b5b80604052505050565b60006135fc612f5a565b905061360882826135c1565b919050565b600067ffffffffffffffff82111561362857613627613592565b5b6136318261306f565b9050602081019050919050565b82818337600083830152505050565b600061366061365b8461360d565b6135f2565b90508281526020810184848401111561367c5761367b61358d565b5b61368784828561363e565b509392505050565b600082601f8301126136a4576136a3613588565b5b81356136b484826020860161364d565b91505092915050565b600080600080608085870312156136d7576136d6612f64565b5b60006136e5878288016131b1565b94505060206136f6878288016131b1565b9350506040613707878288016130fc565b925050606085013567ffffffffffffffff81111561372857613727612f69565b5b6137348782880161368f565b91505092959194509250565b600067ffffffffffffffff82111561375b5761375a613592565b5b6137648261306f565b9050602081019050919050565b600061378461377f84613740565b6135f2565b9050828152602081018484840111156137a05761379f61358d565b5b6137ab84828561363e565b509392505050565b600082601f8301126137c8576137c7613588565b5b81356137d8848260208601613771565b91505092915050565b6000602082840312156137f7576137f6612f64565b5b600082013567ffffffffffffffff81111561381557613814612f69565b5b613821848285016137b3565b91505092915050565b6000806040838503121561384157613840612f64565b5b600061384f858286016131b1565b925050602083013567ffffffffffffffff8111156138705761386f612f69565b5b61387c858286016137b3565b9150509250929050565b6000806040838503121561389d5761389c612f64565b5b60006138ab858286016131b1565b92505060206138bc858286016131b1565b9150509250929050565b7f4e487b7100000000000000000000000000000000000000000000000000000000600052602260045260246000fd5b6000600282049050600182168061390d57607f821691505b6020821081036139205761391f6138c6565b5b50919050565b7f4552433732313a20617070726f76616c20746f2063757272656e74206f776e6560008201527f7200000000000000000000000000000000000000000000000000000000000000602082015250565b6000613982602183613034565b915061398d82613926565b604082019050919050565b600060208201905081810360008301526139b181613975565b9050919050565b7f4552433732313a20617070726f76652063616c6c6572206973206e6f7420746f60008201527f6b656e206f776e6572206e6f7220617070726f76656420666f7220616c6c0000602082015250565b6000613a14603e83613034565b9150613a1f826139b8565b604082019050919050565b60006020820190508181036000830152613a4381613a07565b9050919050565b7f4552433732313a2063616c6c6572206973206e6f7420746f6b656e206f776e6560008201527f72206e6f7220617070726f766564000000000000000000000000000000000000602082015250565b6000613aa6602e83613034565b9150613ab182613a4a565b604082019050919050565b60006020820190508181036000830152613ad581613a99565b9050919050565b7f4e487b7100000000000000000000000000000000000000000000000000000000600052603260045260246000fd5b7f4e487b7100000000000000000000000000000000000000000000000000000000600052601160045260246000fd5b6000613b45826130db565b91507fffffffffffffffffffffffffffffffffffffffffffffffffffffffffffffffff8203613b7757613b76613b0b565b5b600182019050919050565b7f6d757374206265206f776e657220746f206275726e0000000000000000000000600082015250565b6000613bb8601583613034565b9150613bc382613b82565b602082019050919050565b60006020820190508181036000830152613be781613bab565b9050919050565b7f4552433732313a20696e76616c696420746f6b656e2049440000000000000000600082015250565b6000613c24601883613034565b9150613c2f82613bee565b602082019050919050565b60006020820190508181036000830152613c5381613c17565b9050919050565b7f63616e6e6f742074697020300000000000000000000000000000000000000000600082015250565b6000613c90600c83613034565b9150613c9b82613c5a565b602082019050919050565b60006020820190508181036000830152613cbf81613c83565b9050919050565b7f63616e6e6f742074697020796f757273656c6600000000000000000000000000600082015250565b6000613cfc601383613034565b9150613d0782613cc6565b602082019050919050565b60006020820190508181036000830152613d2b81613cef565b9050919050565b6000613d3d826130db565b9150613d48836130db565b9250828201905080821115613d6057613d5f613b0b565b5b92915050565b7f4552433732313a2061646472657373207a65726f206973206e6f74206120766160008201527f6c6964206f776e65720000000000000000000000000000000000000000000000602082015250565b6000613dc2602983613034565b9150613dcd82613d66565b604082019050919050565b60006020820190508181036000830152613df181613db5565b9050919050565b7f6f776e65722063616e206f6e6c79207365742070726f66696c6520746865792060008201527f6f776e0000000000000000000000000000000000000000000000000000000000602082015250565b6000613e54602383613034565b9150613e5f82613df8565b604082019050919050565b60006020820190508181036000830152613e8381613e47565b9050919050565b600081905092915050565b6000613ea082613029565b613eaa8185613e8a565b9350613eba818560208601613045565b80840191505092915050565b6000613ed28285613e95565b9150613ede8284613e95565b91508190509392505050565b60008190508160005260206000209050919050565b60006020601f8301049050919050565b600082821b905092915050565b600060088302613f4c7fffffffffffffffffffffffffffffffffffffffffffffffffffffffffffffffff82613f0f565b613f568683613f0f565b95508019841693508086168417925050509392505050565b6000819050919050565b6000613f93613f8e613f89846130db565b613f6e565b6130db565b9050919050565b6000819050919050565b613fad83613f78565b613fc1613fb982613f9a565b848454613f1c565b825550505050565b600090565b613fd6613fc9565b613fe1818484613fa4565b505050565b5b8181101561400557613ffa600082613fce565b600181019050613fe7565b5050565b601f82111561404a5761401b81613eea565b61402484613eff565b81016020851015614033578190505b61404761403f85613eff565b830182613fe6565b50505b505050565b600082821c905092915050565b600061406d6000198460080261404f565b1980831691505092915050565b6000614086838361405c565b9150826002028217905092915050565b61409f82613029565b67ffffffffffffffff8111156140b8576140b7613592565b5b6140c282546138f5565b6140cd828285614009565b600060209050601f83116001811461410057600084156140ee578287015190505b6140f8858261407a565b865550614160565b601f19841661410e86613eea565b60005b8281101561413657848901518255600182019150602085019450602081019050614111565b86831015614153578489015161414f601f89168261405c565b8355505b6001600288020188555050505b505050505050565b7f63616e6e6f74206c696b6520796f7572206f776e2070726f66696c6500000000600082015250565b600061419e601c83613034565b91506141a982614168565b602082019050919050565b600060208201905081810360008301526141cd81614191565b9050919050565b7f63616e6e6f742073657420736f6d656f6e6520656c736573206d657373616765600082015250565b600061420a602083613034565b9150614215826141d4565b602082019050919050565b60006020820190508181036000830152614239816141fd565b9050919050565b7f616c7265616479206c696b656420617274697374000000000000000000000000600082015250565b6000614276601483613034565b915061428182614240565b602082019050919050565b600060208201905081810360008301526142a581614269565b9050919050565b7f4552433732313a207472616e736665722066726f6d20696e636f72726563742060008201527f6f776e6572000000000000000000000000000000000000000000000000000000602082015250565b6000614308602583613034565b9150614313826142ac565b604082019050919050565b60006020820190508181036000830152614337816142fb565b9050919050565b7f4552433732313a207472616e7366657220746f20746865207a65726f2061646460008201527f7265737300000000000000000000000000000000000000000000000000000000602082015250565b600061439a602483613034565b91506143a58261433e565b604082019050919050565b600060208201905081810360008301526143c98161438d565b9050919050565b60006143db826130db565b91506143e6836130db565b92508282039050818111156143fe576143fd613b0b565b5b92915050565b7f4552433732313a20617070726f766520746f2063616c6c657200000000000000600082015250565b600061443a601983613034565b915061444582614404565b602082019050919050565b600060208201905081810360008301526144698161442d565b9050919050565b7f4552433732313a207472616e7366657220746f206e6f6e20455243373231526560008201527f63656976657220696d706c656d656e7465720000000000000000000000000000602082015250565b60006144cc603283613034565b91506144d782614470565b604082019050919050565b600060208201905081810360008301526144fb816144bf565b9050919050565b7f4552433732313a206d696e7420746f20746865207a65726f2061646472657373600082015250565b6000614538602083613034565b915061454382614502565b602082019050919050565b600060208201905081810360008301526145678161452b565b9050919050565b7f4552433732313a20746f6b656e20616c7265616479206d696e74656400000000600082015250565b60006145a4601c83613034565b91506145af8261456e565b602082019050919050565b600060208201905081810360008301526145d381614597565b9050919050565b7f45524337323155524953746f726167653a2055524920736574206f66206e6f6e60008201527f6578697374656e7420746f6b656e000000000000000000000000000000000000602082015250565b6000614636602e83613034565b9150614641826145da565b604082019050919050565b6000602082019050818103600083015261466581614629565b9050919050565b600081519050919050565b600082825260208201905092915050565b60006146938261466c565b61469d8185614677565b93506146ad818560208601613045565b6146b68161306f565b840191505092915050565b60006080820190506146d66000830187613170565b6146e36020830186613170565b6146f06040830185613227565b81810360608301526147028184614688565b905095945050505050565b60008151905061471c81612f9a565b92915050565b60006020828403121561473857614737612f64565b5b60006147468482850161470d565b91505092915050565b7f4e487b7100000000000000000000000000000000000000000000000000000000600052601260045260246000fd5b6000614789826130db565b9150614794836130db565b9250826147a4576147a361474f565b5b828204905092915050565b60006147ba826130db565b91506147c5836130db565b9250826147d5576147d461474f565b5b82820690509291505056fea2646970667358221220cfe570e2df5d6a9153a91a91b3e5d6cd45e749ffa1a3e04cd85ab4cb0090546e64736f6c63430008110033",
  "linkReferences": {},
  "deployedLinkReferences": {}
}