{
  "_format": "hh-sol-artifact-1",
  "contractName": "ProfileNFT",
  "sourceName": "contracts/ProfileNFT.sol",
  "abi": [
    {
      "inputs": [],
      "stateMutability": "nonpayable",
      "type": "constructor"
    },
    {
      "anonymous": false,
      "inputs": [
        {
          "indexed": true,
          "internalType": "address",
          "name": "owner",
          "type": "address"
        },
        {
          "indexed": true,
          "internalType": "address",
          "name": "approved",
          "type": "address"
        },
        {
          "indexed": true,
          "internalType": "uint256",
          "name": "tokenId",
          "type": "uint256"
        }
      ],
      "name": "Approval",
      "type": "event"
    },
    {
      "anonymous": false,
      "inputs": [
        {
          "indexed": true,
          "internalType": "address",
          "name": "owner",
          "type": "address"
        },
        {
          "indexed": true,
          "internalType": "address",
          "name": "operator",
          "type": "address"
        },
        {
          "indexed": false,
          "internalType": "bool",
          "name": "approved",
          "type": "bool"
        }
      ],
      "name": "ApprovalForAll",
      "type": "event"
    },
    {
      "anonymous": false,
      "inputs": [
        {
          "indexed": true,
          "internalType": "address",
          "name": "from",
          "type": "address"
        },
        {
          "indexed": true,
          "internalType": "address",
          "name": "to",
          "type": "address"
        },
        {
          "indexed": true,
          "internalType": "uint256",
          "name": "tokenId",
          "type": "uint256"
        }
      ],
      "name": "Transfer",
      "type": "event"
    },
    {
      "inputs": [],
      "name": "admin",
      "outputs": [
        {
          "internalType": "address",
          "name": "",
          "type": "address"
        }
      ],
      "stateMutability": "view",
      "type": "function"
    },
    {
      "inputs": [
        {
          "internalType": "address",
          "name": "to",
          "type": "address"
        },
        {
          "internalType": "uint256",
          "name": "tokenId",
          "type": "uint256"
        }
      ],
      "name": "approve",
      "outputs": [],
      "stateMutability": "nonpayable",
      "type": "function"
    },
    {
      "inputs": [
        {
          "internalType": "address",
          "name": "owner",
          "type": "address"
        }
      ],
      "name": "balanceOf",
      "outputs": [
        {
          "internalType": "uint256",
          "name": "",
          "type": "uint256"
        }
      ],
      "stateMutability": "view",
      "type": "function"
    },
    {
      "inputs": [
        {
          "internalType": "uint256",
          "name": "_tokenId",
          "type": "uint256"
        }
      ],
      "name": "burn",
      "outputs": [],
      "stateMutability": "nonpayable",
      "type": "function"
    },
    {
      "inputs": [
        {
          "internalType": "address",
          "name": "",
          "type": "address"
        }
      ],
      "name": "creatorsProfile",
      "outputs": [
        {
          "internalType": "address payable",
          "name": "creatorAddress",
          "type": "address"
        },
        {
          "internalType": "string",
          "name": "profileMessage",
          "type": "string"
        },
        {
          "internalType": "uint256",
          "name": "tipsReceived",
          "type": "uint256"
        },
        {
          "internalType": "uint256",
          "name": "profileToken",
          "type": "uint256"
        },
        {
          "internalType": "uint256",
          "name": "numOfLikes",
          "type": "uint256"
        },
        {
          "internalType": "string",
          "name": "username",
          "type": "string"
        }
      ],
      "stateMutability": "view",
      "type": "function"
    },
    {
      "inputs": [],
      "name": "featuredCreator",
      "outputs": [
        {
          "internalType": "address payable",
          "name": "creatorAddress",
          "type": "address"
        },
        {
          "internalType": "string",
          "name": "profileMessage",
          "type": "string"
        },
        {
          "internalType": "uint256",
          "name": "tipsReceived",
          "type": "uint256"
        },
        {
          "internalType": "uint256",
          "name": "profileToken",
          "type": "uint256"
        },
        {
          "internalType": "uint256",
          "name": "numOfLikes",
          "type": "uint256"
        },
        {
          "internalType": "string",
          "name": "username",
          "type": "string"
        }
      ],
      "stateMutability": "view",
      "type": "function"
    },
    {
      "inputs": [
        {
          "internalType": "uint256",
          "name": "tokenId",
          "type": "uint256"
        }
      ],
      "name": "getApproved",
      "outputs": [
        {
          "internalType": "address",
          "name": "",
          "type": "address"
        }
      ],
      "stateMutability": "view",
      "type": "function"
    },
    {
      "inputs": [
        {
          "internalType": "address",
          "name": "",
          "type": "address"
        },
        {
          "internalType": "address",
          "name": "",
          "type": "address"
        }
      ],
      "name": "hasLikeProfile",
      "outputs": [
        {
          "internalType": "bool",
          "name": "",
          "type": "bool"
        }
      ],
      "stateMutability": "view",
      "type": "function"
    },
    {
      "inputs": [
        {
          "internalType": "address",
          "name": "owner",
          "type": "address"
        },
        {
          "internalType": "address",
          "name": "operator",
          "type": "address"
        }
      ],
      "name": "isApprovedForAll",
      "outputs": [
        {
          "internalType": "bool",
          "name": "",
          "type": "bool"
        }
      ],
      "stateMutability": "view",
      "type": "function"
    },
    {
      "inputs": [
        {
          "internalType": "string",
          "name": "_tokenUri",
          "type": "string"
        }
      ],
      "name": "mint",
      "outputs": [
        {
          "internalType": "uint256",
          "name": "",
          "type": "uint256"
        }
      ],
      "stateMutability": "nonpayable",
      "type": "function"
    },
    {
      "inputs": [],
      "name": "name",
      "outputs": [
        {
          "internalType": "string",
          "name": "",
          "type": "string"
        }
      ],
      "stateMutability": "view",
      "type": "function"
    },
    {
      "inputs": [
        {
          "internalType": "address",
          "name": "",
          "type": "address"
        }
      ],
      "name": "nftProfileOwners",
      "outputs": [
        {
          "internalType": "uint256",
          "name": "",
          "type": "uint256"
        }
      ],
      "stateMutability": "view",
      "type": "function"
    },
    {
      "inputs": [
        {
          "internalType": "uint256",
          "name": "",
          "type": "uint256"
        }
      ],
      "name": "numberToCreator",
      "outputs": [
        {
          "internalType": "address payable",
          "name": "creatorAddress",
          "type": "address"
        },
        {
          "internalType": "string",
          "name": "profileMessage",
          "type": "string"
        },
        {
          "internalType": "uint256",
          "name": "tipsReceived",
          "type": "uint256"
        },
        {
          "internalType": "uint256",
          "name": "profileToken",
          "type": "uint256"
        },
        {
          "internalType": "uint256",
          "name": "numOfLikes",
          "type": "uint256"
        },
        {
          "internalType": "string",
          "name": "username",
          "type": "string"
        }
      ],
      "stateMutability": "view",
      "type": "function"
    },
    {
      "inputs": [
        {
          "internalType": "uint256",
          "name": "tokenId",
          "type": "uint256"
        }
      ],
      "name": "ownerOf",
      "outputs": [
        {
          "internalType": "address",
          "name": "",
          "type": "address"
        }
      ],
      "stateMutability": "view",
      "type": "function"
    },
    {
      "inputs": [],
      "name": "returnAllProfiles",
      "outputs": [
        {
          "components": [
            {
              "internalType": "address payable",
              "name": "creatorAddress",
              "type": "address"
            },
            {
              "internalType": "string",
              "name": "profileMessage",
              "type": "string"
            },
            {
              "internalType": "uint256",
              "name": "tipsReceived",
              "type": "uint256"
            },
            {
              "internalType": "uint256",
              "name": "profileToken",
              "type": "uint256"
            },
            {
              "internalType": "uint256",
              "name": "numOfLikes",
              "type": "uint256"
            },
            {
              "internalType": "string",
              "name": "username",
              "type": "string"
            }
          ],
          "internalType": "struct ProfileNFT.Creator[]",
          "name": "",
          "type": "tuple[]"
        }
      ],
      "stateMutability": "view",
      "type": "function"
    },
    {
      "inputs": [
        {
          "internalType": "address",
          "name": "_user",
          "type": "address"
        }
      ],
      "name": "returnLikedCreatorsList",
      "outputs": [
        {
          "components": [
            {
              "internalType": "address payable",
              "name": "creatorAddress",
              "type": "address"
            },
            {
              "internalType": "string",
              "name": "profileMessage",
              "type": "string"
            },
            {
              "internalType": "uint256",
              "name": "tipsReceived",
              "type": "uint256"
            },
            {
              "internalType": "uint256",
              "name": "profileToken",
              "type": "uint256"
            },
            {
              "internalType": "uint256",
              "name": "numOfLikes",
              "type": "uint256"
            },
            {
              "internalType": "string",
              "name": "username",
              "type": "string"
            }
          ],
          "internalType": "struct ProfileNFT.Creator[]",
          "name": "",
          "type": "tuple[]"
        }
      ],
      "stateMutability": "view",
      "type": "function"
    },
    {
      "inputs": [
        {
          "internalType": "address",
          "name": "from",
          "type": "address"
        },
        {
          "internalType": "address",
          "name": "to",
          "type": "address"
        },
        {
          "internalType": "uint256",
          "name": "tokenId",
          "type": "uint256"
        }
      ],
      "name": "safeTransferFrom",
      "outputs": [],
      "stateMutability": "nonpayable",
      "type": "function"
    },
    {
      "inputs": [
        {
          "internalType": "address",
          "name": "from",
          "type": "address"
        },
        {
          "internalType": "address",
          "name": "to",
          "type": "address"
        },
        {
          "internalType": "uint256",
          "name": "tokenId",
          "type": "uint256"
        },
        {
          "internalType": "bytes",
          "name": "data",
          "type": "bytes"
        }
      ],
      "name": "safeTransferFrom",
      "outputs": [],
      "stateMutability": "nonpayable",
      "type": "function"
    },
    {
      "inputs": [
        {
          "internalType": "address",
          "name": "creatorAddress",
          "type": "address"
        }
      ],
      "name": "sendLike",
      "outputs": [
        {
          "internalType": "uint256",
          "name": "",
          "type": "uint256"
        }
      ],
      "stateMutability": "nonpayable",
      "type": "function"
    },
    {
      "inputs": [
        {
          "internalType": "address",
          "name": "operator",
          "type": "address"
        },
        {
          "internalType": "bool",
          "name": "approved",
          "type": "bool"
        }
      ],
      "name": "setApprovalForAll",
      "outputs": [],
      "stateMutability": "nonpayable",
      "type": "function"
    },
    {
      "inputs": [
        {
          "internalType": "address",
          "name": "_featCreator",
          "type": "address"
        }
      ],
      "name": "setFeaturedCreator",
      "outputs": [
        {
          "components": [
            {
              "internalType": "address payable",
              "name": "creatorAddress",
              "type": "address"
            },
            {
              "internalType": "string",
              "name": "profileMessage",
              "type": "string"
            },
            {
              "internalType": "uint256",
              "name": "tipsReceived",
              "type": "uint256"
            },
            {
              "internalType": "uint256",
              "name": "profileToken",
              "type": "uint256"
            },
            {
              "internalType": "uint256",
              "name": "numOfLikes",
              "type": "uint256"
            },
            {
              "internalType": "string",
              "name": "username",
              "type": "string"
            }
          ],
          "internalType": "struct ProfileNFT.Creator",
          "name": "",
          "type": "tuple"
        }
      ],
      "stateMutability": "nonpayable",
      "type": "function"
    },
    {
      "inputs": [
        {
          "internalType": "address",
          "name": "creatorsPro",
          "type": "address"
        },
        {
          "internalType": "string",
          "name": "message",
          "type": "string"
        }
      ],
      "name": "setMessage",
      "outputs": [
        {
          "internalType": "string",
          "name": "",
          "type": "string"
        }
      ],
      "stateMutability": "nonpayable",
      "type": "function"
    },
    {
      "inputs": [
        {
          "internalType": "uint256",
          "name": "tokenId",
          "type": "uint256"
        }
      ],
      "name": "setProfile",
      "outputs": [
        {
          "internalType": "uint256",
          "name": "",
          "type": "uint256"
        }
      ],
      "stateMutability": "nonpayable",
      "type": "function"
    },
    {
      "inputs": [
        {
          "internalType": "address",
          "name": "creatorAddress",
          "type": "address"
        },
        {
          "internalType": "string",
          "name": "_username",
          "type": "string"
        }
      ],
      "name": "setUsername",
      "outputs": [
        {
          "internalType": "string",
          "name": "",
          "type": "string"
        }
      ],
      "stateMutability": "nonpayable",
      "type": "function"
    },
    {
      "inputs": [
        {
          "internalType": "bytes4",
          "name": "interfaceId",
          "type": "bytes4"
        }
      ],
      "name": "supportsInterface",
      "outputs": [
        {
          "internalType": "bool",
          "name": "",
          "type": "bool"
        }
      ],
      "stateMutability": "view",
      "type": "function"
    },
    {
      "inputs": [],
      "name": "symbol",
      "outputs": [
        {
          "internalType": "string",
          "name": "",
          "type": "string"
        }
      ],
      "stateMutability": "view",
      "type": "function"
    },
    {
      "inputs": [
        {
          "internalType": "address",
          "name": "creatorAddress",
          "type": "address"
        }
      ],
      "name": "tipCreator",
      "outputs": [
        {
          "internalType": "uint256",
          "name": "",
          "type": "uint256"
        }
      ],
      "stateMutability": "payable",
      "type": "function"
    },
    {
      "inputs": [],
      "name": "tokenCount",
      "outputs": [
        {
          "internalType": "uint256",
          "name": "",
          "type": "uint256"
        }
      ],
      "stateMutability": "view",
      "type": "function"
    },
    {
      "inputs": [
        {
          "internalType": "uint256",
          "name": "tokenId",
          "type": "uint256"
        }
      ],
      "name": "tokenURI",
      "outputs": [
        {
          "internalType": "string",
          "name": "",
          "type": "string"
        }
      ],
      "stateMutability": "view",
      "type": "function"
    },
    {
      "inputs": [
        {
          "internalType": "address",
          "name": "from",
          "type": "address"
        },
        {
          "internalType": "address",
          "name": "to",
          "type": "address"
        },
        {
          "internalType": "uint256",
          "name": "tokenId",
          "type": "uint256"
        }
      ],
      "name": "transferFrom",
      "outputs": [],
      "stateMutability": "nonpayable",
      "type": "function"
    },
    {
      "inputs": [
        {
          "internalType": "uint256",
          "name": "",
          "type": "uint256"
        }
      ],
      "name": "users",
      "outputs": [
        {
          "internalType": "address",
          "name": "",
          "type": "address"
        }
      ],
      "stateMutability": "view",
      "type": "function"
    },
    {
      "inputs": [
        {
          "internalType": "address",
          "name": "",
          "type": "address"
        },
        {
          "internalType": "uint256",
          "name": "",
          "type": "uint256"
        }
      ],
      "name": "usersLikedList",
      "outputs": [
        {
          "internalType": "address payable",
          "name": "creatorAddress",
          "type": "address"
        },
        {
          "internalType": "string",
          "name": "profileMessage",
          "type": "string"
        },
        {
          "internalType": "uint256",
          "name": "tipsReceived",
          "type": "uint256"
        },
        {
          "internalType": "uint256",
          "name": "profileToken",
          "type": "uint256"
        },
        {
          "internalType": "uint256",
          "name": "numOfLikes",
          "type": "uint256"
        },
        {
          "internalType": "string",
          "name": "username",
          "type": "string"
        }
      ],
      "stateMutability": "view",
      "type": "function"
    }
  ],
  "bytecode": "0x60806040523480156200001157600080fd5b506040518060400160405280601181526020017f4465666942656174732050726f66696c650000000000000000000000000000008152506040518060400160405280600481526020017f444642500000000000000000000000000000000000000000000000000000000081525081600090816200008f919062000365565b508060019081620000a1919062000365565b50505033600860006101000a81548173ffffffffffffffffffffffffffffffffffffffff021916908373ffffffffffffffffffffffffffffffffffffffff1602179055506200044c565b600081519050919050565b7f4e487b7100000000000000000000000000000000000000000000000000000000600052604160045260246000fd5b7f4e487b7100000000000000000000000000000000000000000000000000000000600052602260045260246000fd5b600060028204905060018216806200016d57607f821691505b60208210810362000183576200018262000125565b5b50919050565b60008190508160005260206000209050919050565b60006020601f8301049050919050565b600082821b905092915050565b600060088302620001ed7fffffffffffffffffffffffffffffffffffffffffffffffffffffffffffffffff82620001ae565b620001f98683620001ae565b95508019841693508086168417925050509392505050565b6000819050919050565b6000819050919050565b600062000246620002406200023a8462000211565b6200021b565b62000211565b9050919050565b6000819050919050565b620002628362000225565b6200027a62000271826200024d565b848454620001bb565b825550505050565b600090565b6200029162000282565b6200029e81848462000257565b505050565b5b81811015620002c657620002ba60008262000287565b600181019050620002a4565b5050565b601f8211156200031557620002df8162000189565b620002ea846200019e565b81016020851015620002fa578190505b6200031262000309856200019e565b830182620002a3565b50505b505050565b600082821c905092915050565b60006200033a600019846008026200031a565b1980831691505092915050565b600062000355838362000327565b9150826002028217905092915050565b6200037082620000eb565b67ffffffffffffffff8111156200038c576200038b620000f6565b5b62000398825462000154565b620003a5828285620002ca565b600060209050601f831160018114620003dd5760008415620003c8578287015190505b620003d4858262000347565b86555062000444565b601f198416620003ed8662000189565b60005b828110156200041757848901518255600182019150602085019450602081019050620003f0565b8683101562000437578489015162000433601f89168262000327565b8355505b6001600288020188555050505b505050505050565b6155fd806200045c6000396000f3fe6080604052600436106101e35760003560e01c806370a0823111610102578063d85d3d2711610095578063ebb14c7f11610064578063ebb14c7f146107d6578063f851a44014610813578063f8b60fe31461083e578063fe47795e1461087b576101e3565b8063d85d3d27146106e2578063e20454521461071f578063e985e9c51461075c578063e9aa460f14610799576101e3565b8063a22cb465116100d1578063a22cb46514610611578063b5db04721461063a578063b88d4fde1461067c578063c87b56dd146106a5576101e3565b806370a082311461054157806385d3cb371461057e57806395d89b41146105bb5780639f181b5e146105e6576101e3565b806323b872dd1161017a57806342966c681161014957806342966c681461046957806355941708146104925780636352211e146104d457806365c4e4aa14610511576101e3565b806323b872dd146103af578063365b98b2146103d857806340cfadf81461041557806342842e0e14610440576101e3565b8063095ea7b3116101b6578063095ea7b3146102ca5780630aef61a1146102f35780630c5d6ed014610335578063235ff86f14610372576101e3565b806301ffc9a7146101e85780630262783b1461022557806306fdde0314610262578063081812fc1461028d575b600080fd5b3480156101f457600080fd5b5061020f600480360381019061020a9190613b6b565b6108ab565b60405161021c9190613bb3565b60405180910390f35b34801561023157600080fd5b5061024c60048036038101906102479190613c2c565b61098d565b6040516102599190613db3565b60405180910390f35b34801561026e57600080fd5b50610277610cc7565b6040516102849190613e1f565b60405180910390f35b34801561029957600080fd5b506102b460048036038101906102af9190613e6d565b610d59565b6040516102c19190613ea9565b60405180910390f35b3480156102d657600080fd5b506102f160048036038101906102ec9190613ec4565b610d9f565b005b3480156102ff57600080fd5b5061031a60048036038101906103159190613e6d565b610eb6565b60405161032c96959493929190613f22565b60405180910390f35b34801561034157600080fd5b5061035c60048036038101906103579190613c2c565b611022565b6040516103699190613f91565b60405180910390f35b34801561037e57600080fd5b5061039960048036038101906103949190613c2c565b61103a565b6040516103a691906140fe565b60405180910390f35b3480156103bb57600080fd5b506103d660048036038101906103d19190614120565b611324565b005b3480156103e457600080fd5b506103ff60048036038101906103fa9190613e6d565b611384565b60405161040c9190613ea9565b60405180910390f35b34801561042157600080fd5b5061042a6113c3565b60405161043791906140fe565b60405180910390f35b34801561044c57600080fd5b5061046760048036038101906104629190614120565b61168c565b005b34801561047557600080fd5b50610490600480360381019061048b9190613e6d565b6116ac565b005b34801561049e57600080fd5b506104b960048036038101906104b49190613ec4565b6117a3565b6040516104cb96959493929190613f22565b60405180910390f35b3480156104e057600080fd5b506104fb60048036038101906104f69190613e6d565b61192c565b6040516105089190613ea9565b60405180910390f35b61052b60048036038101906105269190613c2c565b6119dd565b6040516105389190613f91565b60405180910390f35b34801561054d57600080fd5b5061056860048036038101906105639190613c2c565b611b3b565b6040516105759190613f91565b60405180910390f35b34801561058a57600080fd5b506105a560048036038101906105a09190613e6d565b611bf2565b6040516105b29190613f91565b60405180910390f35b3480156105c757600080fd5b506105d0611cbd565b6040516105dd9190613e1f565b60405180910390f35b3480156105f257600080fd5b506105fb611d4f565b6040516106089190613f91565b60405180910390f35b34801561061d57600080fd5b506106386004803603810190610633919061419f565b611d55565b005b34801561064657600080fd5b50610661600480360381019061065c9190613c2c565b611d6b565b60405161067396959493929190613f22565b60405180910390f35b34801561068857600080fd5b506106a3600480360381019061069e9190614314565b611ed7565b005b3480156106b157600080fd5b506106cc60048036038101906106c79190613e6d565b611f39565b6040516106d99190613e1f565b60405180910390f35b3480156106ee57600080fd5b5061070960048036038101906107049190614438565b61204b565b6040516107169190613f91565b60405180910390f35b34801561072b57600080fd5b5061074660048036038101906107419190614481565b6123de565b6040516107539190613e1f565b60405180910390f35b34801561076857600080fd5b50610783600480360381019061077e91906144dd565b612534565b6040516107909190613bb3565b60405180910390f35b3480156107a557600080fd5b506107c060048036038101906107bb9190614481565b6125c8565b6040516107cd9190613e1f565b60405180910390f35b3480156107e257600080fd5b506107fd60048036038101906107f89190613c2c565b612742565b60405161080a9190613f91565b60405180910390f35b34801561081f57600080fd5b50610828612a95565b6040516108359190613ea9565b60405180910390f35b34801561084a57600080fd5b50610865600480360381019061086091906144dd565b612abb565b6040516108729190613bb3565b60405180910390f35b34801561088757600080fd5b50610890612aea565b6040516108a296959493929190613f22565b60405180910390f35b60007f80ac58cd000000000000000000000000000000000000000000000000000000007bffffffffffffffffffffffffffffffffffffffffffffffffffffffff1916827bffffffffffffffffffffffffffffffffffffffffffffffffffffffff1916148061097657507f5b5e139f000000000000000000000000000000000000000000000000000000007bffffffffffffffffffffffffffffffffffffffffffffffffffffffff1916827bffffffffffffffffffffffffffffffffffffffffffffffffffffffff1916145b80610986575061098582612c44565b5b9050919050565b610995613a56565b600860009054906101000a900473ffffffffffffffffffffffffffffffffffffffff1673ffffffffffffffffffffffffffffffffffffffff163373ffffffffffffffffffffffffffffffffffffffff1614610a25576040517f08c379a0000000000000000000000000000000000000000000000000000000008152600401610a1c9061458f565b60405180910390fd5b6000601260008473ffffffffffffffffffffffffffffffffffffffff1673ffffffffffffffffffffffffffffffffffffffff168152602001908152602001600020905080600a6000820160009054906101000a900473ffffffffffffffffffffffffffffffffffffffff168160000160006101000a81548173ffffffffffffffffffffffffffffffffffffffff021916908373ffffffffffffffffffffffffffffffffffffffff16021790555060018201816001019081610ae691906147d1565b5060028201548160020155600382015481600301556004820154816004015560058201816005019081610b1991906147d1565b5090506040518060c00160405290816000820160009054906101000a900473ffffffffffffffffffffffffffffffffffffffff1673ffffffffffffffffffffffffffffffffffffffff1673ffffffffffffffffffffffffffffffffffffffff168152602001600182018054610b8d906145de565b80601f0160208091040260200160405190810160405280929190818152602001828054610bb9906145de565b8015610c065780601f10610bdb57610100808354040283529160200191610c06565b820191906000526020600020905b815481529060010190602001808311610be957829003601f168201915b50505050508152602001600282015481526020016003820154815260200160048201548152602001600582018054610c3d906145de565b80601f0160208091040260200160405190810160405280929190818152602001828054610c69906145de565b8015610cb65780601f10610c8b57610100808354040283529160200191610cb6565b820191906000526020600020905b815481529060010190602001808311610c9957829003601f168201915b505050505081525050915050919050565b606060008054610cd6906145de565b80601f0160208091040260200160405190810160405280929190818152602001828054610d02906145de565b8015610d4f5780601f10610d2457610100808354040283529160200191610d4f565b820191906000526020600020905b815481529060010190602001808311610d3257829003601f168201915b5050505050905090565b6000610d6482612cae565b6004600083815260200190815260200160002060009054906101000a900473ffffffffffffffffffffffffffffffffffffffff169050919050565b6000610daa8261192c565b90508073ffffffffffffffffffffffffffffffffffffffff168373ffffffffffffffffffffffffffffffffffffffff1603610e1a576040517f08c379a0000000000000000000000000000000000000000000000000000000008152600401610e119061492b565b60405180910390fd5b8073ffffffffffffffffffffffffffffffffffffffff16610e39612cf9565b73ffffffffffffffffffffffffffffffffffffffff161480610e685750610e6781610e62612cf9565b612534565b5b610ea7576040517f08c379a0000000000000000000000000000000000000000000000000000000008152600401610e9e906149bd565b60405180910390fd5b610eb18383612d01565b505050565b60116020528060005260406000206000915090508060000160009054906101000a900473ffffffffffffffffffffffffffffffffffffffff1690806001018054610eff906145de565b80601f0160208091040260200160405190810160405280929190818152602001828054610f2b906145de565b8015610f785780601f10610f4d57610100808354040283529160200191610f78565b820191906000526020600020905b815481529060010190602001808311610f5b57829003601f168201915b505050505090806002015490806003015490806004015490806005018054610f9f906145de565b80601f0160208091040260200160405190810160405280929190818152602001828054610fcb906145de565b80156110185780601f10610fed57610100808354040283529160200191611018565b820191906000526020600020905b815481529060010190602001808311610ffb57829003601f168201915b5050505050905086565b60106020528060005260406000206000915090505481565b60606000601460008473ffffffffffffffffffffffffffffffffffffffff1673ffffffffffffffffffffffffffffffffffffffff16815260200190815260200160002080549050905060008167ffffffffffffffff81111561109f5761109e6141e9565b5b6040519080825280602002602001820160405280156110d857816020015b6110c5613a56565b8152602001906001900390816110bd5790505b50905060005b8281101561131957601460008673ffffffffffffffffffffffffffffffffffffffff1673ffffffffffffffffffffffffffffffffffffffff1681526020019081526020016000208181548110611137576111366149dd565b5b90600052602060002090600602016040518060c00160405290816000820160009054906101000a900473ffffffffffffffffffffffffffffffffffffffff1673ffffffffffffffffffffffffffffffffffffffff1673ffffffffffffffffffffffffffffffffffffffff1681526020016001820180546111b6906145de565b80601f01602080910402602001604051908101604052809291908181526020018280546111e2906145de565b801561122f5780601f106112045761010080835404028352916020019161122f565b820191906000526020600020905b81548152906001019060200180831161121257829003601f168201915b50505050508152602001600282015481526020016003820154815260200160048201548152602001600582018054611266906145de565b80601f0160208091040260200160405190810160405280929190818152602001828054611292906145de565b80156112df5780601f106112b4576101008083540402835291602001916112df565b820191906000526020600020905b8154815290600101906020018083116112c257829003601f168201915b5050505050815250508282815181106112fb576112fa6149dd565b5b6020026020010181905250808061131190614a3b565b9150506110de565b508092505050919050565b61133561132f612cf9565b82612dba565b611374576040517f08c379a000000000000000000000000000000000000000000000000000000000815260040161136b90614af5565b60405180910390fd5b61137f838383612e4f565b505050565b6015818154811061139457600080fd5b906000526020600020016000915054906101000a900473ffffffffffffffffffffffffffffffffffffffff1681565b60606000601580549050905060008167ffffffffffffffff8111156113eb576113ea6141e9565b5b60405190808252806020026020018201604052801561142457816020015b611411613a56565b8152602001906001900390816114095790505b50905060005b8281101561168357601260006015838154811061144a576114496149dd565b5b9060005260206000200160009054906101000a900473ffffffffffffffffffffffffffffffffffffffff1673ffffffffffffffffffffffffffffffffffffffff1673ffffffffffffffffffffffffffffffffffffffff1681526020019081526020016000206040518060c00160405290816000820160009054906101000a900473ffffffffffffffffffffffffffffffffffffffff1673ffffffffffffffffffffffffffffffffffffffff1673ffffffffffffffffffffffffffffffffffffffff168152602001600182018054611520906145de565b80601f016020809104026020016040519081016040528092919081815260200182805461154c906145de565b80156115995780601f1061156e57610100808354040283529160200191611599565b820191906000526020600020905b81548152906001019060200180831161157c57829003601f168201915b505050505081526020016002820154815260200160038201548152602001600482015481526020016005820180546115d0906145de565b80601f01602080910402602001604051908101604052809291908181526020018280546115fc906145de565b80156116495780601f1061161e57610100808354040283529160200191611649565b820191906000526020600020905b81548152906001019060200180831161162c57829003601f168201915b505050505081525050828281518110611665576116646149dd565b5b6020026020010181905250808061167b90614a3b565b91505061142a565b50809250505090565b6116a783838360405180602001604052806000815250611ed7565b505050565b6116b58161192c565b73ffffffffffffffffffffffffffffffffffffffff163373ffffffffffffffffffffffffffffffffffffffff1614611722576040517f08c379a000000000000000000000000000000000000000000000000000000000815260040161171990614b61565b60405180910390fd5b60116000828152602001908152602001600020600080820160006101000a81549073ffffffffffffffffffffffffffffffffffffffff021916905560018201600061176d9190613aa2565b6002820160009055600382016000905560048201600090556005820160006117959190613aa2565b50506117a0816130b5565b50565b601460205281600052604060002081815481106117bf57600080fd5b9060005260206000209060060201600091509150508060000160009054906101000a900473ffffffffffffffffffffffffffffffffffffffff1690806001018054611809906145de565b80601f0160208091040260200160405190810160405280929190818152602001828054611835906145de565b80156118825780601f1061185757610100808354040283529160200191611882565b820191906000526020600020905b81548152906001019060200180831161186557829003601f168201915b5050505050908060020154908060030154908060040154908060050180546118a9906145de565b80601f01602080910402602001604051908101604052809291908181526020018280546118d5906145de565b80156119225780601f106118f757610100808354040283529160200191611922565b820191906000526020600020905b81548152906001019060200180831161190557829003601f168201915b5050505050905086565b6000806002600084815260200190815260200160002060009054906101000a900473ffffffffffffffffffffffffffffffffffffffff169050600073ffffffffffffffffffffffffffffffffffffffff168173ffffffffffffffffffffffffffffffffffffffff16036119d4576040517f08c379a00000000000000000000000000000000000000000000000000000000081526004016119cb90614bcd565b60405180910390fd5b80915050919050565b6000803411611a21576040517f08c379a0000000000000000000000000000000000000000000000000000000008152600401611a1890614c39565b60405180910390fd5b8173ffffffffffffffffffffffffffffffffffffffff163373ffffffffffffffffffffffffffffffffffffffff1603611a8f576040517f08c379a0000000000000000000000000000000000000000000000000000000008152600401611a8690614ca5565b60405180910390fd5b6000601260008473ffffffffffffffffffffffffffffffffffffffff1673ffffffffffffffffffffffffffffffffffffffff16815260200190815260200160002090508273ffffffffffffffffffffffffffffffffffffffff166108fc349081150290604051600060405180830381858888f19350505050158015611b18573d6000803e3d6000fd5b5034816002016000828254611b2d9190614cc5565b925050819055915050919050565b60008073ffffffffffffffffffffffffffffffffffffffff168273ffffffffffffffffffffffffffffffffffffffff1603611bab576040517f08c379a0000000000000000000000000000000000000000000000000000000008152600401611ba290614d6b565b60405180910390fd5b600360008373ffffffffffffffffffffffffffffffffffffffff1673ffffffffffffffffffffffffffffffffffffffff168152602001908152602001600020549050919050565b6000611bfd8261192c565b73ffffffffffffffffffffffffffffffffffffffff163373ffffffffffffffffffffffffffffffffffffffff1614611c6a576040517f08c379a0000000000000000000000000000000000000000000000000000000008152600401611c6190614dfd565b60405180910390fd5b6000601260003373ffffffffffffffffffffffffffffffffffffffff1673ffffffffffffffffffffffffffffffffffffffff16815260200190815260200160002090508281600301819055915050919050565b606060018054611ccc906145de565b80601f0160208091040260200160405190810160405280929190818152602001828054611cf8906145de565b8015611d455780601f10611d1a57610100808354040283529160200191611d45565b820191906000526020600020905b815481529060010190602001808311611d2857829003601f168201915b5050505050905090565b60095481565b611d67611d60612cf9565b8383613108565b5050565b60126020528060005260406000206000915090508060000160009054906101000a900473ffffffffffffffffffffffffffffffffffffffff1690806001018054611db4906145de565b80601f0160208091040260200160405190810160405280929190818152602001828054611de0906145de565b8015611e2d5780601f10611e0257610100808354040283529160200191611e2d565b820191906000526020600020905b815481529060010190602001808311611e1057829003601f168201915b505050505090806002015490806003015490806004015490806005018054611e54906145de565b80601f0160208091040260200160405190810160405280929190818152602001828054611e80906145de565b8015611ecd5780601f10611ea257610100808354040283529160200191611ecd565b820191906000526020600020905b815481529060010190602001808311611eb057829003601f168201915b5050505050905086565b611ee8611ee2612cf9565b83612dba565b611f27576040517f08c379a0000000000000000000000000000000000000000000000000000000008152600401611f1e90614af5565b60405180910390fd5b611f3384848484613274565b50505050565b6060611f4482612cae565b6000600660008481526020019081526020016000208054611f64906145de565b80601f0160208091040260200160405190810160405280929190818152602001828054611f90906145de565b8015611fdd5780601f10611fb257610100808354040283529160200191611fdd565b820191906000526020600020905b815481529060010190602001808311611fc057829003601f168201915b505050505090506000611fee6132d0565b90506000815103612003578192505050612046565b600082511115612038578082604051602001612020929190614e59565b60405160208183030381529060405292505050612046565b612041846132e7565b925050505b919050565b6000612057600761334f565b6009600081548092919061206a90614a3b565b9190505550600061207b6007613365565b90506120873382613373565b600073ffffffffffffffffffffffffffffffffffffffff16601260003373ffffffffffffffffffffffffffffffffffffffff1673ffffffffffffffffffffffffffffffffffffffff16815260200190815260200160002060000160009054906101000a900473ffffffffffffffffffffffffffffffffffffffff1673ffffffffffffffffffffffffffffffffffffffff16036123c1576015339080600181540180825580915050600190039060005260206000200160009091909190916101000a81548173ffffffffffffffffffffffffffffffffffffffff021916908373ffffffffffffffffffffffffffffffffffffffff1602179055506040518060c001604052803373ffffffffffffffffffffffffffffffffffffffff168152602001604051806020016040528060008152508152602001600081526020018281526020016000815260200160405180602001604052806000815250815250601260003373ffffffffffffffffffffffffffffffffffffffff1673ffffffffffffffffffffffffffffffffffffffff16815260200190815260200160002060008201518160000160006101000a81548173ffffffffffffffffffffffffffffffffffffffff021916908373ffffffffffffffffffffffffffffffffffffffff160217905550602082015181600101908161227e9190614e7d565b5060408201518160020155606082015181600301556080820151816004015560a08201518160050190816122b29190614e7d565b509050506040518060c001604052803373ffffffffffffffffffffffffffffffffffffffff1681526020016040518060200160405280600081525081526020016000815260200182815260200160008152602001604051806020016040528060008152508152506011600083815260200190815260200160002060008201518160000160006101000a81548173ffffffffffffffffffffffffffffffffffffffff021916908373ffffffffffffffffffffffffffffffffffffffff16021790555060208201518160010190816123889190614e7d565b5060408201518160020155606082015181600301556080820151816004015560a08201518160050190816123bc9190614e7d565b509050505b6123cb818461354c565b6123d481611bf2565b5080915050919050565b60608273ffffffffffffffffffffffffffffffffffffffff163373ffffffffffffffffffffffffffffffffffffffff161461244e576040517f08c379a000000000000000000000000000000000000000000000000000000000815260040161244590614f9b565b60405180910390fd5b6000601260003373ffffffffffffffffffffffffffffffffffffffff1673ffffffffffffffffffffffffffffffffffffffff1681526020019081526020016000209050828160050190816124a29190614e7d565b80546124ad906145de565b80601f01602080910402602001604051908101604052809291908181526020018280546124d9906145de565b80156125265780601f106124fb57610100808354040283529160200191612526565b820191906000526020600020905b81548152906001019060200180831161250957829003601f168201915b505050505091505092915050565b6000600560008473ffffffffffffffffffffffffffffffffffffffff1673ffffffffffffffffffffffffffffffffffffffff16815260200190815260200160002060008373ffffffffffffffffffffffffffffffffffffffff1673ffffffffffffffffffffffffffffffffffffffff16815260200190815260200160002060009054906101000a900460ff16905092915050565b60606000601260008573ffffffffffffffffffffffffffffffffffffffff1673ffffffffffffffffffffffffffffffffffffffff16815260200190815260200160002090508060000160009054906101000a900473ffffffffffffffffffffffffffffffffffffffff1673ffffffffffffffffffffffffffffffffffffffff163373ffffffffffffffffffffffffffffffffffffffff161461269f576040517f08c379a000000000000000000000000000000000000000000000000000000000815260040161269690615007565b60405180910390fd5b828160010190816126b09190614e7d565b80546126bb906145de565b80601f01602080910402602001604051908101604052809291908181526020018280546126e7906145de565b80156127345780601f1061270957610100808354040283529160200191612734565b820191906000526020600020905b81548152906001019060200180831161271757829003601f168201915b505050505091505092915050565b60008173ffffffffffffffffffffffffffffffffffffffff163373ffffffffffffffffffffffffffffffffffffffff16036127b2576040517f08c379a00000000000000000000000000000000000000000000000000000000081526004016127a990614f9b565b60405180910390fd5b60001515601360003373ffffffffffffffffffffffffffffffffffffffff1673ffffffffffffffffffffffffffffffffffffffff16815260200190815260200160002060008473ffffffffffffffffffffffffffffffffffffffff1673ffffffffffffffffffffffffffffffffffffffff16815260200190815260200160002060009054906101000a900460ff16151514612882576040517f08c379a000000000000000000000000000000000000000000000000000000000815260040161287990615073565b60405180910390fd5b6001601360003373ffffffffffffffffffffffffffffffffffffffff1673ffffffffffffffffffffffffffffffffffffffff16815260200190815260200160002060008473ffffffffffffffffffffffffffffffffffffffff1673ffffffffffffffffffffffffffffffffffffffff16815260200190815260200160002060006101000a81548160ff0219169083151502179055506000601260008473ffffffffffffffffffffffffffffffffffffffff1673ffffffffffffffffffffffffffffffffffffffff1681526020019081526020016000209050601460003373ffffffffffffffffffffffffffffffffffffffff1673ffffffffffffffffffffffffffffffffffffffff1681526020019081526020016000208190806001815401808255809150506001900390600052602060002090600602016000909190919091506000820160009054906101000a900473ffffffffffffffffffffffffffffffffffffffff168160000160006101000a81548173ffffffffffffffffffffffffffffffffffffffff021916908373ffffffffffffffffffffffffffffffffffffffff16021790555060018201816001019081612a3e91906147d1565b5060028201548160020155600382015481600301556004820154816004015560058201816005019081612a7191906147d1565b505050806004016000815480929190612a8990614a3b565b91905055915050919050565b600860009054906101000a900473ffffffffffffffffffffffffffffffffffffffff1681565b60136020528160005260406000206020528060005260406000206000915091509054906101000a900460ff1681565b600a8060000160009054906101000a900473ffffffffffffffffffffffffffffffffffffffff1690806001018054612b21906145de565b80601f0160208091040260200160405190810160405280929190818152602001828054612b4d906145de565b8015612b9a5780601f10612b6f57610100808354040283529160200191612b9a565b820191906000526020600020905b815481529060010190602001808311612b7d57829003601f168201915b505050505090806002015490806003015490806004015490806005018054612bc1906145de565b80601f0160208091040260200160405190810160405280929190818152602001828054612bed906145de565b8015612c3a5780601f10612c0f57610100808354040283529160200191612c3a565b820191906000526020600020905b815481529060010190602001808311612c1d57829003601f168201915b5050505050905086565b60007f01ffc9a7000000000000000000000000000000000000000000000000000000007bffffffffffffffffffffffffffffffffffffffffffffffffffffffff1916827bffffffffffffffffffffffffffffffffffffffffffffffffffffffff1916149050919050565b612cb7816135b9565b612cf6576040517f08c379a0000000000000000000000000000000000000000000000000000000008152600401612ced90614bcd565b60405180910390fd5b50565b600033905090565b816004600083815260200190815260200160002060006101000a81548173ffffffffffffffffffffffffffffffffffffffff021916908373ffffffffffffffffffffffffffffffffffffffff160217905550808273ffffffffffffffffffffffffffffffffffffffff16612d748361192c565b73ffffffffffffffffffffffffffffffffffffffff167f8c5be1e5ebec7d5bd14f71427d1e84f3dd0314c0f7b2291e5b200ac8c7c3b92560405160405180910390a45050565b600080612dc68361192c565b90508073ffffffffffffffffffffffffffffffffffffffff168473ffffffffffffffffffffffffffffffffffffffff161480612e085750612e078185612534565b5b80612e4657508373ffffffffffffffffffffffffffffffffffffffff16612e2e84610d59565b73ffffffffffffffffffffffffffffffffffffffff16145b91505092915050565b8273ffffffffffffffffffffffffffffffffffffffff16612e6f8261192c565b73ffffffffffffffffffffffffffffffffffffffff1614612ec5576040517f08c379a0000000000000000000000000000000000000000000000000000000008152600401612ebc90615105565b60405180910390fd5b600073ffffffffffffffffffffffffffffffffffffffff168273ffffffffffffffffffffffffffffffffffffffff1603612f34576040517f08c379a0000000000000000000000000000000000000000000000000000000008152600401612f2b90615197565b60405180910390fd5b612f3f838383613625565b612f4a600082612d01565b6001600360008573ffffffffffffffffffffffffffffffffffffffff1673ffffffffffffffffffffffffffffffffffffffff1681526020019081526020016000206000828254612f9a91906151b7565b925050819055506001600360008473ffffffffffffffffffffffffffffffffffffffff1673ffffffffffffffffffffffffffffffffffffffff1681526020019081526020016000206000828254612ff19190614cc5565b92505081905550816002600083815260200190815260200160002060006101000a81548173ffffffffffffffffffffffffffffffffffffffff021916908373ffffffffffffffffffffffffffffffffffffffff160217905550808273ffffffffffffffffffffffffffffffffffffffff168473ffffffffffffffffffffffffffffffffffffffff167fddf252ad1be2c89b69c2b068fc378daa952ba7f163c4a11628f55a4df523b3ef60405160405180910390a46130b083838361362a565b505050565b6130be8161362f565b60006006600083815260200190815260200160002080546130de906145de565b905014613105576006600082815260200190815260200160002060006131049190613aa2565b5b50565b8173ffffffffffffffffffffffffffffffffffffffff168373ffffffffffffffffffffffffffffffffffffffff1603613176576040517f08c379a000000000000000000000000000000000000000000000000000000000815260040161316d90615237565b60405180910390fd5b80600560008573ffffffffffffffffffffffffffffffffffffffff1673ffffffffffffffffffffffffffffffffffffffff16815260200190815260200160002060008473ffffffffffffffffffffffffffffffffffffffff1673ffffffffffffffffffffffffffffffffffffffff16815260200190815260200160002060006101000a81548160ff0219169083151502179055508173ffffffffffffffffffffffffffffffffffffffff168373ffffffffffffffffffffffffffffffffffffffff167f17307eab39ab6107e8899845ad3d59bd9653f200f220920489ca2b5937696c31836040516132679190613bb3565b60405180910390a3505050565b61327f848484612e4f565b61328b8484848461374c565b6132ca576040517f08c379a00000000000000000000000000000000000000000000000000000000081526004016132c1906152c9565b60405180910390fd5b50505050565b606060405180602001604052806000815250905090565b60606132f282612cae565b60006132fc6132d0565b9050600081511161331c5760405180602001604052806000815250613347565b80613326846138d3565b604051602001613337929190614e59565b6040516020818303038152906040525b915050919050565b6001816000016000828254019250508190555050565b600081600001549050919050565b600073ffffffffffffffffffffffffffffffffffffffff168273ffffffffffffffffffffffffffffffffffffffff16036133e2576040517f08c379a00000000000000000000000000000000000000000000000000000000081526004016133d990615335565b60405180910390fd5b6133eb816135b9565b1561342b576040517f08c379a0000000000000000000000000000000000000000000000000000000008152600401613422906153a1565b60405180910390fd5b61343760008383613625565b6001600360008473ffffffffffffffffffffffffffffffffffffffff1673ffffffffffffffffffffffffffffffffffffffff16815260200190815260200160002060008282546134879190614cc5565b92505081905550816002600083815260200190815260200160002060006101000a81548173ffffffffffffffffffffffffffffffffffffffff021916908373ffffffffffffffffffffffffffffffffffffffff160217905550808273ffffffffffffffffffffffffffffffffffffffff16600073ffffffffffffffffffffffffffffffffffffffff167fddf252ad1be2c89b69c2b068fc378daa952ba7f163c4a11628f55a4df523b3ef60405160405180910390a46135486000838361362a565b5050565b613555826135b9565b613594576040517f08c379a000000000000000000000000000000000000000000000000000000000815260040161358b90615433565b60405180910390fd5b806006600084815260200190815260200160002090816135b49190614e7d565b505050565b60008073ffffffffffffffffffffffffffffffffffffffff166002600084815260200190815260200160002060009054906101000a900473ffffffffffffffffffffffffffffffffffffffff1673ffffffffffffffffffffffffffffffffffffffff1614159050919050565b505050565b505050565b600061363a8261192c565b905061364881600084613625565b613653600083612d01565b6001600360008373ffffffffffffffffffffffffffffffffffffffff1673ffffffffffffffffffffffffffffffffffffffff16815260200190815260200160002060008282546136a391906151b7565b925050819055506002600083815260200190815260200160002060006101000a81549073ffffffffffffffffffffffffffffffffffffffff021916905581600073ffffffffffffffffffffffffffffffffffffffff168273ffffffffffffffffffffffffffffffffffffffff167fddf252ad1be2c89b69c2b068fc378daa952ba7f163c4a11628f55a4df523b3ef60405160405180910390a46137488160008461362a565b5050565b600061376d8473ffffffffffffffffffffffffffffffffffffffff16613a33565b156138c6578373ffffffffffffffffffffffffffffffffffffffff1663150b7a02613796612cf9565b8786866040518563ffffffff1660e01b81526004016137b894939291906154a8565b6020604051808303816000875af19250505080156137f457506040513d601f19601f820116820180604052508101906137f19190615509565b60015b613876573d8060008114613824576040519150601f19603f3d011682016040523d82523d6000602084013e613829565b606091505b50600081510361386e576040517f08c379a0000000000000000000000000000000000000000000000000000000008152600401613865906152c9565b60405180910390fd5b805181602001fd5b63150b7a0260e01b7bffffffffffffffffffffffffffffffffffffffffffffffffffffffff1916817bffffffffffffffffffffffffffffffffffffffffffffffffffffffff1916149150506138cb565b600190505b949350505050565b60606000820361391a576040518060400160405280600181526020017f30000000000000000000000000000000000000000000000000000000000000008152509050613a2e565b600082905060005b6000821461394c57808061393590614a3b565b915050600a826139459190615565565b9150613922565b60008167ffffffffffffffff811115613968576139676141e9565b5b6040519080825280601f01601f19166020018201604052801561399a5781602001600182028036833780820191505090505b5090505b60008514613a27576001826139b391906151b7565b9150600a856139c29190615596565b60306139ce9190614cc5565b60f81b8183815181106139e4576139e36149dd565b5b60200101907effffffffffffffffffffffffffffffffffffffffffffffffffffffffffffff1916908160001a905350600a85613a209190615565565b945061399e565b8093505050505b919050565b6000808273ffffffffffffffffffffffffffffffffffffffff163b119050919050565b6040518060c00160405280600073ffffffffffffffffffffffffffffffffffffffff16815260200160608152602001600081526020016000815260200160008152602001606081525090565b508054613aae906145de565b6000825580601f10613ac05750613adf565b601f016020900490600052602060002090810190613ade9190613ae2565b5b50565b5b80821115613afb576000816000905550600101613ae3565b5090565b6000604051905090565b600080fd5b600080fd5b60007fffffffff0000000000000000000000000000000000000000000000000000000082169050919050565b613b4881613b13565b8114613b5357600080fd5b50565b600081359050613b6581613b3f565b92915050565b600060208284031215613b8157613b80613b09565b5b6000613b8f84828501613b56565b91505092915050565b60008115159050919050565b613bad81613b98565b82525050565b6000602082019050613bc86000830184613ba4565b92915050565b600073ffffffffffffffffffffffffffffffffffffffff82169050919050565b6000613bf982613bce565b9050919050565b613c0981613bee565b8114613c1457600080fd5b50565b600081359050613c2681613c00565b92915050565b600060208284031215613c4257613c41613b09565b5b6000613c5084828501613c17565b91505092915050565b6000613c6482613bce565b9050919050565b613c7481613c59565b82525050565b600081519050919050565b600082825260208201905092915050565b60005b83811015613cb4578082015181840152602081019050613c99565b60008484015250505050565b6000601f19601f8301169050919050565b6000613cdc82613c7a565b613ce68185613c85565b9350613cf6818560208601613c96565b613cff81613cc0565b840191505092915050565b6000819050919050565b613d1d81613d0a565b82525050565b600060c083016000830151613d3b6000860182613c6b565b5060208301518482036020860152613d538282613cd1565b9150506040830151613d686040860182613d14565b506060830151613d7b6060860182613d14565b506080830151613d8e6080860182613d14565b5060a083015184820360a0860152613da68282613cd1565b9150508091505092915050565b60006020820190508181036000830152613dcd8184613d23565b905092915050565b600082825260208201905092915050565b6000613df182613c7a565b613dfb8185613dd5565b9350613e0b818560208601613c96565b613e1481613cc0565b840191505092915050565b60006020820190508181036000830152613e398184613de6565b905092915050565b613e4a81613d0a565b8114613e5557600080fd5b50565b600081359050613e6781613e41565b92915050565b600060208284031215613e8357613e82613b09565b5b6000613e9184828501613e58565b91505092915050565b613ea381613bee565b82525050565b6000602082019050613ebe6000830184613e9a565b92915050565b60008060408385031215613edb57613eda613b09565b5b6000613ee985828601613c17565b9250506020613efa85828601613e58565b9150509250929050565b613f0d81613c59565b82525050565b613f1c81613d0a565b82525050565b600060c082019050613f376000830189613f04565b8181036020830152613f498188613de6565b9050613f586040830187613f13565b613f656060830186613f13565b613f726080830185613f13565b81810360a0830152613f848184613de6565b9050979650505050505050565b6000602082019050613fa66000830184613f13565b92915050565b600081519050919050565b600082825260208201905092915050565b6000819050602082019050919050565b600060c083016000830151613ff06000860182613c6b565b50602083015184820360208601526140088282613cd1565b915050604083015161401d6040860182613d14565b5060608301516140306060860182613d14565b5060808301516140436080860182613d14565b5060a083015184820360a086015261405b8282613cd1565b9150508091505092915050565b60006140748383613fd8565b905092915050565b6000602082019050919050565b600061409482613fac565b61409e8185613fb7565b9350836020820285016140b085613fc8565b8060005b858110156140ec57848403895281516140cd8582614068565b94506140d88361407c565b925060208a019950506001810190506140b4565b50829750879550505050505092915050565b600060208201905081810360008301526141188184614089565b905092915050565b60008060006060848603121561413957614138613b09565b5b600061414786828701613c17565b935050602061415886828701613c17565b925050604061416986828701613e58565b9150509250925092565b61417c81613b98565b811461418757600080fd5b50565b60008135905061419981614173565b92915050565b600080604083850312156141b6576141b5613b09565b5b60006141c485828601613c17565b92505060206141d58582860161418a565b9150509250929050565b600080fd5b600080fd5b7f4e487b7100000000000000000000000000000000000000000000000000000000600052604160045260246000fd5b61422182613cc0565b810181811067ffffffffffffffff821117156142405761423f6141e9565b5b80604052505050565b6000614253613aff565b905061425f8282614218565b919050565b600067ffffffffffffffff82111561427f5761427e6141e9565b5b61428882613cc0565b9050602081019050919050565b82818337600083830152505050565b60006142b76142b284614264565b614249565b9050828152602081018484840111156142d3576142d26141e4565b5b6142de848285614295565b509392505050565b600082601f8301126142fb576142fa6141df565b5b813561430b8482602086016142a4565b91505092915050565b6000806000806080858703121561432e5761432d613b09565b5b600061433c87828801613c17565b945050602061434d87828801613c17565b935050604061435e87828801613e58565b925050606085013567ffffffffffffffff81111561437f5761437e613b0e565b5b61438b878288016142e6565b91505092959194509250565b600067ffffffffffffffff8211156143b2576143b16141e9565b5b6143bb82613cc0565b9050602081019050919050565b60006143db6143d684614397565b614249565b9050828152602081018484840111156143f7576143f66141e4565b5b614402848285614295565b509392505050565b600082601f83011261441f5761441e6141df565b5b813561442f8482602086016143c8565b91505092915050565b60006020828403121561444e5761444d613b09565b5b600082013567ffffffffffffffff81111561446c5761446b613b0e565b5b6144788482850161440a565b91505092915050565b6000806040838503121561449857614497613b09565b5b60006144a685828601613c17565b925050602083013567ffffffffffffffff8111156144c7576144c6613b0e565b5b6144d38582860161440a565b9150509250929050565b600080604083850312156144f4576144f3613b09565b5b600061450285828601613c17565b925050602061451385828601613c17565b9150509250929050565b7f6f6e6c7920636f6e74726163742061646d696e2063616e20736574206665617460008201527f757265642063726561746f720000000000000000000000000000000000000000602082015250565b6000614579602c83613dd5565b91506145848261451d565b604082019050919050565b600060208201905081810360008301526145a88161456c565b9050919050565b7f4e487b7100000000000000000000000000000000000000000000000000000000600052602260045260246000fd5b600060028204905060018216806145f657607f821691505b602082108103614609576146086145af565b5b50919050565b60008154905061461e816145de565b9050919050565b60008190508160005260206000209050919050565b60006020601f8301049050919050565b600082821b905092915050565b6000600883026146877fffffffffffffffffffffffffffffffffffffffffffffffffffffffffffffffff8261464a565b614691868361464a565b95508019841693508086168417925050509392505050565b6000819050919050565b60006146ce6146c96146c484613d0a565b6146a9565b613d0a565b9050919050565b6000819050919050565b6146e8836146b3565b6146fc6146f4826146d5565b848454614657565b825550505050565b600090565b614711614704565b61471c8184846146df565b505050565b5b8181101561474057614735600082614709565b600181019050614722565b5050565b601f8211156147855761475681614625565b61475f8461463a565b8101602085101561476e578190505b61478261477a8561463a565b830182614721565b50505b505050565b600082821c905092915050565b60006147a86000198460080261478a565b1980831691505092915050565b60006147c18383614797565b9150826002028217905092915050565b8181036147df5750506148b7565b6147e88261460f565b67ffffffffffffffff811115614801576148006141e9565b5b61480b82546145de565b614816828285614744565b6000601f8311600181146148455760008415614833578287015490505b61483d85826147b5565b8655506148b0565b601f19841661485387614625565b965061485e86614625565b60005b8281101561488657848901548255600182019150600185019450602081019050614861565b868310156148a3578489015461489f601f891682614797565b8355505b6001600288020188555050505b5050505050505b565b7f4552433732313a20617070726f76616c20746f2063757272656e74206f776e6560008201527f7200000000000000000000000000000000000000000000000000000000000000602082015250565b6000614915602183613dd5565b9150614920826148b9565b604082019050919050565b6000602082019050818103600083015261494481614908565b9050919050565b7f4552433732313a20617070726f76652063616c6c6572206973206e6f7420746f60008201527f6b656e206f776e6572206e6f7220617070726f76656420666f7220616c6c0000602082015250565b60006149a7603e83613dd5565b91506149b28261494b565b604082019050919050565b600060208201905081810360008301526149d68161499a565b9050919050565b7f4e487b7100000000000000000000000000000000000000000000000000000000600052603260045260246000fd5b7f4e487b7100000000000000000000000000000000000000000000000000000000600052601160045260246000fd5b6000614a4682613d0a565b91507fffffffffffffffffffffffffffffffffffffffffffffffffffffffffffffffff8203614a7857614a77614a0c565b5b600182019050919050565b7f4552433732313a2063616c6c6572206973206e6f7420746f6b656e206f776e6560008201527f72206e6f7220617070726f766564000000000000000000000000000000000000602082015250565b6000614adf602e83613dd5565b9150614aea82614a83565b604082019050919050565b60006020820190508181036000830152614b0e81614ad2565b9050919050565b7f6d757374206265206f776e657220746f206275726e0000000000000000000000600082015250565b6000614b4b601583613dd5565b9150614b5682614b15565b602082019050919050565b60006020820190508181036000830152614b7a81614b3e565b9050919050565b7f4552433732313a20696e76616c696420746f6b656e2049440000000000000000600082015250565b6000614bb7601883613dd5565b9150614bc282614b81565b602082019050919050565b60006020820190508181036000830152614be681614baa565b9050919050565b7f63616e6e6f742074697020300000000000000000000000000000000000000000600082015250565b6000614c23600c83613dd5565b9150614c2e82614bed565b602082019050919050565b60006020820190508181036000830152614c5281614c16565b9050919050565b7f63616e6e6f742074697020796f757273656c6600000000000000000000000000600082015250565b6000614c8f601383613dd5565b9150614c9a82614c59565b602082019050919050565b60006020820190508181036000830152614cbe81614c82565b9050919050565b6000614cd082613d0a565b9150614cdb83613d0a565b9250828201905080821115614cf357614cf2614a0c565b5b92915050565b7f4552433732313a2061646472657373207a65726f206973206e6f74206120766160008201527f6c6964206f776e65720000000000000000000000000000000000000000000000602082015250565b6000614d55602983613dd5565b9150614d6082614cf9565b604082019050919050565b60006020820190508181036000830152614d8481614d48565b9050919050565b7f6f776e65722063616e206f6e6c79207365742070726f66696c6520746865792060008201527f6f776e0000000000000000000000000000000000000000000000000000000000602082015250565b6000614de7602383613dd5565b9150614df282614d8b565b604082019050919050565b60006020820190508181036000830152614e1681614dda565b9050919050565b600081905092915050565b6000614e3382613c7a565b614e3d8185614e1d565b9350614e4d818560208601613c96565b80840191505092915050565b6000614e658285614e28565b9150614e718284614e28565b91508190509392505050565b614e8682613c7a565b67ffffffffffffffff811115614e9f57614e9e6141e9565b5b614ea982546145de565b614eb4828285614744565b600060209050601f831160018114614ee75760008415614ed5578287015190505b614edf85826147b5565b865550614f47565b601f198416614ef586614625565b60005b82811015614f1d57848901518255600182019150602085019450602081019050614ef8565b86831015614f3a5784890151614f36601f891682614797565b8355505b6001600288020188555050505b505050505050565b7f63616e6e6f74206c696b6520796f7572206f776e2070726f66696c6500000000600082015250565b6000614f85601c83613dd5565b9150614f9082614f4f565b602082019050919050565b60006020820190508181036000830152614fb481614f78565b9050919050565b7f63616e6e6f742073657420736f6d656f6e6520656c736573206d657373616765600082015250565b6000614ff1602083613dd5565b9150614ffc82614fbb565b602082019050919050565b6000602082019050818103600083015261502081614fe4565b9050919050565b7f616c7265616479206c696b656420617274697374000000000000000000000000600082015250565b600061505d601483613dd5565b915061506882615027565b602082019050919050565b6000602082019050818103600083015261508c81615050565b9050919050565b7f4552433732313a207472616e736665722066726f6d20696e636f72726563742060008201527f6f776e6572000000000000000000000000000000000000000000000000000000602082015250565b60006150ef602583613dd5565b91506150fa82615093565b604082019050919050565b6000602082019050818103600083015261511e816150e2565b9050919050565b7f4552433732313a207472616e7366657220746f20746865207a65726f2061646460008201527f7265737300000000000000000000000000000000000000000000000000000000602082015250565b6000615181602483613dd5565b915061518c82615125565b604082019050919050565b600060208201905081810360008301526151b081615174565b9050919050565b60006151c282613d0a565b91506151cd83613d0a565b92508282039050818111156151e5576151e4614a0c565b5b92915050565b7f4552433732313a20617070726f766520746f2063616c6c657200000000000000600082015250565b6000615221601983613dd5565b915061522c826151eb565b602082019050919050565b6000602082019050818103600083015261525081615214565b9050919050565b7f4552433732313a207472616e7366657220746f206e6f6e20455243373231526560008201527f63656976657220696d706c656d656e7465720000000000000000000000000000602082015250565b60006152b3603283613dd5565b91506152be82615257565b604082019050919050565b600060208201905081810360008301526152e2816152a6565b9050919050565b7f4552433732313a206d696e7420746f20746865207a65726f2061646472657373600082015250565b600061531f602083613dd5565b915061532a826152e9565b602082019050919050565b6000602082019050818103600083015261534e81615312565b9050919050565b7f4552433732313a20746f6b656e20616c7265616479206d696e74656400000000600082015250565b600061538b601c83613dd5565b915061539682615355565b602082019050919050565b600060208201905081810360008301526153ba8161537e565b9050919050565b7f45524337323155524953746f726167653a2055524920736574206f66206e6f6e60008201527f6578697374656e7420746f6b656e000000000000000000000000000000000000602082015250565b600061541d602e83613dd5565b9150615428826153c1565b604082019050919050565b6000602082019050818103600083015261544c81615410565b9050919050565b600081519050919050565b600082825260208201905092915050565b600061547a82615453565b615484818561545e565b9350615494818560208601613c96565b61549d81613cc0565b840191505092915050565b60006080820190506154bd6000830187613e9a565b6154ca6020830186613e9a565b6154d76040830185613f13565b81810360608301526154e9818461546f565b905095945050505050565b60008151905061550381613b3f565b92915050565b60006020828403121561551f5761551e613b09565b5b600061552d848285016154f4565b91505092915050565b7f4e487b7100000000000000000000000000000000000000000000000000000000600052601260045260246000fd5b600061557082613d0a565b915061557b83613d0a565b92508261558b5761558a615536565b5b828204905092915050565b60006155a182613d0a565b91506155ac83613d0a565b9250826155bc576155bb615536565b5b82820690509291505056fea26469706673582212201499f72a482374e0bbf756a1b7f55ab3fc80d9b2ef515cc7e938630d80286a7264736f6c63430008110033",
  "linkReferences": {},
  "deployedLinkReferences": {}
}