{
  "_format": "hh-sol-artifact-1",
  "contractName": "ProfileNFT",
  "sourceName": "contracts/ProfileNFT.sol",
  "abi": [
    {
      "inputs": [],
      "stateMutability": "nonpayable",
      "type": "constructor"
    },
    {
      "anonymous": false,
      "inputs": [
        {
          "indexed": true,
          "internalType": "address",
          "name": "owner",
          "type": "address"
        },
        {
          "indexed": true,
          "internalType": "address",
          "name": "approved",
          "type": "address"
        },
        {
          "indexed": true,
          "internalType": "uint256",
          "name": "tokenId",
          "type": "uint256"
        }
      ],
      "name": "Approval",
      "type": "event"
    },
    {
      "anonymous": false,
      "inputs": [
        {
          "indexed": true,
          "internalType": "address",
          "name": "owner",
          "type": "address"
        },
        {
          "indexed": true,
          "internalType": "address",
          "name": "operator",
          "type": "address"
        },
        {
          "indexed": false,
          "internalType": "bool",
          "name": "approved",
          "type": "bool"
        }
      ],
      "name": "ApprovalForAll",
      "type": "event"
    },
    {
      "anonymous": false,
      "inputs": [
        {
          "indexed": true,
          "internalType": "address",
          "name": "from",
          "type": "address"
        },
        {
          "indexed": true,
          "internalType": "address",
          "name": "to",
          "type": "address"
        },
        {
          "indexed": true,
          "internalType": "uint256",
          "name": "tokenId",
          "type": "uint256"
        }
      ],
      "name": "Transfer",
      "type": "event"
    },
    {
      "inputs": [],
      "name": "admin",
      "outputs": [
        {
          "internalType": "address",
          "name": "",
          "type": "address"
        }
      ],
      "stateMutability": "view",
      "type": "function"
    },
    {
      "inputs": [
        {
          "internalType": "address",
          "name": "to",
          "type": "address"
        },
        {
          "internalType": "uint256",
          "name": "tokenId",
          "type": "uint256"
        }
      ],
      "name": "approve",
      "outputs": [],
      "stateMutability": "nonpayable",
      "type": "function"
    },
    {
      "inputs": [
        {
          "internalType": "address",
          "name": "owner",
          "type": "address"
        }
      ],
      "name": "balanceOf",
      "outputs": [
        {
          "internalType": "uint256",
          "name": "",
          "type": "uint256"
        }
      ],
      "stateMutability": "view",
      "type": "function"
    },
    {
      "inputs": [
        {
          "internalType": "uint256",
          "name": "_tokenId",
          "type": "uint256"
        }
      ],
      "name": "burn",
      "outputs": [],
      "stateMutability": "nonpayable",
      "type": "function"
    },
    {
      "inputs": [
        {
          "internalType": "address",
          "name": "",
          "type": "address"
        }
      ],
      "name": "creatorsProfile",
      "outputs": [
        {
          "internalType": "address payable",
          "name": "creatorAddress",
          "type": "address"
        },
        {
          "internalType": "string",
          "name": "profileMessage",
          "type": "string"
        },
        {
          "internalType": "uint256",
          "name": "tipsReceived",
          "type": "uint256"
        },
        {
          "internalType": "uint256",
          "name": "profileToken",
          "type": "uint256"
        },
        {
          "internalType": "uint256",
          "name": "numOfLikes",
          "type": "uint256"
        },
        {
          "internalType": "string",
          "name": "username",
          "type": "string"
        }
      ],
      "stateMutability": "view",
      "type": "function"
    },
    {
      "inputs": [],
      "name": "featuredCreator",
      "outputs": [
        {
          "internalType": "address payable",
          "name": "creatorAddress",
          "type": "address"
        },
        {
          "internalType": "string",
          "name": "profileMessage",
          "type": "string"
        },
        {
          "internalType": "uint256",
          "name": "tipsReceived",
          "type": "uint256"
        },
        {
          "internalType": "uint256",
          "name": "profileToken",
          "type": "uint256"
        },
        {
          "internalType": "uint256",
          "name": "numOfLikes",
          "type": "uint256"
        },
        {
          "internalType": "string",
          "name": "username",
          "type": "string"
        }
      ],
      "stateMutability": "view",
      "type": "function"
    },
    {
      "inputs": [
        {
          "internalType": "uint256",
          "name": "tokenId",
          "type": "uint256"
        }
      ],
      "name": "getApproved",
      "outputs": [
        {
          "internalType": "address",
          "name": "",
          "type": "address"
        }
      ],
      "stateMutability": "view",
      "type": "function"
    },
    {
      "inputs": [
        {
          "internalType": "address",
          "name": "",
          "type": "address"
        },
        {
          "internalType": "address",
          "name": "",
          "type": "address"
        }
      ],
      "name": "hasLikeProfile",
      "outputs": [
        {
          "internalType": "bool",
          "name": "",
          "type": "bool"
        }
      ],
      "stateMutability": "view",
      "type": "function"
    },
    {
      "inputs": [
        {
          "internalType": "address",
          "name": "owner",
          "type": "address"
        },
        {
          "internalType": "address",
          "name": "operator",
          "type": "address"
        }
      ],
      "name": "isApprovedForAll",
      "outputs": [
        {
          "internalType": "bool",
          "name": "",
          "type": "bool"
        }
      ],
      "stateMutability": "view",
      "type": "function"
    },
    {
      "inputs": [
        {
          "internalType": "string",
          "name": "_tokenUri",
          "type": "string"
        }
      ],
      "name": "mint",
      "outputs": [
        {
          "internalType": "uint256",
          "name": "",
          "type": "uint256"
        }
      ],
      "stateMutability": "nonpayable",
      "type": "function"
    },
    {
      "inputs": [],
      "name": "name",
      "outputs": [
        {
          "internalType": "string",
          "name": "",
          "type": "string"
        }
      ],
      "stateMutability": "view",
      "type": "function"
    },
    {
      "inputs": [
        {
          "internalType": "address",
          "name": "",
          "type": "address"
        }
      ],
      "name": "nftProfileOwners",
      "outputs": [
        {
          "internalType": "uint256",
          "name": "",
          "type": "uint256"
        }
      ],
      "stateMutability": "view",
      "type": "function"
    },
    {
      "inputs": [
        {
          "internalType": "uint256",
          "name": "",
          "type": "uint256"
        }
      ],
      "name": "numberToCreator",
      "outputs": [
        {
          "internalType": "address payable",
          "name": "creatorAddress",
          "type": "address"
        },
        {
          "internalType": "string",
          "name": "profileMessage",
          "type": "string"
        },
        {
          "internalType": "uint256",
          "name": "tipsReceived",
          "type": "uint256"
        },
        {
          "internalType": "uint256",
          "name": "profileToken",
          "type": "uint256"
        },
        {
          "internalType": "uint256",
          "name": "numOfLikes",
          "type": "uint256"
        },
        {
          "internalType": "string",
          "name": "username",
          "type": "string"
        }
      ],
      "stateMutability": "view",
      "type": "function"
    },
    {
      "inputs": [
        {
          "internalType": "uint256",
          "name": "tokenId",
          "type": "uint256"
        }
      ],
      "name": "ownerOf",
      "outputs": [
        {
          "internalType": "address",
          "name": "",
          "type": "address"
        }
      ],
      "stateMutability": "view",
      "type": "function"
    },
    {
      "inputs": [],
      "name": "returnAllProfiles",
      "outputs": [
        {
          "components": [
            {
              "internalType": "address payable",
              "name": "creatorAddress",
              "type": "address"
            },
            {
              "internalType": "string",
              "name": "profileMessage",
              "type": "string"
            },
            {
              "internalType": "uint256",
              "name": "tipsReceived",
              "type": "uint256"
            },
            {
              "internalType": "uint256",
              "name": "profileToken",
              "type": "uint256"
            },
            {
              "internalType": "uint256",
              "name": "numOfLikes",
              "type": "uint256"
            },
            {
              "internalType": "string",
              "name": "username",
              "type": "string"
            }
          ],
          "internalType": "struct ProfileNFT.Creator[]",
          "name": "",
          "type": "tuple[]"
        }
      ],
      "stateMutability": "view",
      "type": "function"
    },
    {
      "inputs": [
        {
          "internalType": "address",
          "name": "_user",
          "type": "address"
        }
      ],
      "name": "returnLikedCreatorsList",
      "outputs": [
        {
          "components": [
            {
              "internalType": "address payable",
              "name": "creatorAddress",
              "type": "address"
            },
            {
              "internalType": "string",
              "name": "profileMessage",
              "type": "string"
            },
            {
              "internalType": "uint256",
              "name": "tipsReceived",
              "type": "uint256"
            },
            {
              "internalType": "uint256",
              "name": "profileToken",
              "type": "uint256"
            },
            {
              "internalType": "uint256",
              "name": "numOfLikes",
              "type": "uint256"
            },
            {
              "internalType": "string",
              "name": "username",
              "type": "string"
            }
          ],
          "internalType": "struct ProfileNFT.Creator[]",
          "name": "",
          "type": "tuple[]"
        }
      ],
      "stateMutability": "view",
      "type": "function"
    },
    {
      "inputs": [
        {
          "internalType": "address",
          "name": "from",
          "type": "address"
        },
        {
          "internalType": "address",
          "name": "to",
          "type": "address"
        },
        {
          "internalType": "uint256",
          "name": "tokenId",
          "type": "uint256"
        }
      ],
      "name": "safeTransferFrom",
      "outputs": [],
      "stateMutability": "nonpayable",
      "type": "function"
    },
    {
      "inputs": [
        {
          "internalType": "address",
          "name": "from",
          "type": "address"
        },
        {
          "internalType": "address",
          "name": "to",
          "type": "address"
        },
        {
          "internalType": "uint256",
          "name": "tokenId",
          "type": "uint256"
        },
        {
          "internalType": "bytes",
          "name": "data",
          "type": "bytes"
        }
      ],
      "name": "safeTransferFrom",
      "outputs": [],
      "stateMutability": "nonpayable",
      "type": "function"
    },
    {
      "inputs": [
        {
          "internalType": "address",
          "name": "creatorAddress",
          "type": "address"
        }
      ],
      "name": "sendLike",
      "outputs": [
        {
          "internalType": "uint256",
          "name": "",
          "type": "uint256"
        }
      ],
      "stateMutability": "nonpayable",
      "type": "function"
    },
    {
      "inputs": [
        {
          "internalType": "address",
          "name": "operator",
          "type": "address"
        },
        {
          "internalType": "bool",
          "name": "approved",
          "type": "bool"
        }
      ],
      "name": "setApprovalForAll",
      "outputs": [],
      "stateMutability": "nonpayable",
      "type": "function"
    },
    {
      "inputs": [
        {
          "internalType": "address",
          "name": "_featCreator",
          "type": "address"
        }
      ],
      "name": "setFeaturedCreator",
      "outputs": [
        {
          "components": [
            {
              "internalType": "address payable",
              "name": "creatorAddress",
              "type": "address"
            },
            {
              "internalType": "string",
              "name": "profileMessage",
              "type": "string"
            },
            {
              "internalType": "uint256",
              "name": "tipsReceived",
              "type": "uint256"
            },
            {
              "internalType": "uint256",
              "name": "profileToken",
              "type": "uint256"
            },
            {
              "internalType": "uint256",
              "name": "numOfLikes",
              "type": "uint256"
            },
            {
              "internalType": "string",
              "name": "username",
              "type": "string"
            }
          ],
          "internalType": "struct ProfileNFT.Creator",
          "name": "",
          "type": "tuple"
        }
      ],
      "stateMutability": "nonpayable",
      "type": "function"
    },
    {
      "inputs": [
        {
          "internalType": "address",
          "name": "creatorsPro",
          "type": "address"
        },
        {
          "internalType": "string",
          "name": "message",
          "type": "string"
        }
      ],
      "name": "setMessage",
      "outputs": [
        {
          "internalType": "string",
          "name": "",
          "type": "string"
        }
      ],
      "stateMutability": "nonpayable",
      "type": "function"
    },
    {
      "inputs": [
        {
          "internalType": "uint256",
          "name": "tokenId",
          "type": "uint256"
        }
      ],
      "name": "setProfile",
      "outputs": [
        {
          "internalType": "uint256",
          "name": "",
          "type": "uint256"
        }
      ],
      "stateMutability": "nonpayable",
      "type": "function"
    },
    {
      "inputs": [
        {
          "internalType": "address",
          "name": "creatorAddress",
          "type": "address"
        },
        {
          "internalType": "string",
          "name": "_username",
          "type": "string"
        }
      ],
      "name": "setUsername",
      "outputs": [
        {
          "internalType": "string",
          "name": "",
          "type": "string"
        }
      ],
      "stateMutability": "nonpayable",
      "type": "function"
    },
    {
      "inputs": [
        {
          "internalType": "bytes4",
          "name": "interfaceId",
          "type": "bytes4"
        }
      ],
      "name": "supportsInterface",
      "outputs": [
        {
          "internalType": "bool",
          "name": "",
          "type": "bool"
        }
      ],
      "stateMutability": "view",
      "type": "function"
    },
    {
      "inputs": [],
      "name": "symbol",
      "outputs": [
        {
          "internalType": "string",
          "name": "",
          "type": "string"
        }
      ],
      "stateMutability": "view",
      "type": "function"
    },
    {
      "inputs": [
        {
          "internalType": "address",
          "name": "creatorAddress",
          "type": "address"
        }
      ],
      "name": "tipCreator",
      "outputs": [
        {
          "internalType": "uint256",
          "name": "",
          "type": "uint256"
        }
      ],
      "stateMutability": "payable",
      "type": "function"
    },
    {
      "inputs": [],
      "name": "tokenCount",
      "outputs": [
        {
          "internalType": "uint256",
          "name": "",
          "type": "uint256"
        }
      ],
      "stateMutability": "view",
      "type": "function"
    },
    {
      "inputs": [
        {
          "internalType": "uint256",
          "name": "tokenId",
          "type": "uint256"
        }
      ],
      "name": "tokenURI",
      "outputs": [
        {
          "internalType": "string",
          "name": "",
          "type": "string"
        }
      ],
      "stateMutability": "view",
      "type": "function"
    },
    {
      "inputs": [
        {
          "internalType": "address",
          "name": "from",
          "type": "address"
        },
        {
          "internalType": "address",
          "name": "to",
          "type": "address"
        },
        {
          "internalType": "uint256",
          "name": "tokenId",
          "type": "uint256"
        }
      ],
      "name": "transferFrom",
      "outputs": [],
      "stateMutability": "nonpayable",
      "type": "function"
    },
    {
      "inputs": [
        {
          "internalType": "address",
          "name": "creatorAddress",
          "type": "address"
        }
      ],
      "name": "unLike",
      "outputs": [
        {
          "internalType": "uint256",
          "name": "",
          "type": "uint256"
        }
      ],
      "stateMutability": "nonpayable",
      "type": "function"
    },
    {
      "inputs": [
        {
          "internalType": "uint256",
          "name": "",
          "type": "uint256"
        }
      ],
      "name": "users",
      "outputs": [
        {
          "internalType": "address",
          "name": "",
          "type": "address"
        }
      ],
      "stateMutability": "view",
      "type": "function"
    },
    {
      "inputs": [
        {
          "internalType": "address",
          "name": "",
          "type": "address"
        },
        {
          "internalType": "uint256",
          "name": "",
          "type": "uint256"
        }
      ],
      "name": "usersLikedList",
      "outputs": [
        {
          "internalType": "address payable",
          "name": "creatorAddress",
          "type": "address"
        },
        {
          "internalType": "string",
          "name": "profileMessage",
          "type": "string"
        },
        {
          "internalType": "uint256",
          "name": "tipsReceived",
          "type": "uint256"
        },
        {
          "internalType": "uint256",
          "name": "profileToken",
          "type": "uint256"
        },
        {
          "internalType": "uint256",
          "name": "numOfLikes",
          "type": "uint256"
        },
        {
          "internalType": "string",
          "name": "username",
          "type": "string"
        }
      ],
      "stateMutability": "view",
      "type": "function"
    }
  ],
  "bytecode": "0x60806040523480156200001157600080fd5b506040518060400160405280601181526020017f4465666942656174732050726f66696c650000000000000000000000000000008152506040518060400160405280600481526020017f444642500000000000000000000000000000000000000000000000000000000081525081600090816200008f919062000365565b508060019081620000a1919062000365565b50505033600860006101000a81548173ffffffffffffffffffffffffffffffffffffffff021916908373ffffffffffffffffffffffffffffffffffffffff1602179055506200044c565b600081519050919050565b7f4e487b7100000000000000000000000000000000000000000000000000000000600052604160045260246000fd5b7f4e487b7100000000000000000000000000000000000000000000000000000000600052602260045260246000fd5b600060028204905060018216806200016d57607f821691505b60208210810362000183576200018262000125565b5b50919050565b60008190508160005260206000209050919050565b60006020601f8301049050919050565b600082821b905092915050565b600060088302620001ed7fffffffffffffffffffffffffffffffffffffffffffffffffffffffffffffffff82620001ae565b620001f98683620001ae565b95508019841693508086168417925050509392505050565b6000819050919050565b6000819050919050565b600062000246620002406200023a8462000211565b6200021b565b62000211565b9050919050565b6000819050919050565b620002628362000225565b6200027a62000271826200024d565b848454620001bb565b825550505050565b600090565b6200029162000282565b6200029e81848462000257565b505050565b5b81811015620002c657620002ba60008262000287565b600181019050620002a4565b5050565b601f8211156200031557620002df8162000189565b620002ea846200019e565b81016020851015620002fa578190505b6200031262000309856200019e565b830182620002a3565b50505b505050565b600082821c905092915050565b60006200033a600019846008026200031a565b1980831691505092915050565b600062000355838362000327565b9150826002028217905092915050565b6200037082620000eb565b67ffffffffffffffff8111156200038c576200038b620000f6565b5b62000398825462000154565b620003a5828285620002ca565b600060209050601f831160018114620003dd5760008415620003c8578287015190505b620003d4858262000347565b86555062000444565b601f198416620003ed8662000189565b60005b828110156200041757848901518255600182019150602085019450602081019050620003f0565b8683101562000437578489015162000433601f89168262000327565b8355505b6001600288020188555050505b505050505050565b615b0f806200045c6000396000f3fe6080604052600436106101ee5760003560e01c806365c4e4aa1161010d578063c87b56dd116100a0578063e9aa460f1161006f578063e9aa460f146107e1578063ebb14c7f1461081e578063f851a4401461085b578063f8b60fe314610886578063fe47795e146108c3576101ee565b8063c87b56dd146106ed578063d85d3d271461072a578063e204545214610767578063e985e9c5146107a4576101ee565b80639f181b5e116100dc5780639f181b5e1461062e578063a22cb46514610659578063b5db047214610682578063b88d4fde146106c4576101ee565b806365c4e4aa1461055957806370a082311461058957806385d3cb37146105c657806395d89b4114610603576101ee565b8063235ff86f1161018557806342842e0e1161015457806342842e0e1461048857806342966c68146104b157806355941708146104da5780636352211e1461051c576101ee565b8063235ff86f146103ba57806323b872dd146103f7578063365b98b21461042057806340cfadf81461045d576101ee565b8063095ea7b3116101c1578063095ea7b3146102d55780630aef61a1146102fe5780630c5d6ed014610340578063206841321461037d576101ee565b806301ffc9a7146101f35780630262783b1461023057806306fdde031461026d578063081812fc14610298575b600080fd5b3480156101ff57600080fd5b5061021a60048036038101906102159190613fe8565b6108f3565b6040516102279190614030565b60405180910390f35b34801561023c57600080fd5b50610257600480360381019061025291906140a9565b6109d5565b6040516102649190614230565b60405180910390f35b34801561027957600080fd5b50610282610d0f565b60405161028f919061429c565b60405180910390f35b3480156102a457600080fd5b506102bf60048036038101906102ba91906142ea565b610da1565b6040516102cc9190614326565b60405180910390f35b3480156102e157600080fd5b506102fc60048036038101906102f79190614341565b610de7565b005b34801561030a57600080fd5b50610325600480360381019061032091906142ea565b610efe565b6040516103379695949392919061439f565b60405180910390f35b34801561034c57600080fd5b50610367600480360381019061036291906140a9565b61106a565b604051610374919061440e565b60405180910390f35b34801561038957600080fd5b506103a4600480360381019061039f91906140a9565b611082565b6040516103b1919061440e565b60405180910390f35b3480156103c657600080fd5b506103e160048036038101906103dc91906140a9565b6114b7565b6040516103ee919061457b565b60405180910390f35b34801561040357600080fd5b5061041e6004803603810190610419919061459d565b6117a1565b005b34801561042c57600080fd5b50610447600480360381019061044291906142ea565b611801565b6040516104549190614326565b60405180910390f35b34801561046957600080fd5b50610472611840565b60405161047f919061457b565b60405180910390f35b34801561049457600080fd5b506104af60048036038101906104aa919061459d565b611b09565b005b3480156104bd57600080fd5b506104d860048036038101906104d391906142ea565b611b29565b005b3480156104e657600080fd5b5061050160048036038101906104fc9190614341565b611c20565b6040516105139695949392919061439f565b60405180910390f35b34801561052857600080fd5b50610543600480360381019061053e91906142ea565b611da9565b6040516105509190614326565b60405180910390f35b610573600480360381019061056e91906140a9565b611e5a565b604051610580919061440e565b60405180910390f35b34801561059557600080fd5b506105b060048036038101906105ab91906140a9565b611fb8565b6040516105bd919061440e565b60405180910390f35b3480156105d257600080fd5b506105ed60048036038101906105e891906142ea565b61206f565b6040516105fa919061440e565b60405180910390f35b34801561060f57600080fd5b5061061861213a565b604051610625919061429c565b60405180910390f35b34801561063a57600080fd5b506106436121cc565b604051610650919061440e565b60405180910390f35b34801561066557600080fd5b50610680600480360381019061067b919061461c565b6121d2565b005b34801561068e57600080fd5b506106a960048036038101906106a491906140a9565b6121e8565b6040516106bb9695949392919061439f565b60405180910390f35b3480156106d057600080fd5b506106eb60048036038101906106e69190614791565b612354565b005b3480156106f957600080fd5b50610714600480360381019061070f91906142ea565b6123b6565b604051610721919061429c565b60405180910390f35b34801561073657600080fd5b50610751600480360381019061074c91906148b5565b6124c8565b60405161075e919061440e565b60405180910390f35b34801561077357600080fd5b5061078e600480360381019061078991906148fe565b61285b565b60405161079b919061429c565b60405180910390f35b3480156107b057600080fd5b506107cb60048036038101906107c6919061495a565b6129b1565b6040516107d89190614030565b60405180910390f35b3480156107ed57600080fd5b50610808600480360381019061080391906148fe565b612a45565b604051610815919061429c565b60405180910390f35b34801561082a57600080fd5b50610845600480360381019061084091906140a9565b612bbf565b604051610852919061440e565b60405180910390f35b34801561086757600080fd5b50610870612f12565b60405161087d9190614326565b60405180910390f35b34801561089257600080fd5b506108ad60048036038101906108a8919061495a565b612f38565b6040516108ba9190614030565b60405180910390f35b3480156108cf57600080fd5b506108d8612f67565b6040516108ea9695949392919061439f565b60405180910390f35b60007f80ac58cd000000000000000000000000000000000000000000000000000000007bffffffffffffffffffffffffffffffffffffffffffffffffffffffff1916827bffffffffffffffffffffffffffffffffffffffffffffffffffffffff191614806109be57507f5b5e139f000000000000000000000000000000000000000000000000000000007bffffffffffffffffffffffffffffffffffffffffffffffffffffffff1916827bffffffffffffffffffffffffffffffffffffffffffffffffffffffff1916145b806109ce57506109cd826130c1565b5b9050919050565b6109dd613ed3565b600860009054906101000a900473ffffffffffffffffffffffffffffffffffffffff1673ffffffffffffffffffffffffffffffffffffffff163373ffffffffffffffffffffffffffffffffffffffff1614610a6d576040517f08c379a0000000000000000000000000000000000000000000000000000000008152600401610a6490614a0c565b60405180910390fd5b6000601260008473ffffffffffffffffffffffffffffffffffffffff1673ffffffffffffffffffffffffffffffffffffffff168152602001908152602001600020905080600a6000820160009054906101000a900473ffffffffffffffffffffffffffffffffffffffff168160000160006101000a81548173ffffffffffffffffffffffffffffffffffffffff021916908373ffffffffffffffffffffffffffffffffffffffff16021790555060018201816001019081610b2e9190614c4e565b5060028201548160020155600382015481600301556004820154816004015560058201816005019081610b619190614c4e565b5090506040518060c00160405290816000820160009054906101000a900473ffffffffffffffffffffffffffffffffffffffff1673ffffffffffffffffffffffffffffffffffffffff1673ffffffffffffffffffffffffffffffffffffffff168152602001600182018054610bd590614a5b565b80601f0160208091040260200160405190810160405280929190818152602001828054610c0190614a5b565b8015610c4e5780601f10610c2357610100808354040283529160200191610c4e565b820191906000526020600020905b815481529060010190602001808311610c3157829003601f168201915b50505050508152602001600282015481526020016003820154815260200160048201548152602001600582018054610c8590614a5b565b80601f0160208091040260200160405190810160405280929190818152602001828054610cb190614a5b565b8015610cfe5780601f10610cd357610100808354040283529160200191610cfe565b820191906000526020600020905b815481529060010190602001808311610ce157829003601f168201915b505050505081525050915050919050565b606060008054610d1e90614a5b565b80601f0160208091040260200160405190810160405280929190818152602001828054610d4a90614a5b565b8015610d975780601f10610d6c57610100808354040283529160200191610d97565b820191906000526020600020905b815481529060010190602001808311610d7a57829003601f168201915b5050505050905090565b6000610dac8261312b565b6004600083815260200190815260200160002060009054906101000a900473ffffffffffffffffffffffffffffffffffffffff169050919050565b6000610df282611da9565b90508073ffffffffffffffffffffffffffffffffffffffff168373ffffffffffffffffffffffffffffffffffffffff1603610e62576040517f08c379a0000000000000000000000000000000000000000000000000000000008152600401610e5990614da8565b60405180910390fd5b8073ffffffffffffffffffffffffffffffffffffffff16610e81613176565b73ffffffffffffffffffffffffffffffffffffffff161480610eb05750610eaf81610eaa613176565b6129b1565b5b610eef576040517f08c379a0000000000000000000000000000000000000000000000000000000008152600401610ee690614e3a565b60405180910390fd5b610ef9838361317e565b505050565b60116020528060005260406000206000915090508060000160009054906101000a900473ffffffffffffffffffffffffffffffffffffffff1690806001018054610f4790614a5b565b80601f0160208091040260200160405190810160405280929190818152602001828054610f7390614a5b565b8015610fc05780601f10610f9557610100808354040283529160200191610fc0565b820191906000526020600020905b815481529060010190602001808311610fa357829003601f168201915b505050505090806002015490806003015490806004015490806005018054610fe790614a5b565b80601f016020809104026020016040519081016040528092919081815260200182805461101390614a5b565b80156110605780601f1061103557610100808354040283529160200191611060565b820191906000526020600020905b81548152906001019060200180831161104357829003601f168201915b5050505050905086565b60106020528060005260406000206000915090505481565b60008173ffffffffffffffffffffffffffffffffffffffff163373ffffffffffffffffffffffffffffffffffffffff16036110f2576040517f08c379a00000000000000000000000000000000000000000000000000000000081526004016110e990614ea6565b60405180910390fd5b60011515601360003373ffffffffffffffffffffffffffffffffffffffff1673ffffffffffffffffffffffffffffffffffffffff16815260200190815260200160002060008473ffffffffffffffffffffffffffffffffffffffff1673ffffffffffffffffffffffffffffffffffffffff16815260200190815260200160002060009054906101000a900460ff161515146111c2576040517f08c379a00000000000000000000000000000000000000000000000000000000081526004016111b990614f12565b60405180910390fd5b6000601360003373ffffffffffffffffffffffffffffffffffffffff1673ffffffffffffffffffffffffffffffffffffffff16815260200190815260200160002060008473ffffffffffffffffffffffffffffffffffffffff1673ffffffffffffffffffffffffffffffffffffffff16815260200190815260200160002060006101000a81548160ff0219169083151502179055506000601260008473ffffffffffffffffffffffffffffffffffffffff1673ffffffffffffffffffffffffffffffffffffffff168152602001908152602001600020905060005b601460003373ffffffffffffffffffffffffffffffffffffffff1673ffffffffffffffffffffffffffffffffffffffff16815260200190815260200160002080549050811015611495578160000160009054906101000a900473ffffffffffffffffffffffffffffffffffffffff1673ffffffffffffffffffffffffffffffffffffffff16601460003373ffffffffffffffffffffffffffffffffffffffff1673ffffffffffffffffffffffffffffffffffffffff168152602001908152602001600020828154811061137357611372614f32565b5b906000526020600020906006020160000160009054906101000a900473ffffffffffffffffffffffffffffffffffffffff1673ffffffffffffffffffffffffffffffffffffffff160361148257601460003373ffffffffffffffffffffffffffffffffffffffff1673ffffffffffffffffffffffffffffffffffffffff168152602001908152602001600020818154811061141157611410614f32565b5b9060005260206000209060060201600080820160006101000a81549073ffffffffffffffffffffffffffffffffffffffff02191690556001820160006114579190613f1f565b60028201600090556003820160009055600482016000905560058201600061147f9190613f1f565b50505b808061148d90614f90565b91505061129d565b508060040160008154809291906114ab90614fd8565b91905055915050919050565b60606000601460008473ffffffffffffffffffffffffffffffffffffffff1673ffffffffffffffffffffffffffffffffffffffff16815260200190815260200160002080549050905060008167ffffffffffffffff81111561151c5761151b614666565b5b60405190808252806020026020018201604052801561155557816020015b611542613ed3565b81526020019060019003908161153a5790505b50905060005b8281101561179657601460008673ffffffffffffffffffffffffffffffffffffffff1673ffffffffffffffffffffffffffffffffffffffff16815260200190815260200160002081815481106115b4576115b3614f32565b5b90600052602060002090600602016040518060c00160405290816000820160009054906101000a900473ffffffffffffffffffffffffffffffffffffffff1673ffffffffffffffffffffffffffffffffffffffff1673ffffffffffffffffffffffffffffffffffffffff16815260200160018201805461163390614a5b565b80601f016020809104026020016040519081016040528092919081815260200182805461165f90614a5b565b80156116ac5780601f10611681576101008083540402835291602001916116ac565b820191906000526020600020905b81548152906001019060200180831161168f57829003601f168201915b505050505081526020016002820154815260200160038201548152602001600482015481526020016005820180546116e390614a5b565b80601f016020809104026020016040519081016040528092919081815260200182805461170f90614a5b565b801561175c5780601f106117315761010080835404028352916020019161175c565b820191906000526020600020905b81548152906001019060200180831161173f57829003601f168201915b50505050508152505082828151811061177857611777614f32565b5b6020026020010181905250808061178e90614f90565b91505061155b565b508092505050919050565b6117b26117ac613176565b82613237565b6117f1576040517f08c379a00000000000000000000000000000000000000000000000000000000081526004016117e890615073565b60405180910390fd5b6117fc8383836132cc565b505050565b6015818154811061181157600080fd5b906000526020600020016000915054906101000a900473ffffffffffffffffffffffffffffffffffffffff1681565b60606000601580549050905060008167ffffffffffffffff81111561186857611867614666565b5b6040519080825280602002602001820160405280156118a157816020015b61188e613ed3565b8152602001906001900390816118865790505b50905060005b82811015611b005760126000601583815481106118c7576118c6614f32565b5b9060005260206000200160009054906101000a900473ffffffffffffffffffffffffffffffffffffffff1673ffffffffffffffffffffffffffffffffffffffff1673ffffffffffffffffffffffffffffffffffffffff1681526020019081526020016000206040518060c00160405290816000820160009054906101000a900473ffffffffffffffffffffffffffffffffffffffff1673ffffffffffffffffffffffffffffffffffffffff1673ffffffffffffffffffffffffffffffffffffffff16815260200160018201805461199d90614a5b565b80601f01602080910402602001604051908101604052809291908181526020018280546119c990614a5b565b8015611a165780601f106119eb57610100808354040283529160200191611a16565b820191906000526020600020905b8154815290600101906020018083116119f957829003601f168201915b50505050508152602001600282015481526020016003820154815260200160048201548152602001600582018054611a4d90614a5b565b80601f0160208091040260200160405190810160405280929190818152602001828054611a7990614a5b565b8015611ac65780601f10611a9b57610100808354040283529160200191611ac6565b820191906000526020600020905b815481529060010190602001808311611aa957829003601f168201915b505050505081525050828281518110611ae257611ae1614f32565b5b60200260200101819052508080611af890614f90565b9150506118a7565b50809250505090565b611b2483838360405180602001604052806000815250612354565b505050565b611b3281611da9565b73ffffffffffffffffffffffffffffffffffffffff163373ffffffffffffffffffffffffffffffffffffffff1614611b9f576040517f08c379a0000000000000000000000000000000000000000000000000000000008152600401611b96906150df565b60405180910390fd5b60116000828152602001908152602001600020600080820160006101000a81549073ffffffffffffffffffffffffffffffffffffffff0219169055600182016000611bea9190613f1f565b600282016000905560038201600090556004820160009055600582016000611c129190613f1f565b5050611c1d81613532565b50565b60146020528160005260406000208181548110611c3c57600080fd5b9060005260206000209060060201600091509150508060000160009054906101000a900473ffffffffffffffffffffffffffffffffffffffff1690806001018054611c8690614a5b565b80601f0160208091040260200160405190810160405280929190818152602001828054611cb290614a5b565b8015611cff5780601f10611cd457610100808354040283529160200191611cff565b820191906000526020600020905b815481529060010190602001808311611ce257829003601f168201915b505050505090806002015490806003015490806004015490806005018054611d2690614a5b565b80601f0160208091040260200160405190810160405280929190818152602001828054611d5290614a5b565b8015611d9f5780601f10611d7457610100808354040283529160200191611d9f565b820191906000526020600020905b815481529060010190602001808311611d8257829003601f168201915b5050505050905086565b6000806002600084815260200190815260200160002060009054906101000a900473ffffffffffffffffffffffffffffffffffffffff169050600073ffffffffffffffffffffffffffffffffffffffff168173ffffffffffffffffffffffffffffffffffffffff1603611e51576040517f08c379a0000000000000000000000000000000000000000000000000000000008152600401611e489061514b565b60405180910390fd5b80915050919050565b6000803411611e9e576040517f08c379a0000000000000000000000000000000000000000000000000000000008152600401611e95906151b7565b60405180910390fd5b8173ffffffffffffffffffffffffffffffffffffffff163373ffffffffffffffffffffffffffffffffffffffff1603611f0c576040517f08c379a0000000000000000000000000000000000000000000000000000000008152600401611f0390615223565b60405180910390fd5b6000601260008473ffffffffffffffffffffffffffffffffffffffff1673ffffffffffffffffffffffffffffffffffffffff16815260200190815260200160002090508273ffffffffffffffffffffffffffffffffffffffff166108fc349081150290604051600060405180830381858888f19350505050158015611f95573d6000803e3d6000fd5b5034816002016000828254611faa9190615243565b925050819055915050919050565b60008073ffffffffffffffffffffffffffffffffffffffff168273ffffffffffffffffffffffffffffffffffffffff1603612028576040517f08c379a000000000000000000000000000000000000000000000000000000000815260040161201f906152e9565b60405180910390fd5b600360008373ffffffffffffffffffffffffffffffffffffffff1673ffffffffffffffffffffffffffffffffffffffff168152602001908152602001600020549050919050565b600061207a82611da9565b73ffffffffffffffffffffffffffffffffffffffff163373ffffffffffffffffffffffffffffffffffffffff16146120e7576040517f08c379a00000000000000000000000000000000000000000000000000000000081526004016120de9061537b565b60405180910390fd5b6000601260003373ffffffffffffffffffffffffffffffffffffffff1673ffffffffffffffffffffffffffffffffffffffff16815260200190815260200160002090508281600301819055915050919050565b60606001805461214990614a5b565b80601f016020809104026020016040519081016040528092919081815260200182805461217590614a5b565b80156121c25780601f10612197576101008083540402835291602001916121c2565b820191906000526020600020905b8154815290600101906020018083116121a557829003601f168201915b5050505050905090565b60095481565b6121e46121dd613176565b8383613585565b5050565b60126020528060005260406000206000915090508060000160009054906101000a900473ffffffffffffffffffffffffffffffffffffffff169080600101805461223190614a5b565b80601f016020809104026020016040519081016040528092919081815260200182805461225d90614a5b565b80156122aa5780601f1061227f576101008083540402835291602001916122aa565b820191906000526020600020905b81548152906001019060200180831161228d57829003601f168201915b5050505050908060020154908060030154908060040154908060050180546122d190614a5b565b80601f01602080910402602001604051908101604052809291908181526020018280546122fd90614a5b565b801561234a5780601f1061231f5761010080835404028352916020019161234a565b820191906000526020600020905b81548152906001019060200180831161232d57829003601f168201915b5050505050905086565b61236561235f613176565b83613237565b6123a4576040517f08c379a000000000000000000000000000000000000000000000000000000000815260040161239b90615073565b60405180910390fd5b6123b0848484846136f1565b50505050565b60606123c18261312b565b60006006600084815260200190815260200160002080546123e190614a5b565b80601f016020809104026020016040519081016040528092919081815260200182805461240d90614a5b565b801561245a5780601f1061242f5761010080835404028352916020019161245a565b820191906000526020600020905b81548152906001019060200180831161243d57829003601f168201915b50505050509050600061246b61374d565b905060008151036124805781925050506124c3565b6000825111156124b557808260405160200161249d9291906153d7565b604051602081830303815290604052925050506124c3565b6124be84613764565b925050505b919050565b60006124d460076137cc565b600960008154809291906124e790614f90565b919050555060006124f860076137e2565b905061250433826137f0565b600073ffffffffffffffffffffffffffffffffffffffff16601260003373ffffffffffffffffffffffffffffffffffffffff1673ffffffffffffffffffffffffffffffffffffffff16815260200190815260200160002060000160009054906101000a900473ffffffffffffffffffffffffffffffffffffffff1673ffffffffffffffffffffffffffffffffffffffff160361283e576015339080600181540180825580915050600190039060005260206000200160009091909190916101000a81548173ffffffffffffffffffffffffffffffffffffffff021916908373ffffffffffffffffffffffffffffffffffffffff1602179055506040518060c001604052803373ffffffffffffffffffffffffffffffffffffffff168152602001604051806020016040528060008152508152602001600081526020018281526020016000815260200160405180602001604052806000815250815250601260003373ffffffffffffffffffffffffffffffffffffffff1673ffffffffffffffffffffffffffffffffffffffff16815260200190815260200160002060008201518160000160006101000a81548173ffffffffffffffffffffffffffffffffffffffff021916908373ffffffffffffffffffffffffffffffffffffffff16021790555060208201518160010190816126fb91906153fb565b5060408201518160020155606082015181600301556080820151816004015560a082015181600501908161272f91906153fb565b509050506040518060c001604052803373ffffffffffffffffffffffffffffffffffffffff1681526020016040518060200160405280600081525081526020016000815260200182815260200160008152602001604051806020016040528060008152508152506011600083815260200190815260200160002060008201518160000160006101000a81548173ffffffffffffffffffffffffffffffffffffffff021916908373ffffffffffffffffffffffffffffffffffffffff160217905550602082015181600101908161280591906153fb565b5060408201518160020155606082015181600301556080820151816004015560a082015181600501908161283991906153fb565b509050505b61284881846139c9565b6128518161206f565b5080915050919050565b60608273ffffffffffffffffffffffffffffffffffffffff163373ffffffffffffffffffffffffffffffffffffffff16146128cb576040517f08c379a00000000000000000000000000000000000000000000000000000000081526004016128c290614ea6565b60405180910390fd5b6000601260003373ffffffffffffffffffffffffffffffffffffffff1673ffffffffffffffffffffffffffffffffffffffff16815260200190815260200160002090508281600501908161291f91906153fb565b805461292a90614a5b565b80601f016020809104026020016040519081016040528092919081815260200182805461295690614a5b565b80156129a35780601f10612978576101008083540402835291602001916129a3565b820191906000526020600020905b81548152906001019060200180831161298657829003601f168201915b505050505091505092915050565b6000600560008473ffffffffffffffffffffffffffffffffffffffff1673ffffffffffffffffffffffffffffffffffffffff16815260200190815260200160002060008373ffffffffffffffffffffffffffffffffffffffff1673ffffffffffffffffffffffffffffffffffffffff16815260200190815260200160002060009054906101000a900460ff16905092915050565b60606000601260008573ffffffffffffffffffffffffffffffffffffffff1673ffffffffffffffffffffffffffffffffffffffff16815260200190815260200160002090508060000160009054906101000a900473ffffffffffffffffffffffffffffffffffffffff1673ffffffffffffffffffffffffffffffffffffffff163373ffffffffffffffffffffffffffffffffffffffff1614612b1c576040517f08c379a0000000000000000000000000000000000000000000000000000000008152600401612b1390615519565b60405180910390fd5b82816001019081612b2d91906153fb565b8054612b3890614a5b565b80601f0160208091040260200160405190810160405280929190818152602001828054612b6490614a5b565b8015612bb15780601f10612b8657610100808354040283529160200191612bb1565b820191906000526020600020905b815481529060010190602001808311612b9457829003601f168201915b505050505091505092915050565b60008173ffffffffffffffffffffffffffffffffffffffff163373ffffffffffffffffffffffffffffffffffffffff1603612c2f576040517f08c379a0000000000000000000000000000000000000000000000000000000008152600401612c2690614ea6565b60405180910390fd5b60001515601360003373ffffffffffffffffffffffffffffffffffffffff1673ffffffffffffffffffffffffffffffffffffffff16815260200190815260200160002060008473ffffffffffffffffffffffffffffffffffffffff1673ffffffffffffffffffffffffffffffffffffffff16815260200190815260200160002060009054906101000a900460ff16151514612cff576040517f08c379a0000000000000000000000000000000000000000000000000000000008152600401612cf690615585565b60405180910390fd5b6001601360003373ffffffffffffffffffffffffffffffffffffffff1673ffffffffffffffffffffffffffffffffffffffff16815260200190815260200160002060008473ffffffffffffffffffffffffffffffffffffffff1673ffffffffffffffffffffffffffffffffffffffff16815260200190815260200160002060006101000a81548160ff0219169083151502179055506000601260008473ffffffffffffffffffffffffffffffffffffffff1673ffffffffffffffffffffffffffffffffffffffff1681526020019081526020016000209050601460003373ffffffffffffffffffffffffffffffffffffffff1673ffffffffffffffffffffffffffffffffffffffff1681526020019081526020016000208190806001815401808255809150506001900390600052602060002090600602016000909190919091506000820160009054906101000a900473ffffffffffffffffffffffffffffffffffffffff168160000160006101000a81548173ffffffffffffffffffffffffffffffffffffffff021916908373ffffffffffffffffffffffffffffffffffffffff16021790555060018201816001019081612ebb9190614c4e565b5060028201548160020155600382015481600301556004820154816004015560058201816005019081612eee9190614c4e565b505050806004016000815480929190612f0690614f90565b91905055915050919050565b600860009054906101000a900473ffffffffffffffffffffffffffffffffffffffff1681565b60136020528160005260406000206020528060005260406000206000915091509054906101000a900460ff1681565b600a8060000160009054906101000a900473ffffffffffffffffffffffffffffffffffffffff1690806001018054612f9e90614a5b565b80601f0160208091040260200160405190810160405280929190818152602001828054612fca90614a5b565b80156130175780601f10612fec57610100808354040283529160200191613017565b820191906000526020600020905b815481529060010190602001808311612ffa57829003601f168201915b50505050509080600201549080600301549080600401549080600501805461303e90614a5b565b80601f016020809104026020016040519081016040528092919081815260200182805461306a90614a5b565b80156130b75780601f1061308c576101008083540402835291602001916130b7565b820191906000526020600020905b81548152906001019060200180831161309a57829003601f168201915b5050505050905086565b60007f01ffc9a7000000000000000000000000000000000000000000000000000000007bffffffffffffffffffffffffffffffffffffffffffffffffffffffff1916827bffffffffffffffffffffffffffffffffffffffffffffffffffffffff1916149050919050565b61313481613a36565b613173576040517f08c379a000000000000000000000000000000000000000000000000000000000815260040161316a9061514b565b60405180910390fd5b50565b600033905090565b816004600083815260200190815260200160002060006101000a81548173ffffffffffffffffffffffffffffffffffffffff021916908373ffffffffffffffffffffffffffffffffffffffff160217905550808273ffffffffffffffffffffffffffffffffffffffff166131f183611da9565b73ffffffffffffffffffffffffffffffffffffffff167f8c5be1e5ebec7d5bd14f71427d1e84f3dd0314c0f7b2291e5b200ac8c7c3b92560405160405180910390a45050565b60008061324383611da9565b90508073ffffffffffffffffffffffffffffffffffffffff168473ffffffffffffffffffffffffffffffffffffffff161480613285575061328481856129b1565b5b806132c357508373ffffffffffffffffffffffffffffffffffffffff166132ab84610da1565b73ffffffffffffffffffffffffffffffffffffffff16145b91505092915050565b8273ffffffffffffffffffffffffffffffffffffffff166132ec82611da9565b73ffffffffffffffffffffffffffffffffffffffff1614613342576040517f08c379a000000000000000000000000000000000000000000000000000000000815260040161333990615617565b60405180910390fd5b600073ffffffffffffffffffffffffffffffffffffffff168273ffffffffffffffffffffffffffffffffffffffff16036133b1576040517f08c379a00000000000000000000000000000000000000000000000000000000081526004016133a8906156a9565b60405180910390fd5b6133bc838383613aa2565b6133c760008261317e565b6001600360008573ffffffffffffffffffffffffffffffffffffffff1673ffffffffffffffffffffffffffffffffffffffff168152602001908152602001600020600082825461341791906156c9565b925050819055506001600360008473ffffffffffffffffffffffffffffffffffffffff1673ffffffffffffffffffffffffffffffffffffffff168152602001908152602001600020600082825461346e9190615243565b92505081905550816002600083815260200190815260200160002060006101000a81548173ffffffffffffffffffffffffffffffffffffffff021916908373ffffffffffffffffffffffffffffffffffffffff160217905550808273ffffffffffffffffffffffffffffffffffffffff168473ffffffffffffffffffffffffffffffffffffffff167fddf252ad1be2c89b69c2b068fc378daa952ba7f163c4a11628f55a4df523b3ef60405160405180910390a461352d838383613aa7565b505050565b61353b81613aac565b600060066000838152602001908152602001600020805461355b90614a5b565b905014613582576006600082815260200190815260200160002060006135819190613f1f565b5b50565b8173ffffffffffffffffffffffffffffffffffffffff168373ffffffffffffffffffffffffffffffffffffffff16036135f3576040517f08c379a00000000000000000000000000000000000000000000000000000000081526004016135ea90615749565b60405180910390fd5b80600560008573ffffffffffffffffffffffffffffffffffffffff1673ffffffffffffffffffffffffffffffffffffffff16815260200190815260200160002060008473ffffffffffffffffffffffffffffffffffffffff1673ffffffffffffffffffffffffffffffffffffffff16815260200190815260200160002060006101000a81548160ff0219169083151502179055508173ffffffffffffffffffffffffffffffffffffffff168373ffffffffffffffffffffffffffffffffffffffff167f17307eab39ab6107e8899845ad3d59bd9653f200f220920489ca2b5937696c31836040516136e49190614030565b60405180910390a3505050565b6136fc8484846132cc565b61370884848484613bc9565b613747576040517f08c379a000000000000000000000000000000000000000000000000000000000815260040161373e906157db565b60405180910390fd5b50505050565b606060405180602001604052806000815250905090565b606061376f8261312b565b600061377961374d565b9050600081511161379957604051806020016040528060008152506137c4565b806137a384613d50565b6040516020016137b49291906153d7565b6040516020818303038152906040525b915050919050565b6001816000016000828254019250508190555050565b600081600001549050919050565b600073ffffffffffffffffffffffffffffffffffffffff168273ffffffffffffffffffffffffffffffffffffffff160361385f576040517f08c379a000000000000000000000000000000000000000000000000000000000815260040161385690615847565b60405180910390fd5b61386881613a36565b156138a8576040517f08c379a000000000000000000000000000000000000000000000000000000000815260040161389f906158b3565b60405180910390fd5b6138b460008383613aa2565b6001600360008473ffffffffffffffffffffffffffffffffffffffff1673ffffffffffffffffffffffffffffffffffffffff16815260200190815260200160002060008282546139049190615243565b92505081905550816002600083815260200190815260200160002060006101000a81548173ffffffffffffffffffffffffffffffffffffffff021916908373ffffffffffffffffffffffffffffffffffffffff160217905550808273ffffffffffffffffffffffffffffffffffffffff16600073ffffffffffffffffffffffffffffffffffffffff167fddf252ad1be2c89b69c2b068fc378daa952ba7f163c4a11628f55a4df523b3ef60405160405180910390a46139c560008383613aa7565b5050565b6139d282613a36565b613a11576040517f08c379a0000000000000000000000000000000000000000000000000000000008152600401613a0890615945565b60405180910390fd5b80600660008481526020019081526020016000209081613a3191906153fb565b505050565b60008073ffffffffffffffffffffffffffffffffffffffff166002600084815260200190815260200160002060009054906101000a900473ffffffffffffffffffffffffffffffffffffffff1673ffffffffffffffffffffffffffffffffffffffff1614159050919050565b505050565b505050565b6000613ab782611da9565b9050613ac581600084613aa2565b613ad060008361317e565b6001600360008373ffffffffffffffffffffffffffffffffffffffff1673ffffffffffffffffffffffffffffffffffffffff1681526020019081526020016000206000828254613b2091906156c9565b925050819055506002600083815260200190815260200160002060006101000a81549073ffffffffffffffffffffffffffffffffffffffff021916905581600073ffffffffffffffffffffffffffffffffffffffff168273ffffffffffffffffffffffffffffffffffffffff167fddf252ad1be2c89b69c2b068fc378daa952ba7f163c4a11628f55a4df523b3ef60405160405180910390a4613bc581600084613aa7565b5050565b6000613bea8473ffffffffffffffffffffffffffffffffffffffff16613eb0565b15613d43578373ffffffffffffffffffffffffffffffffffffffff1663150b7a02613c13613176565b8786866040518563ffffffff1660e01b8152600401613c3594939291906159ba565b6020604051808303816000875af1925050508015613c7157506040513d601f19601f82011682018060405250810190613c6e9190615a1b565b60015b613cf3573d8060008114613ca1576040519150601f19603f3d011682016040523d82523d6000602084013e613ca6565b606091505b506000815103613ceb576040517f08c379a0000000000000000000000000000000000000000000000000000000008152600401613ce2906157db565b60405180910390fd5b805181602001fd5b63150b7a0260e01b7bffffffffffffffffffffffffffffffffffffffffffffffffffffffff1916817bffffffffffffffffffffffffffffffffffffffffffffffffffffffff191614915050613d48565b600190505b949350505050565b606060008203613d97576040518060400160405280600181526020017f30000000000000000000000000000000000000000000000000000000000000008152509050613eab565b600082905060005b60008214613dc9578080613db290614f90565b915050600a82613dc29190615a77565b9150613d9f565b60008167ffffffffffffffff811115613de557613de4614666565b5b6040519080825280601f01601f191660200182016040528015613e175781602001600182028036833780820191505090505b5090505b60008514613ea457600182613e3091906156c9565b9150600a85613e3f9190615aa8565b6030613e4b9190615243565b60f81b818381518110613e6157613e60614f32565b5b60200101907effffffffffffffffffffffffffffffffffffffffffffffffffffffffffffff1916908160001a905350600a85613e9d9190615a77565b9450613e1b565b8093505050505b919050565b6000808273ffffffffffffffffffffffffffffffffffffffff163b119050919050565b6040518060c00160405280600073ffffffffffffffffffffffffffffffffffffffff16815260200160608152602001600081526020016000815260200160008152602001606081525090565b508054613f2b90614a5b565b6000825580601f10613f3d5750613f5c565b601f016020900490600052602060002090810190613f5b9190613f5f565b5b50565b5b80821115613f78576000816000905550600101613f60565b5090565b6000604051905090565b600080fd5b600080fd5b60007fffffffff0000000000000000000000000000000000000000000000000000000082169050919050565b613fc581613f90565b8114613fd057600080fd5b50565b600081359050613fe281613fbc565b92915050565b600060208284031215613ffe57613ffd613f86565b5b600061400c84828501613fd3565b91505092915050565b60008115159050919050565b61402a81614015565b82525050565b60006020820190506140456000830184614021565b92915050565b600073ffffffffffffffffffffffffffffffffffffffff82169050919050565b60006140768261404b565b9050919050565b6140868161406b565b811461409157600080fd5b50565b6000813590506140a38161407d565b92915050565b6000602082840312156140bf576140be613f86565b5b60006140cd84828501614094565b91505092915050565b60006140e18261404b565b9050919050565b6140f1816140d6565b82525050565b600081519050919050565b600082825260208201905092915050565b60005b83811015614131578082015181840152602081019050614116565b60008484015250505050565b6000601f19601f8301169050919050565b6000614159826140f7565b6141638185614102565b9350614173818560208601614113565b61417c8161413d565b840191505092915050565b6000819050919050565b61419a81614187565b82525050565b600060c0830160008301516141b860008601826140e8565b50602083015184820360208601526141d0828261414e565b91505060408301516141e56040860182614191565b5060608301516141f86060860182614191565b50608083015161420b6080860182614191565b5060a083015184820360a0860152614223828261414e565b9150508091505092915050565b6000602082019050818103600083015261424a81846141a0565b905092915050565b600082825260208201905092915050565b600061426e826140f7565b6142788185614252565b9350614288818560208601614113565b6142918161413d565b840191505092915050565b600060208201905081810360008301526142b68184614263565b905092915050565b6142c781614187565b81146142d257600080fd5b50565b6000813590506142e4816142be565b92915050565b600060208284031215614300576142ff613f86565b5b600061430e848285016142d5565b91505092915050565b6143208161406b565b82525050565b600060208201905061433b6000830184614317565b92915050565b6000806040838503121561435857614357613f86565b5b600061436685828601614094565b9250506020614377858286016142d5565b9150509250929050565b61438a816140d6565b82525050565b61439981614187565b82525050565b600060c0820190506143b46000830189614381565b81810360208301526143c68188614263565b90506143d56040830187614390565b6143e26060830186614390565b6143ef6080830185614390565b81810360a08301526144018184614263565b9050979650505050505050565b60006020820190506144236000830184614390565b92915050565b600081519050919050565b600082825260208201905092915050565b6000819050602082019050919050565b600060c08301600083015161446d60008601826140e8565b5060208301518482036020860152614485828261414e565b915050604083015161449a6040860182614191565b5060608301516144ad6060860182614191565b5060808301516144c06080860182614191565b5060a083015184820360a08601526144d8828261414e565b9150508091505092915050565b60006144f18383614455565b905092915050565b6000602082019050919050565b600061451182614429565b61451b8185614434565b93508360208202850161452d85614445565b8060005b85811015614569578484038952815161454a85826144e5565b9450614555836144f9565b925060208a01995050600181019050614531565b50829750879550505050505092915050565b600060208201905081810360008301526145958184614506565b905092915050565b6000806000606084860312156145b6576145b5613f86565b5b60006145c486828701614094565b93505060206145d586828701614094565b92505060406145e6868287016142d5565b9150509250925092565b6145f981614015565b811461460457600080fd5b50565b600081359050614616816145f0565b92915050565b6000806040838503121561463357614632613f86565b5b600061464185828601614094565b925050602061465285828601614607565b9150509250929050565b600080fd5b600080fd5b7f4e487b7100000000000000000000000000000000000000000000000000000000600052604160045260246000fd5b61469e8261413d565b810181811067ffffffffffffffff821117156146bd576146bc614666565b5b80604052505050565b60006146d0613f7c565b90506146dc8282614695565b919050565b600067ffffffffffffffff8211156146fc576146fb614666565b5b6147058261413d565b9050602081019050919050565b82818337600083830152505050565b600061473461472f846146e1565b6146c6565b9050828152602081018484840111156147505761474f614661565b5b61475b848285614712565b509392505050565b600082601f8301126147785761477761465c565b5b8135614788848260208601614721565b91505092915050565b600080600080608085870312156147ab576147aa613f86565b5b60006147b987828801614094565b94505060206147ca87828801614094565b93505060406147db878288016142d5565b925050606085013567ffffffffffffffff8111156147fc576147fb613f8b565b5b61480887828801614763565b91505092959194509250565b600067ffffffffffffffff82111561482f5761482e614666565b5b6148388261413d565b9050602081019050919050565b600061485861485384614814565b6146c6565b90508281526020810184848401111561487457614873614661565b5b61487f848285614712565b509392505050565b600082601f83011261489c5761489b61465c565b5b81356148ac848260208601614845565b91505092915050565b6000602082840312156148cb576148ca613f86565b5b600082013567ffffffffffffffff8111156148e9576148e8613f8b565b5b6148f584828501614887565b91505092915050565b6000806040838503121561491557614914613f86565b5b600061492385828601614094565b925050602083013567ffffffffffffffff81111561494457614943613f8b565b5b61495085828601614887565b9150509250929050565b6000806040838503121561497157614970613f86565b5b600061497f85828601614094565b925050602061499085828601614094565b9150509250929050565b7f6f6e6c7920636f6e74726163742061646d696e2063616e20736574206665617460008201527f757265642063726561746f720000000000000000000000000000000000000000602082015250565b60006149f6602c83614252565b9150614a018261499a565b604082019050919050565b60006020820190508181036000830152614a25816149e9565b9050919050565b7f4e487b7100000000000000000000000000000000000000000000000000000000600052602260045260246000fd5b60006002820490506001821680614a7357607f821691505b602082108103614a8657614a85614a2c565b5b50919050565b600081549050614a9b81614a5b565b9050919050565b60008190508160005260206000209050919050565b60006020601f8301049050919050565b600082821b905092915050565b600060088302614b047fffffffffffffffffffffffffffffffffffffffffffffffffffffffffffffffff82614ac7565b614b0e8683614ac7565b95508019841693508086168417925050509392505050565b6000819050919050565b6000614b4b614b46614b4184614187565b614b26565b614187565b9050919050565b6000819050919050565b614b6583614b30565b614b79614b7182614b52565b848454614ad4565b825550505050565b600090565b614b8e614b81565b614b99818484614b5c565b505050565b5b81811015614bbd57614bb2600082614b86565b600181019050614b9f565b5050565b601f821115614c0257614bd381614aa2565b614bdc84614ab7565b81016020851015614beb578190505b614bff614bf785614ab7565b830182614b9e565b50505b505050565b600082821c905092915050565b6000614c2560001984600802614c07565b1980831691505092915050565b6000614c3e8383614c14565b9150826002028217905092915050565b818103614c5c575050614d34565b614c6582614a8c565b67ffffffffffffffff811115614c7e57614c7d614666565b5b614c888254614a5b565b614c93828285614bc1565b6000601f831160018114614cc25760008415614cb0578287015490505b614cba8582614c32565b865550614d2d565b601f198416614cd087614aa2565b9650614cdb86614aa2565b60005b82811015614d0357848901548255600182019150600185019450602081019050614cde565b86831015614d205784890154614d1c601f891682614c14565b8355505b6001600288020188555050505b5050505050505b565b7f4552433732313a20617070726f76616c20746f2063757272656e74206f776e6560008201527f7200000000000000000000000000000000000000000000000000000000000000602082015250565b6000614d92602183614252565b9150614d9d82614d36565b604082019050919050565b60006020820190508181036000830152614dc181614d85565b9050919050565b7f4552433732313a20617070726f76652063616c6c6572206973206e6f7420746f60008201527f6b656e206f776e6572206e6f7220617070726f76656420666f7220616c6c0000602082015250565b6000614e24603e83614252565b9150614e2f82614dc8565b604082019050919050565b60006020820190508181036000830152614e5381614e17565b9050919050565b7f63616e6e6f74206c696b6520796f7572206f776e2070726f66696c6500000000600082015250565b6000614e90601c83614252565b9150614e9b82614e5a565b602082019050919050565b60006020820190508181036000830152614ebf81614e83565b9050919050565b7f6861766520746f206c696b652061727469737420746f20756e6c696b65000000600082015250565b6000614efc601d83614252565b9150614f0782614ec6565b602082019050919050565b60006020820190508181036000830152614f2b81614eef565b9050919050565b7f4e487b7100000000000000000000000000000000000000000000000000000000600052603260045260246000fd5b7f4e487b7100000000000000000000000000000000000000000000000000000000600052601160045260246000fd5b6000614f9b82614187565b91507fffffffffffffffffffffffffffffffffffffffffffffffffffffffffffffffff8203614fcd57614fcc614f61565b5b600182019050919050565b6000614fe382614187565b915060008203614ff657614ff5614f61565b5b600182039050919050565b7f4552433732313a2063616c6c6572206973206e6f7420746f6b656e206f776e6560008201527f72206e6f7220617070726f766564000000000000000000000000000000000000602082015250565b600061505d602e83614252565b915061506882615001565b604082019050919050565b6000602082019050818103600083015261508c81615050565b9050919050565b7f6d757374206265206f776e657220746f206275726e0000000000000000000000600082015250565b60006150c9601583614252565b91506150d482615093565b602082019050919050565b600060208201905081810360008301526150f8816150bc565b9050919050565b7f4552433732313a20696e76616c696420746f6b656e2049440000000000000000600082015250565b6000615135601883614252565b9150615140826150ff565b602082019050919050565b6000602082019050818103600083015261516481615128565b9050919050565b7f63616e6e6f742074697020300000000000000000000000000000000000000000600082015250565b60006151a1600c83614252565b91506151ac8261516b565b602082019050919050565b600060208201905081810360008301526151d081615194565b9050919050565b7f63616e6e6f742074697020796f757273656c6600000000000000000000000000600082015250565b600061520d601383614252565b9150615218826151d7565b602082019050919050565b6000602082019050818103600083015261523c81615200565b9050919050565b600061524e82614187565b915061525983614187565b925082820190508082111561527157615270614f61565b5b92915050565b7f4552433732313a2061646472657373207a65726f206973206e6f74206120766160008201527f6c6964206f776e65720000000000000000000000000000000000000000000000602082015250565b60006152d3602983614252565b91506152de82615277565b604082019050919050565b60006020820190508181036000830152615302816152c6565b9050919050565b7f6f776e65722063616e206f6e6c79207365742070726f66696c6520746865792060008201527f6f776e0000000000000000000000000000000000000000000000000000000000602082015250565b6000615365602383614252565b915061537082615309565b604082019050919050565b6000602082019050818103600083015261539481615358565b9050919050565b600081905092915050565b60006153b1826140f7565b6153bb818561539b565b93506153cb818560208601614113565b80840191505092915050565b60006153e382856153a6565b91506153ef82846153a6565b91508190509392505050565b615404826140f7565b67ffffffffffffffff81111561541d5761541c614666565b5b6154278254614a5b565b615432828285614bc1565b600060209050601f8311600181146154655760008415615453578287015190505b61545d8582614c32565b8655506154c5565b601f19841661547386614aa2565b60005b8281101561549b57848901518255600182019150602085019450602081019050615476565b868310156154b857848901516154b4601f891682614c14565b8355505b6001600288020188555050505b505050505050565b7f63616e6e6f742073657420736f6d656f6e6520656c736573206d657373616765600082015250565b6000615503602083614252565b915061550e826154cd565b602082019050919050565b60006020820190508181036000830152615532816154f6565b9050919050565b7f616c7265616479206c696b656420617274697374000000000000000000000000600082015250565b600061556f601483614252565b915061557a82615539565b602082019050919050565b6000602082019050818103600083015261559e81615562565b9050919050565b7f4552433732313a207472616e736665722066726f6d20696e636f72726563742060008201527f6f776e6572000000000000000000000000000000000000000000000000000000602082015250565b6000615601602583614252565b915061560c826155a5565b604082019050919050565b60006020820190508181036000830152615630816155f4565b9050919050565b7f4552433732313a207472616e7366657220746f20746865207a65726f2061646460008201527f7265737300000000000000000000000000000000000000000000000000000000602082015250565b6000615693602483614252565b915061569e82615637565b604082019050919050565b600060208201905081810360008301526156c281615686565b9050919050565b60006156d482614187565b91506156df83614187565b92508282039050818111156156f7576156f6614f61565b5b92915050565b7f4552433732313a20617070726f766520746f2063616c6c657200000000000000600082015250565b6000615733601983614252565b915061573e826156fd565b602082019050919050565b6000602082019050818103600083015261576281615726565b9050919050565b7f4552433732313a207472616e7366657220746f206e6f6e20455243373231526560008201527f63656976657220696d706c656d656e7465720000000000000000000000000000602082015250565b60006157c5603283614252565b91506157d082615769565b604082019050919050565b600060208201905081810360008301526157f4816157b8565b9050919050565b7f4552433732313a206d696e7420746f20746865207a65726f2061646472657373600082015250565b6000615831602083614252565b915061583c826157fb565b602082019050919050565b6000602082019050818103600083015261586081615824565b9050919050565b7f4552433732313a20746f6b656e20616c7265616479206d696e74656400000000600082015250565b600061589d601c83614252565b91506158a882615867565b602082019050919050565b600060208201905081810360008301526158cc81615890565b9050919050565b7f45524337323155524953746f726167653a2055524920736574206f66206e6f6e60008201527f6578697374656e7420746f6b656e000000000000000000000000000000000000602082015250565b600061592f602e83614252565b915061593a826158d3565b604082019050919050565b6000602082019050818103600083015261595e81615922565b9050919050565b600081519050919050565b600082825260208201905092915050565b600061598c82615965565b6159968185615970565b93506159a6818560208601614113565b6159af8161413d565b840191505092915050565b60006080820190506159cf6000830187614317565b6159dc6020830186614317565b6159e96040830185614390565b81810360608301526159fb8184615981565b905095945050505050565b600081519050615a1581613fbc565b92915050565b600060208284031215615a3157615a30613f86565b5b6000615a3f84828501615a06565b91505092915050565b7f4e487b7100000000000000000000000000000000000000000000000000000000600052601260045260246000fd5b6000615a8282614187565b9150615a8d83614187565b925082615a9d57615a9c615a48565b5b828204905092915050565b6000615ab382614187565b9150615abe83614187565b925082615ace57615acd615a48565b5b82820690509291505056fea264697066735822122092844053154f4b20d0517c07d3b155d803454beb1898e8baf3e016ccae93343464736f6c63430008110033",
  "linkReferences": {},
  "deployedLinkReferences": {}
}