{
  "_format": "hh-sol-artifact-1",
  "contractName": "ProfileNFT",
  "sourceName": "contracts/ProfileNFT.sol",
  "abi": [
    {
      "inputs": [],
      "stateMutability": "nonpayable",
      "type": "constructor"
    },
    {
      "anonymous": false,
      "inputs": [
        {
          "indexed": true,
          "internalType": "address",
          "name": "owner",
          "type": "address"
        },
        {
          "indexed": true,
          "internalType": "address",
          "name": "approved",
          "type": "address"
        },
        {
          "indexed": true,
          "internalType": "uint256",
          "name": "tokenId",
          "type": "uint256"
        }
      ],
      "name": "Approval",
      "type": "event"
    },
    {
      "anonymous": false,
      "inputs": [
        {
          "indexed": true,
          "internalType": "address",
          "name": "owner",
          "type": "address"
        },
        {
          "indexed": true,
          "internalType": "address",
          "name": "operator",
          "type": "address"
        },
        {
          "indexed": false,
          "internalType": "bool",
          "name": "approved",
          "type": "bool"
        }
      ],
      "name": "ApprovalForAll",
      "type": "event"
    },
    {
      "anonymous": false,
      "inputs": [
        {
          "indexed": true,
          "internalType": "address",
          "name": "from",
          "type": "address"
        },
        {
          "indexed": true,
          "internalType": "address",
          "name": "to",
          "type": "address"
        },
        {
          "indexed": true,
          "internalType": "uint256",
          "name": "tokenId",
          "type": "uint256"
        }
      ],
      "name": "Transfer",
      "type": "event"
    },
    {
      "inputs": [
        {
          "internalType": "address",
          "name": "to",
          "type": "address"
        },
        {
          "internalType": "uint256",
          "name": "tokenId",
          "type": "uint256"
        }
      ],
      "name": "approve",
      "outputs": [],
      "stateMutability": "nonpayable",
      "type": "function"
    },
    {
      "inputs": [
        {
          "internalType": "address",
          "name": "owner",
          "type": "address"
        }
      ],
      "name": "balanceOf",
      "outputs": [
        {
          "internalType": "uint256",
          "name": "",
          "type": "uint256"
        }
      ],
      "stateMutability": "view",
      "type": "function"
    },
    {
      "inputs": [
        {
          "internalType": "uint256",
          "name": "_tokenId",
          "type": "uint256"
        }
      ],
      "name": "burn",
      "outputs": [],
      "stateMutability": "nonpayable",
      "type": "function"
    },
    {
      "inputs": [
        {
          "internalType": "address",
          "name": "",
          "type": "address"
        }
      ],
      "name": "creatorsProfile",
      "outputs": [
        {
          "internalType": "address payable",
          "name": "creatorAddress",
          "type": "address"
        },
        {
          "internalType": "string",
          "name": "profileMessage",
          "type": "string"
        },
        {
          "internalType": "uint256",
          "name": "tipsReceived",
          "type": "uint256"
        },
        {
          "internalType": "uint256",
          "name": "profileToken",
          "type": "uint256"
        },
        {
          "internalType": "uint256",
          "name": "numOfLikes",
          "type": "uint256"
        },
        {
          "internalType": "string",
          "name": "username",
          "type": "string"
        }
      ],
      "stateMutability": "view",
      "type": "function"
    },
    {
      "inputs": [
        {
          "internalType": "uint256",
          "name": "tokenId",
          "type": "uint256"
        }
      ],
      "name": "getApproved",
      "outputs": [
        {
          "internalType": "address",
          "name": "",
          "type": "address"
        }
      ],
      "stateMutability": "view",
      "type": "function"
    },
    {
      "inputs": [
        {
          "internalType": "address",
          "name": "",
          "type": "address"
        },
        {
          "internalType": "address",
          "name": "",
          "type": "address"
        }
      ],
      "name": "hasLikeProfile",
      "outputs": [
        {
          "internalType": "bool",
          "name": "",
          "type": "bool"
        }
      ],
      "stateMutability": "view",
      "type": "function"
    },
    {
      "inputs": [
        {
          "internalType": "address",
          "name": "owner",
          "type": "address"
        },
        {
          "internalType": "address",
          "name": "operator",
          "type": "address"
        }
      ],
      "name": "isApprovedForAll",
      "outputs": [
        {
          "internalType": "bool",
          "name": "",
          "type": "bool"
        }
      ],
      "stateMutability": "view",
      "type": "function"
    },
    {
      "inputs": [
        {
          "internalType": "string",
          "name": "_tokenUri",
          "type": "string"
        }
      ],
      "name": "mint",
      "outputs": [
        {
          "internalType": "uint256",
          "name": "",
          "type": "uint256"
        }
      ],
      "stateMutability": "nonpayable",
      "type": "function"
    },
    {
      "inputs": [],
      "name": "name",
      "outputs": [
        {
          "internalType": "string",
          "name": "",
          "type": "string"
        }
      ],
      "stateMutability": "view",
      "type": "function"
    },
    {
      "inputs": [
        {
          "internalType": "address",
          "name": "",
          "type": "address"
        }
      ],
      "name": "nftProfileOwners",
      "outputs": [
        {
          "internalType": "uint256",
          "name": "",
          "type": "uint256"
        }
      ],
      "stateMutability": "view",
      "type": "function"
    },
    {
      "inputs": [
        {
          "internalType": "uint256",
          "name": "",
          "type": "uint256"
        }
      ],
      "name": "numberToCreator",
      "outputs": [
        {
          "internalType": "address payable",
          "name": "creatorAddress",
          "type": "address"
        },
        {
          "internalType": "string",
          "name": "profileMessage",
          "type": "string"
        },
        {
          "internalType": "uint256",
          "name": "tipsReceived",
          "type": "uint256"
        },
        {
          "internalType": "uint256",
          "name": "profileToken",
          "type": "uint256"
        },
        {
          "internalType": "uint256",
          "name": "numOfLikes",
          "type": "uint256"
        },
        {
          "internalType": "string",
          "name": "username",
          "type": "string"
        }
      ],
      "stateMutability": "view",
      "type": "function"
    },
    {
      "inputs": [
        {
          "internalType": "uint256",
          "name": "tokenId",
          "type": "uint256"
        }
      ],
      "name": "ownerOf",
      "outputs": [
        {
          "internalType": "address",
          "name": "",
          "type": "address"
        }
      ],
      "stateMutability": "view",
      "type": "function"
    },
    {
      "inputs": [],
      "name": "returnAllProfiles",
      "outputs": [
        {
          "components": [
            {
              "internalType": "address payable",
              "name": "creatorAddress",
              "type": "address"
            },
            {
              "internalType": "string",
              "name": "profileMessage",
              "type": "string"
            },
            {
              "internalType": "uint256",
              "name": "tipsReceived",
              "type": "uint256"
            },
            {
              "internalType": "uint256",
              "name": "profileToken",
              "type": "uint256"
            },
            {
              "internalType": "uint256",
              "name": "numOfLikes",
              "type": "uint256"
            },
            {
              "internalType": "string",
              "name": "username",
              "type": "string"
            }
          ],
          "internalType": "struct ProfileNFT.Creator[]",
          "name": "",
          "type": "tuple[]"
        }
      ],
      "stateMutability": "view",
      "type": "function"
    },
    {
      "inputs": [
        {
          "internalType": "address",
          "name": "from",
          "type": "address"
        },
        {
          "internalType": "address",
          "name": "to",
          "type": "address"
        },
        {
          "internalType": "uint256",
          "name": "tokenId",
          "type": "uint256"
        }
      ],
      "name": "safeTransferFrom",
      "outputs": [],
      "stateMutability": "nonpayable",
      "type": "function"
    },
    {
      "inputs": [
        {
          "internalType": "address",
          "name": "from",
          "type": "address"
        },
        {
          "internalType": "address",
          "name": "to",
          "type": "address"
        },
        {
          "internalType": "uint256",
          "name": "tokenId",
          "type": "uint256"
        },
        {
          "internalType": "bytes",
          "name": "data",
          "type": "bytes"
        }
      ],
      "name": "safeTransferFrom",
      "outputs": [],
      "stateMutability": "nonpayable",
      "type": "function"
    },
    {
      "inputs": [
        {
          "internalType": "address",
          "name": "creatorAddress",
          "type": "address"
        }
      ],
      "name": "sendLike",
      "outputs": [
        {
          "internalType": "uint256",
          "name": "",
          "type": "uint256"
        }
      ],
      "stateMutability": "nonpayable",
      "type": "function"
    },
    {
      "inputs": [
        {
          "internalType": "address",
          "name": "operator",
          "type": "address"
        },
        {
          "internalType": "bool",
          "name": "approved",
          "type": "bool"
        }
      ],
      "name": "setApprovalForAll",
      "outputs": [],
      "stateMutability": "nonpayable",
      "type": "function"
    },
    {
      "inputs": [
        {
          "internalType": "address",
          "name": "creatorsPro",
          "type": "address"
        },
        {
          "internalType": "string",
          "name": "message",
          "type": "string"
        }
      ],
      "name": "setMessage",
      "outputs": [
        {
          "internalType": "string",
          "name": "",
          "type": "string"
        }
      ],
      "stateMutability": "nonpayable",
      "type": "function"
    },
    {
      "inputs": [
        {
          "internalType": "uint256",
          "name": "tokenId",
          "type": "uint256"
        }
      ],
      "name": "setProfile",
      "outputs": [
        {
          "internalType": "uint256",
          "name": "",
          "type": "uint256"
        }
      ],
      "stateMutability": "nonpayable",
      "type": "function"
    },
    {
      "inputs": [
        {
          "internalType": "address",
          "name": "creatorAddress",
          "type": "address"
        },
        {
          "internalType": "string",
          "name": "_username",
          "type": "string"
        }
      ],
      "name": "setUsername",
      "outputs": [
        {
          "internalType": "string",
          "name": "",
          "type": "string"
        }
      ],
      "stateMutability": "nonpayable",
      "type": "function"
    },
    {
      "inputs": [
        {
          "internalType": "bytes4",
          "name": "interfaceId",
          "type": "bytes4"
        }
      ],
      "name": "supportsInterface",
      "outputs": [
        {
          "internalType": "bool",
          "name": "",
          "type": "bool"
        }
      ],
      "stateMutability": "view",
      "type": "function"
    },
    {
      "inputs": [],
      "name": "symbol",
      "outputs": [
        {
          "internalType": "string",
          "name": "",
          "type": "string"
        }
      ],
      "stateMutability": "view",
      "type": "function"
    },
    {
      "inputs": [
        {
          "internalType": "address",
          "name": "creatorAddress",
          "type": "address"
        }
      ],
      "name": "tipCreator",
      "outputs": [
        {
          "internalType": "uint256",
          "name": "",
          "type": "uint256"
        }
      ],
      "stateMutability": "payable",
      "type": "function"
    },
    {
      "inputs": [],
      "name": "tokenCount",
      "outputs": [
        {
          "internalType": "uint256",
          "name": "",
          "type": "uint256"
        }
      ],
      "stateMutability": "view",
      "type": "function"
    },
    {
      "inputs": [
        {
          "internalType": "uint256",
          "name": "tokenId",
          "type": "uint256"
        }
      ],
      "name": "tokenURI",
      "outputs": [
        {
          "internalType": "string",
          "name": "",
          "type": "string"
        }
      ],
      "stateMutability": "view",
      "type": "function"
    },
    {
      "inputs": [
        {
          "internalType": "address",
          "name": "from",
          "type": "address"
        },
        {
          "internalType": "address",
          "name": "to",
          "type": "address"
        },
        {
          "internalType": "uint256",
          "name": "tokenId",
          "type": "uint256"
        }
      ],
      "name": "transferFrom",
      "outputs": [],
      "stateMutability": "nonpayable",
      "type": "function"
    },
    {
      "inputs": [
        {
          "internalType": "uint256",
          "name": "",
          "type": "uint256"
        }
      ],
      "name": "users",
      "outputs": [
        {
          "internalType": "address",
          "name": "",
          "type": "address"
        }
      ],
      "stateMutability": "view",
      "type": "function"
    }
  ],
  "bytecode": "0x60806040523480156200001157600080fd5b506040518060400160405280601181526020017f4465666942656174732050726f66696c650000000000000000000000000000008152506040518060400160405280600481526020017f444642500000000000000000000000000000000000000000000000000000000081525081600090816200008f919062000324565b508060019081620000a1919062000324565b5050506200040b565b600081519050919050565b7f4e487b7100000000000000000000000000000000000000000000000000000000600052604160045260246000fd5b7f4e487b7100000000000000000000000000000000000000000000000000000000600052602260045260246000fd5b600060028204905060018216806200012c57607f821691505b602082108103620001425762000141620000e4565b5b50919050565b60008190508160005260206000209050919050565b60006020601f8301049050919050565b600082821b905092915050565b600060088302620001ac7fffffffffffffffffffffffffffffffffffffffffffffffffffffffffffffffff826200016d565b620001b886836200016d565b95508019841693508086168417925050509392505050565b6000819050919050565b6000819050919050565b600062000205620001ff620001f984620001d0565b620001da565b620001d0565b9050919050565b6000819050919050565b6200022183620001e4565b6200023962000230826200020c565b8484546200017a565b825550505050565b600090565b6200025062000241565b6200025d81848462000216565b505050565b5b8181101562000285576200027960008262000246565b60018101905062000263565b5050565b601f821115620002d4576200029e8162000148565b620002a9846200015d565b81016020851015620002b9578190505b620002d1620002c8856200015d565b83018262000262565b50505b505050565b600082821c905092915050565b6000620002f960001984600802620002d9565b1980831691505092915050565b6000620003148383620002e6565b9150826002028217905092915050565b6200032f82620000aa565b67ffffffffffffffff8111156200034b576200034a620000b5565b5b62000357825462000113565b6200036482828562000289565b600060209050601f8311600181146200039c576000841562000387578287015190505b62000393858262000306565b86555062000403565b601f198416620003ac8662000148565b60005b82811015620003d657848901518255600182019150602085019450602081019050620003af565b86831015620003f65784890151620003f2601f891682620002e6565b8355505b6001600288020188555050505b505050505050565b61477f806200041b6000396000f3fe60806040526004361061019c5760003560e01c806370a08231116100ec578063c87b56dd1161008a578063e985e9c511610064578063e985e9c514610659578063e9aa460f14610696578063ebb14c7f146106d3578063f8b60fe3146107105761019c565b8063c87b56dd146105a2578063d85d3d27146105df578063e20454521461061c5761019c565b80639f181b5e116100c65780639f181b5e146104e3578063a22cb4651461050e578063b5db047214610537578063b88d4fde146105795761019c565b806370a082311461043e57806385d3cb371461047b57806395d89b41146104b85761019c565b806323b872dd1161015957806342842e0e1161013357806342842e0e1461037f57806342966c68146103a85780636352211e146103d157806365c4e4aa1461040e5761019c565b806323b872dd146102ee578063365b98b21461031757806340cfadf8146103545761019c565b806301ffc9a7146101a157806306fdde03146101de578063081812fc14610209578063095ea7b3146102465780630aef61a11461026f5780630c5d6ed0146102b1575b600080fd5b3480156101ad57600080fd5b506101c860048036038101906101c39190612f2f565b61074d565b6040516101d59190612f77565b60405180910390f35b3480156101ea57600080fd5b506101f361082f565b6040516102009190613022565b60405180910390f35b34801561021557600080fd5b50610230600480360381019061022b919061307a565b6108c1565b60405161023d91906130e8565b60405180910390f35b34801561025257600080fd5b5061026d6004803603810190610268919061312f565b610907565b005b34801561027b57600080fd5b506102966004803603810190610291919061307a565b610a1e565b6040516102a89695949392919061319f565b60405180910390f35b3480156102bd57600080fd5b506102d860048036038101906102d3919061320e565b610b8a565b6040516102e5919061323b565b60405180910390f35b3480156102fa57600080fd5b5061031560048036038101906103109190613256565b610ba2565b005b34801561032357600080fd5b5061033e6004803603810190610339919061307a565b610c02565b60405161034b91906130e8565b60405180910390f35b34801561036057600080fd5b50610369610c41565b6040516103769190613463565b60405180910390f35b34801561038b57600080fd5b506103a660048036038101906103a19190613256565b610f0a565b005b3480156103b457600080fd5b506103cf60048036038101906103ca919061307a565b610f2a565b005b3480156103dd57600080fd5b506103f860048036038101906103f3919061307a565b611021565b60405161040591906130e8565b60405180910390f35b6104286004803603810190610423919061320e565b6110d2565b604051610435919061323b565b60405180910390f35b34801561044a57600080fd5b506104656004803603810190610460919061320e565b611230565b604051610472919061323b565b60405180910390f35b34801561048757600080fd5b506104a2600480360381019061049d919061307a565b6112e7565b6040516104af919061323b565b60405180910390f35b3480156104c457600080fd5b506104cd6113b2565b6040516104da9190613022565b60405180910390f35b3480156104ef57600080fd5b506104f8611444565b604051610505919061323b565b60405180910390f35b34801561051a57600080fd5b50610535600480360381019061053091906134b1565b61144a565b005b34801561054357600080fd5b5061055e6004803603810190610559919061320e565b611460565b6040516105709695949392919061319f565b60405180910390f35b34801561058557600080fd5b506105a0600480360381019061059b9190613626565b6115cc565b005b3480156105ae57600080fd5b506105c960048036038101906105c4919061307a565b61162e565b6040516105d69190613022565b60405180910390f35b3480156105eb57600080fd5b506106066004803603810190610601919061374a565b611740565b604051610613919061323b565b60405180910390f35b34801561062857600080fd5b50610643600480360381019061063e9190613793565b611a3c565b6040516106509190613022565b60405180910390f35b34801561066557600080fd5b50610680600480360381019061067b91906137ef565b611b92565b60405161068d9190612f77565b60405180910390f35b3480156106a257600080fd5b506106bd60048036038101906106b89190613793565b611c26565b6040516106ca9190613022565b60405180910390f35b3480156106df57600080fd5b506106fa60048036038101906106f5919061320e565b611da0565b604051610707919061323b565b60405180910390f35b34801561071c57600080fd5b50610737600480360381019061073291906137ef565b611fd9565b6040516107449190612f77565b60405180910390f35b60007f80ac58cd000000000000000000000000000000000000000000000000000000007bffffffffffffffffffffffffffffffffffffffffffffffffffffffff1916827bffffffffffffffffffffffffffffffffffffffffffffffffffffffff1916148061081857507f5b5e139f000000000000000000000000000000000000000000000000000000007bffffffffffffffffffffffffffffffffffffffffffffffffffffffff1916827bffffffffffffffffffffffffffffffffffffffffffffffffffffffff1916145b80610828575061082782612008565b5b9050919050565b60606000805461083e9061385e565b80601f016020809104026020016040519081016040528092919081815260200182805461086a9061385e565b80156108b75780601f1061088c576101008083540402835291602001916108b7565b820191906000526020600020905b81548152906001019060200180831161089a57829003601f168201915b5050505050905090565b60006108cc82612072565b6004600083815260200190815260200160002060009054906101000a900473ffffffffffffffffffffffffffffffffffffffff169050919050565b600061091282611021565b90508073ffffffffffffffffffffffffffffffffffffffff168373ffffffffffffffffffffffffffffffffffffffff1603610982576040517f08c379a000000000000000000000000000000000000000000000000000000000815260040161097990613901565b60405180910390fd5b8073ffffffffffffffffffffffffffffffffffffffff166109a16120bd565b73ffffffffffffffffffffffffffffffffffffffff1614806109d057506109cf816109ca6120bd565b611b92565b5b610a0f576040517f08c379a0000000000000000000000000000000000000000000000000000000008152600401610a0690613993565b60405180910390fd5b610a1983836120c5565b505050565b600a6020528060005260406000206000915090508060000160009054906101000a900473ffffffffffffffffffffffffffffffffffffffff1690806001018054610a679061385e565b80601f0160208091040260200160405190810160405280929190818152602001828054610a939061385e565b8015610ae05780601f10610ab557610100808354040283529160200191610ae0565b820191906000526020600020905b815481529060010190602001808311610ac357829003601f168201915b505050505090806002015490806003015490806004015490806005018054610b079061385e565b80601f0160208091040260200160405190810160405280929190818152602001828054610b339061385e565b8015610b805780601f10610b5557610100808354040283529160200191610b80565b820191906000526020600020905b815481529060010190602001808311610b6357829003601f168201915b5050505050905086565b60096020528060005260406000206000915090505481565b610bb3610bad6120bd565b8261217e565b610bf2576040517f08c379a0000000000000000000000000000000000000000000000000000000008152600401610be990613a25565b60405180910390fd5b610bfd838383612213565b505050565b600d8181548110610c1257600080fd5b906000526020600020016000915054906101000a900473ffffffffffffffffffffffffffffffffffffffff1681565b60606000600d80549050905060008167ffffffffffffffff811115610c6957610c686134fb565b5b604051908082528060200260200182016040528015610ca257816020015b610c8f612e1a565b815260200190600190039081610c875790505b50905060005b82811015610f0157600b6000600d8381548110610cc857610cc7613a45565b5b9060005260206000200160009054906101000a900473ffffffffffffffffffffffffffffffffffffffff1673ffffffffffffffffffffffffffffffffffffffff1673ffffffffffffffffffffffffffffffffffffffff1681526020019081526020016000206040518060c00160405290816000820160009054906101000a900473ffffffffffffffffffffffffffffffffffffffff1673ffffffffffffffffffffffffffffffffffffffff1673ffffffffffffffffffffffffffffffffffffffff168152602001600182018054610d9e9061385e565b80601f0160208091040260200160405190810160405280929190818152602001828054610dca9061385e565b8015610e175780601f10610dec57610100808354040283529160200191610e17565b820191906000526020600020905b815481529060010190602001808311610dfa57829003601f168201915b50505050508152602001600282015481526020016003820154815260200160048201548152602001600582018054610e4e9061385e565b80601f0160208091040260200160405190810160405280929190818152602001828054610e7a9061385e565b8015610ec75780601f10610e9c57610100808354040283529160200191610ec7565b820191906000526020600020905b815481529060010190602001808311610eaa57829003601f168201915b505050505081525050828281518110610ee357610ee2613a45565b5b60200260200101819052508080610ef990613aa3565b915050610ca8565b50809250505090565b610f25838383604051806020016040528060008152506115cc565b505050565b610f3381611021565b73ffffffffffffffffffffffffffffffffffffffff163373ffffffffffffffffffffffffffffffffffffffff1614610fa0576040517f08c379a0000000000000000000000000000000000000000000000000000000008152600401610f9790613b37565b60405180910390fd5b600a6000828152602001908152602001600020600080820160006101000a81549073ffffffffffffffffffffffffffffffffffffffff0219169055600182016000610feb9190612e66565b6002820160009055600382016000905560048201600090556005820160006110139190612e66565b505061101e81612479565b50565b6000806002600084815260200190815260200160002060009054906101000a900473ffffffffffffffffffffffffffffffffffffffff169050600073ffffffffffffffffffffffffffffffffffffffff168173ffffffffffffffffffffffffffffffffffffffff16036110c9576040517f08c379a00000000000000000000000000000000000000000000000000000000081526004016110c090613ba3565b60405180910390fd5b80915050919050565b6000803411611116576040517f08c379a000000000000000000000000000000000000000000000000000000000815260040161110d90613c0f565b60405180910390fd5b8173ffffffffffffffffffffffffffffffffffffffff163373ffffffffffffffffffffffffffffffffffffffff1603611184576040517f08c379a000000000000000000000000000000000000000000000000000000000815260040161117b90613c7b565b60405180910390fd5b6000600b60008473ffffffffffffffffffffffffffffffffffffffff1673ffffffffffffffffffffffffffffffffffffffff16815260200190815260200160002090508273ffffffffffffffffffffffffffffffffffffffff166108fc349081150290604051600060405180830381858888f1935050505015801561120d573d6000803e3d6000fd5b50348160020160008282546112229190613c9b565b925050819055915050919050565b60008073ffffffffffffffffffffffffffffffffffffffff168273ffffffffffffffffffffffffffffffffffffffff16036112a0576040517f08c379a000000000000000000000000000000000000000000000000000000000815260040161129790613d41565b60405180910390fd5b600360008373ffffffffffffffffffffffffffffffffffffffff1673ffffffffffffffffffffffffffffffffffffffff168152602001908152602001600020549050919050565b60006112f282611021565b73ffffffffffffffffffffffffffffffffffffffff163373ffffffffffffffffffffffffffffffffffffffff161461135f576040517f08c379a000000000000000000000000000000000000000000000000000000000815260040161135690613dd3565b60405180910390fd5b6000600b60003373ffffffffffffffffffffffffffffffffffffffff1673ffffffffffffffffffffffffffffffffffffffff16815260200190815260200160002090508281600301819055915050919050565b6060600180546113c19061385e565b80601f01602080910402602001604051908101604052809291908181526020018280546113ed9061385e565b801561143a5780601f1061140f5761010080835404028352916020019161143a565b820191906000526020600020905b81548152906001019060200180831161141d57829003601f168201915b5050505050905090565b60085481565b61145c6114556120bd565b83836124cc565b5050565b600b6020528060005260406000206000915090508060000160009054906101000a900473ffffffffffffffffffffffffffffffffffffffff16908060010180546114a99061385e565b80601f01602080910402602001604051908101604052809291908181526020018280546114d59061385e565b80156115225780601f106114f757610100808354040283529160200191611522565b820191906000526020600020905b81548152906001019060200180831161150557829003601f168201915b5050505050908060020154908060030154908060040154908060050180546115499061385e565b80601f01602080910402602001604051908101604052809291908181526020018280546115759061385e565b80156115c25780601f10611597576101008083540402835291602001916115c2565b820191906000526020600020905b8154815290600101906020018083116115a557829003601f168201915b5050505050905086565b6115dd6115d76120bd565b8361217e565b61161c576040517f08c379a000000000000000000000000000000000000000000000000000000000815260040161161390613a25565b60405180910390fd5b61162884848484612638565b50505050565b606061163982612072565b60006006600084815260200190815260200160002080546116599061385e565b80601f01602080910402602001604051908101604052809291908181526020018280546116859061385e565b80156116d25780601f106116a7576101008083540402835291602001916116d2565b820191906000526020600020905b8154815290600101906020018083116116b557829003601f168201915b5050505050905060006116e3612694565b905060008151036116f857819250505061173b565b60008251111561172d578082604051602001611715929190613e2f565b6040516020818303038152906040529250505061173b565b611736846126ab565b925050505b919050565b600061174c6007612713565b6008600081548092919061175f90613aa3565b919050555060006117706007612729565b905061177c3382612737565b6040518060c001604052803373ffffffffffffffffffffffffffffffffffffffff168152602001604051806020016040528060008152508152602001600081526020018281526020016000815260200160405180602001604052806000815250815250600a600083815260200190815260200160002060008201518160000160006101000a81548173ffffffffffffffffffffffffffffffffffffffff021916908373ffffffffffffffffffffffffffffffffffffffff160217905550602082015181600101908161184e9190613fff565b5060408201518160020155606082015181600301556080820151816004015560a08201518160050190816118829190613fff565b509050506118908184612910565b6040518060c001604052803373ffffffffffffffffffffffffffffffffffffffff168152602001604051806020016040528060008152508152602001600081526020018281526020016000815260200160405180602001604052806000815250815250600b60003373ffffffffffffffffffffffffffffffffffffffff1673ffffffffffffffffffffffffffffffffffffffff16815260200190815260200160002060008201518160000160006101000a81548173ffffffffffffffffffffffffffffffffffffffff021916908373ffffffffffffffffffffffffffffffffffffffff160217905550602082015181600101908161198e9190613fff565b5060408201518160020155606082015181600301556080820151816004015560a08201518160050190816119c29190613fff565b50905050600d339080600181540180825580915050600190039060005260206000200160009091909190916101000a81548173ffffffffffffffffffffffffffffffffffffffff021916908373ffffffffffffffffffffffffffffffffffffffff160217905550611a32816112e7565b5080915050919050565b60608273ffffffffffffffffffffffffffffffffffffffff163373ffffffffffffffffffffffffffffffffffffffff1614611aac576040517f08c379a0000000000000000000000000000000000000000000000000000000008152600401611aa39061411d565b60405180910390fd5b6000600b60003373ffffffffffffffffffffffffffffffffffffffff1673ffffffffffffffffffffffffffffffffffffffff168152602001908152602001600020905082816005019081611b009190613fff565b8054611b0b9061385e565b80601f0160208091040260200160405190810160405280929190818152602001828054611b379061385e565b8015611b845780601f10611b5957610100808354040283529160200191611b84565b820191906000526020600020905b815481529060010190602001808311611b6757829003601f168201915b505050505091505092915050565b6000600560008473ffffffffffffffffffffffffffffffffffffffff1673ffffffffffffffffffffffffffffffffffffffff16815260200190815260200160002060008373ffffffffffffffffffffffffffffffffffffffff1673ffffffffffffffffffffffffffffffffffffffff16815260200190815260200160002060009054906101000a900460ff16905092915050565b60606000600b60008573ffffffffffffffffffffffffffffffffffffffff1673ffffffffffffffffffffffffffffffffffffffff16815260200190815260200160002090508060000160009054906101000a900473ffffffffffffffffffffffffffffffffffffffff1673ffffffffffffffffffffffffffffffffffffffff163373ffffffffffffffffffffffffffffffffffffffff1614611cfd576040517f08c379a0000000000000000000000000000000000000000000000000000000008152600401611cf490614189565b60405180910390fd5b82816001019081611d0e9190613fff565b8054611d199061385e565b80601f0160208091040260200160405190810160405280929190818152602001828054611d459061385e565b8015611d925780601f10611d6757610100808354040283529160200191611d92565b820191906000526020600020905b815481529060010190602001808311611d7557829003601f168201915b505050505091505092915050565b60008173ffffffffffffffffffffffffffffffffffffffff163373ffffffffffffffffffffffffffffffffffffffff1603611e10576040517f08c379a0000000000000000000000000000000000000000000000000000000008152600401611e079061411d565b60405180910390fd5b60001515600c60003373ffffffffffffffffffffffffffffffffffffffff1673ffffffffffffffffffffffffffffffffffffffff16815260200190815260200160002060008473ffffffffffffffffffffffffffffffffffffffff1673ffffffffffffffffffffffffffffffffffffffff16815260200190815260200160002060009054906101000a900460ff16151514611ee0576040517f08c379a0000000000000000000000000000000000000000000000000000000008152600401611ed7906141f5565b60405180910390fd5b6001600c60003373ffffffffffffffffffffffffffffffffffffffff1673ffffffffffffffffffffffffffffffffffffffff16815260200190815260200160002060008473ffffffffffffffffffffffffffffffffffffffff1673ffffffffffffffffffffffffffffffffffffffff16815260200190815260200160002060006101000a81548160ff0219169083151502179055506000600b60008473ffffffffffffffffffffffffffffffffffffffff1673ffffffffffffffffffffffffffffffffffffffff1681526020019081526020016000209050806004016000815480929190611fcd90613aa3565b91905055915050919050565b600c6020528160005260406000206020528060005260406000206000915091509054906101000a900460ff1681565b60007f01ffc9a7000000000000000000000000000000000000000000000000000000007bffffffffffffffffffffffffffffffffffffffffffffffffffffffff1916827bffffffffffffffffffffffffffffffffffffffffffffffffffffffff1916149050919050565b61207b8161297d565b6120ba576040517f08c379a00000000000000000000000000000000000000000000000000000000081526004016120b190613ba3565b60405180910390fd5b50565b600033905090565b816004600083815260200190815260200160002060006101000a81548173ffffffffffffffffffffffffffffffffffffffff021916908373ffffffffffffffffffffffffffffffffffffffff160217905550808273ffffffffffffffffffffffffffffffffffffffff1661213883611021565b73ffffffffffffffffffffffffffffffffffffffff167f8c5be1e5ebec7d5bd14f71427d1e84f3dd0314c0f7b2291e5b200ac8c7c3b92560405160405180910390a45050565b60008061218a83611021565b90508073ffffffffffffffffffffffffffffffffffffffff168473ffffffffffffffffffffffffffffffffffffffff1614806121cc57506121cb8185611b92565b5b8061220a57508373ffffffffffffffffffffffffffffffffffffffff166121f2846108c1565b73ffffffffffffffffffffffffffffffffffffffff16145b91505092915050565b8273ffffffffffffffffffffffffffffffffffffffff1661223382611021565b73ffffffffffffffffffffffffffffffffffffffff1614612289576040517f08c379a000000000000000000000000000000000000000000000000000000000815260040161228090614287565b60405180910390fd5b600073ffffffffffffffffffffffffffffffffffffffff168273ffffffffffffffffffffffffffffffffffffffff16036122f8576040517f08c379a00000000000000000000000000000000000000000000000000000000081526004016122ef90614319565b60405180910390fd5b6123038383836129e9565b61230e6000826120c5565b6001600360008573ffffffffffffffffffffffffffffffffffffffff1673ffffffffffffffffffffffffffffffffffffffff168152602001908152602001600020600082825461235e9190614339565b925050819055506001600360008473ffffffffffffffffffffffffffffffffffffffff1673ffffffffffffffffffffffffffffffffffffffff16815260200190815260200160002060008282546123b59190613c9b565b92505081905550816002600083815260200190815260200160002060006101000a81548173ffffffffffffffffffffffffffffffffffffffff021916908373ffffffffffffffffffffffffffffffffffffffff160217905550808273ffffffffffffffffffffffffffffffffffffffff168473ffffffffffffffffffffffffffffffffffffffff167fddf252ad1be2c89b69c2b068fc378daa952ba7f163c4a11628f55a4df523b3ef60405160405180910390a46124748383836129ee565b505050565b612482816129f3565b60006006600083815260200190815260200160002080546124a29061385e565b9050146124c9576006600082815260200190815260200160002060006124c89190612e66565b5b50565b8173ffffffffffffffffffffffffffffffffffffffff168373ffffffffffffffffffffffffffffffffffffffff160361253a576040517f08c379a0000000000000000000000000000000000000000000000000000000008152600401612531906143b9565b60405180910390fd5b80600560008573ffffffffffffffffffffffffffffffffffffffff1673ffffffffffffffffffffffffffffffffffffffff16815260200190815260200160002060008473ffffffffffffffffffffffffffffffffffffffff1673ffffffffffffffffffffffffffffffffffffffff16815260200190815260200160002060006101000a81548160ff0219169083151502179055508173ffffffffffffffffffffffffffffffffffffffff168373ffffffffffffffffffffffffffffffffffffffff167f17307eab39ab6107e8899845ad3d59bd9653f200f220920489ca2b5937696c318360405161262b9190612f77565b60405180910390a3505050565b612643848484612213565b61264f84848484612b10565b61268e576040517f08c379a00000000000000000000000000000000000000000000000000000000081526004016126859061444b565b60405180910390fd5b50505050565b606060405180602001604052806000815250905090565b60606126b682612072565b60006126c0612694565b905060008151116126e0576040518060200160405280600081525061270b565b806126ea84612c97565b6040516020016126fb929190613e2f565b6040516020818303038152906040525b915050919050565b6001816000016000828254019250508190555050565b600081600001549050919050565b600073ffffffffffffffffffffffffffffffffffffffff168273ffffffffffffffffffffffffffffffffffffffff16036127a6576040517f08c379a000000000000000000000000000000000000000000000000000000000815260040161279d906144b7565b60405180910390fd5b6127af8161297d565b156127ef576040517f08c379a00000000000000000000000000000000000000000000000000000000081526004016127e690614523565b60405180910390fd5b6127fb600083836129e9565b6001600360008473ffffffffffffffffffffffffffffffffffffffff1673ffffffffffffffffffffffffffffffffffffffff168152602001908152602001600020600082825461284b9190613c9b565b92505081905550816002600083815260200190815260200160002060006101000a81548173ffffffffffffffffffffffffffffffffffffffff021916908373ffffffffffffffffffffffffffffffffffffffff160217905550808273ffffffffffffffffffffffffffffffffffffffff16600073ffffffffffffffffffffffffffffffffffffffff167fddf252ad1be2c89b69c2b068fc378daa952ba7f163c4a11628f55a4df523b3ef60405160405180910390a461290c600083836129ee565b5050565b6129198261297d565b612958576040517f08c379a000000000000000000000000000000000000000000000000000000000815260040161294f906145b5565b60405180910390fd5b806006600084815260200190815260200160002090816129789190613fff565b505050565b60008073ffffffffffffffffffffffffffffffffffffffff166002600084815260200190815260200160002060009054906101000a900473ffffffffffffffffffffffffffffffffffffffff1673ffffffffffffffffffffffffffffffffffffffff1614159050919050565b505050565b505050565b60006129fe82611021565b9050612a0c816000846129e9565b612a176000836120c5565b6001600360008373ffffffffffffffffffffffffffffffffffffffff1673ffffffffffffffffffffffffffffffffffffffff1681526020019081526020016000206000828254612a679190614339565b925050819055506002600083815260200190815260200160002060006101000a81549073ffffffffffffffffffffffffffffffffffffffff021916905581600073ffffffffffffffffffffffffffffffffffffffff168273ffffffffffffffffffffffffffffffffffffffff167fddf252ad1be2c89b69c2b068fc378daa952ba7f163c4a11628f55a4df523b3ef60405160405180910390a4612b0c816000846129ee565b5050565b6000612b318473ffffffffffffffffffffffffffffffffffffffff16612df7565b15612c8a578373ffffffffffffffffffffffffffffffffffffffff1663150b7a02612b5a6120bd565b8786866040518563ffffffff1660e01b8152600401612b7c949392919061462a565b6020604051808303816000875af1925050508015612bb857506040513d601f19601f82011682018060405250810190612bb5919061468b565b60015b612c3a573d8060008114612be8576040519150601f19603f3d011682016040523d82523d6000602084013e612bed565b606091505b506000815103612c32576040517f08c379a0000000000000000000000000000000000000000000000000000000008152600401612c299061444b565b60405180910390fd5b805181602001fd5b63150b7a0260e01b7bffffffffffffffffffffffffffffffffffffffffffffffffffffffff1916817bffffffffffffffffffffffffffffffffffffffffffffffffffffffff191614915050612c8f565b600190505b949350505050565b606060008203612cde576040518060400160405280600181526020017f30000000000000000000000000000000000000000000000000000000000000008152509050612df2565b600082905060005b60008214612d10578080612cf990613aa3565b915050600a82612d0991906146e7565b9150612ce6565b60008167ffffffffffffffff811115612d2c57612d2b6134fb565b5b6040519080825280601f01601f191660200182016040528015612d5e5781602001600182028036833780820191505090505b5090505b60008514612deb57600182612d779190614339565b9150600a85612d869190614718565b6030612d929190613c9b565b60f81b818381518110612da857612da7613a45565b5b60200101907effffffffffffffffffffffffffffffffffffffffffffffffffffffffffffff1916908160001a905350600a85612de491906146e7565b9450612d62565b8093505050505b919050565b6000808273ffffffffffffffffffffffffffffffffffffffff163b119050919050565b6040518060c00160405280600073ffffffffffffffffffffffffffffffffffffffff16815260200160608152602001600081526020016000815260200160008152602001606081525090565b508054612e729061385e565b6000825580601f10612e845750612ea3565b601f016020900490600052602060002090810190612ea29190612ea6565b5b50565b5b80821115612ebf576000816000905550600101612ea7565b5090565b6000604051905090565b600080fd5b600080fd5b60007fffffffff0000000000000000000000000000000000000000000000000000000082169050919050565b612f0c81612ed7565b8114612f1757600080fd5b50565b600081359050612f2981612f03565b92915050565b600060208284031215612f4557612f44612ecd565b5b6000612f5384828501612f1a565b91505092915050565b60008115159050919050565b612f7181612f5c565b82525050565b6000602082019050612f8c6000830184612f68565b92915050565b600081519050919050565b600082825260208201905092915050565b60005b83811015612fcc578082015181840152602081019050612fb1565b60008484015250505050565b6000601f19601f8301169050919050565b6000612ff482612f92565b612ffe8185612f9d565b935061300e818560208601612fae565b61301781612fd8565b840191505092915050565b6000602082019050818103600083015261303c8184612fe9565b905092915050565b6000819050919050565b61305781613044565b811461306257600080fd5b50565b6000813590506130748161304e565b92915050565b6000602082840312156130905761308f612ecd565b5b600061309e84828501613065565b91505092915050565b600073ffffffffffffffffffffffffffffffffffffffff82169050919050565b60006130d2826130a7565b9050919050565b6130e2816130c7565b82525050565b60006020820190506130fd60008301846130d9565b92915050565b61310c816130c7565b811461311757600080fd5b50565b60008135905061312981613103565b92915050565b6000806040838503121561314657613145612ecd565b5b60006131548582860161311a565b925050602061316585828601613065565b9150509250929050565b600061317a826130a7565b9050919050565b61318a8161316f565b82525050565b61319981613044565b82525050565b600060c0820190506131b46000830189613181565b81810360208301526131c68188612fe9565b90506131d56040830187613190565b6131e26060830186613190565b6131ef6080830185613190565b81810360a08301526132018184612fe9565b9050979650505050505050565b60006020828403121561322457613223612ecd565b5b60006132328482850161311a565b91505092915050565b60006020820190506132506000830184613190565b92915050565b60008060006060848603121561326f5761326e612ecd565b5b600061327d8682870161311a565b935050602061328e8682870161311a565b925050604061329f86828701613065565b9150509250925092565b600081519050919050565b600082825260208201905092915050565b6000819050602082019050919050565b6132de8161316f565b82525050565b600082825260208201905092915050565b600061330082612f92565b61330a81856132e4565b935061331a818560208601612fae565b61332381612fd8565b840191505092915050565b61333781613044565b82525050565b600060c08301600083015161335560008601826132d5565b506020830151848203602086015261336d82826132f5565b9150506040830151613382604086018261332e565b506060830151613395606086018261332e565b5060808301516133a8608086018261332e565b5060a083015184820360a08601526133c082826132f5565b9150508091505092915050565b60006133d9838361333d565b905092915050565b6000602082019050919050565b60006133f9826132a9565b61340381856132b4565b935083602082028501613415856132c5565b8060005b85811015613451578484038952815161343285826133cd565b945061343d836133e1565b925060208a01995050600181019050613419565b50829750879550505050505092915050565b6000602082019050818103600083015261347d81846133ee565b905092915050565b61348e81612f5c565b811461349957600080fd5b50565b6000813590506134ab81613485565b92915050565b600080604083850312156134c8576134c7612ecd565b5b60006134d68582860161311a565b92505060206134e78582860161349c565b9150509250929050565b600080fd5b600080fd5b7f4e487b7100000000000000000000000000000000000000000000000000000000600052604160045260246000fd5b61353382612fd8565b810181811067ffffffffffffffff82111715613552576135516134fb565b5b80604052505050565b6000613565612ec3565b9050613571828261352a565b919050565b600067ffffffffffffffff821115613591576135906134fb565b5b61359a82612fd8565b9050602081019050919050565b82818337600083830152505050565b60006135c96135c484613576565b61355b565b9050828152602081018484840111156135e5576135e46134f6565b5b6135f08482856135a7565b509392505050565b600082601f83011261360d5761360c6134f1565b5b813561361d8482602086016135b6565b91505092915050565b600080600080608085870312156136405761363f612ecd565b5b600061364e8782880161311a565b945050602061365f8782880161311a565b935050604061367087828801613065565b925050606085013567ffffffffffffffff81111561369157613690612ed2565b5b61369d878288016135f8565b91505092959194509250565b600067ffffffffffffffff8211156136c4576136c36134fb565b5b6136cd82612fd8565b9050602081019050919050565b60006136ed6136e8846136a9565b61355b565b905082815260208101848484011115613709576137086134f6565b5b6137148482856135a7565b509392505050565b600082601f830112613731576137306134f1565b5b81356137418482602086016136da565b91505092915050565b6000602082840312156137605761375f612ecd565b5b600082013567ffffffffffffffff81111561377e5761377d612ed2565b5b61378a8482850161371c565b91505092915050565b600080604083850312156137aa576137a9612ecd565b5b60006137b88582860161311a565b925050602083013567ffffffffffffffff8111156137d9576137d8612ed2565b5b6137e58582860161371c565b9150509250929050565b6000806040838503121561380657613805612ecd565b5b60006138148582860161311a565b92505060206138258582860161311a565b9150509250929050565b7f4e487b7100000000000000000000000000000000000000000000000000000000600052602260045260246000fd5b6000600282049050600182168061387657607f821691505b6020821081036138895761388861382f565b5b50919050565b7f4552433732313a20617070726f76616c20746f2063757272656e74206f776e6560008201527f7200000000000000000000000000000000000000000000000000000000000000602082015250565b60006138eb602183612f9d565b91506138f68261388f565b604082019050919050565b6000602082019050818103600083015261391a816138de565b9050919050565b7f4552433732313a20617070726f76652063616c6c6572206973206e6f7420746f60008201527f6b656e206f776e6572206e6f7220617070726f76656420666f7220616c6c0000602082015250565b600061397d603e83612f9d565b915061398882613921565b604082019050919050565b600060208201905081810360008301526139ac81613970565b9050919050565b7f4552433732313a2063616c6c6572206973206e6f7420746f6b656e206f776e6560008201527f72206e6f7220617070726f766564000000000000000000000000000000000000602082015250565b6000613a0f602e83612f9d565b9150613a1a826139b3565b604082019050919050565b60006020820190508181036000830152613a3e81613a02565b9050919050565b7f4e487b7100000000000000000000000000000000000000000000000000000000600052603260045260246000fd5b7f4e487b7100000000000000000000000000000000000000000000000000000000600052601160045260246000fd5b6000613aae82613044565b91507fffffffffffffffffffffffffffffffffffffffffffffffffffffffffffffffff8203613ae057613adf613a74565b5b600182019050919050565b7f6d757374206265206f776e657220746f206275726e0000000000000000000000600082015250565b6000613b21601583612f9d565b9150613b2c82613aeb565b602082019050919050565b60006020820190508181036000830152613b5081613b14565b9050919050565b7f4552433732313a20696e76616c696420746f6b656e2049440000000000000000600082015250565b6000613b8d601883612f9d565b9150613b9882613b57565b602082019050919050565b60006020820190508181036000830152613bbc81613b80565b9050919050565b7f63616e6e6f742074697020300000000000000000000000000000000000000000600082015250565b6000613bf9600c83612f9d565b9150613c0482613bc3565b602082019050919050565b60006020820190508181036000830152613c2881613bec565b9050919050565b7f63616e6e6f742074697020796f757273656c6600000000000000000000000000600082015250565b6000613c65601383612f9d565b9150613c7082613c2f565b602082019050919050565b60006020820190508181036000830152613c9481613c58565b9050919050565b6000613ca682613044565b9150613cb183613044565b9250828201905080821115613cc957613cc8613a74565b5b92915050565b7f4552433732313a2061646472657373207a65726f206973206e6f74206120766160008201527f6c6964206f776e65720000000000000000000000000000000000000000000000602082015250565b6000613d2b602983612f9d565b9150613d3682613ccf565b604082019050919050565b60006020820190508181036000830152613d5a81613d1e565b9050919050565b7f6f776e65722063616e206f6e6c79207365742070726f66696c6520746865792060008201527f6f776e0000000000000000000000000000000000000000000000000000000000602082015250565b6000613dbd602383612f9d565b9150613dc882613d61565b604082019050919050565b60006020820190508181036000830152613dec81613db0565b9050919050565b600081905092915050565b6000613e0982612f92565b613e138185613df3565b9350613e23818560208601612fae565b80840191505092915050565b6000613e3b8285613dfe565b9150613e478284613dfe565b91508190509392505050565b60008190508160005260206000209050919050565b60006020601f8301049050919050565b600082821b905092915050565b600060088302613eb57fffffffffffffffffffffffffffffffffffffffffffffffffffffffffffffffff82613e78565b613ebf8683613e78565b95508019841693508086168417925050509392505050565b6000819050919050565b6000613efc613ef7613ef284613044565b613ed7565b613044565b9050919050565b6000819050919050565b613f1683613ee1565b613f2a613f2282613f03565b848454613e85565b825550505050565b600090565b613f3f613f32565b613f4a818484613f0d565b505050565b5b81811015613f6e57613f63600082613f37565b600181019050613f50565b5050565b601f821115613fb357613f8481613e53565b613f8d84613e68565b81016020851015613f9c578190505b613fb0613fa885613e68565b830182613f4f565b50505b505050565b600082821c905092915050565b6000613fd660001984600802613fb8565b1980831691505092915050565b6000613fef8383613fc5565b9150826002028217905092915050565b61400882612f92565b67ffffffffffffffff811115614021576140206134fb565b5b61402b825461385e565b614036828285613f72565b600060209050601f8311600181146140695760008415614057578287015190505b6140618582613fe3565b8655506140c9565b601f19841661407786613e53565b60005b8281101561409f5784890151825560018201915060208501945060208101905061407a565b868310156140bc57848901516140b8601f891682613fc5565b8355505b6001600288020188555050505b505050505050565b7f63616e6e6f74206c696b6520796f7572206f776e2070726f66696c6500000000600082015250565b6000614107601c83612f9d565b9150614112826140d1565b602082019050919050565b60006020820190508181036000830152614136816140fa565b9050919050565b7f63616e6e6f742073657420736f6d656f6e6520656c736573206d657373616765600082015250565b6000614173602083612f9d565b915061417e8261413d565b602082019050919050565b600060208201905081810360008301526141a281614166565b9050919050565b7f616c7265616479206c696b656420617274697374000000000000000000000000600082015250565b60006141df601483612f9d565b91506141ea826141a9565b602082019050919050565b6000602082019050818103600083015261420e816141d2565b9050919050565b7f4552433732313a207472616e736665722066726f6d20696e636f72726563742060008201527f6f776e6572000000000000000000000000000000000000000000000000000000602082015250565b6000614271602583612f9d565b915061427c82614215565b604082019050919050565b600060208201905081810360008301526142a081614264565b9050919050565b7f4552433732313a207472616e7366657220746f20746865207a65726f2061646460008201527f7265737300000000000000000000000000000000000000000000000000000000602082015250565b6000614303602483612f9d565b915061430e826142a7565b604082019050919050565b60006020820190508181036000830152614332816142f6565b9050919050565b600061434482613044565b915061434f83613044565b925082820390508181111561436757614366613a74565b5b92915050565b7f4552433732313a20617070726f766520746f2063616c6c657200000000000000600082015250565b60006143a3601983612f9d565b91506143ae8261436d565b602082019050919050565b600060208201905081810360008301526143d281614396565b9050919050565b7f4552433732313a207472616e7366657220746f206e6f6e20455243373231526560008201527f63656976657220696d706c656d656e7465720000000000000000000000000000602082015250565b6000614435603283612f9d565b9150614440826143d9565b604082019050919050565b6000602082019050818103600083015261446481614428565b9050919050565b7f4552433732313a206d696e7420746f20746865207a65726f2061646472657373600082015250565b60006144a1602083612f9d565b91506144ac8261446b565b602082019050919050565b600060208201905081810360008301526144d081614494565b9050919050565b7f4552433732313a20746f6b656e20616c7265616479206d696e74656400000000600082015250565b600061450d601c83612f9d565b9150614518826144d7565b602082019050919050565b6000602082019050818103600083015261453c81614500565b9050919050565b7f45524337323155524953746f726167653a2055524920736574206f66206e6f6e60008201527f6578697374656e7420746f6b656e000000000000000000000000000000000000602082015250565b600061459f602e83612f9d565b91506145aa82614543565b604082019050919050565b600060208201905081810360008301526145ce81614592565b9050919050565b600081519050919050565b600082825260208201905092915050565b60006145fc826145d5565b61460681856145e0565b9350614616818560208601612fae565b61461f81612fd8565b840191505092915050565b600060808201905061463f60008301876130d9565b61464c60208301866130d9565b6146596040830185613190565b818103606083015261466b81846145f1565b905095945050505050565b60008151905061468581612f03565b92915050565b6000602082840312156146a1576146a0612ecd565b5b60006146af84828501614676565b91505092915050565b7f4e487b7100000000000000000000000000000000000000000000000000000000600052601260045260246000fd5b60006146f282613044565b91506146fd83613044565b92508261470d5761470c6146b8565b5b828204905092915050565b600061472382613044565b915061472e83613044565b92508261473e5761473d6146b8565b5b82820690509291505056fea2646970667358221220b8282484c240ac990e73ac68ac7b54ae6fcd07800fa5757a151e5ecc7420c2ea64736f6c63430008110033",
  "linkReferences": {},
  "deployedLinkReferences": {}
}